{
  "_format": "hh-sol-artifact-1",
  "contractName": "Governance",
  "sourceName": "contracts/Governance.sol",
  "abi": [
    {
      "inputs": [
        {
          "internalType": "contract IVotes",
          "name": "_token",
          "type": "address"
        },
        {
          "internalType": "contract TimelockController",
          "name": "_timelock",
          "type": "address"
        }
      ],
      "stateMutability": "nonpayable",
      "type": "constructor"
    },
    {
      "anonymous": false,
      "inputs": [
        {
          "indexed": false,
          "internalType": "uint256",
          "name": "proposalId",
          "type": "uint256"
        }
      ],
      "name": "ProposalCanceled",
      "type": "event"
    },
    {
      "anonymous": false,
      "inputs": [
        {
          "indexed": false,
          "internalType": "uint256",
          "name": "proposalId",
          "type": "uint256"
        },
        {
          "indexed": false,
          "internalType": "address",
          "name": "proposer",
          "type": "address"
        },
        {
          "indexed": false,
          "internalType": "address[]",
          "name": "targets",
          "type": "address[]"
        },
        {
          "indexed": false,
          "internalType": "uint256[]",
          "name": "values",
          "type": "uint256[]"
        },
        {
          "indexed": false,
          "internalType": "string[]",
          "name": "signatures",
          "type": "string[]"
        },
        {
          "indexed": false,
          "internalType": "bytes[]",
          "name": "calldatas",
          "type": "bytes[]"
        },
        {
          "indexed": false,
          "internalType": "uint256",
          "name": "startBlock",
          "type": "uint256"
        },
        {
          "indexed": false,
          "internalType": "uint256",
          "name": "endBlock",
          "type": "uint256"
        },
        {
          "indexed": false,
          "internalType": "string",
          "name": "description",
          "type": "string"
        }
      ],
      "name": "ProposalCreated",
      "type": "event"
    },
    {
      "anonymous": false,
      "inputs": [
        {
          "indexed": false,
          "internalType": "uint256",
          "name": "proposalId",
          "type": "uint256"
        }
      ],
      "name": "ProposalExecuted",
      "type": "event"
    },
    {
      "anonymous": false,
      "inputs": [
        {
          "indexed": false,
          "internalType": "uint256",
          "name": "proposalId",
          "type": "uint256"
        },
        {
          "indexed": false,
          "internalType": "uint256",
          "name": "eta",
          "type": "uint256"
        }
      ],
      "name": "ProposalQueued",
      "type": "event"
    },
    {
      "anonymous": false,
      "inputs": [
        {
          "indexed": false,
          "internalType": "uint256",
          "name": "oldProposalThreshold",
          "type": "uint256"
        },
        {
          "indexed": false,
          "internalType": "uint256",
          "name": "newProposalThreshold",
          "type": "uint256"
        }
      ],
      "name": "ProposalThresholdSet",
      "type": "event"
    },
    {
      "anonymous": false,
      "inputs": [
        {
          "indexed": false,
          "internalType": "uint256",
          "name": "oldQuorumNumerator",
          "type": "uint256"
        },
        {
          "indexed": false,
          "internalType": "uint256",
          "name": "newQuorumNumerator",
          "type": "uint256"
        }
      ],
      "name": "QuorumNumeratorUpdated",
      "type": "event"
    },
    {
      "anonymous": false,
      "inputs": [
        {
          "indexed": false,
          "internalType": "address",
          "name": "oldTimelock",
          "type": "address"
        },
        {
          "indexed": false,
          "internalType": "address",
          "name": "newTimelock",
          "type": "address"
        }
      ],
      "name": "TimelockChange",
      "type": "event"
    },
    {
      "anonymous": false,
      "inputs": [
        {
          "indexed": true,
          "internalType": "address",
          "name": "voter",
          "type": "address"
        },
        {
          "indexed": false,
          "internalType": "uint256",
          "name": "proposalId",
          "type": "uint256"
        },
        {
          "indexed": false,
          "internalType": "uint8",
          "name": "support",
          "type": "uint8"
        },
        {
          "indexed": false,
          "internalType": "uint256",
          "name": "weight",
          "type": "uint256"
        },
        {
          "indexed": false,
          "internalType": "string",
          "name": "reason",
          "type": "string"
        }
      ],
      "name": "VoteCast",
      "type": "event"
    },
    {
      "anonymous": false,
      "inputs": [
        {
          "indexed": false,
          "internalType": "uint256",
          "name": "oldVotingDelay",
          "type": "uint256"
        },
        {
          "indexed": false,
          "internalType": "uint256",
          "name": "newVotingDelay",
          "type": "uint256"
        }
      ],
      "name": "VotingDelaySet",
      "type": "event"
    },
    {
      "anonymous": false,
      "inputs": [
        {
          "indexed": false,
          "internalType": "uint256",
          "name": "oldVotingPeriod",
          "type": "uint256"
        },
        {
          "indexed": false,
          "internalType": "uint256",
          "name": "newVotingPeriod",
          "type": "uint256"
        }
      ],
      "name": "VotingPeriodSet",
      "type": "event"
    },
    {
      "inputs": [],
      "name": "BALLOT_TYPEHASH",
      "outputs": [
        {
          "internalType": "bytes32",
          "name": "",
          "type": "bytes32"
        }
      ],
      "stateMutability": "view",
      "type": "function"
    },
    {
      "inputs": [],
      "name": "COUNTING_MODE",
      "outputs": [
        {
          "internalType": "string",
          "name": "",
          "type": "string"
        }
      ],
      "stateMutability": "pure",
      "type": "function"
    },
    {
      "inputs": [
        {
          "internalType": "uint256",
          "name": "proposalId",
          "type": "uint256"
        },
        {
          "internalType": "uint8",
          "name": "support",
          "type": "uint8"
        }
      ],
      "name": "castVote",
      "outputs": [
        {
          "internalType": "uint256",
          "name": "",
          "type": "uint256"
        }
      ],
      "stateMutability": "nonpayable",
      "type": "function"
    },
    {
      "inputs": [
        {
          "internalType": "uint256",
          "name": "proposalId",
          "type": "uint256"
        },
        {
          "internalType": "uint8",
          "name": "support",
          "type": "uint8"
        },
        {
          "internalType": "uint8",
          "name": "v",
          "type": "uint8"
        },
        {
          "internalType": "bytes32",
          "name": "r",
          "type": "bytes32"
        },
        {
          "internalType": "bytes32",
          "name": "s",
          "type": "bytes32"
        }
      ],
      "name": "castVoteBySig",
      "outputs": [
        {
          "internalType": "uint256",
          "name": "",
          "type": "uint256"
        }
      ],
      "stateMutability": "nonpayable",
      "type": "function"
    },
    {
      "inputs": [
        {
          "internalType": "uint256",
          "name": "proposalId",
          "type": "uint256"
        },
        {
          "internalType": "uint8",
          "name": "support",
          "type": "uint8"
        },
        {
          "internalType": "string",
          "name": "reason",
          "type": "string"
        }
      ],
      "name": "castVoteWithReason",
      "outputs": [
        {
          "internalType": "uint256",
          "name": "",
          "type": "uint256"
        }
      ],
      "stateMutability": "nonpayable",
      "type": "function"
    },
    {
      "inputs": [
        {
          "internalType": "address[]",
          "name": "targets",
          "type": "address[]"
        },
        {
          "internalType": "uint256[]",
          "name": "values",
          "type": "uint256[]"
        },
        {
          "internalType": "bytes[]",
          "name": "calldatas",
          "type": "bytes[]"
        },
        {
          "internalType": "bytes32",
          "name": "descriptionHash",
          "type": "bytes32"
        }
      ],
      "name": "execute",
      "outputs": [
        {
          "internalType": "uint256",
          "name": "",
          "type": "uint256"
        }
      ],
      "stateMutability": "payable",
      "type": "function"
    },
    {
      "inputs": [
        {
          "internalType": "address",
          "name": "account",
          "type": "address"
        },
        {
          "internalType": "uint256",
          "name": "blockNumber",
          "type": "uint256"
        }
      ],
      "name": "getVotes",
      "outputs": [
        {
          "internalType": "uint256",
          "name": "",
          "type": "uint256"
        }
      ],
      "stateMutability": "view",
      "type": "function"
    },
    {
      "inputs": [
        {
          "internalType": "uint256",
          "name": "proposalId",
          "type": "uint256"
        },
        {
          "internalType": "address",
          "name": "account",
          "type": "address"
        }
      ],
      "name": "hasVoted",
      "outputs": [
        {
          "internalType": "bool",
          "name": "",
          "type": "bool"
        }
      ],
      "stateMutability": "view",
      "type": "function"
    },
    {
      "inputs": [
        {
          "internalType": "address[]",
          "name": "targets",
          "type": "address[]"
        },
        {
          "internalType": "uint256[]",
          "name": "values",
          "type": "uint256[]"
        },
        {
          "internalType": "bytes[]",
          "name": "calldatas",
          "type": "bytes[]"
        },
        {
          "internalType": "bytes32",
          "name": "descriptionHash",
          "type": "bytes32"
        }
      ],
      "name": "hashProposal",
      "outputs": [
        {
          "internalType": "uint256",
          "name": "",
          "type": "uint256"
        }
      ],
      "stateMutability": "pure",
      "type": "function"
    },
    {
      "inputs": [],
      "name": "name",
      "outputs": [
        {
          "internalType": "string",
          "name": "",
          "type": "string"
        }
      ],
      "stateMutability": "view",
      "type": "function"
    },
    {
      "inputs": [
        {
          "internalType": "uint256",
          "name": "proposalId",
          "type": "uint256"
        }
      ],
      "name": "proposalDeadline",
      "outputs": [
        {
          "internalType": "uint256",
          "name": "",
          "type": "uint256"
        }
      ],
      "stateMutability": "view",
      "type": "function"
    },
    {
      "inputs": [
        {
          "internalType": "uint256",
          "name": "proposalId",
          "type": "uint256"
        }
      ],
      "name": "proposalEta",
      "outputs": [
        {
          "internalType": "uint256",
          "name": "",
          "type": "uint256"
        }
      ],
      "stateMutability": "view",
      "type": "function"
    },
    {
      "inputs": [
        {
          "internalType": "uint256",
          "name": "proposalId",
          "type": "uint256"
        }
      ],
      "name": "proposalSnapshot",
      "outputs": [
        {
          "internalType": "uint256",
          "name": "",
          "type": "uint256"
        }
      ],
      "stateMutability": "view",
      "type": "function"
    },
    {
      "inputs": [],
      "name": "proposalThreshold",
      "outputs": [
        {
          "internalType": "uint256",
          "name": "",
          "type": "uint256"
        }
      ],
      "stateMutability": "view",
      "type": "function"
    },
    {
      "inputs": [
        {
          "internalType": "uint256",
          "name": "proposalId",
          "type": "uint256"
        }
      ],
      "name": "proposalVotes",
      "outputs": [
        {
          "internalType": "uint256",
          "name": "againstVotes",
          "type": "uint256"
        },
        {
          "internalType": "uint256",
          "name": "forVotes",
          "type": "uint256"
        },
        {
          "internalType": "uint256",
          "name": "abstainVotes",
          "type": "uint256"
        }
      ],
      "stateMutability": "view",
      "type": "function"
    },
    {
      "inputs": [
        {
          "internalType": "address[]",
          "name": "targets",
          "type": "address[]"
        },
        {
          "internalType": "uint256[]",
          "name": "values",
          "type": "uint256[]"
        },
        {
          "internalType": "bytes[]",
          "name": "calldatas",
          "type": "bytes[]"
        },
        {
          "internalType": "string",
          "name": "description",
          "type": "string"
        }
      ],
      "name": "propose",
      "outputs": [
        {
          "internalType": "uint256",
          "name": "",
          "type": "uint256"
        }
      ],
      "stateMutability": "nonpayable",
      "type": "function"
    },
    {
      "inputs": [
        {
          "internalType": "address[]",
          "name": "targets",
          "type": "address[]"
        },
        {
          "internalType": "uint256[]",
          "name": "values",
          "type": "uint256[]"
        },
        {
          "internalType": "bytes[]",
          "name": "calldatas",
          "type": "bytes[]"
        },
        {
          "internalType": "bytes32",
          "name": "descriptionHash",
          "type": "bytes32"
        }
      ],
      "name": "queue",
      "outputs": [
        {
          "internalType": "uint256",
          "name": "",
          "type": "uint256"
        }
      ],
      "stateMutability": "nonpayable",
      "type": "function"
    },
    {
      "inputs": [
        {
          "internalType": "uint256",
          "name": "blockNumber",
          "type": "uint256"
        }
      ],
      "name": "quorum",
      "outputs": [
        {
          "internalType": "uint256",
          "name": "",
          "type": "uint256"
        }
      ],
      "stateMutability": "view",
      "type": "function"
    },
    {
      "inputs": [],
      "name": "quorumDenominator",
      "outputs": [
        {
          "internalType": "uint256",
          "name": "",
          "type": "uint256"
        }
      ],
      "stateMutability": "view",
      "type": "function"
    },
    {
      "inputs": [],
      "name": "quorumNumerator",
      "outputs": [
        {
          "internalType": "uint256",
          "name": "",
          "type": "uint256"
        }
      ],
      "stateMutability": "view",
      "type": "function"
    },
    {
      "inputs": [
        {
          "internalType": "address",
          "name": "target",
          "type": "address"
        },
        {
          "internalType": "uint256",
          "name": "value",
          "type": "uint256"
        },
        {
          "internalType": "bytes",
          "name": "data",
          "type": "bytes"
        }
      ],
      "name": "relay",
      "outputs": [],
      "stateMutability": "nonpayable",
      "type": "function"
    },
    {
      "inputs": [
        {
          "internalType": "uint256",
          "name": "newProposalThreshold",
          "type": "uint256"
        }
      ],
      "name": "setProposalThreshold",
      "outputs": [],
      "stateMutability": "nonpayable",
      "type": "function"
    },
    {
      "inputs": [
        {
          "internalType": "uint256",
          "name": "newVotingDelay",
          "type": "uint256"
        }
      ],
      "name": "setVotingDelay",
      "outputs": [],
      "stateMutability": "nonpayable",
      "type": "function"
    },
    {
      "inputs": [
        {
          "internalType": "uint256",
          "name": "newVotingPeriod",
          "type": "uint256"
        }
      ],
      "name": "setVotingPeriod",
      "outputs": [],
      "stateMutability": "nonpayable",
      "type": "function"
    },
    {
      "inputs": [
        {
          "internalType": "uint256",
          "name": "proposalId",
          "type": "uint256"
        }
      ],
      "name": "state",
      "outputs": [
        {
          "internalType": "enum IGovernor.ProposalState",
          "name": "",
          "type": "uint8"
        }
      ],
      "stateMutability": "view",
      "type": "function"
    },
    {
      "inputs": [
        {
          "internalType": "bytes4",
          "name": "interfaceId",
          "type": "bytes4"
        }
      ],
      "name": "supportsInterface",
      "outputs": [
        {
          "internalType": "bool",
          "name": "",
          "type": "bool"
        }
      ],
      "stateMutability": "view",
      "type": "function"
    },
    {
      "inputs": [],
      "name": "timelock",
      "outputs": [
        {
          "internalType": "address",
          "name": "",
          "type": "address"
        }
      ],
      "stateMutability": "view",
      "type": "function"
    },
    {
      "inputs": [],
      "name": "token",
      "outputs": [
        {
          "internalType": "contract IVotes",
          "name": "",
          "type": "address"
        }
      ],
      "stateMutability": "view",
      "type": "function"
    },
    {
      "inputs": [
        {
          "internalType": "uint256",
          "name": "newQuorumNumerator",
          "type": "uint256"
        }
      ],
      "name": "updateQuorumNumerator",
      "outputs": [],
      "stateMutability": "nonpayable",
      "type": "function"
    },
    {
      "inputs": [
        {
          "internalType": "contract TimelockController",
          "name": "newTimelock",
          "type": "address"
        }
      ],
      "name": "updateTimelock",
      "outputs": [],
      "stateMutability": "nonpayable",
      "type": "function"
    },
    {
      "inputs": [],
      "name": "version",
      "outputs": [
        {
          "internalType": "string",
          "name": "",
          "type": "string"
        }
      ],
      "stateMutability": "view",
      "type": "function"
    },
    {
      "inputs": [],
      "name": "votingDelay",
      "outputs": [
        {
          "internalType": "uint256",
          "name": "",
          "type": "uint256"
        }
      ],
      "stateMutability": "view",
      "type": "function"
    },
    {
      "inputs": [],
      "name": "votingPeriod",
      "outputs": [
        {
          "internalType": "uint256",
          "name": "",
          "type": "uint256"
        }
      ],
      "stateMutability": "view",
      "type": "function"
    },
    {
      "stateMutability": "payable",
      "type": "receive"
    }
  ],
  "bytecode": "0x6101606040523480156200001257600080fd5b506040516200329f3803806200329f8339810160408190526200003591620004b7565b80600483600161b2fa60006040518060400160405280601681526020017f42726f74686572686f6f6420476f7665726e616e63650000000000000000000081525080620000876200018160201b60201c565b815160208084019190912082518383012060e08290526101008190524660a0818152604080517f8b73c3c69bb8fe3d512ecc4cf759cc79239f7b179b0ffacaa9a75d522b39400f81880181905281830187905260608201869052608082019490945230818401528151808203909301835260c00190528051940193909320919290916080523060c05261012052505082516200012d9250600091506020840190620003f8565b506200013b9050836200019c565b6200014682620001dd565b620001518162000284565b5050506001600160a01b0316610140526200016c81620002c5565b5062000178816200038f565b50505062000532565b6040805180820190915260018152603160f81b602082015290565b60025460408051918252602082018390527fc565b045403dc03c2eea82b81a0465edad9e2e7fc4d97e11421c209da93d7a93910160405180910390a1600255565b60008111620002435760405162461bcd60e51b815260206004820152602760248201527f476f7665726e6f7253657474696e67733a20766f74696e6720706572696f6420604482015266746f6f206c6f7760c81b60648201526084015b60405180910390fd5b60035460408051918252602082018390527f7e3f7f0708a84de9203036abaa450dccc85ad5ff52f78c170f3edb55cf5e8828910160405180910390a1600355565b60045460408051918252602082018390527fccb45da8d5717e6c4544694297c4ba5cf151d455c9bb0ed4fc7a38411bc05461910160405180910390a1600455565b60648111156200034a5760405162461bcd60e51b815260206004820152604360248201527f476f7665726e6f72566f74657351756f72756d4672616374696f6e3a2071756f60448201527f72756d4e756d657261746f72206f7665722071756f72756d44656e6f6d696e616064820152623a37b960e91b608482015260a4016200023a565b600680549082905560408051828152602081018490527f0553476bf02ef2726e8ce5ced78d63e26e602e4a2257b1f559418e24b4633997910160405180910390a15050565b600754604080516001600160a01b03928316815291831660208301527f08f74ea46ef7894f65eabfb5e6e695de773a000b47c529ab559178069b226401910160405180910390a1600780546001600160a01b0319166001600160a01b0392909216919091179055565b8280546200040690620004f6565b90600052602060002090601f0160209004810192826200042a576000855562000475565b82601f106200044557805160ff191683800117855562000475565b8280016001018555821562000475579182015b828111156200047557825182559160200191906001019062000458565b506200048392915062000487565b5090565b5b8082111562000483576000815560010162000488565b6001600160a01b0381168114620004b457600080fd5b50565b60008060408385031215620004cb57600080fd5b8251620004d8816200049e565b6020840151909250620004eb816200049e565b809150509250929050565b600181811c908216806200050b57607f821691505b6020821081036200052c57634e487b7160e01b600052602260045260246000fd5b50919050565b60805160a05160c05160e051610100516101205161014051612d046200059b600039600081816106ce0152818161172501526117f0015260006119aa015260006119f9015260006119d40152600061192d01526000611957015260006119810152612d046000f3fe6080604052600436106101f25760003560e01c80637d5e81e21161010d578063c59057e4116100a0578063ea0217cf1161006f578063ea0217cf1461063c578063eb9019d41461065c578063ece40cc11461067c578063f8ce560a1461069c578063fc0c546a146106bc57600080fd5b8063c59057e414610570578063d33219b414610590578063dd4e2ba5146105c2578063deaaa7cc1461060857600080fd5b8063ab58fb8e116100dc578063ab58fb8e146104fb578063b58131b01461051b578063c01f9e3714610530578063c28bc2fa1461055057600080fd5b80637d5e81e21461049257806397c3d334146104b2578063a7713a70146104c6578063a890c910146104db57600080fd5b80633bccf4fd1161018557806354fd4d501161015457806354fd4d5014610408578063567813881461043257806370b0f660146104525780637b3c71d31461047257600080fd5b80633bccf4fd1461031c5780633e4f49e61461033c5780634385963214610369578063544ffc9c146103b357600080fd5b8063160cbed7116101c1578063160cbed7146102b45780632656227d146102d45780632d63f693146102e75780633932abb11461030757600080fd5b806301ffc9a71461021a57806302a251a31461024f57806306f3f9e61461027257806306fdde031461029257600080fd5b3661021557306102006106f0565b6001600160a01b03161461021357600080fd5b005b600080fd5b34801561022657600080fd5b5061023a610235366004612175565b610709565b60405190151581526020015b60405180910390f35b34801561025b57600080fd5b5061026461071a565b604051908152602001610246565b34801561027e57600080fd5b5061021361028d36600461219f565b610725565b34801561029e57600080fd5b506102a7610772565b6040516102469190612214565b3480156102c057600080fd5b506102646102cf36600461245f565b610804565b6102646102e236600461245f565b610a04565b3480156102f357600080fd5b5061026461030236600461219f565b610ad7565b34801561031357600080fd5b50610264610b0e565b34801561032857600080fd5b50610264610337366004612504565b610b19565b34801561034857600080fd5b5061035c61035736600461219f565b610bad565b6040516102469190612568565b34801561037557600080fd5b5061023a610384366004612590565b60008281526005602090815260408083206001600160a01b038516845260030190915290205460ff1692915050565b3480156103bf57600080fd5b506103ed6103ce36600461219f565b6000908152600560205260409020805460018201546002909201549092565b60408051938452602084019290925290820152606001610246565b34801561041457600080fd5b506040805180820190915260018152603160f81b60208201526102a7565b34801561043e57600080fd5b5061026461044d3660046125c0565b610bb8565b34801561045e57600080fd5b5061021361046d36600461219f565b610be1565b34801561047e57600080fd5b5061026461048d366004612634565b610c22565b34801561049e57600080fd5b506102646104ad36600461268d565b610c74565b3480156104be57600080fd5b506064610264565b3480156104d257600080fd5b50600654610264565b3480156104e757600080fd5b506102136104f636600461274d565b610c8b565b34801561050757600080fd5b5061026461051636600461219f565b610ccc565b34801561052757600080fd5b50610264610d67565b34801561053c57600080fd5b5061026461054b36600461219f565b610d72565b34801561055c57600080fd5b5061021361056b36600461276a565b610da1565b34801561057c57600080fd5b5061026461058b36600461245f565b610e22565b34801561059c57600080fd5b506007546001600160a01b03165b6040516001600160a01b039091168152602001610246565b3480156105ce57600080fd5b506040805180820190915260208082527f737570706f72743d627261766f2671756f72756d3d666f722c6162737461696e908201526102a7565b34801561061457600080fd5b506102647f150214d74d59b7d1e90c73fc22ef3d991dd0a76b046543d4d80ab92d2a50328f81565b34801561064857600080fd5b5061021361065736600461219f565b610e5c565b34801561066857600080fd5b506102646106773660046127ad565b610e9d565b34801561068857600080fd5b5061021361069736600461219f565b610ea9565b3480156106a857600080fd5b506102646106b736600461219f565b610eea565b3480156106c857600080fd5b506105aa7f000000000000000000000000000000000000000000000000000000000000000081565b60006107046007546001600160a01b031690565b905090565b600061071482610ef5565b92915050565b600061070460035490565b61072d6106f0565b6001600160a01b0316336001600160a01b0316146107665760405162461bcd60e51b815260040161075d906127d9565b60405180910390fd5b61076f81610f1a565b50565b60606000805461078190612810565b80601f01602080910402602001604051908101604052809291908181526020018280546107ad90612810565b80156107fa5780601f106107cf576101008083540402835291602001916107fa565b820191906000526020600020905b8154815290600101906020018083116107dd57829003601f168201915b5050505050905090565b60008061081386868686610e22565b9050600461082082610bad565b600781111561083157610831612552565b1461084e5760405162461bcd60e51b815260040161075d9061284a565b6007546040805163793d064960e11b815290516000926001600160a01b03169163f27a0c929160048083019260209291908290030181865afa158015610898573d6000803e3d6000fd5b505050506040513d601f19601f820116820180604052508101906108bc919061288b565b60075460405163b1c5f42760e01b81529192506001600160a01b03169063b1c5f427906108f6908a908a908a906000908b9060040161296d565b602060405180830381865afa158015610913573d6000803e3d6000fd5b505050506040513d601f19601f82011682018060405250810190610937919061288b565b6000838152600860205260408082209290925560075491516308f2a0bb60e41b81526001600160a01b0390921691638f2a0bb091610982918b918b918b91908b9089906004016129bb565b600060405180830381600087803b15801561099c57600080fd5b505af11580156109b0573d6000803e3d6000fd5b505050507f9a2e42fd6722813d69113e7d0079d3d940171428df7373df9c7f7617cfda28928282426109e29190612a29565b6040805192835260208301919091520160405180910390a15095945050505050565b600080610a1386868686610e22565b90506000610a2082610bad565b90506004816007811115610a3657610a36612552565b1480610a5357506005816007811115610a5157610a51612552565b145b610a6f5760405162461bcd60e51b815260040161075d9061284a565b600082815260016020818152604092839020600201805460ff191690921790915590518381527f712ae1383f79ac853f8d882153778e0260ef8f03b504e2866e0593e04d2b291f910160405180910390a1610acd8288888888610fe2565b5095945050505050565b60008181526001602090815260408083208151928301909152546001600160401b0316908190525b6001600160401b031692915050565b600061070460025490565b604080517f150214d74d59b7d1e90c73fc22ef3d991dd0a76b046543d4d80ab92d2a50328f602082015290810186905260ff851660608201526000908190610b8590610b7d9060800160405160208183030381529060405280519060200120610fef565b86868661103d565b9050610ba28782886040518060200160405280600081525061105b565b979650505050505050565b600061071482611166565b600080339050610bd98482856040518060200160405280600081525061105b565b949350505050565b610be96106f0565b6001600160a01b0316336001600160a01b031614610c195760405162461bcd60e51b815260040161075d906127d9565b61076f816112b0565b600080339050610c6a86828787878080601f01602080910402602001604051908101604052809392919081815260200183838082843760009201919091525061105b92505050565b9695505050505050565b6000610c82858585856112f1565b95945050505050565b610c936106f0565b6001600160a01b0316336001600160a01b031614610cc35760405162461bcd60e51b815260040161075d906127d9565b61076f816115cc565b60075460008281526008602052604080822054905163d45c443560e01b81526004810191909152909182916001600160a01b039091169063d45c443590602401602060405180830381865afa158015610d29573d6000803e3d6000fd5b505050506040513d601f19601f82011682018060405250810190610d4d919061288b565b905080600114610d5d5780610d60565b60005b9392505050565b600061070460045490565b60008181526001602081815260408084208151928301909152909101546001600160401b031690819052610aff565b610da96106f0565b6001600160a01b0316336001600160a01b031614610dd95760405162461bcd60e51b815260040161075d906127d9565b610e1b8483838080601f016020809104026020016040519081016040528093929190818152602001838380828437600092019190915250889250611635915050565b5050505050565b600084848484604051602001610e3b9493929190612a41565b60408051601f19818403018152919052805160209091012095945050505050565b610e646106f0565b6001600160a01b0316336001600160a01b031614610e945760405162461bcd60e51b815260040161075d906127d9565b61076f8161165b565b6000610d6083836116fc565b610eb16106f0565b6001600160a01b0316336001600160a01b031614610ee15760405162461bcd60e51b815260040161075d906127d9565b61076f81611792565b6000610714826117d3565b60006001600160e01b03198216636e665ced60e01b1480610714575061071482611877565b6064811115610f9d5760405162461bcd60e51b815260206004820152604360248201527f476f7665726e6f72566f74657351756f72756d4672616374696f6e3a2071756f60448201527f72756d4e756d657261746f72206f7665722071756f72756d44656e6f6d696e616064820152623a37b960e91b608482015260a40161075d565b600680549082905560408051828152602081018490527f0553476bf02ef2726e8ce5ced78d63e26e602e4a2257b1f559418e24b4633997910160405180910390a15050565b610e1b85858585856118ac565b6000610714610ffc611920565b8360405161190160f01b6020820152602281018390526042810182905260009060620160405160208183030381529060405280519060200120905092915050565b600080600061104e87878787611a47565b91509150610acd81611b34565b600084815260016020819052604082209061107587610bad565b600781111561108657611086612552565b146110df5760405162461bcd60e51b815260206004820152602360248201527f476f7665726e6f723a20766f7465206e6f742063757272656e746c792061637460448201526269766560e81b606482015260840161075d565b604080516020810190915281546001600160401b031690819052600090611107908790610e9d565b905061111587878784611cea565b856001600160a01b03167fb8e138887d0aa13bab447e82de9d5c1777041ecd21ca36ba824ff1e6c07ddda4888784886040516111549493929190612a8c565b60405180910390a29695505050505050565b60008061117283611e64565b9050600481600781111561118857611188612552565b146111935792915050565b600083815260086020526040902054806111ae575092915050565b600754604051632ab0f52960e01b8152600481018390526001600160a01b0390911690632ab0f52990602401602060405180830381865afa1580156111f7573d6000803e3d6000fd5b505050506040513d601f19601f8201168201806040525081019061121b9190612ab4565b1561122a575060079392505050565b600754604051632c258a9f60e11b8152600481018390526001600160a01b039091169063584b153e90602401602060405180830381865afa158015611273573d6000803e3d6000fd5b505050506040513d601f19601f820116820180604052508101906112979190612ab4565b156112a6575060059392505050565b5060029392505050565b60025460408051918252602082018390527fc565b045403dc03c2eea82b81a0465edad9e2e7fc4d97e11421c209da93d7a93910160405180910390a1600255565b60006112fb610d67565b61130a33610677600143612ad6565b101561138a5760405162461bcd60e51b815260206004820152604360248201527f476f7665726e6f72436f6d7061746962696c697479427261766f3a2070726f7060448201527f6f73657220766f7465732062656c6f772070726f706f73616c207468726573686064820152621bdb1960ea1b608482015260a40161075d565b600061139f8686868680519060200120610e22565b905084518651146113c25760405162461bcd60e51b815260040161075d90612aed565b83518651146113e35760405162461bcd60e51b815260040161075d90612aed565b60008651116114345760405162461bcd60e51b815260206004820152601860248201527f476f7665726e6f723a20656d7074792070726f706f73616c0000000000000000604482015260640161075d565b600081815260016020908152604091829020825191820190925281546001600160401b031690819052156114b45760405162461bcd60e51b815260206004820152602160248201527f476f7665726e6f723a2070726f706f73616c20616c72656164792065786973746044820152607360f81b606482015260840161075d565b60006114c66114c1610b0e565b611f73565b6114cf43611f73565b6114d99190612b2e565b905060006114e86114c161071a565b6114f29083612b2e565b835467ffffffffffffffff19166001600160401b038416178455905060018301805467ffffffffffffffff19166001600160401b0383161790557f7d84a6263ae0d98d3329bd7b46bb4e8d6f98cd35a7adb45c274c8b7fd5ebd5e084338b8b8d516001600160401b0381111561156a5761156a612227565b60405190808252806020026020018201604052801561159d57816020015b60608152602001906001900390816115885790505b508c88888e6040516115b799989796959493929190612b59565b60405180910390a15091979650505050505050565b600754604080516001600160a01b03928316815291831660208301527f08f74ea46ef7894f65eabfb5e6e695de773a000b47c529ab559178069b226401910160405180910390a1600780546001600160a01b0319166001600160a01b0392909216919091179055565b6060610bd9848484604051806060016040528060298152602001612ca660299139611fdf565b600081116116bb5760405162461bcd60e51b815260206004820152602760248201527f476f7665726e6f7253657474696e67733a20766f74696e6720706572696f6420604482015266746f6f206c6f7760c81b606482015260840161075d565b60035460408051918252602082018390527f7e3f7f0708a84de9203036abaa450dccc85ad5ff52f78c170f3edb55cf5e8828910160405180910390a1600355565b604051630748d63560e31b81526001600160a01b038381166004830152602482018390526000917f000000000000000000000000000000000000000000000000000000000000000090911690633a46b1a890604401602060405180830381865afa15801561176e573d6000803e3d6000fd5b505050506040513d601f19601f82011682018060405250810190610d60919061288b565b60045460408051918252602082018390527fccb45da8d5717e6c4544694297c4ba5cf151d455c9bb0ed4fc7a38411bc05461910160405180910390a1600455565b60006064600654604051632394e7a360e21b8152600481018590527f00000000000000000000000000000000000000000000000000000000000000006001600160a01b031690638e539e8c90602401602060405180830381865afa15801561183f573d6000803e3d6000fd5b505050506040513d601f19601f82011682018060405250810190611863919061288b565b61186d9190612c48565b6107149190612c67565b60006001600160e01b0319821663bf26d89760e01b148061071457506301ffc9a760e01b6001600160e01b0319831614610714565b60075460405163e38335e560e01b81526001600160a01b039091169063e38335e59034906118e790889088908890600090899060040161296d565b6000604051808303818588803b15801561190057600080fd5b505af1158015611914573d6000803e3d6000fd5b50505050505050505050565b6000306001600160a01b037f00000000000000000000000000000000000000000000000000000000000000001614801561197957507f000000000000000000000000000000000000000000000000000000000000000046145b156119a357507f000000000000000000000000000000000000000000000000000000000000000090565b50604080517f00000000000000000000000000000000000000000000000000000000000000006020808301919091527f0000000000000000000000000000000000000000000000000000000000000000828401527f000000000000000000000000000000000000000000000000000000000000000060608301524660808301523060a0808401919091528351808403909101815260c0909201909252805191012090565b6000807f7fffffffffffffffffffffffffffffff5d576e7357a4501ddfe92f46681b20a0831115611a7e5750600090506003611b2b565b8460ff16601b14158015611a9657508460ff16601c14155b15611aa75750600090506004611b2b565b6040805160008082526020820180845289905260ff881692820192909252606081018690526080810185905260019060a0016020604051602081039080840390855afa158015611afb573d6000803e3d6000fd5b5050604051601f1901519150506001600160a01b038116611b2457600060019250925050611b2b565b9150600090505b94509492505050565b6000816004811115611b4857611b48612552565b03611b505750565b6001816004811115611b6457611b64612552565b03611bb15760405162461bcd60e51b815260206004820152601860248201527f45434453413a20696e76616c6964207369676e61747572650000000000000000604482015260640161075d565b6002816004811115611bc557611bc5612552565b03611c125760405162461bcd60e51b815260206004820152601f60248201527f45434453413a20696e76616c6964207369676e6174757265206c656e67746800604482015260640161075d565b6003816004811115611c2657611c26612552565b03611c7e5760405162461bcd60e51b815260206004820152602260248201527f45434453413a20696e76616c6964207369676e6174757265202773272076616c604482015261756560f01b606482015260840161075d565b6004816004811115611c9257611c92612552565b0361076f5760405162461bcd60e51b815260206004820152602260248201527f45434453413a20696e76616c6964207369676e6174757265202776272076616c604482015261756560f01b606482015260840161075d565b60008481526005602090815260408083206001600160a01b0387168452600381019092529091205460ff1615611d725760405162461bcd60e51b815260206004820152602760248201527f476f7665726e6f72566f74696e6753696d706c653a20766f746520616c726561604482015266191e4818d85cdd60ca1b606482015260840161075d565b6001600160a01b03841660009081526003820160205260409020805460ff1916600117905560ff8316611dbe5781816000016000828254611db39190612a29565b90915550610e1b9050565b60001960ff841601611dde5781816001016000828254611db39190612a29565b60011960ff841601611dfe5781816002016000828254611db39190612a29565b60405162461bcd60e51b815260206004820152603560248201527f476f7665726e6f72566f74696e6753696d706c653a20696e76616c69642076616044820152746c756520666f7220656e756d20566f74655479706560581b606482015260840161075d565b6000818152600160205260408120600281015460ff1615611e885750600792915050565b6002810154610100900460ff1615611ea35750600292915050565b6000611eae84610ad7565b905080600003611f005760405162461bcd60e51b815260206004820152601d60248201527f476f7665726e6f723a20756e6b6e6f776e2070726f706f73616c206964000000604482015260640161075d565b438110611f11575060009392505050565b6000611f1c85610d72565b9050438110611f3057506001949350505050565b611f3985612105565b8015611f58575060008581526005602052604090208054600190910154115b15611f6857506004949350505050565b506003949350505050565b60006001600160401b03821115611fdb5760405162461bcd60e51b815260206004820152602660248201527f53616665436173743a2076616c756520646f65736e27742066697420696e203660448201526534206269747360d01b606482015260840161075d565b5090565b6060824710156120405760405162461bcd60e51b815260206004820152602660248201527f416464726573733a20696e73756666696369656e742062616c616e636520666f6044820152651c8818d85b1b60d21b606482015260840161075d565b6001600160a01b0385163b6120975760405162461bcd60e51b815260206004820152601d60248201527f416464726573733a2063616c6c20746f206e6f6e2d636f6e7472616374000000604482015260640161075d565b600080866001600160a01b031685876040516120b39190612c89565b60006040518083038185875af1925050503d80600081146120f0576040519150601f19603f3d011682016040523d82523d6000602084013e6120f5565b606091505b5091509150610ba282828661213c565b6000818152600560205260408120600281015460018201546121279190612a29565b6121336106b785610ad7565b11159392505050565b6060831561214b575081610d60565b82511561215b5782518084602001fd5b8160405162461bcd60e51b815260040161075d9190612214565b60006020828403121561218757600080fd5b81356001600160e01b031981168114610d6057600080fd5b6000602082840312156121b157600080fd5b5035919050565b60005b838110156121d35781810151838201526020016121bb565b838111156121e2576000848401525b50505050565b600081518084526122008160208601602086016121b8565b601f01601f19169290920160200192915050565b602081526000610d6060208301846121e8565b634e487b7160e01b600052604160045260246000fd5b604051601f8201601f191681016001600160401b038111828210171561226557612265612227565b604052919050565b60006001600160401b0382111561228657612286612227565b5060051b60200190565b6001600160a01b038116811461076f57600080fd5b600082601f8301126122b657600080fd5b813560206122cb6122c68361226d565b61223d565b82815260059290921b840181019181810190868411156122ea57600080fd5b8286015b8481101561230e57803561230181612290565b83529183019183016122ee565b509695505050505050565b600082601f83011261232a57600080fd5b8135602061233a6122c68361226d565b82815260059290921b8401810191818101908684111561235957600080fd5b8286015b8481101561230e578035835291830191830161235d565b60006001600160401b0383111561238d5761238d612227565b6123a0601f8401601f191660200161223d565b90508281528383830111156123b457600080fd5b828260208301376000602084830101529392505050565b600082601f8301126123dc57600080fd5b813560206123ec6122c68361226d565b82815260059290921b8401810191818101908684111561240b57600080fd5b8286015b8481101561230e5780356001600160401b0381111561242e5760008081fd5b8701603f810189136124405760008081fd5b612451898683013560408401612374565b84525091830191830161240f565b6000806000806080858703121561247557600080fd5b84356001600160401b038082111561248c57600080fd5b612498888389016122a5565b955060208701359150808211156124ae57600080fd5b6124ba88838901612319565b945060408701359150808211156124d057600080fd5b506124dd878288016123cb565b949793965093946060013593505050565b803560ff811681146124ff57600080fd5b919050565b600080600080600060a0868803121561251c57600080fd5b8535945061252c602087016124ee565b935061253a604087016124ee565b94979396509394606081013594506080013592915050565b634e487b7160e01b600052602160045260246000fd5b602081016008831061258a57634e487b7160e01b600052602160045260246000fd5b91905290565b600080604083850312156125a357600080fd5b8235915060208301356125b581612290565b809150509250929050565b600080604083850312156125d357600080fd5b823591506125e3602084016124ee565b90509250929050565b60008083601f8401126125fe57600080fd5b5081356001600160401b0381111561261557600080fd5b60208301915083602082850101111561262d57600080fd5b9250929050565b6000806000806060858703121561264a57600080fd5b8435935061265a602086016124ee565b925060408501356001600160401b0381111561267557600080fd5b612681878288016125ec565b95989497509550505050565b600080600080608085870312156126a357600080fd5b84356001600160401b03808211156126ba57600080fd5b6126c6888389016122a5565b955060208701359150808211156126dc57600080fd5b6126e888838901612319565b945060408701359150808211156126fe57600080fd5b61270a888389016123cb565b9350606087013591508082111561272057600080fd5b508501601f8101871361273257600080fd5b61274187823560208401612374565b91505092959194509250565b60006020828403121561275f57600080fd5b8135610d6081612290565b6000806000806060858703121561278057600080fd5b843561278b81612290565b93506020850135925060408501356001600160401b0381111561267557600080fd5b600080604083850312156127c057600080fd5b82356127cb81612290565b946020939093013593505050565b60208082526018908201527f476f7665726e6f723a206f6e6c79476f7665726e616e63650000000000000000604082015260600190565b600181811c9082168061282457607f821691505b60208210810361284457634e487b7160e01b600052602260045260246000fd5b50919050565b60208082526021908201527f476f7665726e6f723a2070726f706f73616c206e6f74207375636365737366756040820152601b60fa1b606082015260800190565b60006020828403121561289d57600080fd5b5051919050565b600081518084526020808501945080840160005b838110156128dd5781516001600160a01b0316875295820195908201906001016128b8565b509495945050505050565b600081518084526020808501945080840160005b838110156128dd578151875295820195908201906001016128fc565b600081518084526020808501808196508360051b8101915082860160005b8581101561296057828403895261294e8483516121e8565b98850198935090840190600101612936565b5091979650505050505050565b60a08152600061298060a08301886128a4565b828103602084015261299281886128e8565b905082810360408401526129a68187612918565b60608401959095525050608001529392505050565b60c0815260006129ce60c08301896128a4565b82810360208401526129e081896128e8565b905082810360408401526129f48188612918565b60608401969096525050608081019290925260a0909101529392505050565b634e487b7160e01b600052601160045260246000fd5b60008219821115612a3c57612a3c612a13565b500190565b608081526000612a5460808301876128a4565b8281036020840152612a6681876128e8565b90508281036040840152612a7a8186612918565b91505082606083015295945050505050565b84815260ff84166020820152826040820152608060608201526000610c6a60808301846121e8565b600060208284031215612ac657600080fd5b81518015158114610d6057600080fd5b600082821015612ae857612ae8612a13565b500390565b60208082526021908201527f476f7665726e6f723a20696e76616c69642070726f706f73616c206c656e67746040820152600d60fb1b606082015260800190565b60006001600160401b03808316818516808303821115612b5057612b50612a13565b01949350505050565b60006101208b8352602060018060a01b038c1681850152816040850152612b828285018c6128a4565b91508382036060850152612b96828b6128e8565b915083820360808501528189518084528284019150828160051b850101838c0160005b83811015612be757601f19878403018552612bd58383516121e8565b94860194925090850190600101612bb9565b505086810360a0880152612bfb818c612918565b945050505050612c1660c08401876001600160401b03169052565b6001600160401b03851660e0840152828103610100840152612c3881856121e8565b9c9b505050505050505050505050565b6000816000190483118215151615612c6257612c62612a13565b500290565b600082612c8457634e487b7160e01b600052601260045260246000fd5b500490565b60008251612c9b8184602087016121b8565b919091019291505056fe416464726573733a206c6f772d6c6576656c2063616c6c20776974682076616c7565206661696c6564a26469706673582212201caa474cd85799d4921b93b9338379ca3bff57fc38b31b18b1cb2b3ad95dd1e364736f6c634300080d0033",
  "linkReferences": {},
  "deployedLinkReferences": {}
}