{
  "_format": "hh-sol-artifact-1",
  "contractName": "Playables",
  "sourceName": "contracts/Playables.sol",
  "abi": [
    {
      "inputs": [
        {
          "internalType": "address payable",
          "name": "_receiver",
          "type": "address"
        },
        {
          "internalType": "address",
          "name": "_promoter",
          "type": "address"
        },
        {
          "internalType": "string",
          "name": "_preURI",
          "type": "string"
        }
      ],
      "stateMutability": "nonpayable",
      "type": "constructor"
    },
    {
      "anonymous": false,
      "inputs": [
        {
          "indexed": true,
          "internalType": "address",
          "name": "account",
          "type": "address"
        },
        {
          "indexed": true,
          "internalType": "address",
          "name": "operator",
          "type": "address"
        },
        {
          "indexed": false,
          "internalType": "bool",
          "name": "approved",
          "type": "bool"
        }
      ],
      "name": "ApprovalForAll",
      "type": "event"
    },
    {
      "anonymous": false,
      "inputs": [
        {
          "indexed": false,
          "internalType": "address",
          "name": "account",
          "type": "address"
        }
      ],
      "name": "Paused",
      "type": "event"
    },
    {
      "anonymous": false,
      "inputs": [
        {
          "indexed": true,
          "internalType": "bytes32",
          "name": "role",
          "type": "bytes32"
        },
        {
          "indexed": true,
          "internalType": "bytes32",
          "name": "previousAdminRole",
          "type": "bytes32"
        },
        {
          "indexed": true,
          "internalType": "bytes32",
          "name": "newAdminRole",
          "type": "bytes32"
        }
      ],
      "name": "RoleAdminChanged",
      "type": "event"
    },
    {
      "anonymous": false,
      "inputs": [
        {
          "indexed": true,
          "internalType": "bytes32",
          "name": "role",
          "type": "bytes32"
        },
        {
          "indexed": true,
          "internalType": "address",
          "name": "account",
          "type": "address"
        },
        {
          "indexed": true,
          "internalType": "address",
          "name": "sender",
          "type": "address"
        }
      ],
      "name": "RoleGranted",
      "type": "event"
    },
    {
      "anonymous": false,
      "inputs": [
        {
          "indexed": true,
          "internalType": "bytes32",
          "name": "role",
          "type": "bytes32"
        },
        {
          "indexed": true,
          "internalType": "address",
          "name": "account",
          "type": "address"
        },
        {
          "indexed": true,
          "internalType": "address",
          "name": "sender",
          "type": "address"
        }
      ],
      "name": "RoleRevoked",
      "type": "event"
    },
    {
      "anonymous": false,
      "inputs": [
        {
          "indexed": true,
          "internalType": "address",
          "name": "operator",
          "type": "address"
        },
        {
          "indexed": true,
          "internalType": "address",
          "name": "from",
          "type": "address"
        },
        {
          "indexed": true,
          "internalType": "address",
          "name": "to",
          "type": "address"
        },
        {
          "indexed": false,
          "internalType": "uint256[]",
          "name": "ids",
          "type": "uint256[]"
        },
        {
          "indexed": false,
          "internalType": "uint256[]",
          "name": "values",
          "type": "uint256[]"
        }
      ],
      "name": "TransferBatch",
      "type": "event"
    },
    {
      "anonymous": false,
      "inputs": [
        {
          "indexed": true,
          "internalType": "address",
          "name": "operator",
          "type": "address"
        },
        {
          "indexed": true,
          "internalType": "address",
          "name": "from",
          "type": "address"
        },
        {
          "indexed": true,
          "internalType": "address",
          "name": "to",
          "type": "address"
        },
        {
          "indexed": false,
          "internalType": "uint256",
          "name": "id",
          "type": "uint256"
        },
        {
          "indexed": false,
          "internalType": "uint256",
          "name": "value",
          "type": "uint256"
        }
      ],
      "name": "TransferSingle",
      "type": "event"
    },
    {
      "anonymous": false,
      "inputs": [
        {
          "indexed": false,
          "internalType": "string",
          "name": "value",
          "type": "string"
        },
        {
          "indexed": true,
          "internalType": "uint256",
          "name": "id",
          "type": "uint256"
        }
      ],
      "name": "URI",
      "type": "event"
    },
    {
      "anonymous": false,
      "inputs": [
        {
          "indexed": false,
          "internalType": "address",
          "name": "account",
          "type": "address"
        }
      ],
      "name": "Unpaused",
      "type": "event"
    },
    {
      "inputs": [],
      "name": "ADMIN",
      "outputs": [
        {
          "internalType": "bytes32",
          "name": "",
          "type": "bytes32"
        }
      ],
      "stateMutability": "view",
      "type": "function"
    },
    {
      "inputs": [],
      "name": "DEFAULT_ADMIN_ROLE",
      "outputs": [
        {
          "internalType": "bytes32",
          "name": "",
          "type": "bytes32"
        }
      ],
      "stateMutability": "view",
      "type": "function"
    },
    {
      "inputs": [],
      "name": "MANAGER",
      "outputs": [
        {
          "internalType": "bytes32",
          "name": "",
          "type": "bytes32"
        }
      ],
      "stateMutability": "view",
      "type": "function"
    },
    {
      "inputs": [
        {
          "internalType": "address",
          "name": "account",
          "type": "address"
        },
        {
          "internalType": "uint256",
          "name": "id",
          "type": "uint256"
        }
      ],
      "name": "balanceOf",
      "outputs": [
        {
          "internalType": "uint256",
          "name": "",
          "type": "uint256"
        }
      ],
      "stateMutability": "view",
      "type": "function"
    },
    {
      "inputs": [
        {
          "internalType": "address[]",
          "name": "accounts",
          "type": "address[]"
        },
        {
          "internalType": "uint256[]",
          "name": "ids",
          "type": "uint256[]"
        }
      ],
      "name": "balanceOfBatch",
      "outputs": [
        {
          "internalType": "uint256[]",
          "name": "",
          "type": "uint256[]"
        }
      ],
      "stateMutability": "view",
      "type": "function"
    },
    {
      "inputs": [],
      "name": "contractURI",
      "outputs": [
        {
          "internalType": "string",
          "name": "",
          "type": "string"
        }
      ],
      "stateMutability": "view",
      "type": "function"
    },
    {
      "inputs": [
        {
          "internalType": "uint256",
          "name": "tokenId",
          "type": "uint256"
        }
      ],
      "name": "deleteToken",
      "outputs": [],
      "stateMutability": "nonpayable",
      "type": "function"
    },
    {
      "inputs": [
        {
          "internalType": "bytes32",
          "name": "role",
          "type": "bytes32"
        }
      ],
      "name": "getRoleAdmin",
      "outputs": [
        {
          "internalType": "bytes32",
          "name": "",
          "type": "bytes32"
        }
      ],
      "stateMutability": "view",
      "type": "function"
    },
    {
      "inputs": [
        {
          "internalType": "uint256",
          "name": "tokenId",
          "type": "uint256"
        }
      ],
      "name": "getStakingWeight",
      "outputs": [
        {
          "internalType": "uint128",
          "name": "",
          "type": "uint128"
        }
      ],
      "stateMutability": "view",
      "type": "function"
    },
    {
      "inputs": [
        {
          "internalType": "bytes32",
          "name": "role",
          "type": "bytes32"
        },
        {
          "internalType": "address",
          "name": "account",
          "type": "address"
        }
      ],
      "name": "grantRole",
      "outputs": [],
      "stateMutability": "nonpayable",
      "type": "function"
    },
    {
      "inputs": [
        {
          "internalType": "bytes32",
          "name": "role",
          "type": "bytes32"
        },
        {
          "internalType": "address",
          "name": "account",
          "type": "address"
        }
      ],
      "name": "hasRole",
      "outputs": [
        {
          "internalType": "bool",
          "name": "",
          "type": "bool"
        }
      ],
      "stateMutability": "view",
      "type": "function"
    },
    {
      "inputs": [
        {
          "internalType": "address",
          "name": "account",
          "type": "address"
        },
        {
          "internalType": "address",
          "name": "operator",
          "type": "address"
        }
      ],
      "name": "isApprovedForAll",
      "outputs": [
        {
          "internalType": "bool",
          "name": "",
          "type": "bool"
        }
      ],
      "stateMutability": "view",
      "type": "function"
    },
    {
      "inputs": [],
      "name": "liqudityReceiver",
      "outputs": [
        {
          "internalType": "address payable",
          "name": "",
          "type": "address"
        }
      ],
      "stateMutability": "view",
      "type": "function"
    },
    {
      "inputs": [
        {
          "components": [
            {
              "internalType": "uint256",
              "name": "tokenId",
              "type": "uint256"
            },
            {
              "internalType": "uint64",
              "name": "amount",
              "type": "uint64"
            },
            {
              "internalType": "string",
              "name": "promoCode",
              "type": "string"
            }
          ],
          "internalType": "struct Playables.MintParams",
          "name": "p",
          "type": "tuple"
        }
      ],
      "name": "mint",
      "outputs": [],
      "stateMutability": "payable",
      "type": "function"
    },
    {
      "inputs": [],
      "name": "pause",
      "outputs": [],
      "stateMutability": "nonpayable",
      "type": "function"
    },
    {
      "inputs": [],
      "name": "paused",
      "outputs": [
        {
          "internalType": "bool",
          "name": "",
          "type": "bool"
        }
      ],
      "stateMutability": "view",
      "type": "function"
    },
    {
      "inputs": [],
      "name": "promoters",
      "outputs": [
        {
          "internalType": "contract IPromoter",
          "name": "",
          "type": "address"
        }
      ],
      "stateMutability": "view",
      "type": "function"
    },
    {
      "inputs": [
        {
          "internalType": "bytes32",
          "name": "role",
          "type": "bytes32"
        },
        {
          "internalType": "address",
          "name": "account",
          "type": "address"
        }
      ],
      "name": "renounceRole",
      "outputs": [],
      "stateMutability": "nonpayable",
      "type": "function"
    },
    {
      "inputs": [
        {
          "internalType": "bytes32",
          "name": "role",
          "type": "bytes32"
        },
        {
          "internalType": "address",
          "name": "account",
          "type": "address"
        }
      ],
      "name": "revokeRole",
      "outputs": [],
      "stateMutability": "nonpayable",
      "type": "function"
    },
    {
      "inputs": [
        {
          "internalType": "uint256",
          "name": "_tokenId",
          "type": "uint256"
        },
        {
          "internalType": "uint256",
          "name": "_salePrice",
          "type": "uint256"
        }
      ],
      "name": "royaltyInfo",
      "outputs": [
        {
          "internalType": "address",
          "name": "",
          "type": "address"
        },
        {
          "internalType": "uint256",
          "name": "",
          "type": "uint256"
        }
      ],
      "stateMutability": "view",
      "type": "function"
    },
    {
      "inputs": [
        {
          "internalType": "address",
          "name": "from",
          "type": "address"
        },
        {
          "internalType": "address",
          "name": "to",
          "type": "address"
        },
        {
          "internalType": "uint256[]",
          "name": "ids",
          "type": "uint256[]"
        },
        {
          "internalType": "uint256[]",
          "name": "amounts",
          "type": "uint256[]"
        },
        {
          "internalType": "bytes",
          "name": "data",
          "type": "bytes"
        }
      ],
      "name": "safeBatchTransferFrom",
      "outputs": [],
      "stateMutability": "nonpayable",
      "type": "function"
    },
    {
      "inputs": [
        {
          "internalType": "address",
          "name": "from",
          "type": "address"
        },
        {
          "internalType": "address",
          "name": "to",
          "type": "address"
        },
        {
          "internalType": "uint256",
          "name": "id",
          "type": "uint256"
        },
        {
          "internalType": "uint256",
          "name": "amount",
          "type": "uint256"
        },
        {
          "internalType": "bytes",
          "name": "data",
          "type": "bytes"
        }
      ],
      "name": "safeTransferFrom",
      "outputs": [],
      "stateMutability": "nonpayable",
      "type": "function"
    },
    {
      "inputs": [
        {
          "internalType": "address",
          "name": "operator",
          "type": "address"
        },
        {
          "internalType": "bool",
          "name": "approved",
          "type": "bool"
        }
      ],
      "name": "setApprovalForAll",
      "outputs": [],
      "stateMutability": "nonpayable",
      "type": "function"
    },
    {
      "inputs": [
        {
          "internalType": "string",
          "name": "_uri",
          "type": "string"
        }
      ],
      "name": "setContractURI",
      "outputs": [],
      "stateMutability": "nonpayable",
      "type": "function"
    },
    {
      "inputs": [
        {
          "internalType": "address",
          "name": "_receiver",
          "type": "address"
        },
        {
          "internalType": "uint96",
          "name": "feeNumerator",
          "type": "uint96"
        }
      ],
      "name": "setDefaultRoyalty",
      "outputs": [],
      "stateMutability": "nonpayable",
      "type": "function"
    },
    {
      "inputs": [
        {
          "internalType": "address payable",
          "name": "receiver",
          "type": "address"
        }
      ],
      "name": "setLiquidityReceiver",
      "outputs": [],
      "stateMutability": "nonpayable",
      "type": "function"
    },
    {
      "inputs": [
        {
          "internalType": "address",
          "name": "kontrakt",
          "type": "address"
        }
      ],
      "name": "setPromoterContract",
      "outputs": [],
      "stateMutability": "nonpayable",
      "type": "function"
    },
    {
      "inputs": [
        {
          "internalType": "uint256",
          "name": "tokenId",
          "type": "uint256"
        },
        {
          "components": [
            {
              "internalType": "string",
              "name": "uri",
              "type": "string"
            },
            {
              "internalType": "uint256",
              "name": "createdAt",
              "type": "uint256"
            },
            {
              "internalType": "uint256",
              "name": "launchedAt",
              "type": "uint256"
            },
            {
              "internalType": "uint256",
              "name": "supply",
              "type": "uint256"
            },
            {
              "internalType": "uint256",
              "name": "minted",
              "type": "uint256"
            },
            {
              "internalType": "uint128",
              "name": "weight",
              "type": "uint128"
            },
            {
              "internalType": "uint256",
              "name": "price",
              "type": "uint256"
            },
            {
              "internalType": "address",
              "name": "royalty",
              "type": "address"
            }
          ],
          "internalType": "struct Playables.Token",
          "name": "token",
          "type": "tuple"
        }
      ],
      "name": "setToken",
      "outputs": [],
      "stateMutability": "nonpayable",
      "type": "function"
    },
    {
      "inputs": [
        {
          "internalType": "uint256",
          "name": "tokenId",
          "type": "uint256"
        },
        {
          "internalType": "address",
          "name": "_receiver",
          "type": "address"
        },
        {
          "internalType": "uint96",
          "name": "feeNumerator",
          "type": "uint96"
        }
      ],
      "name": "setTokenRoyalty",
      "outputs": [],
      "stateMutability": "nonpayable",
      "type": "function"
    },
    {
      "inputs": [
        {
          "internalType": "bytes4",
          "name": "interfaceId",
          "type": "bytes4"
        }
      ],
      "name": "supportsInterface",
      "outputs": [
        {
          "internalType": "bool",
          "name": "",
          "type": "bool"
        }
      ],
      "stateMutability": "view",
      "type": "function"
    },
    {
      "inputs": [
        {
          "internalType": "uint256",
          "name": "",
          "type": "uint256"
        }
      ],
      "name": "tokens",
      "outputs": [
        {
          "internalType": "string",
          "name": "uri",
          "type": "string"
        },
        {
          "internalType": "uint256",
          "name": "createdAt",
          "type": "uint256"
        },
        {
          "internalType": "uint256",
          "name": "launchedAt",
          "type": "uint256"
        },
        {
          "internalType": "uint256",
          "name": "supply",
          "type": "uint256"
        },
        {
          "internalType": "uint256",
          "name": "minted",
          "type": "uint256"
        },
        {
          "internalType": "uint128",
          "name": "weight",
          "type": "uint128"
        },
        {
          "internalType": "uint256",
          "name": "price",
          "type": "uint256"
        },
        {
          "internalType": "address",
          "name": "royalty",
          "type": "address"
        }
      ],
      "stateMutability": "view",
      "type": "function"
    },
    {
      "inputs": [],
      "name": "unpause",
      "outputs": [],
      "stateMutability": "nonpayable",
      "type": "function"
    },
    {
      "inputs": [
        {
          "internalType": "uint256",
          "name": "tokenId",
          "type": "uint256"
        }
      ],
      "name": "uri",
      "outputs": [
        {
          "internalType": "string",
          "name": "",
          "type": "string"
        }
      ],
      "stateMutability": "view",
      "type": "function"
    },
    {
      "stateMutability": "payable",
      "type": "receive"
    }
  ],
  "bytecode": "0x60806040523480156200001157600080fd5b5060405162003d0e38038062003d0e83398101604081905262000034916200076e565b806200004081620000d8565b506006805460ff191690556200007560008051602062003cce83398151915260008051602062003cee833981519152620000f1565b6200009060008051602062003cee833981519152336200013c565b620000ab60008051602062003cce833981519152336200013c565b620000b9836101f462000148565b620000c4836200024d565b620000cf82620002dc565b505050620009c0565b8051620000ed90600290602084019062000666565b5050565b600082815260056020526040808220600101805490849055905190918391839186917fbd79b86ffe0ab8e8776151514217cd7cacd52c909f66475c3af44e129f0b00ff9190a4505050565b620000ed828262000365565b6127106001600160601b0382161115620001bc5760405162461bcd60e51b815260206004820152602a60248201527f455243323938313a20726f79616c7479206665652077696c6c206578636565646044820152692073616c65507269636560b01b60648201526084015b60405180910390fd5b6001600160a01b038216620002145760405162461bcd60e51b815260206004820152601960248201527f455243323938313a20696e76616c6964207265636569766572000000000000006044820152606401620001b3565b604080518082019091526001600160a01b039092168083526001600160601b039091166020909201829052600160a01b90910217600355565b60008051602062003cee83398151915262000269813362000409565b6001600160a01b038216620002b35760405162461bcd60e51b815260206004820152600f60248201526e696e76616c6964206164647265737360881b6044820152606401620001b3565b50600680546001600160a01b0390921661010002610100600160a81b0319909216919091179055565b60008051602062003cee833981519152620002f8813362000409565b6001600160a01b038216620003425760405162461bcd60e51b815260206004820152600f60248201526e696e76616c6964206164647265737360881b6044820152606401620001b3565b50600780546001600160a01b0319166001600160a01b0392909216919091179055565b60008281526005602090815260408083206001600160a01b038516845290915290205460ff16620000ed5760008281526005602090815260408083206001600160a01b03851684529091529020805460ff19166001179055620003c53390565b6001600160a01b0316816001600160a01b0316837f2f8788117e7eff1d82e926ec794901d17c78024a50270940304540a733656f0d60405160405180910390a45050565b60008281526005602090815260408083206001600160a01b038516845290915290205460ff16620000ed5762000455816001600160a01b03166014620004a660201b620015891760201c565b6200046b83602062001589620004a6821b17811c565b6040516020016200047e92919062000853565b60408051601f198184030181529082905262461bcd60e51b8252620001b391600401620008cc565b60606000620004b783600262000917565b620004c490600262000939565b6001600160401b03811115620004de57620004de62000725565b6040519080825280601f01601f19166020018201604052801562000509576020820181803683370190505b509050600360fc1b8160008151811062000527576200052762000954565b60200101906001600160f81b031916908160001a905350600f60fb1b8160018151811062000559576200055962000954565b60200101906001600160f81b031916908160001a90535060006200057f84600262000917565b6200058c90600162000939565b90505b60018111156200060e576f181899199a1a9b1b9c1cb0b131b232b360811b85600f1660108110620005c457620005c462000954565b1a60f81b828281518110620005dd57620005dd62000954565b60200101906001600160f81b031916908160001a90535060049490941c9362000606816200096a565b90506200058f565b5083156200065f5760405162461bcd60e51b815260206004820181905260248201527f537472696e67733a20686578206c656e67746820696e73756666696369656e746044820152606401620001b3565b9392505050565b828054620006749062000984565b90600052602060002090601f016020900481019282620006985760008555620006e3565b82601f10620006b357805160ff1916838001178555620006e3565b82800160010185558215620006e3579182015b82811115620006e3578251825591602001919060010190620006c6565b50620006f1929150620006f5565b5090565b5b80821115620006f15760008155600101620006f6565b6001600160a01b03811681146200072257600080fd5b50565b634e487b7160e01b600052604160045260246000fd5b60005b83811015620007585781810151838201526020016200073e565b8381111562000768576000848401525b50505050565b6000806000606084860312156200078457600080fd5b835162000791816200070c565b6020850151909350620007a4816200070c565b60408501519092506001600160401b0380821115620007c257600080fd5b818601915086601f830112620007d757600080fd5b815181811115620007ec57620007ec62000725565b604051601f8201601f19908116603f0116810190838211818310171562000817576200081762000725565b816040528281528960208487010111156200083157600080fd5b620008448360208301602088016200073b565b80955050505050509250925092565b7f416363657373436f6e74726f6c3a206163636f756e74200000000000000000008152600083516200088d8160178501602088016200073b565b7001034b99036b4b9b9b4b733903937b6329607d1b6017918401918201528351620008c08160288401602088016200073b565b01602801949350505050565b6020815260008251806020840152620008ed8160408501602087016200073b565b601f01601f19169190910160400192915050565b634e487b7160e01b600052601160045260246000fd5b600081600019048311821515161562000934576200093462000901565b500290565b600082198211156200094f576200094f62000901565b500190565b634e487b7160e01b600052603260045260246000fd5b6000816200097c576200097c62000901565b506000190190565b600181811c908216806200099957607f821691505b602082108103620009ba57634e487b7160e01b600052602260045260246000fd5b50919050565b6132fe80620009d06000396000f3fe6080604052600436106101f15760003560e01c80635944c7531161010d578063a217fddf116100a0578063d22b9f181161006f578063d22b9f181461065a578063d547741f1461066d578063e8a3d4851461068d578063e985e9c5146106a2578063f242432a146106eb57600080fd5b8063a217fddf146105e5578063a22cb465146105fa578063b57e36821461061a578063cf9ee2291461063a57600080fd5b8063797ccefe116100dc578063797ccefe146105705780638456cb591461059057806391d14854146105a5578063938e3d7b146105c557600080fd5b80635944c753146104e05780635c975abb146105005780636297c16c14610518578063721085791461053857600080fd5b80632a55205a116101855780633f4ba83a116101545780633f4ba83a1461042d5780634e1273f4146104425780634f64b2be1461046f578063583478d2146104a357600080fd5b80632a55205a1461038e5780632eb2c2d6146103cd5780632f2ff15d146103ed57806336568abe1461040d57600080fd5b80631b2df850116101c15780631b2df850146102fa5780631e5b3ece1461031c578063248a9ca31461033c5780632a0acc6a1461036c57600080fd5b8062fdd58e1461024857806301ffc9a71461027b57806304634d8d146102ab5780630e89341c146102cd57600080fd5b366102435760405162461bcd60e51b815260206004820152601f60248201527f757365206d696e74696e672066756e6374696f6e206578706c696369746c790060448201526064015b60405180910390fd5b600080fd5b34801561025457600080fd5b506102686102633660046125ea565b61070b565b6040519081526020015b60405180910390f35b34801561028757600080fd5b5061029b61029636600461262c565b61079d565b6040519015158152602001610272565b3480156102b757600080fd5b506102cb6102c6366004612660565b6107ae565b005b3480156102d957600080fd5b506102ed6102e8366004612695565b6107d6565b6040516102729190612706565b34801561030657600080fd5b5061026860008051602061328983398151915281565b34801561032857600080fd5b506102cb61033736600461280e565b6108f0565b34801561034857600080fd5b50610268610357366004612695565b60009081526005602052604090206001015490565b34801561037857600080fd5b506102686000805160206132a983398151915281565b34801561039a57600080fd5b506103ae6103a93660046128db565b6109d8565b604080516001600160a01b039093168352602083019190915201610272565b3480156103d957600080fd5b506102cb6103e8366004612991565b610a84565b3480156103f957600080fd5b506102cb610408366004612a3e565b610b1b565b34801561041957600080fd5b506102cb610428366004612a3e565b610b41565b34801561043957600080fd5b506102cb610bbf565b34801561044e57600080fd5b5061046261045d366004612a6e565b610be3565b6040516102729190612b75565b34801561047b57600080fd5b5061048f61048a366004612695565b610d0c565b604051610272989796959493929190612b88565b3480156104af57600080fd5b506006546104c89061010090046001600160a01b031681565b6040516001600160a01b039091168152602001610272565b3480156104ec57600080fd5b506102cb6104fb366004612be5565b610dea565b34801561050c57600080fd5b5060065460ff1661029b565b34801561052457600080fd5b506102cb610533366004612695565b610e14565b34801561054457600080fd5b50610558610553366004612695565b610f19565b6040516001600160801b039091168152602001610272565b34801561057c57600080fd5b506007546104c8906001600160a01b031681565b34801561059c57600080fd5b506102cb610f96565b3480156105b157600080fd5b5061029b6105c0366004612a3e565b610fb7565b3480156105d157600080fd5b506102cb6105e0366004612c23565b610fe2565b3480156105f157600080fd5b50610268600081565b34801561060657600080fd5b506102cb610615366004612c94565b611007565b34801561062657600080fd5b506102cb610635366004612cc7565b611012565b34801561064657600080fd5b506102cb610655366004612cc7565b61109c565b6102cb610668366004612ce4565b611120565b34801561067957600080fd5b506102cb610688366004612a3e565b61144e565b34801561069957600080fd5b506102ed611474565b3480156106ae57600080fd5b5061029b6106bd366004612d88565b6001600160a01b03918216600090815260016020908152604080832093909416825291909152205460ff1690565b3480156106f757600080fd5b506102cb610706366004612db6565b611502565b60006001600160a01b0383166107775760405162461bcd60e51b815260206004820152602b60248201527f455243313135353a2062616c616e636520717565727920666f7220746865207a60448201526a65726f206164647265737360a81b606482015260840161023a565b506000908152602081815260408083206001600160a01b03949094168352929052205490565b60006107a882611724565b92915050565b6000805160206132898339815191526107c78133611749565b6107d183836117ad565b505050565b6000818152600860205260409020600101546060906108375760405162461bcd60e51b815260206004820152601f60248201527f55524920717565727920666f72206e6f6e6578697374656e7420746f6b656e00604482015260640161023a565b6000828152600860205260408120805461085090612e1e565b80601f016020809104026020016040519081016040528092919081815260200182805461087c90612e1e565b80156108c95780601f1061089e576101008083540402835291602001916108c9565b820191906000526020600020905b8154815290600101906020018083116108ac57829003601f168201915b5050505050905060008151116108e7576108e283611867565b6108e9565b805b9392505050565b6000805160206132898339815191526109098133611749565b600083815260086020908152604090912083518051859361092e9284929101906124b8565b506020828101516001838101919091556040808501516002850155606085015160038501556080850151600485015560a08501516005850180546001600160801b0319166001600160801b0390921691909117905560c0850151600685015560e094850151600790940180546001600160a01b0319166001600160a01b039095169490941790935560008781526008909252919020429101558201516107d19084906101f46118fb565b60008281526004602090815260408083208151808301909252546001600160a01b038116808352600160a01b9091046001600160601b0316928201929092528291610a4d5750604080518082019091526003546001600160a01b0381168252600160a01b90046001600160601b031660208201525b602081015160009061271090610a6c906001600160601b031687612e6e565b610a769190612e8d565b915196919550909350505050565b6001600160a01b038516331480610aa05750610aa085336106bd565b610b075760405162461bcd60e51b815260206004820152603260248201527f455243313135353a207472616e736665722063616c6c6572206973206e6f74206044820152711bdddb995c881b9bdc88185c1c1c9bdd995960721b606482015260840161023a565b610b1485858585856119c6565b5050505050565b600082815260056020526040902060010154610b378133611749565b6107d18383611ba3565b6001600160a01b0381163314610bb15760405162461bcd60e51b815260206004820152602f60248201527f416363657373436f6e74726f6c3a2063616e206f6e6c792072656e6f756e636560448201526e103937b632b9903337b91039b2b63360891b606482015260840161023a565b610bbb8282611c29565b5050565b6000805160206132a9833981519152610bd88133611749565b610be0611c90565b50565b60608151835114610c485760405162461bcd60e51b815260206004820152602960248201527f455243313135353a206163636f756e747320616e6420696473206c656e677468604482015268040dad2e6dac2e8c6d60bb1b606482015260840161023a565b600083516001600160401b03811115610c6357610c63612719565b604051908082528060200260200182016040528015610c8c578160200160208202803683370190505b50905060005b8451811015610d0457610cd7858281518110610cb057610cb0612eaf565b6020026020010151858381518110610cca57610cca612eaf565b602002602001015161070b565b828281518110610ce957610ce9612eaf565b6020908102919091010152610cfd81612ec5565b9050610c92565b509392505050565b600860205260009081526040902080548190610d2790612e1e565b80601f0160208091040260200160405190810160405280929190818152602001828054610d5390612e1e565b8015610da05780601f10610d7557610100808354040283529160200191610da0565b820191906000526020600020905b815481529060010190602001808311610d8357829003601f168201915b50505060018401546002850154600386015460048701546005880154600689015460079099015497989497939650919450926001600160801b03909116916001600160a01b031688565b600080516020613289833981519152610e038133611749565b610e0e8484846118fb565b50505050565b600080516020613289833981519152610e2d8133611749565b60408051610120810182526000610100820181815282526020808301829052828401829052606083018290526080830182905260a0830182905260c0830182905260e08301829052858252600881529290208151805192939192610e9492849201906124b8565b506020820151600182015560408201516002820155606082015160038201556080820151600482015560a08201516005820180546001600160801b0319166001600160801b0390921691909117905560c0820151600682015560e090910151600790910180546001600160a01b0319166001600160a01b039092169190911790555050565b600081815260086020526040812060010154610f775760405162461bcd60e51b815260206004820152601b60248201527f717565727920666f72206e6f6e6578697374656e7420746f6b656e0000000000604482015260640161023a565b506000908152600860205260409020600501546001600160801b031690565b6000805160206132a9833981519152610faf8133611749565b610be0611d23565b60009182526005602090815260408084206001600160a01b0393909316845291905290205460ff1690565b600080516020613289833981519152610ffb8133611749565b610e0e6009848461253c565b610bbb338383611d9e565b6000805160206132a983398151915261102b8133611749565b6001600160a01b0382166110735760405162461bcd60e51b815260206004820152600f60248201526e696e76616c6964206164647265737360881b604482015260640161023a565b50600680546001600160a01b0390921661010002610100600160a81b0319909216919091179055565b6000805160206132a98339815191526110b58133611749565b6001600160a01b0382166110fd5760405162461bcd60e51b815260206004820152600f60248201526e696e76616c6964206164647265737360881b604482015260640161023a565b50600780546001600160a01b0319166001600160a01b0392909216919091179055565b60065460ff16156111665760405162461bcd60e51b815260206004820152601060248201526f14185d5cd8589b194e881c185d5cd95960821b604482015260640161023a565b80516000908152600860205260409020600101546111ba5760405162461bcd60e51b81526020600482015260116024820152703737b732bc34b9ba32b73a103a37b5b2b760791b604482015260640161023a565b8051600090815260086020526040902060028101544210156112115760405162461bcd60e51b815260206004820152601060248201526f1b9bdd081b185d5b98da1959081e595d60821b604482015260640161023a565b600082602001516001600160401b03161161126e5760405162461bcd60e51b815260206004820152601d60248201527f616d6f756e74206d7573742062652067726561746572207468616e2030000000604482015260640161023a565b60038101546020830151600483015461128f916001600160401b0316611e7e565b11156112dd5760405162461bcd60e51b815260206004820152601760248201527f6d6178696d756d20737570706c79206578636565646564000000000000000000604482015260640161023a565b600061130383602001516001600160401b03168360060154611e8a90919063ffffffff16565b6040840151519091501561139b5760075460408085015190516326baf4e560e21b81526000926001600160a01b031691639aebd3949161134891908690600401612ede565b6020604051808303816000875af1158015611367573d6000803e3d6000fd5b505050506040513d601f19601f8201168201806040525081019061138b9190612f00565b90506113978282611e96565b9150505b803410156113e25760405162461bcd60e51b81526020600482015260146024820152733737ba1032b737bab3b41032ba341033b4bb32b760611b604482015260640161023a565b6006546113fd9061010090046001600160a01b031634611ea2565b611425338451602080870151604080519283019052600082526001600160401b031690611fbb565b60208301516004830154611441916001600160401b0316611e7e565b8260040181905550505050565b60008281526005602052604090206001015461146a8133611749565b6107d18383611c29565b6009805461148190612e1e565b80601f01602080910402602001604051908101604052809291908181526020018280546114ad90612e1e565b80156114fa5780601f106114cf576101008083540402835291602001916114fa565b820191906000526020600020905b8154815290600101906020018083116114dd57829003601f168201915b505050505081565b6001600160a01b03851633148061151e575061151e85336106bd565b61157c5760405162461bcd60e51b815260206004820152602960248201527f455243313135353a2063616c6c6572206973206e6f74206f776e6572206e6f7260448201526808185c1c1c9bdd995960ba1b606482015260840161023a565b610b1485858585856120c5565b60606000611598836002612e6e565b6115a3906002612f19565b6001600160401b038111156115ba576115ba612719565b6040519080825280601f01601f1916602001820160405280156115e4576020820181803683370190505b509050600360fc1b816000815181106115ff576115ff612eaf565b60200101906001600160f81b031916908160001a905350600f60fb1b8160018151811061162e5761162e612eaf565b60200101906001600160f81b031916908160001a9053506000611652846002612e6e565b61165d906001612f19565b90505b60018111156116d5576f181899199a1a9b1b9c1cb0b131b232b360811b85600f166010811061169157611691612eaf565b1a60f81b8282815181106116a7576116a7612eaf565b60200101906001600160f81b031916908160001a90535060049490941c936116ce81612f31565b9050611660565b5083156108e95760405162461bcd60e51b815260206004820181905260248201527f537472696e67733a20686578206c656e67746820696e73756666696369656e74604482015260640161023a565b60006001600160e01b03198216637965db0b60e01b14806107a857506107a8826121e2565b6117538282610fb7565b610bbb5761176b816001600160a01b03166014611589565b611776836020611589565b604051602001611787929190612f48565b60408051601f198184030181529082905262461bcd60e51b825261023a91600401612706565b6127106001600160601b03821611156117d85760405162461bcd60e51b815260040161023a90612fbd565b6001600160a01b03821661182e5760405162461bcd60e51b815260206004820152601960248201527f455243323938313a20696e76616c696420726563656976657200000000000000604482015260640161023a565b604080518082019091526001600160a01b039092168083526001600160601b039091166020909201829052600160a01b90910217600355565b60606002805461187690612e1e565b80601f01602080910402602001604051908101604052809291908181526020018280546118a290612e1e565b80156118ef5780601f106118c4576101008083540402835291602001916118ef565b820191906000526020600020905b8154815290600101906020018083116118d257829003601f168201915b50505050509050919050565b6127106001600160601b03821611156119265760405162461bcd60e51b815260040161023a90612fbd565b6001600160a01b03821661197c5760405162461bcd60e51b815260206004820152601b60248201527f455243323938313a20496e76616c696420706172616d65746572730000000000604482015260640161023a565b6040805180820182526001600160a01b0393841681526001600160601b0392831660208083019182526000968752600490529190942093519051909116600160a01b029116179055565b8151835114611a285760405162461bcd60e51b815260206004820152602860248201527f455243313135353a2069647320616e6420616d6f756e7473206c656e677468206044820152670dad2e6dac2e8c6d60c31b606482015260840161023a565b6001600160a01b038416611a4e5760405162461bcd60e51b815260040161023a90613007565b3360005b8451811015611b35576000858281518110611a6f57611a6f612eaf565b602002602001015190506000858381518110611a8d57611a8d612eaf565b602090810291909101810151600084815280835260408082206001600160a01b038e168352909352919091205490915081811015611add5760405162461bcd60e51b815260040161023a9061304c565b6000838152602081815260408083206001600160a01b038e8116855292528083208585039055908b16825281208054849290611b1a908490612f19565b9250508190555050505080611b2e90612ec5565b9050611a52565b50846001600160a01b0316866001600160a01b0316826001600160a01b03167f4a39dc06d4c0dbc64b70af90fd698a233a518aa5d07e595d983b8c0526c8f7fb8787604051611b85929190613096565b60405180910390a4611b9b818787878787612207565b505050505050565b611bad8282610fb7565b610bbb5760008281526005602090815260408083206001600160a01b03851684529091529020805460ff19166001179055611be53390565b6001600160a01b0316816001600160a01b0316837f2f8788117e7eff1d82e926ec794901d17c78024a50270940304540a733656f0d60405160405180910390a45050565b611c338282610fb7565b15610bbb5760008281526005602090815260408083206001600160a01b0385168085529252808320805460ff1916905551339285917ff6391f5c32d9c69d2a47ea670b442974b53935d1edc7fd64eb21e047a839171b9190a45050565b60065460ff16611cd95760405162461bcd60e51b815260206004820152601460248201527314185d5cd8589b194e881b9bdd081c185d5cd95960621b604482015260640161023a565b6006805460ff191690557f5db9ee0a495bf2e6ff9c91a7834c1ba4fdd244a5e8aa4e537bd38aeae4b073aa335b6040516001600160a01b03909116815260200160405180910390a1565b60065460ff1615611d695760405162461bcd60e51b815260206004820152601060248201526f14185d5cd8589b194e881c185d5cd95960821b604482015260640161023a565b6006805460ff191660011790557f62e78cea01bee320cd4e420270b5ea74000d11b0c9f74754ebdbfc544b05a258611d063390565b816001600160a01b0316836001600160a01b031603611e115760405162461bcd60e51b815260206004820152602960248201527f455243313135353a2073657474696e6720617070726f76616c20737461747573604482015268103337b91039b2b63360b91b606482015260840161023a565b6001600160a01b03838116600081815260016020908152604080832094871680845294825291829020805460ff191686151590811790915591519182527f17307eab39ab6107e8899845ad3d59bd9653f200f220920489ca2b5937696c31910160405180910390a3505050565b60006108e98284612f19565b60006108e98284612e6e565b60006108e982846130c4565b80471015611ef25760405162461bcd60e51b815260206004820152601d60248201527f416464726573733a20696e73756666696369656e742062616c616e6365000000604482015260640161023a565b6000826001600160a01b03168260405160006040518083038185875af1925050503d8060008114611f3f576040519150601f19603f3d011682016040523d82523d6000602084013e611f44565b606091505b50509050806107d15760405162461bcd60e51b815260206004820152603a60248201527f416464726573733a20756e61626c6520746f2073656e642076616c75652c207260448201527f6563697069656e74206d61792068617665207265766572746564000000000000606482015260840161023a565b6001600160a01b03841661201b5760405162461bcd60e51b815260206004820152602160248201527f455243313135353a206d696e7420746f20746865207a65726f206164647265736044820152607360f81b606482015260840161023a565b336120358160008761202c88612362565b610b1488612362565b6000848152602081815260408083206001600160a01b038916845290915281208054859290612065908490612f19565b909155505060408051858152602081018590526001600160a01b0380881692600092918516917fc3d58168c5ae7397731d063d5bbf3d657854427343f4c083240f7aacaa2d0f62910160405180910390a4610b14816000878787876123ad565b6001600160a01b0384166120eb5760405162461bcd60e51b815260040161023a90613007565b336120fb81878761202c88612362565b6000848152602081815260408083206001600160a01b038a1684529091529020548381101561213c5760405162461bcd60e51b815260040161023a9061304c565b6000858152602081815260408083206001600160a01b038b8116855292528083208785039055908816825281208054869290612179908490612f19565b909155505060408051868152602081018690526001600160a01b03808916928a821692918616917fc3d58168c5ae7397731d063d5bbf3d657854427343f4c083240f7aacaa2d0f62910160405180910390a46121d98288888888886123ad565b50505050505050565b60006001600160e01b0319821663152a902d60e11b14806107a857506107a882612468565b6001600160a01b0384163b15611b9b5760405163bc197c8160e01b81526001600160a01b0385169063bc197c819061224b90899089908890889088906004016130db565b6020604051808303816000875af1925050508015612286575060408051601f3d908101601f1916820190925261228391810190613139565b60015b61233257612292613156565b806308c379a0036122cb57506122a6613172565b806122b157506122cd565b8060405162461bcd60e51b815260040161023a9190612706565b505b60405162461bcd60e51b815260206004820152603460248201527f455243313135353a207472616e7366657220746f206e6f6e20455243313135356044820152732932b1b2b4bb32b91034b6b83632b6b2b73a32b960611b606482015260840161023a565b6001600160e01b0319811663bc197c8160e01b146121d95760405162461bcd60e51b815260040161023a906131fb565b6040805160018082528183019092526060916000919060208083019080368337019050509050828160008151811061239c5761239c612eaf565b602090810291909101015292915050565b6001600160a01b0384163b15611b9b5760405163f23a6e6160e01b81526001600160a01b0385169063f23a6e61906123f19089908990889088908890600401613243565b6020604051808303816000875af192505050801561242c575060408051601f3d908101601f1916820190925261242991810190613139565b60015b61243857612292613156565b6001600160e01b0319811663f23a6e6160e01b146121d95760405162461bcd60e51b815260040161023a906131fb565b60006001600160e01b03198216636cdb3d1360e11b148061249957506001600160e01b031982166303a24d0760e21b145b806107a857506301ffc9a760e01b6001600160e01b03198316146107a8565b8280546124c490612e1e565b90600052602060002090601f0160209004810192826124e6576000855561252c565b82601f106124ff57805160ff191683800117855561252c565b8280016001018555821561252c579182015b8281111561252c578251825591602001919060010190612511565b506125389291506125b0565b5090565b82805461254890612e1e565b90600052602060002090601f01602090048101928261256a576000855561252c565b82601f106125835782800160ff1982351617855561252c565b8280016001018555821561252c579182015b8281111561252c578235825591602001919060010190612595565b5b8082111561253857600081556001016125b1565b6001600160a01b0381168114610be057600080fd5b80356125e5816125c5565b919050565b600080604083850312156125fd57600080fd5b8235612608816125c5565b946020939093013593505050565b6001600160e01b031981168114610be057600080fd5b60006020828403121561263e57600080fd5b81356108e981612616565b80356001600160601b03811681146125e557600080fd5b6000806040838503121561267357600080fd5b823561267e816125c5565b915061268c60208401612649565b90509250929050565b6000602082840312156126a757600080fd5b5035919050565b60005b838110156126c95781810151838201526020016126b1565b83811115610e0e5750506000910152565b600081518084526126f28160208601602086016126ae565b601f01601f19169290920160200192915050565b6020815260006108e960208301846126da565b634e487b7160e01b600052604160045260246000fd5b601f8201601f191681016001600160401b038111828210171561275457612754612719565b6040525050565b60405161010081016001600160401b038111828210171561277e5761277e612719565b60405290565b600082601f83011261279557600080fd5b81356001600160401b038111156127ae576127ae612719565b6040516127c5601f8301601f19166020018261272f565b8181528460208386010111156127da57600080fd5b816020850160208301376000918101602001919091529392505050565b80356001600160801b03811681146125e557600080fd5b6000806040838503121561282157600080fd5b8235915060208301356001600160401b038082111561283f57600080fd5b90840190610100828703121561285457600080fd5b61285c61275b565b82358281111561286b57600080fd5b61287788828601612784565b825250602083013560208201526040830135604082015260608301356060820152608083013560808201526128ae60a084016127f7565b60a082015260c083013560c08201526128c960e084016125da565b60e08201528093505050509250929050565b600080604083850312156128ee57600080fd5b50508035926020909101359150565b60006001600160401b0382111561291657612916612719565b5060051b60200190565b600082601f83011261293157600080fd5b8135602061293e826128fd565b60405161294b828261272f565b83815260059390931b850182019282810191508684111561296b57600080fd5b8286015b84811015612986578035835291830191830161296f565b509695505050505050565b600080600080600060a086880312156129a957600080fd5b85356129b4816125c5565b945060208601356129c4816125c5565b935060408601356001600160401b03808211156129e057600080fd5b6129ec89838a01612920565b94506060880135915080821115612a0257600080fd5b612a0e89838a01612920565b93506080880135915080821115612a2457600080fd5b50612a3188828901612784565b9150509295509295909350565b60008060408385031215612a5157600080fd5b823591506020830135612a63816125c5565b809150509250929050565b60008060408385031215612a8157600080fd5b82356001600160401b0380821115612a9857600080fd5b818501915085601f830112612aac57600080fd5b81356020612ab9826128fd565b604051612ac6828261272f565b83815260059390931b8501820192828101915089841115612ae657600080fd5b948201945b83861015612b0d578535612afe816125c5565b82529482019490820190612aeb565b96505086013592505080821115612b2357600080fd5b50612b3085828601612920565b9150509250929050565b600081518084526020808501945080840160005b83811015612b6a57815187529582019590820190600101612b4e565b509495945050505050565b6020815260006108e96020830184612b3a565b6000610100808352612b9c8184018c6126da565b602084019a909a5250506040810196909652606086019490945260808501929092526001600160801b031660a084015260c08301526001600160a01b031660e090910152919050565b600080600060608486031215612bfa57600080fd5b833592506020840135612c0c816125c5565b9150612c1a60408501612649565b90509250925092565b60008060208385031215612c3657600080fd5b82356001600160401b0380821115612c4d57600080fd5b818501915085601f830112612c6157600080fd5b813581811115612c7057600080fd5b866020828501011115612c8257600080fd5b60209290920196919550909350505050565b60008060408385031215612ca757600080fd5b8235612cb2816125c5565b915060208301358015158114612a6357600080fd5b600060208284031215612cd957600080fd5b81356108e9816125c5565b600060208284031215612cf657600080fd5b81356001600160401b0380821115612d0d57600080fd5b9083019060608286031215612d2157600080fd5b604051606081018181108382111715612d3c57612d3c612719565b6040528235815260208301358281168114612d5657600080fd5b6020820152604083013582811115612d6d57600080fd5b612d7987828601612784565b60408301525095945050505050565b60008060408385031215612d9b57600080fd5b8235612da6816125c5565b91506020830135612a63816125c5565b600080600080600060a08688031215612dce57600080fd5b8535612dd9816125c5565b94506020860135612de9816125c5565b9350604086013592506060860135915060808601356001600160401b03811115612e1257600080fd5b612a3188828901612784565b600181811c90821680612e3257607f821691505b602082108103612e5257634e487b7160e01b600052602260045260246000fd5b50919050565b634e487b7160e01b600052601160045260246000fd5b6000816000190483118215151615612e8857612e88612e58565b500290565b600082612eaa57634e487b7160e01b600052601260045260246000fd5b500490565b634e487b7160e01b600052603260045260246000fd5b600060018201612ed757612ed7612e58565b5060010190565b604081526000612ef160408301856126da565b90508260208301529392505050565b600060208284031215612f1257600080fd5b5051919050565b60008219821115612f2c57612f2c612e58565b500190565b600081612f4057612f40612e58565b506000190190565b7f416363657373436f6e74726f6c3a206163636f756e7420000000000000000000815260008351612f808160178501602088016126ae565b7001034b99036b4b9b9b4b733903937b6329607d1b6017918401918201528351612fb18160288401602088016126ae565b01602801949350505050565b6020808252602a908201527f455243323938313a20726f79616c7479206665652077696c6c206578636565646040820152692073616c65507269636560b01b606082015260800190565b60208082526025908201527f455243313135353a207472616e7366657220746f20746865207a65726f206164604082015264647265737360d81b606082015260800190565b6020808252602a908201527f455243313135353a20696e73756666696369656e742062616c616e636520666f60408201526939103a3930b739b332b960b11b606082015260800190565b6040815260006130a96040830185612b3a565b82810360208401526130bb8185612b3a565b95945050505050565b6000828210156130d6576130d6612e58565b500390565b6001600160a01b0386811682528516602082015260a06040820181905260009061310790830186612b3a565b82810360608401526131198186612b3a565b9050828103608084015261312d81856126da565b98975050505050505050565b60006020828403121561314b57600080fd5b81516108e981612616565b600060033d111561316f5760046000803e5060005160e01c5b90565b600060443d10156131805790565b6040516003193d81016004833e81513d6001600160401b0381602484011181841117156131af57505050505090565b82850191508151818111156131c75750505050505090565b843d87010160208285010111156131e15750505050505090565b6131f06020828601018761272f565b509095945050505050565b60208082526028908201527f455243313135353a204552433131353552656365697665722072656a656374656040820152676420746f6b656e7360c01b606082015260800190565b6001600160a01b03868116825285166020820152604081018490526060810183905260a06080820181905260009061327d908301846126da565b97965050505050505056feaf290d8680820aad922855f39b306097b20e28774d6c1ad35a20325630c3a02cdf8b4c520ffe197c5343c6f5aec59570151ef9a492f2c624fd45ddde6135ec42a26469706673582212208be34bc14b16a581c379ff7c0251fe36bfec6267a986fcda107defa5d36ff7f464736f6c634300080d0033af290d8680820aad922855f39b306097b20e28774d6c1ad35a20325630c3a02cdf8b4c520ffe197c5343c6f5aec59570151ef9a492f2c624fd45ddde6135ec42",
  "linkReferences": {},
  "deployedLinkReferences": {}
}