{
  "_format": "hh-sol-artifact-1",
  "contractName": "Playables",
  "sourceName": "contracts/Playables.sol",
  "abi": [
    {
      "inputs": [
        {
          "internalType": "address",
          "name": "_rewarder",
          "type": "address"
        },
        {
          "internalType": "address",
          "name": "_coin",
          "type": "address"
        },
        {
          "internalType": "string",
          "name": "_uri",
          "type": "string"
        }
      ],
      "stateMutability": "nonpayable",
      "type": "constructor"
    },
    {
      "anonymous": false,
      "inputs": [
        {
          "indexed": true,
          "internalType": "address",
          "name": "account",
          "type": "address"
        },
        {
          "indexed": true,
          "internalType": "address",
          "name": "operator",
          "type": "address"
        },
        {
          "indexed": false,
          "internalType": "bool",
          "name": "approved",
          "type": "bool"
        }
      ],
      "name": "ApprovalForAll",
      "type": "event"
    },
    {
      "anonymous": false,
      "inputs": [
        {
          "indexed": true,
          "internalType": "address",
          "name": "previousOwner",
          "type": "address"
        },
        {
          "indexed": true,
          "internalType": "address",
          "name": "newOwner",
          "type": "address"
        }
      ],
      "name": "OwnershipTransferred",
      "type": "event"
    },
    {
      "anonymous": false,
      "inputs": [
        {
          "indexed": false,
          "internalType": "address",
          "name": "account",
          "type": "address"
        }
      ],
      "name": "Paused",
      "type": "event"
    },
    {
      "anonymous": false,
      "inputs": [
        {
          "indexed": true,
          "internalType": "address",
          "name": "operator",
          "type": "address"
        },
        {
          "indexed": true,
          "internalType": "address",
          "name": "from",
          "type": "address"
        },
        {
          "indexed": true,
          "internalType": "address",
          "name": "to",
          "type": "address"
        },
        {
          "indexed": false,
          "internalType": "uint256[]",
          "name": "ids",
          "type": "uint256[]"
        },
        {
          "indexed": false,
          "internalType": "uint256[]",
          "name": "values",
          "type": "uint256[]"
        }
      ],
      "name": "TransferBatch",
      "type": "event"
    },
    {
      "anonymous": false,
      "inputs": [
        {
          "indexed": true,
          "internalType": "address",
          "name": "operator",
          "type": "address"
        },
        {
          "indexed": true,
          "internalType": "address",
          "name": "from",
          "type": "address"
        },
        {
          "indexed": true,
          "internalType": "address",
          "name": "to",
          "type": "address"
        },
        {
          "indexed": false,
          "internalType": "uint256",
          "name": "id",
          "type": "uint256"
        },
        {
          "indexed": false,
          "internalType": "uint256",
          "name": "value",
          "type": "uint256"
        }
      ],
      "name": "TransferSingle",
      "type": "event"
    },
    {
      "anonymous": false,
      "inputs": [
        {
          "indexed": false,
          "internalType": "string",
          "name": "value",
          "type": "string"
        },
        {
          "indexed": true,
          "internalType": "uint256",
          "name": "id",
          "type": "uint256"
        }
      ],
      "name": "URI",
      "type": "event"
    },
    {
      "anonymous": false,
      "inputs": [
        {
          "indexed": false,
          "internalType": "address",
          "name": "account",
          "type": "address"
        }
      ],
      "name": "Unpaused",
      "type": "event"
    },
    {
      "inputs": [
        {
          "internalType": "address",
          "name": "account",
          "type": "address"
        },
        {
          "internalType": "uint256",
          "name": "id",
          "type": "uint256"
        }
      ],
      "name": "balanceOf",
      "outputs": [
        {
          "internalType": "uint256",
          "name": "",
          "type": "uint256"
        }
      ],
      "stateMutability": "view",
      "type": "function"
    },
    {
      "inputs": [
        {
          "internalType": "address[]",
          "name": "accounts",
          "type": "address[]"
        },
        {
          "internalType": "uint256[]",
          "name": "ids",
          "type": "uint256[]"
        }
      ],
      "name": "balanceOfBatch",
      "outputs": [
        {
          "internalType": "uint256[]",
          "name": "",
          "type": "uint256[]"
        }
      ],
      "stateMutability": "view",
      "type": "function"
    },
    {
      "inputs": [],
      "name": "coin",
      "outputs": [
        {
          "internalType": "contract ICoin",
          "name": "",
          "type": "address"
        }
      ],
      "stateMutability": "view",
      "type": "function"
    },
    {
      "inputs": [
        {
          "internalType": "uint256",
          "name": "",
          "type": "uint256"
        }
      ],
      "name": "collections",
      "outputs": [
        {
          "internalType": "string",
          "name": "uri",
          "type": "string"
        },
        {
          "internalType": "uint256",
          "name": "createdAt",
          "type": "uint256"
        },
        {
          "internalType": "uint256",
          "name": "launchedAt",
          "type": "uint256"
        },
        {
          "internalType": "uint256",
          "name": "supply",
          "type": "uint256"
        },
        {
          "internalType": "uint256",
          "name": "minted",
          "type": "uint256"
        },
        {
          "internalType": "uint128",
          "name": "weight",
          "type": "uint128"
        },
        {
          "internalType": "uint256",
          "name": "price",
          "type": "uint256"
        },
        {
          "internalType": "address",
          "name": "artist",
          "type": "address"
        }
      ],
      "stateMutability": "view",
      "type": "function"
    },
    {
      "inputs": [],
      "name": "contractURI",
      "outputs": [
        {
          "internalType": "string",
          "name": "",
          "type": "string"
        }
      ],
      "stateMutability": "view",
      "type": "function"
    },
    {
      "inputs": [
        {
          "internalType": "uint256",
          "name": "tokenId",
          "type": "uint256"
        }
      ],
      "name": "getStakingWeight",
      "outputs": [
        {
          "internalType": "uint128",
          "name": "",
          "type": "uint128"
        }
      ],
      "stateMutability": "view",
      "type": "function"
    },
    {
      "inputs": [
        {
          "internalType": "address",
          "name": "account",
          "type": "address"
        },
        {
          "internalType": "address",
          "name": "operator",
          "type": "address"
        }
      ],
      "name": "isApprovedForAll",
      "outputs": [
        {
          "internalType": "bool",
          "name": "",
          "type": "bool"
        }
      ],
      "stateMutability": "view",
      "type": "function"
    },
    {
      "inputs": [
        {
          "internalType": "uint256",
          "name": "tokenId",
          "type": "uint256"
        },
        {
          "internalType": "uint64",
          "name": "amount",
          "type": "uint64"
        },
        {
          "internalType": "bool",
          "name": "payWithCoin",
          "type": "bool"
        },
        {
          "internalType": "string",
          "name": "discount",
          "type": "string"
        }
      ],
      "name": "mint",
      "outputs": [],
      "stateMutability": "payable",
      "type": "function"
    },
    {
      "inputs": [
        {
          "internalType": "uint256",
          "name": "tokenId",
          "type": "uint256"
        },
        {
          "internalType": "uint64",
          "name": "amount",
          "type": "uint64"
        },
        {
          "internalType": "bool",
          "name": "payWithCoin",
          "type": "bool"
        }
      ],
      "name": "mint",
      "outputs": [],
      "stateMutability": "payable",
      "type": "function"
    },
    {
      "inputs": [],
      "name": "owner",
      "outputs": [
        {
          "internalType": "address",
          "name": "",
          "type": "address"
        }
      ],
      "stateMutability": "view",
      "type": "function"
    },
    {
      "inputs": [],
      "name": "pause",
      "outputs": [],
      "stateMutability": "nonpayable",
      "type": "function"
    },
    {
      "inputs": [],
      "name": "paused",
      "outputs": [
        {
          "internalType": "bool",
          "name": "",
          "type": "bool"
        }
      ],
      "stateMutability": "view",
      "type": "function"
    },
    {
      "inputs": [],
      "name": "renounceOwnership",
      "outputs": [],
      "stateMutability": "nonpayable",
      "type": "function"
    },
    {
      "inputs": [],
      "name": "rewarder",
      "outputs": [
        {
          "internalType": "contract IAffiliate",
          "name": "",
          "type": "address"
        }
      ],
      "stateMutability": "view",
      "type": "function"
    },
    {
      "inputs": [
        {
          "internalType": "uint256",
          "name": "_tokenId",
          "type": "uint256"
        },
        {
          "internalType": "uint256",
          "name": "_salePrice",
          "type": "uint256"
        }
      ],
      "name": "royaltyInfo",
      "outputs": [
        {
          "internalType": "address",
          "name": "",
          "type": "address"
        },
        {
          "internalType": "uint256",
          "name": "",
          "type": "uint256"
        }
      ],
      "stateMutability": "view",
      "type": "function"
    },
    {
      "inputs": [
        {
          "internalType": "address",
          "name": "from",
          "type": "address"
        },
        {
          "internalType": "address",
          "name": "to",
          "type": "address"
        },
        {
          "internalType": "uint256[]",
          "name": "ids",
          "type": "uint256[]"
        },
        {
          "internalType": "uint256[]",
          "name": "amounts",
          "type": "uint256[]"
        },
        {
          "internalType": "bytes",
          "name": "data",
          "type": "bytes"
        }
      ],
      "name": "safeBatchTransferFrom",
      "outputs": [],
      "stateMutability": "nonpayable",
      "type": "function"
    },
    {
      "inputs": [
        {
          "internalType": "address",
          "name": "from",
          "type": "address"
        },
        {
          "internalType": "address",
          "name": "to",
          "type": "address"
        },
        {
          "internalType": "uint256",
          "name": "id",
          "type": "uint256"
        },
        {
          "internalType": "uint256",
          "name": "amount",
          "type": "uint256"
        },
        {
          "internalType": "bytes",
          "name": "data",
          "type": "bytes"
        }
      ],
      "name": "safeTransferFrom",
      "outputs": [],
      "stateMutability": "nonpayable",
      "type": "function"
    },
    {
      "inputs": [
        {
          "internalType": "address",
          "name": "operator",
          "type": "address"
        },
        {
          "internalType": "bool",
          "name": "approved",
          "type": "bool"
        }
      ],
      "name": "setApprovalForAll",
      "outputs": [],
      "stateMutability": "nonpayable",
      "type": "function"
    },
    {
      "inputs": [
        {
          "internalType": "uint256",
          "name": "tokenId",
          "type": "uint256"
        },
        {
          "components": [
            {
              "internalType": "string",
              "name": "uri",
              "type": "string"
            },
            {
              "internalType": "uint256",
              "name": "createdAt",
              "type": "uint256"
            },
            {
              "internalType": "uint256",
              "name": "launchedAt",
              "type": "uint256"
            },
            {
              "internalType": "uint256",
              "name": "supply",
              "type": "uint256"
            },
            {
              "internalType": "uint256",
              "name": "minted",
              "type": "uint256"
            },
            {
              "internalType": "uint128",
              "name": "weight",
              "type": "uint128"
            },
            {
              "internalType": "uint256",
              "name": "price",
              "type": "uint256"
            },
            {
              "internalType": "address",
              "name": "artist",
              "type": "address"
            }
          ],
          "internalType": "struct Playables.Collection",
          "name": "collection",
          "type": "tuple"
        }
      ],
      "name": "setCollection",
      "outputs": [],
      "stateMutability": "nonpayable",
      "type": "function"
    },
    {
      "inputs": [
        {
          "internalType": "string",
          "name": "_uri",
          "type": "string"
        }
      ],
      "name": "setContractURI",
      "outputs": [],
      "stateMutability": "nonpayable",
      "type": "function"
    },
    {
      "inputs": [
        {
          "internalType": "address",
          "name": "_receiver",
          "type": "address"
        },
        {
          "internalType": "uint96",
          "name": "feeNumerator",
          "type": "uint96"
        }
      ],
      "name": "setDefaultRoyalty",
      "outputs": [],
      "stateMutability": "nonpayable",
      "type": "function"
    },
    {
      "inputs": [
        {
          "internalType": "uint256",
          "name": "tokenId",
          "type": "uint256"
        },
        {
          "internalType": "address",
          "name": "_receiver",
          "type": "address"
        },
        {
          "internalType": "uint96",
          "name": "feeNumerator",
          "type": "uint96"
        }
      ],
      "name": "setTokenRoyalty",
      "outputs": [],
      "stateMutability": "nonpayable",
      "type": "function"
    },
    {
      "inputs": [
        {
          "internalType": "bytes4",
          "name": "interfaceId",
          "type": "bytes4"
        }
      ],
      "name": "supportsInterface",
      "outputs": [
        {
          "internalType": "bool",
          "name": "",
          "type": "bool"
        }
      ],
      "stateMutability": "view",
      "type": "function"
    },
    {
      "inputs": [
        {
          "internalType": "address",
          "name": "newOwner",
          "type": "address"
        }
      ],
      "name": "transferOwnership",
      "outputs": [],
      "stateMutability": "nonpayable",
      "type": "function"
    },
    {
      "inputs": [],
      "name": "unpause",
      "outputs": [],
      "stateMutability": "nonpayable",
      "type": "function"
    },
    {
      "inputs": [
        {
          "internalType": "uint256",
          "name": "tokenId",
          "type": "uint256"
        }
      ],
      "name": "uri",
      "outputs": [
        {
          "internalType": "string",
          "name": "",
          "type": "string"
        }
      ],
      "stateMutability": "view",
      "type": "function"
    },
    {
      "stateMutability": "payable",
      "type": "receive"
    }
  ],
  "bytecode": "0x60a06040523480156200001157600080fd5b506040516200325f3803806200325f8339810160408190526200003491620002de565b80620000408162000095565b506200004c33620000ae565b6005805460ff60a01b191690556001600160a01b03828116608052600780546001600160a01b0319169185169190911790556200008c826101f462000100565b5050506200041f565b8051620000aa90600290602084019062000205565b5050565b600580546001600160a01b038381166001600160a01b0319831681179093556040519116919082907f8be0079c531659141344cd1fd0a4f28419497f9722a3daafe3b4186f6b6457e090600090a35050565b6127106001600160601b0382161115620001745760405162461bcd60e51b815260206004820152602a60248201527f455243323938313a20726f79616c7479206665652077696c6c206578636565646044820152692073616c65507269636560b01b60648201526084015b60405180910390fd5b6001600160a01b038216620001cc5760405162461bcd60e51b815260206004820152601960248201527f455243323938313a20696e76616c69642072656365697665720000000000000060448201526064016200016b565b604080518082019091526001600160a01b039092168083526001600160601b039091166020909201829052600160a01b90910217600355565b8280546200021390620003e2565b90600052602060002090601f01602090048101928262000237576000855562000282565b82601f106200025257805160ff191683800117855562000282565b8280016001018555821562000282579182015b828111156200028257825182559160200191906001019062000265565b506200029092915062000294565b5090565b5b8082111562000290576000815560010162000295565b80516001600160a01b0381168114620002c357600080fd5b919050565b634e487b7160e01b600052604160045260246000fd5b600080600060608486031215620002f457600080fd5b620002ff84620002ab565b9250602062000310818601620002ab565b60408601519093506001600160401b03808211156200032e57600080fd5b818701915087601f8301126200034357600080fd5b815181811115620003585762000358620002c8565b604051601f8201601f19908116603f01168101908382118183101715620003835762000383620002c8565b816040528281528a868487010111156200039c57600080fd5b600093505b82841015620003c05784840186015181850187015292850192620003a1565b82841115620003d25760008684830101525b8096505050505050509250925092565b600181811c90821680620003f757607f821691505b602082108114156200041957634e487b7160e01b600052602260045260246000fd5b50919050565b608051612e16620004496000396000818161029f0152818161172301526117f10152612e166000f3fe6080604052600436106101845760003560e01c806372108579116100d1578063dcc3e06e1161008a578063e985e9c511610064578063e985e9c5146104f4578063f242432a1461053d578063f2fde38b1461055d578063fdbda0ec1461057d57600080fd5b8063dcc3e06e1461049f578063e2b9172c146104bf578063e8a3d485146104df57600080fd5b806372108579146103e15780638456cb59146104195780638da5cb5b1461042e578063938e3d7b1461044c578063a22cb4651461046c578063ad9870411461048c57600080fd5b80632eb2c2d61161013e5780635264c89b116101185780635264c89b1461037a5780635944c7531461038d5780635c975abb146103ad578063715018a6146103cc57600080fd5b80632eb2c2d6146103185780633f4ba83a146103385780634e1273f41461034d57600080fd5b8062fdd58e146101db57806301ffc9a71461020e57806304634d8d1461023e5780630e89341c1461026057806311df99951461028d5780632a55205a146102d957600080fd5b366101d65760405162461bcd60e51b815260206004820152601f60248201527f757365206d696e74696e672066756e6374696f6e206578706c696369746c790060448201526064015b60405180910390fd5b600080fd5b3480156101e757600080fd5b506101fb6101f6366004612194565b6105b1565b6040519081526020015b60405180910390f35b34801561021a57600080fd5b5061022e6102293660046121d4565b610643565b6040519015158152602001610205565b34801561024a57600080fd5b5061025e610259366004612208565b610654565b005b34801561026c57600080fd5b5061028061027b36600461223b565b61068c565b60405161020591906122a1565b34801561029957600080fd5b506102c17f000000000000000000000000000000000000000000000000000000000000000081565b6040516001600160a01b039091168152602001610205565b3480156102e557600080fd5b506102f96102f43660046122b4565b6107a6565b604080516001600160a01b039093168352602083019190915201610205565b34801561032457600080fd5b5061025e610333366004612448565b610852565b34801561034457600080fd5b5061025e6108e9565b34801561035957600080fd5b5061036d6103683660046124f1565b61091d565b60405161020591906125f6565b61025e610388366004612630565b610a46565b34801561039957600080fd5b5061025e6103a8366004612697565b610ca9565b3480156103b957600080fd5b50600554600160a01b900460ff1661022e565b3480156103d857600080fd5b5061025e610ce3565b3480156103ed57600080fd5b506104016103fc36600461223b565b610d17565b6040516001600160801b039091168152602001610205565b34801561042557600080fd5b5061025e610d64565b34801561043a57600080fd5b506005546001600160a01b03166102c1565b34801561045857600080fd5b5061025e6104673660046126d3565b610d96565b34801561047857600080fd5b5061025e610487366004612744565b610dcc565b61025e61049a36600461276e565b610dd7565b3480156104ab57600080fd5b506007546102c1906001600160a01b031681565b3480156104cb57600080fd5b5061025e6104da3660046127b8565b610fb7565b3480156104eb57600080fd5b50610280611098565b34801561050057600080fd5b5061022e61050f366004612885565b6001600160a01b03918216600090815260016020908152604080832093909416825291909152205460ff1690565b34801561054957600080fd5b5061025e6105583660046128af565b611126565b34801561056957600080fd5b5061025e610578366004612913565b6111ad565b34801561058957600080fd5b5061059d61059836600461223b565b611248565b60405161020598979695949392919061292e565b60006001600160a01b03831661061d5760405162461bcd60e51b815260206004820152602b60248201527f455243313135353a2062616c616e636520717565727920666f7220746865207a60448201526a65726f206164647265737360a81b60648201526084016101cd565b506000908152602081815260408083206001600160a01b03949094168352929052205490565b600061064e82611326565b92915050565b6005546001600160a01b0316331461067e5760405162461bcd60e51b81526004016101cd9061298b565b610688828261134b565b5050565b6000818152600660205260409020600101546060906106ed5760405162461bcd60e51b815260206004820152601f60248201527f55524920717565727920666f72206e6f6e6578697374656e7420746f6b656e0060448201526064016101cd565b60008281526006602052604081208054610706906129c0565b80601f0160208091040260200160405190810160405280929190818152602001828054610732906129c0565b801561077f5780601f106107545761010080835404028352916020019161077f565b820191906000526020600020905b81548152906001019060200180831161076257829003601f168201915b50505050509050600081511161079d5761079883611405565b61079f565b805b9392505050565b60008281526004602090815260408083208151808301909252546001600160a01b038116808352600160a01b9091046001600160601b031692820192909252829161081b5750604080518082019091526003546001600160a01b0381168252600160a01b90046001600160601b031660208201525b60208101516000906127109061083a906001600160601b031687612a11565b6108449190612a30565b915196919550909350505050565b6001600160a01b03851633148061086e575061086e853361050f565b6108d55760405162461bcd60e51b815260206004820152603260248201527f455243313135353a207472616e736665722063616c6c6572206973206e6f74206044820152711bdddb995c881b9bdc88185c1c1c9bdd995960721b60648201526084016101cd565b6108e28585858585611499565b5050505050565b6005546001600160a01b031633146109135760405162461bcd60e51b81526004016101cd9061298b565b61091b611676565b565b606081518351146109825760405162461bcd60e51b815260206004820152602960248201527f455243313135353a206163636f756e747320616e6420696473206c656e677468604482015268040dad2e6dac2e8c6d60bb1b60648201526084016101cd565b600083516001600160401b0381111561099d5761099d6122d6565b6040519080825280602002602001820160405280156109c6578160200160208202803683370190505b50905060005b8451811015610a3e57610a118582815181106109ea576109ea612a52565b6020026020010151858381518110610a0457610a04612a52565b60200260200101516105b1565b828281518110610a2357610a23612a52565b6020908102919091010152610a3781612a68565b90506109cc565b509392505050565b600554600160a01b900460ff1615610a705760405162461bcd60e51b81526004016101cd90612a83565b6000848152600660205260409020600101548490610aa05760405162461bcd60e51b81526004016101cd90612aad565b6000818152600660205260409020600201544210610af35760405162461bcd60e51b815260206004820152601060248201526f1b9bdd081b185d5b98da1959081e595d60821b60448201526064016101cd565b600085815260066020526040902060010154610b455760405162461bcd60e51b81526020600482015260116024820152703737b732bc34b9ba32b73a103a37b5b2b760791b60448201526064016101cd565b600085815260066020526040902060038101546004820154610b71906001600160401b03881690612ae4565b1115610bb15760405162461bcd60e51b815260206004820152600f60248201526e1cdd5c1c1b1e48195e18d959591959608a1b60448201526064016101cd565b6007546040516313d8114f60e11b81526000916001600160a01b0316906327b0229e90610be29087906004016122a1565b6020604051808303816000875af1158015610c01573d6000803e3d6000fd5b505050506040513d601f19601f82011682018060405250810190610c259190612afc565b9050600081876001600160401b03168460060154610c439190612a11565b610c4d9190612b15565b9050610c598187611713565b610c7d3389896001600160401b031660405180602001604052806000815250611816565b866001600160401b0316836004016000828254610c9a9190612ae4565b90915550505050505050505050565b6005546001600160a01b03163314610cd35760405162461bcd60e51b81526004016101cd9061298b565b610cde838383611920565b505050565b6005546001600160a01b03163314610d0d5760405162461bcd60e51b81526004016101cd9061298b565b61091b60006119eb565b600081815260066020526040812060010154610d455760405162461bcd60e51b81526004016101cd90612aad565b506000908152600660205260409020600501546001600160801b031690565b6005546001600160a01b03163314610d8e5760405162461bcd60e51b81526004016101cd9061298b565b61091b611a3d565b6005546001600160a01b03163314610dc05760405162461bcd60e51b81526004016101cd9061298b565b610cde6008838361206b565b610688338383611aa2565b600554600160a01b900460ff1615610e015760405162461bcd60e51b81526004016101cd90612a83565b6000838152600660205260409020600101548390610e315760405162461bcd60e51b81526004016101cd90612aad565b6000818152600660205260409020600201544210610e845760405162461bcd60e51b815260206004820152601060248201526f1b9bdd081b185d5b98da1959081e595d60821b60448201526064016101cd565b600084815260066020526040902060010154610ed65760405162461bcd60e51b81526020600482015260116024820152703737b732bc34b9ba32b73a103a37b5b2b760791b60448201526064016101cd565b600084815260066020526040902060038101546004820154610f02906001600160401b03871690612ae4565b1115610f425760405162461bcd60e51b815260206004820152600f60248201526e1cdd5c1c1b1e48195e18d959591959608a1b60448201526064016101cd565b6000846001600160401b03168260060154610f5d9190612a11565b9050610f698185611713565b610f8d3387876001600160401b031660405180602001604052806000815250611816565b846001600160401b0316826004016000828254610faa9190612ae4565b9091555050505050505050565b6005546001600160a01b03163314610fe15760405162461bcd60e51b81526004016101cd9061298b565b60008281526006602090815260409091208251805184936110069284929101906120ef565b50602082810151600183015560408301516002830155606083015160038301556080830151600483015560a08301516005830180546fffffffffffffffffffffffffffffffff19166001600160801b0390921691909117905560c0830151600683015560e090920151600790910180546001600160a01b0319166001600160a01b039092169190911790554291015250565b600880546110a5906129c0565b80601f01602080910402602001604051908101604052809291908181526020018280546110d1906129c0565b801561111e5780601f106110f35761010080835404028352916020019161111e565b820191906000526020600020905b81548152906001019060200180831161110157829003601f168201915b505050505081565b6001600160a01b0385163314806111425750611142853361050f565b6111a05760405162461bcd60e51b815260206004820152602960248201527f455243313135353a2063616c6c6572206973206e6f74206f776e6572206e6f7260448201526808185c1c1c9bdd995960ba1b60648201526084016101cd565b6108e28585858585611b83565b6005546001600160a01b031633146111d75760405162461bcd60e51b81526004016101cd9061298b565b6001600160a01b03811661123c5760405162461bcd60e51b815260206004820152602660248201527f4f776e61626c653a206e6577206f776e657220697320746865207a65726f206160448201526564647265737360d01b60648201526084016101cd565b611245816119eb565b50565b600660205260009081526040902080548190611263906129c0565b80601f016020809104026020016040519081016040528092919081815260200182805461128f906129c0565b80156112dc5780601f106112b1576101008083540402835291602001916112dc565b820191906000526020600020905b8154815290600101906020018083116112bf57829003601f168201915b50505060018401546002850154600386015460048701546005880154600689015460079099015497989497939650919450926001600160801b03909116916001600160a01b031688565b60006001600160e01b0319821663152a902d60e11b148061064e575061064e82611ca0565b6127106001600160601b03821611156113765760405162461bcd60e51b81526004016101cd90612b2c565b6001600160a01b0382166113cc5760405162461bcd60e51b815260206004820152601960248201527f455243323938313a20696e76616c69642072656365697665720000000000000060448201526064016101cd565b604080518082019091526001600160a01b039092168083526001600160601b039091166020909201829052600160a01b90910217600355565b606060028054611414906129c0565b80601f0160208091040260200160405190810160405280929190818152602001828054611440906129c0565b801561148d5780601f106114625761010080835404028352916020019161148d565b820191906000526020600020905b81548152906001019060200180831161147057829003601f168201915b50505050509050919050565b81518351146114fb5760405162461bcd60e51b815260206004820152602860248201527f455243313135353a2069647320616e6420616d6f756e7473206c656e677468206044820152670dad2e6dac2e8c6d60c31b60648201526084016101cd565b6001600160a01b0384166115215760405162461bcd60e51b81526004016101cd90612b76565b3360005b845181101561160857600085828151811061154257611542612a52565b60200260200101519050600085838151811061156057611560612a52565b602090810291909101810151600084815280835260408082206001600160a01b038e1683529093529190912054909150818110156115b05760405162461bcd60e51b81526004016101cd90612bbb565b6000838152602081815260408083206001600160a01b038e8116855292528083208585039055908b168252812080548492906115ed908490612ae4565b925050819055505050508061160190612a68565b9050611525565b50846001600160a01b0316866001600160a01b0316826001600160a01b03167f4a39dc06d4c0dbc64b70af90fd698a233a518aa5d07e595d983b8c0526c8f7fb8787604051611658929190612c05565b60405180910390a461166e818787878787611cf0565b505050505050565b600554600160a01b900460ff166116c65760405162461bcd60e51b815260206004820152601460248201527314185d5cd8589b194e881b9bdd081c185d5cd95960621b60448201526064016101cd565b6005805460ff60a01b191690557f5db9ee0a495bf2e6ff9c91a7834c1ba4fdd244a5e8aa4e537bd38aeae4b073aa335b6040516001600160a01b03909116815260200160405180910390a1565b80156117a5576001600160a01b037f00000000000000000000000000000000000000000000000000000000000000001663691ea055336040516001600160e01b031960e084901b1681526001600160a01b03909116600482015260248101859052604401600060405180830381600087803b15801561179157600080fd5b505af115801561166e573d6000803e3d6000fd5b813410156117ec5760405162461bcd60e51b81526020600482015260146024820152733737ba1032b737bab3b41032ba341033b4bb32b760611b60448201526064016101cd565b6106887f000000000000000000000000000000000000000000000000000000000000000034611e4c565b6001600160a01b0384166118765760405162461bcd60e51b815260206004820152602160248201527f455243313135353a206d696e7420746f20746865207a65726f206164647265736044820152607360f81b60648201526084016101cd565b336118908160008761188788611f65565b6108e288611f65565b6000848152602081815260408083206001600160a01b0389168452909152812080548592906118c0908490612ae4565b909155505060408051858152602081018590526001600160a01b0380881692600092918516917fc3d58168c5ae7397731d063d5bbf3d657854427343f4c083240f7aacaa2d0f62910160405180910390a46108e281600087878787611fb0565b6127106001600160601b038216111561194b5760405162461bcd60e51b81526004016101cd90612b2c565b6001600160a01b0382166119a15760405162461bcd60e51b815260206004820152601b60248201527f455243323938313a20496e76616c696420706172616d6574657273000000000060448201526064016101cd565b6040805180820182526001600160a01b0393841681526001600160601b0392831660208083019182526000968752600490529190942093519051909116600160a01b029116179055565b600580546001600160a01b038381166001600160a01b0319831681179093556040519116919082907f8be0079c531659141344cd1fd0a4f28419497f9722a3daafe3b4186f6b6457e090600090a35050565b600554600160a01b900460ff1615611a675760405162461bcd60e51b81526004016101cd90612a83565b6005805460ff60a01b1916600160a01b1790557f62e78cea01bee320cd4e420270b5ea74000d11b0c9f74754ebdbfc544b05a2586116f63390565b816001600160a01b0316836001600160a01b03161415611b165760405162461bcd60e51b815260206004820152602960248201527f455243313135353a2073657474696e6720617070726f76616c20737461747573604482015268103337b91039b2b63360b91b60648201526084016101cd565b6001600160a01b03838116600081815260016020908152604080832094871680845294825291829020805460ff191686151590811790915591519182527f17307eab39ab6107e8899845ad3d59bd9653f200f220920489ca2b5937696c31910160405180910390a3505050565b6001600160a01b038416611ba95760405162461bcd60e51b81526004016101cd90612b76565b33611bb981878761188788611f65565b6000848152602081815260408083206001600160a01b038a16845290915290205483811015611bfa5760405162461bcd60e51b81526004016101cd90612bbb565b6000858152602081815260408083206001600160a01b038b8116855292528083208785039055908816825281208054869290611c37908490612ae4565b909155505060408051868152602081018690526001600160a01b03808916928a821692918616917fc3d58168c5ae7397731d063d5bbf3d657854427343f4c083240f7aacaa2d0f62910160405180910390a4611c97828888888888611fb0565b50505050505050565b60006001600160e01b03198216636cdb3d1360e11b1480611cd157506001600160e01b031982166303a24d0760e21b145b8061064e57506301ffc9a760e01b6001600160e01b031983161461064e565b6001600160a01b0384163b1561166e5760405163bc197c8160e01b81526001600160a01b0385169063bc197c8190611d349089908990889088908890600401612c33565b6020604051808303816000875af1925050508015611d6f575060408051601f3d908101601f19168201909252611d6c91810190612c91565b60015b611e1c57611d7b612cae565b806308c379a01415611db55750611d90612cca565b80611d9b5750611db7565b8060405162461bcd60e51b81526004016101cd91906122a1565b505b60405162461bcd60e51b815260206004820152603460248201527f455243313135353a207472616e7366657220746f206e6f6e20455243313135356044820152732932b1b2b4bb32b91034b6b83632b6b2b73a32b960611b60648201526084016101cd565b6001600160e01b0319811663bc197c8160e01b14611c975760405162461bcd60e51b81526004016101cd90612d53565b80471015611e9c5760405162461bcd60e51b815260206004820152601d60248201527f416464726573733a20696e73756666696369656e742062616c616e636500000060448201526064016101cd565b6000826001600160a01b03168260405160006040518083038185875af1925050503d8060008114611ee9576040519150601f19603f3d011682016040523d82523d6000602084013e611eee565b606091505b5050905080610cde5760405162461bcd60e51b815260206004820152603a60248201527f416464726573733a20756e61626c6520746f2073656e642076616c75652c207260448201527f6563697069656e74206d6179206861766520726576657274656400000000000060648201526084016101cd565b60408051600180825281830190925260609160009190602080830190803683370190505090508281600081518110611f9f57611f9f612a52565b602090810291909101015292915050565b6001600160a01b0384163b1561166e5760405163f23a6e6160e01b81526001600160a01b0385169063f23a6e6190611ff49089908990889088908890600401612d9b565b6020604051808303816000875af192505050801561202f575060408051601f3d908101601f1916820190925261202c91810190612c91565b60015b61203b57611d7b612cae565b6001600160e01b0319811663f23a6e6160e01b14611c975760405162461bcd60e51b81526004016101cd90612d53565b828054612077906129c0565b90600052602060002090601f01602090048101928261209957600085556120df565b82601f106120b25782800160ff198235161785556120df565b828001600101855582156120df579182015b828111156120df5782358255916020019190600101906120c4565b506120eb929150612163565b5090565b8280546120fb906129c0565b90600052602060002090601f01602090048101928261211d57600085556120df565b82601f1061213657805160ff19168380011785556120df565b828001600101855582156120df579182015b828111156120df578251825591602001919060010190612148565b5b808211156120eb5760008155600101612164565b80356001600160a01b038116811461218f57600080fd5b919050565b600080604083850312156121a757600080fd5b6121b083612178565b946020939093013593505050565b6001600160e01b03198116811461124557600080fd5b6000602082840312156121e657600080fd5b813561079f816121be565b80356001600160601b038116811461218f57600080fd5b6000806040838503121561221b57600080fd5b61222483612178565b9150612232602084016121f1565b90509250929050565b60006020828403121561224d57600080fd5b5035919050565b6000815180845260005b8181101561227a5760208185018101518683018201520161225e565b8181111561228c576000602083870101525b50601f01601f19169290920160200192915050565b60208152600061079f6020830184612254565b600080604083850312156122c757600080fd5b50508035926020909101359150565b634e487b7160e01b600052604160045260246000fd5b601f8201601f191681016001600160401b0381118282101715612311576123116122d6565b6040525050565b60405161010081016001600160401b038111828210171561233b5761233b6122d6565b60405290565b60006001600160401b0382111561235a5761235a6122d6565b5060051b60200190565b600082601f83011261237557600080fd5b8135602061238282612341565b60405161238f82826122ec565b83815260059390931b85018201928281019150868411156123af57600080fd5b8286015b848110156123ca57803583529183019183016123b3565b509695505050505050565b600082601f8301126123e657600080fd5b81356001600160401b038111156123ff576123ff6122d6565b604051612416601f8301601f1916602001826122ec565b81815284602083860101111561242b57600080fd5b816020850160208301376000918101602001919091529392505050565b600080600080600060a0868803121561246057600080fd5b61246986612178565b945061247760208701612178565b935060408601356001600160401b038082111561249357600080fd5b61249f89838a01612364565b945060608801359150808211156124b557600080fd5b6124c189838a01612364565b935060808801359150808211156124d757600080fd5b506124e4888289016123d5565b9150509295509295909350565b6000806040838503121561250457600080fd5b82356001600160401b038082111561251b57600080fd5b818501915085601f83011261252f57600080fd5b8135602061253c82612341565b60405161254982826122ec565b83815260059390931b850182019282810191508984111561256957600080fd5b948201945b8386101561258e5761257f86612178565b8252948201949082019061256e565b965050860135925050808211156125a457600080fd5b506125b185828601612364565b9150509250929050565b600081518084526020808501945080840160005b838110156125eb578151875295820195908201906001016125cf565b509495945050505050565b60208152600061079f60208301846125bb565b80356001600160401b038116811461218f57600080fd5b8035801515811461218f57600080fd5b6000806000806080858703121561264657600080fd5b8435935061265660208601612609565b925061266460408601612620565b915060608501356001600160401b0381111561267f57600080fd5b61268b878288016123d5565b91505092959194509250565b6000806000606084860312156126ac57600080fd5b833592506126bc60208501612178565b91506126ca604085016121f1565b90509250925092565b600080602083850312156126e657600080fd5b82356001600160401b03808211156126fd57600080fd5b818501915085601f83011261271157600080fd5b81358181111561272057600080fd5b86602082850101111561273257600080fd5b60209290920196919550909350505050565b6000806040838503121561275757600080fd5b61276083612178565b915061223260208401612620565b60008060006060848603121561278357600080fd5b8335925061279360208501612609565b91506126ca60408501612620565b80356001600160801b038116811461218f57600080fd5b600080604083850312156127cb57600080fd5b8235915060208301356001600160401b03808211156127e957600080fd5b9084019061010082870312156127fe57600080fd5b612806612318565b82358281111561281557600080fd5b612821888286016123d5565b8252506020830135602082015260408301356040820152606083013560608201526080830135608082015261285860a084016127a1565b60a082015260c083013560c082015261287360e08401612178565b60e08201528093505050509250929050565b6000806040838503121561289857600080fd5b6128a183612178565b915061223260208401612178565b600080600080600060a086880312156128c757600080fd5b6128d086612178565b94506128de60208701612178565b9350604086013592506060860135915060808601356001600160401b0381111561290757600080fd5b6124e4888289016123d5565b60006020828403121561292557600080fd5b61079f82612178565b60006101008083526129428184018c612254565b602084019a909a5250506040810196909652606086019490945260808501929092526001600160801b031660a084015260c08301526001600160a01b031660e090910152919050565b6020808252818101527f4f776e61626c653a2063616c6c6572206973206e6f7420746865206f776e6572604082015260600190565b600181811c908216806129d457607f821691505b602082108114156129f557634e487b7160e01b600052602260045260246000fd5b50919050565b634e487b7160e01b600052601160045260246000fd5b6000816000190483118215151615612a2b57612a2b6129fb565b500290565b600082612a4d57634e487b7160e01b600052601260045260246000fd5b500490565b634e487b7160e01b600052603260045260246000fd5b6000600019821415612a7c57612a7c6129fb565b5060010190565b60208082526010908201526f14185d5cd8589b194e881c185d5cd95960821b604082015260600190565b6020808252601b908201527f717565727920666f72206e6f6e6578697374656e7420746f6b656e0000000000604082015260600190565b60008219821115612af757612af76129fb565b500190565b600060208284031215612b0e57600080fd5b5051919050565b600082821015612b2757612b276129fb565b500390565b6020808252602a908201527f455243323938313a20726f79616c7479206665652077696c6c206578636565646040820152692073616c65507269636560b01b606082015260800190565b60208082526025908201527f455243313135353a207472616e7366657220746f20746865207a65726f206164604082015264647265737360d81b606082015260800190565b6020808252602a908201527f455243313135353a20696e73756666696369656e742062616c616e636520666f60408201526939103a3930b739b332b960b11b606082015260800190565b604081526000612c1860408301856125bb565b8281036020840152612c2a81856125bb565b95945050505050565b6001600160a01b0386811682528516602082015260a060408201819052600090612c5f908301866125bb565b8281036060840152612c7181866125bb565b90508281036080840152612c858185612254565b98975050505050505050565b600060208284031215612ca357600080fd5b815161079f816121be565b600060033d1115612cc75760046000803e5060005160e01c5b90565b600060443d1015612cd85790565b6040516003193d81016004833e81513d6001600160401b038160248401118184111715612d0757505050505090565b8285019150815181811115612d1f5750505050505090565b843d8701016020828501011115612d395750505050505090565b612d48602082860101876122ec565b509095945050505050565b60208082526028908201527f455243313135353a204552433131353552656365697665722072656a656374656040820152676420746f6b656e7360c01b606082015260800190565b6001600160a01b03868116825285166020820152604081018490526060810183905260a060808201819052600090612dd590830184612254565b97965050505050505056fea2646970667358221220b97abb8e99f206712f5d8a58a27247263f2027d3d596ce48df5c6244d674ce0164736f6c634300080c0033",
  "linkReferences": {},
  "deployedLinkReferences": {}
}