{
  "_format": "hh-sol-artifact-1",
  "contractName": "Playables",
  "sourceName": "contracts/Playables.sol",
  "abi": [
    {
      "inputs": [
        {
          "internalType": "address",
          "name": "_coin",
          "type": "address"
        },
        {
          "internalType": "address",
          "name": "_affiliate",
          "type": "address"
        },
        {
          "internalType": "string",
          "name": "_uri",
          "type": "string"
        }
      ],
      "stateMutability": "nonpayable",
      "type": "constructor"
    },
    {
      "anonymous": false,
      "inputs": [
        {
          "indexed": true,
          "internalType": "address",
          "name": "account",
          "type": "address"
        },
        {
          "indexed": true,
          "internalType": "address",
          "name": "operator",
          "type": "address"
        },
        {
          "indexed": false,
          "internalType": "bool",
          "name": "approved",
          "type": "bool"
        }
      ],
      "name": "ApprovalForAll",
      "type": "event"
    },
    {
      "anonymous": false,
      "inputs": [
        {
          "indexed": true,
          "internalType": "address",
          "name": "previousOwner",
          "type": "address"
        },
        {
          "indexed": true,
          "internalType": "address",
          "name": "newOwner",
          "type": "address"
        }
      ],
      "name": "OwnershipTransferred",
      "type": "event"
    },
    {
      "anonymous": false,
      "inputs": [
        {
          "indexed": false,
          "internalType": "address",
          "name": "account",
          "type": "address"
        }
      ],
      "name": "Paused",
      "type": "event"
    },
    {
      "anonymous": false,
      "inputs": [
        {
          "indexed": true,
          "internalType": "address",
          "name": "operator",
          "type": "address"
        },
        {
          "indexed": true,
          "internalType": "address",
          "name": "from",
          "type": "address"
        },
        {
          "indexed": true,
          "internalType": "address",
          "name": "to",
          "type": "address"
        },
        {
          "indexed": false,
          "internalType": "uint256[]",
          "name": "ids",
          "type": "uint256[]"
        },
        {
          "indexed": false,
          "internalType": "uint256[]",
          "name": "values",
          "type": "uint256[]"
        }
      ],
      "name": "TransferBatch",
      "type": "event"
    },
    {
      "anonymous": false,
      "inputs": [
        {
          "indexed": true,
          "internalType": "address",
          "name": "operator",
          "type": "address"
        },
        {
          "indexed": true,
          "internalType": "address",
          "name": "from",
          "type": "address"
        },
        {
          "indexed": true,
          "internalType": "address",
          "name": "to",
          "type": "address"
        },
        {
          "indexed": false,
          "internalType": "uint256",
          "name": "id",
          "type": "uint256"
        },
        {
          "indexed": false,
          "internalType": "uint256",
          "name": "value",
          "type": "uint256"
        }
      ],
      "name": "TransferSingle",
      "type": "event"
    },
    {
      "anonymous": false,
      "inputs": [
        {
          "indexed": false,
          "internalType": "string",
          "name": "value",
          "type": "string"
        },
        {
          "indexed": true,
          "internalType": "uint256",
          "name": "id",
          "type": "uint256"
        }
      ],
      "name": "URI",
      "type": "event"
    },
    {
      "anonymous": false,
      "inputs": [
        {
          "indexed": false,
          "internalType": "address",
          "name": "account",
          "type": "address"
        }
      ],
      "name": "Unpaused",
      "type": "event"
    },
    {
      "inputs": [],
      "name": "affiliate",
      "outputs": [
        {
          "internalType": "contract IAffiliate",
          "name": "",
          "type": "address"
        }
      ],
      "stateMutability": "view",
      "type": "function"
    },
    {
      "inputs": [
        {
          "internalType": "address",
          "name": "account",
          "type": "address"
        },
        {
          "internalType": "uint256",
          "name": "id",
          "type": "uint256"
        }
      ],
      "name": "balanceOf",
      "outputs": [
        {
          "internalType": "uint256",
          "name": "",
          "type": "uint256"
        }
      ],
      "stateMutability": "view",
      "type": "function"
    },
    {
      "inputs": [
        {
          "internalType": "address[]",
          "name": "accounts",
          "type": "address[]"
        },
        {
          "internalType": "uint256[]",
          "name": "ids",
          "type": "uint256[]"
        }
      ],
      "name": "balanceOfBatch",
      "outputs": [
        {
          "internalType": "uint256[]",
          "name": "",
          "type": "uint256[]"
        }
      ],
      "stateMutability": "view",
      "type": "function"
    },
    {
      "inputs": [],
      "name": "coin",
      "outputs": [
        {
          "internalType": "contract ICoin",
          "name": "",
          "type": "address"
        }
      ],
      "stateMutability": "view",
      "type": "function"
    },
    {
      "inputs": [
        {
          "internalType": "uint256",
          "name": "",
          "type": "uint256"
        }
      ],
      "name": "collections",
      "outputs": [
        {
          "internalType": "string",
          "name": "uri",
          "type": "string"
        },
        {
          "internalType": "uint256",
          "name": "createdAt",
          "type": "uint256"
        },
        {
          "internalType": "uint256",
          "name": "launchedAt",
          "type": "uint256"
        },
        {
          "internalType": "uint256",
          "name": "supply",
          "type": "uint256"
        },
        {
          "internalType": "uint256",
          "name": "minted",
          "type": "uint256"
        },
        {
          "internalType": "uint128",
          "name": "weight",
          "type": "uint128"
        },
        {
          "internalType": "uint256",
          "name": "price",
          "type": "uint256"
        },
        {
          "internalType": "address",
          "name": "artist",
          "type": "address"
        }
      ],
      "stateMutability": "view",
      "type": "function"
    },
    {
      "inputs": [],
      "name": "contractURI",
      "outputs": [
        {
          "internalType": "string",
          "name": "",
          "type": "string"
        }
      ],
      "stateMutability": "view",
      "type": "function"
    },
    {
      "inputs": [
        {
          "internalType": "uint256",
          "name": "tokenId",
          "type": "uint256"
        }
      ],
      "name": "getStakingWeight",
      "outputs": [
        {
          "internalType": "uint128",
          "name": "",
          "type": "uint128"
        }
      ],
      "stateMutability": "view",
      "type": "function"
    },
    {
      "inputs": [
        {
          "internalType": "address",
          "name": "account",
          "type": "address"
        },
        {
          "internalType": "address",
          "name": "operator",
          "type": "address"
        }
      ],
      "name": "isApprovedForAll",
      "outputs": [
        {
          "internalType": "bool",
          "name": "",
          "type": "bool"
        }
      ],
      "stateMutability": "view",
      "type": "function"
    },
    {
      "inputs": [
        {
          "internalType": "uint256",
          "name": "tokenId",
          "type": "uint256"
        },
        {
          "internalType": "uint64",
          "name": "amount",
          "type": "uint64"
        },
        {
          "internalType": "bool",
          "name": "payWithCoin",
          "type": "bool"
        },
        {
          "internalType": "string",
          "name": "discount",
          "type": "string"
        }
      ],
      "name": "mint",
      "outputs": [],
      "stateMutability": "payable",
      "type": "function"
    },
    {
      "inputs": [
        {
          "internalType": "uint256",
          "name": "tokenId",
          "type": "uint256"
        },
        {
          "internalType": "uint64",
          "name": "amount",
          "type": "uint64"
        },
        {
          "internalType": "bool",
          "name": "payWithCoin",
          "type": "bool"
        }
      ],
      "name": "mint",
      "outputs": [],
      "stateMutability": "payable",
      "type": "function"
    },
    {
      "inputs": [],
      "name": "owner",
      "outputs": [
        {
          "internalType": "address",
          "name": "",
          "type": "address"
        }
      ],
      "stateMutability": "view",
      "type": "function"
    },
    {
      "inputs": [],
      "name": "pause",
      "outputs": [],
      "stateMutability": "nonpayable",
      "type": "function"
    },
    {
      "inputs": [],
      "name": "paused",
      "outputs": [
        {
          "internalType": "bool",
          "name": "",
          "type": "bool"
        }
      ],
      "stateMutability": "view",
      "type": "function"
    },
    {
      "inputs": [],
      "name": "renounceOwnership",
      "outputs": [],
      "stateMutability": "nonpayable",
      "type": "function"
    },
    {
      "inputs": [
        {
          "internalType": "uint256",
          "name": "_tokenId",
          "type": "uint256"
        },
        {
          "internalType": "uint256",
          "name": "_salePrice",
          "type": "uint256"
        }
      ],
      "name": "royaltyInfo",
      "outputs": [
        {
          "internalType": "address",
          "name": "",
          "type": "address"
        },
        {
          "internalType": "uint256",
          "name": "",
          "type": "uint256"
        }
      ],
      "stateMutability": "view",
      "type": "function"
    },
    {
      "inputs": [
        {
          "internalType": "address",
          "name": "from",
          "type": "address"
        },
        {
          "internalType": "address",
          "name": "to",
          "type": "address"
        },
        {
          "internalType": "uint256[]",
          "name": "ids",
          "type": "uint256[]"
        },
        {
          "internalType": "uint256[]",
          "name": "amounts",
          "type": "uint256[]"
        },
        {
          "internalType": "bytes",
          "name": "data",
          "type": "bytes"
        }
      ],
      "name": "safeBatchTransferFrom",
      "outputs": [],
      "stateMutability": "nonpayable",
      "type": "function"
    },
    {
      "inputs": [
        {
          "internalType": "address",
          "name": "from",
          "type": "address"
        },
        {
          "internalType": "address",
          "name": "to",
          "type": "address"
        },
        {
          "internalType": "uint256",
          "name": "id",
          "type": "uint256"
        },
        {
          "internalType": "uint256",
          "name": "amount",
          "type": "uint256"
        },
        {
          "internalType": "bytes",
          "name": "data",
          "type": "bytes"
        }
      ],
      "name": "safeTransferFrom",
      "outputs": [],
      "stateMutability": "nonpayable",
      "type": "function"
    },
    {
      "inputs": [
        {
          "internalType": "address",
          "name": "_affiliate",
          "type": "address"
        }
      ],
      "name": "setAffiliate",
      "outputs": [],
      "stateMutability": "nonpayable",
      "type": "function"
    },
    {
      "inputs": [
        {
          "internalType": "address",
          "name": "operator",
          "type": "address"
        },
        {
          "internalType": "bool",
          "name": "approved",
          "type": "bool"
        }
      ],
      "name": "setApprovalForAll",
      "outputs": [],
      "stateMutability": "nonpayable",
      "type": "function"
    },
    {
      "inputs": [
        {
          "internalType": "uint256",
          "name": "tokenId",
          "type": "uint256"
        },
        {
          "components": [
            {
              "internalType": "string",
              "name": "uri",
              "type": "string"
            },
            {
              "internalType": "uint256",
              "name": "createdAt",
              "type": "uint256"
            },
            {
              "internalType": "uint256",
              "name": "launchedAt",
              "type": "uint256"
            },
            {
              "internalType": "uint256",
              "name": "supply",
              "type": "uint256"
            },
            {
              "internalType": "uint256",
              "name": "minted",
              "type": "uint256"
            },
            {
              "internalType": "uint128",
              "name": "weight",
              "type": "uint128"
            },
            {
              "internalType": "uint256",
              "name": "price",
              "type": "uint256"
            },
            {
              "internalType": "address",
              "name": "artist",
              "type": "address"
            }
          ],
          "internalType": "struct Playables.Collection",
          "name": "collection",
          "type": "tuple"
        }
      ],
      "name": "setCollection",
      "outputs": [],
      "stateMutability": "nonpayable",
      "type": "function"
    },
    {
      "inputs": [
        {
          "internalType": "string",
          "name": "_uri",
          "type": "string"
        }
      ],
      "name": "setContractURI",
      "outputs": [],
      "stateMutability": "nonpayable",
      "type": "function"
    },
    {
      "inputs": [
        {
          "internalType": "address",
          "name": "_receiver",
          "type": "address"
        },
        {
          "internalType": "uint96",
          "name": "feeNumerator",
          "type": "uint96"
        }
      ],
      "name": "setDefaultRoyalty",
      "outputs": [],
      "stateMutability": "nonpayable",
      "type": "function"
    },
    {
      "inputs": [
        {
          "internalType": "uint256",
          "name": "tokenId",
          "type": "uint256"
        },
        {
          "internalType": "address",
          "name": "_receiver",
          "type": "address"
        },
        {
          "internalType": "uint96",
          "name": "feeNumerator",
          "type": "uint96"
        }
      ],
      "name": "setTokenRoyalty",
      "outputs": [],
      "stateMutability": "nonpayable",
      "type": "function"
    },
    {
      "inputs": [
        {
          "internalType": "bytes4",
          "name": "interfaceId",
          "type": "bytes4"
        }
      ],
      "name": "supportsInterface",
      "outputs": [
        {
          "internalType": "bool",
          "name": "",
          "type": "bool"
        }
      ],
      "stateMutability": "view",
      "type": "function"
    },
    {
      "inputs": [
        {
          "internalType": "address",
          "name": "newOwner",
          "type": "address"
        }
      ],
      "name": "transferOwnership",
      "outputs": [],
      "stateMutability": "nonpayable",
      "type": "function"
    },
    {
      "inputs": [],
      "name": "unpause",
      "outputs": [],
      "stateMutability": "nonpayable",
      "type": "function"
    },
    {
      "inputs": [
        {
          "internalType": "uint256",
          "name": "tokenId",
          "type": "uint256"
        }
      ],
      "name": "uri",
      "outputs": [
        {
          "internalType": "string",
          "name": "",
          "type": "string"
        }
      ],
      "stateMutability": "view",
      "type": "function"
    },
    {
      "stateMutability": "payable",
      "type": "receive"
    }
  ],
  "bytecode": "0x60a06040523480156200001157600080fd5b50604051620032e0380380620032e08339810160408190526200003491620002de565b80620000408162000095565b506200004c33620000ae565b6005805460ff60a01b191690556001600160a01b03838116608052600780546001600160a01b0319169184169190911790556200008c836101f462000100565b5050506200041e565b8051620000aa90600290602084019062000205565b5050565b600580546001600160a01b038381166001600160a01b0319831681179093556040519116919082907f8be0079c531659141344cd1fd0a4f28419497f9722a3daafe3b4186f6b6457e090600090a35050565b6127106001600160601b0382161115620001745760405162461bcd60e51b815260206004820152602a60248201527f455243323938313a20726f79616c7479206665652077696c6c206578636565646044820152692073616c65507269636560b01b60648201526084015b60405180910390fd5b6001600160a01b038216620001cc5760405162461bcd60e51b815260206004820152601960248201527f455243323938313a20696e76616c69642072656365697665720000000000000060448201526064016200016b565b604080518082019091526001600160a01b039092168083526001600160601b039091166020909201829052600160a01b90910217600355565b8280546200021390620003e2565b90600052602060002090601f01602090048101928262000237576000855562000282565b82601f106200025257805160ff191683800117855562000282565b8280016001018555821562000282579182015b828111156200028257825182559160200191906001019062000265565b506200029092915062000294565b5090565b5b8082111562000290576000815560010162000295565b80516001600160a01b0381168114620002c357600080fd5b919050565b634e487b7160e01b600052604160045260246000fd5b600080600060608486031215620002f457600080fd5b620002ff84620002ab565b9250602062000310818601620002ab565b60408601519093506001600160401b03808211156200032e57600080fd5b818701915087601f8301126200034357600080fd5b815181811115620003585762000358620002c8565b604051601f8201601f19908116603f01168101908382118183101715620003835762000383620002c8565b816040528281528a868487010111156200039c57600080fd5b600093505b82841015620003c05784840186015181850187015292850192620003a1565b82841115620003d25760008684830101525b8096505050505050509250925092565b600181811c90821680620003f757607f821691505b6020821081036200041857634e487b7160e01b600052602260045260246000fd5b50919050565b608051612e9862000448600039600081816102ba015281816117aa01526118780152612e986000f3fe60806040526004361061019f5760003560e01c80635c975abb116100ec578063ad9870411161008a578063e985e9c511610064578063e985e9c51461052f578063f242432a14610578578063f2fde38b14610598578063fdbda0ec146105b857600080fd5b8063ad987041146104e7578063e2b9172c146104fa578063e8a3d4851461051a57600080fd5b80638456cb59116100c65780638456cb59146104745780638da5cb5b14610489578063938e3d7b146104a7578063a22cb465146104c757600080fd5b80635c975abb14610408578063715018a614610427578063721085791461043c57600080fd5b80632bbb56d91161015957806345e05f431161013357806345e05f43146103885780634e1273f4146103a85780635264c89b146103d55780635944c753146103e857600080fd5b80632bbb56d9146103335780632eb2c2d6146103535780633f4ba83a1461037357600080fd5b8062fdd58e146101f657806301ffc9a71461022957806304634d8d146102595780630e89341c1461027b57806311df9995146102a85780632a55205a146102f457600080fd5b366101f15760405162461bcd60e51b815260206004820152601f60248201527f757365206d696e74696e672066756e6374696f6e206578706c696369746c790060448201526064015b60405180910390fd5b600080fd5b34801561020257600080fd5b50610216610211366004612219565b6105ec565b6040519081526020015b60405180910390f35b34801561023557600080fd5b50610249610244366004612259565b61067e565b6040519015158152602001610220565b34801561026557600080fd5b5061027961027436600461228d565b61068f565b005b34801561028757600080fd5b5061029b6102963660046122c0565b6106c7565b6040516102209190612326565b3480156102b457600080fd5b506102dc7f000000000000000000000000000000000000000000000000000000000000000081565b6040516001600160a01b039091168152602001610220565b34801561030057600080fd5b5061031461030f366004612339565b6107e1565b604080516001600160a01b039093168352602083019190915201610220565b34801561033f57600080fd5b5061027961034e36600461235b565b61088d565b34801561035f57600080fd5b5061027961036e3660046124e8565b6108d9565b34801561037f57600080fd5b50610279610970565b34801561039457600080fd5b506007546102dc906001600160a01b031681565b3480156103b457600080fd5b506103c86103c3366004612591565b6109a4565b6040516102209190612696565b6102796103e33660046126d0565b610acd565b3480156103f457600080fd5b50610279610403366004612737565b610d30565b34801561041457600080fd5b50600554600160a01b900460ff16610249565b34801561043357600080fd5b50610279610d6a565b34801561044857600080fd5b5061045c6104573660046122c0565b610d9e565b6040516001600160801b039091168152602001610220565b34801561048057600080fd5b50610279610deb565b34801561049557600080fd5b506005546001600160a01b03166102dc565b3480156104b357600080fd5b506102796104c2366004612773565b610e1d565b3480156104d357600080fd5b506102796104e23660046127e4565b610e53565b6102796104f536600461280e565b610e5e565b34801561050657600080fd5b50610279610515366004612858565b61103e565b34801561052657600080fd5b5061029b61111f565b34801561053b57600080fd5b5061024961054a366004612925565b6001600160a01b03918216600090815260016020908152604080832093909416825291909152205460ff1690565b34801561058457600080fd5b5061027961059336600461294f565b6111ad565b3480156105a457600080fd5b506102796105b336600461235b565b611234565b3480156105c457600080fd5b506105d86105d33660046122c0565b6112cf565b6040516102209897969594939291906129b3565b60006001600160a01b0383166106585760405162461bcd60e51b815260206004820152602b60248201527f455243313135353a2062616c616e636520717565727920666f7220746865207a60448201526a65726f206164647265737360a81b60648201526084016101e8565b506000908152602081815260408083206001600160a01b03949094168352929052205490565b6000610689826113ad565b92915050565b6005546001600160a01b031633146106b95760405162461bcd60e51b81526004016101e890612a10565b6106c382826113d2565b5050565b6000818152600660205260409020600101546060906107285760405162461bcd60e51b815260206004820152601f60248201527f55524920717565727920666f72206e6f6e6578697374656e7420746f6b656e0060448201526064016101e8565b6000828152600660205260408120805461074190612a45565b80601f016020809104026020016040519081016040528092919081815260200182805461076d90612a45565b80156107ba5780601f1061078f576101008083540402835291602001916107ba565b820191906000526020600020905b81548152906001019060200180831161079d57829003601f168201915b5050505050905060008151116107d8576107d38361148c565b6107da565b805b9392505050565b60008281526004602090815260408083208151808301909252546001600160a01b038116808352600160a01b9091046001600160601b03169282019290925282916108565750604080518082019091526003546001600160a01b0381168252600160a01b90046001600160601b031660208201525b602081015160009061271090610875906001600160601b031687612a95565b61087f9190612ab4565b915196919550909350505050565b6005546001600160a01b031633146108b75760405162461bcd60e51b81526004016101e890612a10565b600780546001600160a01b0319166001600160a01b0392909216919091179055565b6001600160a01b0385163314806108f557506108f5853361054a565b61095c5760405162461bcd60e51b815260206004820152603260248201527f455243313135353a207472616e736665722063616c6c6572206973206e6f74206044820152711bdddb995c881b9bdc88185c1c1c9bdd995960721b60648201526084016101e8565b6109698585858585611520565b5050505050565b6005546001600160a01b0316331461099a5760405162461bcd60e51b81526004016101e890612a10565b6109a26116fd565b565b60608151835114610a095760405162461bcd60e51b815260206004820152602960248201527f455243313135353a206163636f756e747320616e6420696473206c656e677468604482015268040dad2e6dac2e8c6d60bb1b60648201526084016101e8565b600083516001600160401b03811115610a2457610a24612376565b604051908082528060200260200182016040528015610a4d578160200160208202803683370190505b50905060005b8451811015610ac557610a98858281518110610a7157610a71612ad6565b6020026020010151858381518110610a8b57610a8b612ad6565b60200260200101516105ec565b828281518110610aaa57610aaa612ad6565b6020908102919091010152610abe81612aec565b9050610a53565b509392505050565b600554600160a01b900460ff1615610af75760405162461bcd60e51b81526004016101e890612b05565b6000848152600660205260409020600101548490610b275760405162461bcd60e51b81526004016101e890612b2f565b6000818152600660205260409020600201544210610b7a5760405162461bcd60e51b815260206004820152601060248201526f1b9bdd081b185d5b98da1959081e595d60821b60448201526064016101e8565b600085815260066020526040902060010154610bcc5760405162461bcd60e51b81526020600482015260116024820152703737b732bc34b9ba32b73a103a37b5b2b760791b60448201526064016101e8565b600085815260066020526040902060038101546004820154610bf8906001600160401b03881690612b66565b1115610c385760405162461bcd60e51b815260206004820152600f60248201526e1cdd5c1c1b1e48195e18d959591959608a1b60448201526064016101e8565b6007546040516313d8114f60e11b81526000916001600160a01b0316906327b0229e90610c69908790600401612326565b6020604051808303816000875af1158015610c88573d6000803e3d6000fd5b505050506040513d601f19601f82011682018060405250810190610cac9190612b7e565b9050600081876001600160401b03168460060154610cca9190612a95565b610cd49190612b97565b9050610ce0818761179a565b610d043389896001600160401b03166040518060200160405280600081525061189d565b866001600160401b0316836004016000828254610d219190612b66565b90915550505050505050505050565b6005546001600160a01b03163314610d5a5760405162461bcd60e51b81526004016101e890612a10565b610d658383836119a7565b505050565b6005546001600160a01b03163314610d945760405162461bcd60e51b81526004016101e890612a10565b6109a26000611a72565b600081815260066020526040812060010154610dcc5760405162461bcd60e51b81526004016101e890612b2f565b506000908152600660205260409020600501546001600160801b031690565b6005546001600160a01b03163314610e155760405162461bcd60e51b81526004016101e890612a10565b6109a2611ac4565b6005546001600160a01b03163314610e475760405162461bcd60e51b81526004016101e890612a10565b610d65600883836120f0565b6106c3338383611b29565b600554600160a01b900460ff1615610e885760405162461bcd60e51b81526004016101e890612b05565b6000838152600660205260409020600101548390610eb85760405162461bcd60e51b81526004016101e890612b2f565b6000818152600660205260409020600201544210610f0b5760405162461bcd60e51b815260206004820152601060248201526f1b9bdd081b185d5b98da1959081e595d60821b60448201526064016101e8565b600084815260066020526040902060010154610f5d5760405162461bcd60e51b81526020600482015260116024820152703737b732bc34b9ba32b73a103a37b5b2b760791b60448201526064016101e8565b600084815260066020526040902060038101546004820154610f89906001600160401b03871690612b66565b1115610fc95760405162461bcd60e51b815260206004820152600f60248201526e1cdd5c1c1b1e48195e18d959591959608a1b60448201526064016101e8565b6000846001600160401b03168260060154610fe49190612a95565b9050610ff0818561179a565b6110143387876001600160401b03166040518060200160405280600081525061189d565b846001600160401b03168260040160008282546110319190612b66565b9091555050505050505050565b6005546001600160a01b031633146110685760405162461bcd60e51b81526004016101e890612a10565b600082815260066020908152604090912082518051849361108d928492910190612174565b50602082810151600183015560408301516002830155606083015160038301556080830151600483015560a08301516005830180546fffffffffffffffffffffffffffffffff19166001600160801b0390921691909117905560c0830151600683015560e090920151600790910180546001600160a01b0319166001600160a01b039092169190911790554291015250565b6008805461112c90612a45565b80601f016020809104026020016040519081016040528092919081815260200182805461115890612a45565b80156111a55780601f1061117a576101008083540402835291602001916111a5565b820191906000526020600020905b81548152906001019060200180831161118857829003601f168201915b505050505081565b6001600160a01b0385163314806111c957506111c9853361054a565b6112275760405162461bcd60e51b815260206004820152602960248201527f455243313135353a2063616c6c6572206973206e6f74206f776e6572206e6f7260448201526808185c1c1c9bdd995960ba1b60648201526084016101e8565b6109698585858585611c09565b6005546001600160a01b0316331461125e5760405162461bcd60e51b81526004016101e890612a10565b6001600160a01b0381166112c35760405162461bcd60e51b815260206004820152602660248201527f4f776e61626c653a206e6577206f776e657220697320746865207a65726f206160448201526564647265737360d01b60648201526084016101e8565b6112cc81611a72565b50565b6006602052600090815260409020805481906112ea90612a45565b80601f016020809104026020016040519081016040528092919081815260200182805461131690612a45565b80156113635780601f1061133857610100808354040283529160200191611363565b820191906000526020600020905b81548152906001019060200180831161134657829003601f168201915b50505060018401546002850154600386015460048701546005880154600689015460079099015497989497939650919450926001600160801b03909116916001600160a01b031688565b60006001600160e01b0319821663152a902d60e11b1480610689575061068982611d26565b6127106001600160601b03821611156113fd5760405162461bcd60e51b81526004016101e890612bae565b6001600160a01b0382166114535760405162461bcd60e51b815260206004820152601960248201527f455243323938313a20696e76616c69642072656365697665720000000000000060448201526064016101e8565b604080518082019091526001600160a01b039092168083526001600160601b039091166020909201829052600160a01b90910217600355565b60606002805461149b90612a45565b80601f01602080910402602001604051908101604052809291908181526020018280546114c790612a45565b80156115145780601f106114e957610100808354040283529160200191611514565b820191906000526020600020905b8154815290600101906020018083116114f757829003601f168201915b50505050509050919050565b81518351146115825760405162461bcd60e51b815260206004820152602860248201527f455243313135353a2069647320616e6420616d6f756e7473206c656e677468206044820152670dad2e6dac2e8c6d60c31b60648201526084016101e8565b6001600160a01b0384166115a85760405162461bcd60e51b81526004016101e890612bf8565b3360005b845181101561168f5760008582815181106115c9576115c9612ad6565b6020026020010151905060008583815181106115e7576115e7612ad6565b602090810291909101810151600084815280835260408082206001600160a01b038e1683529093529190912054909150818110156116375760405162461bcd60e51b81526004016101e890612c3d565b6000838152602081815260408083206001600160a01b038e8116855292528083208585039055908b16825281208054849290611674908490612b66565b925050819055505050508061168890612aec565b90506115ac565b50846001600160a01b0316866001600160a01b0316826001600160a01b03167f4a39dc06d4c0dbc64b70af90fd698a233a518aa5d07e595d983b8c0526c8f7fb87876040516116df929190612c87565b60405180910390a46116f5818787878787611d76565b505050505050565b600554600160a01b900460ff1661174d5760405162461bcd60e51b815260206004820152601460248201527314185d5cd8589b194e881b9bdd081c185d5cd95960621b60448201526064016101e8565b6005805460ff60a01b191690557f5db9ee0a495bf2e6ff9c91a7834c1ba4fdd244a5e8aa4e537bd38aeae4b073aa335b6040516001600160a01b03909116815260200160405180910390a1565b801561182c576001600160a01b037f00000000000000000000000000000000000000000000000000000000000000001663691ea055336040516001600160e01b031960e084901b1681526001600160a01b03909116600482015260248101859052604401600060405180830381600087803b15801561181857600080fd5b505af11580156116f5573d6000803e3d6000fd5b813410156118735760405162461bcd60e51b81526020600482015260146024820152733737ba1032b737bab3b41032ba341033b4bb32b760611b60448201526064016101e8565b6106c37f000000000000000000000000000000000000000000000000000000000000000034611ed1565b6001600160a01b0384166118fd5760405162461bcd60e51b815260206004820152602160248201527f455243313135353a206d696e7420746f20746865207a65726f206164647265736044820152607360f81b60648201526084016101e8565b336119178160008761190e88611fea565b61096988611fea565b6000848152602081815260408083206001600160a01b038916845290915281208054859290611947908490612b66565b909155505060408051858152602081018590526001600160a01b0380881692600092918516917fc3d58168c5ae7397731d063d5bbf3d657854427343f4c083240f7aacaa2d0f62910160405180910390a461096981600087878787612035565b6127106001600160601b03821611156119d25760405162461bcd60e51b81526004016101e890612bae565b6001600160a01b038216611a285760405162461bcd60e51b815260206004820152601b60248201527f455243323938313a20496e76616c696420706172616d6574657273000000000060448201526064016101e8565b6040805180820182526001600160a01b0393841681526001600160601b0392831660208083019182526000968752600490529190942093519051909116600160a01b029116179055565b600580546001600160a01b038381166001600160a01b0319831681179093556040519116919082907f8be0079c531659141344cd1fd0a4f28419497f9722a3daafe3b4186f6b6457e090600090a35050565b600554600160a01b900460ff1615611aee5760405162461bcd60e51b81526004016101e890612b05565b6005805460ff60a01b1916600160a01b1790557f62e78cea01bee320cd4e420270b5ea74000d11b0c9f74754ebdbfc544b05a25861177d3390565b816001600160a01b0316836001600160a01b031603611b9c5760405162461bcd60e51b815260206004820152602960248201527f455243313135353a2073657474696e6720617070726f76616c20737461747573604482015268103337b91039b2b63360b91b60648201526084016101e8565b6001600160a01b03838116600081815260016020908152604080832094871680845294825291829020805460ff191686151590811790915591519182527f17307eab39ab6107e8899845ad3d59bd9653f200f220920489ca2b5937696c31910160405180910390a3505050565b6001600160a01b038416611c2f5760405162461bcd60e51b81526004016101e890612bf8565b33611c3f81878761190e88611fea565b6000848152602081815260408083206001600160a01b038a16845290915290205483811015611c805760405162461bcd60e51b81526004016101e890612c3d565b6000858152602081815260408083206001600160a01b038b8116855292528083208785039055908816825281208054869290611cbd908490612b66565b909155505060408051868152602081018690526001600160a01b03808916928a821692918616917fc3d58168c5ae7397731d063d5bbf3d657854427343f4c083240f7aacaa2d0f62910160405180910390a4611d1d828888888888612035565b50505050505050565b60006001600160e01b03198216636cdb3d1360e11b1480611d5757506001600160e01b031982166303a24d0760e21b145b8061068957506301ffc9a760e01b6001600160e01b0319831614610689565b6001600160a01b0384163b156116f55760405163bc197c8160e01b81526001600160a01b0385169063bc197c8190611dba9089908990889088908890600401612cb5565b6020604051808303816000875af1925050508015611df5575060408051601f3d908101601f19168201909252611df291810190612d13565b60015b611ea157611e01612d30565b806308c379a003611e3a5750611e15612d4c565b80611e205750611e3c565b8060405162461bcd60e51b81526004016101e89190612326565b505b60405162461bcd60e51b815260206004820152603460248201527f455243313135353a207472616e7366657220746f206e6f6e20455243313135356044820152732932b1b2b4bb32b91034b6b83632b6b2b73a32b960611b60648201526084016101e8565b6001600160e01b0319811663bc197c8160e01b14611d1d5760405162461bcd60e51b81526004016101e890612dd5565b80471015611f215760405162461bcd60e51b815260206004820152601d60248201527f416464726573733a20696e73756666696369656e742062616c616e636500000060448201526064016101e8565b6000826001600160a01b03168260405160006040518083038185875af1925050503d8060008114611f6e576040519150601f19603f3d011682016040523d82523d6000602084013e611f73565b606091505b5050905080610d655760405162461bcd60e51b815260206004820152603a60248201527f416464726573733a20756e61626c6520746f2073656e642076616c75652c207260448201527f6563697069656e74206d6179206861766520726576657274656400000000000060648201526084016101e8565b6040805160018082528183019092526060916000919060208083019080368337019050509050828160008151811061202457612024612ad6565b602090810291909101015292915050565b6001600160a01b0384163b156116f55760405163f23a6e6160e01b81526001600160a01b0385169063f23a6e61906120799089908990889088908890600401612e1d565b6020604051808303816000875af19250505080156120b4575060408051601f3d908101601f191682019092526120b191810190612d13565b60015b6120c057611e01612d30565b6001600160e01b0319811663f23a6e6160e01b14611d1d5760405162461bcd60e51b81526004016101e890612dd5565b8280546120fc90612a45565b90600052602060002090601f01602090048101928261211e5760008555612164565b82601f106121375782800160ff19823516178555612164565b82800160010185558215612164579182015b82811115612164578235825591602001919060010190612149565b506121709291506121e8565b5090565b82805461218090612a45565b90600052602060002090601f0160209004810192826121a25760008555612164565b82601f106121bb57805160ff1916838001178555612164565b82800160010185558215612164579182015b828111156121645782518255916020019190600101906121cd565b5b8082111561217057600081556001016121e9565b80356001600160a01b038116811461221457600080fd5b919050565b6000806040838503121561222c57600080fd5b612235836121fd565b946020939093013593505050565b6001600160e01b0319811681146112cc57600080fd5b60006020828403121561226b57600080fd5b81356107da81612243565b80356001600160601b038116811461221457600080fd5b600080604083850312156122a057600080fd5b6122a9836121fd565b91506122b760208401612276565b90509250929050565b6000602082840312156122d257600080fd5b5035919050565b6000815180845260005b818110156122ff576020818501810151868301820152016122e3565b81811115612311576000602083870101525b50601f01601f19169290920160200192915050565b6020815260006107da60208301846122d9565b6000806040838503121561234c57600080fd5b50508035926020909101359150565b60006020828403121561236d57600080fd5b6107da826121fd565b634e487b7160e01b600052604160045260246000fd5b601f8201601f191681016001600160401b03811182821017156123b1576123b1612376565b6040525050565b60405161010081016001600160401b03811182821017156123db576123db612376565b60405290565b60006001600160401b038211156123fa576123fa612376565b5060051b60200190565b600082601f83011261241557600080fd5b81356020612422826123e1565b60405161242f828261238c565b83815260059390931b850182019282810191508684111561244f57600080fd5b8286015b8481101561246a5780358352918301918301612453565b509695505050505050565b600082601f83011261248657600080fd5b81356001600160401b0381111561249f5761249f612376565b6040516124b6601f8301601f19166020018261238c565b8181528460208386010111156124cb57600080fd5b816020850160208301376000918101602001919091529392505050565b600080600080600060a0868803121561250057600080fd5b612509866121fd565b9450612517602087016121fd565b935060408601356001600160401b038082111561253357600080fd5b61253f89838a01612404565b9450606088013591508082111561255557600080fd5b61256189838a01612404565b9350608088013591508082111561257757600080fd5b5061258488828901612475565b9150509295509295909350565b600080604083850312156125a457600080fd5b82356001600160401b03808211156125bb57600080fd5b818501915085601f8301126125cf57600080fd5b813560206125dc826123e1565b6040516125e9828261238c565b83815260059390931b850182019282810191508984111561260957600080fd5b948201945b8386101561262e5761261f866121fd565b8252948201949082019061260e565b9650508601359250508082111561264457600080fd5b5061265185828601612404565b9150509250929050565b600081518084526020808501945080840160005b8381101561268b5781518752958201959082019060010161266f565b509495945050505050565b6020815260006107da602083018461265b565b80356001600160401b038116811461221457600080fd5b8035801515811461221457600080fd5b600080600080608085870312156126e657600080fd5b843593506126f6602086016126a9565b9250612704604086016126c0565b915060608501356001600160401b0381111561271f57600080fd5b61272b87828801612475565b91505092959194509250565b60008060006060848603121561274c57600080fd5b8335925061275c602085016121fd565b915061276a60408501612276565b90509250925092565b6000806020838503121561278657600080fd5b82356001600160401b038082111561279d57600080fd5b818501915085601f8301126127b157600080fd5b8135818111156127c057600080fd5b8660208285010111156127d257600080fd5b60209290920196919550909350505050565b600080604083850312156127f757600080fd5b612800836121fd565b91506122b7602084016126c0565b60008060006060848603121561282357600080fd5b83359250612833602085016126a9565b915061276a604085016126c0565b80356001600160801b038116811461221457600080fd5b6000806040838503121561286b57600080fd5b8235915060208301356001600160401b038082111561288957600080fd5b90840190610100828703121561289e57600080fd5b6128a66123b8565b8235828111156128b557600080fd5b6128c188828601612475565b825250602083013560208201526040830135604082015260608301356060820152608083013560808201526128f860a08401612841565b60a082015260c083013560c082015261291360e084016121fd565b60e08201528093505050509250929050565b6000806040838503121561293857600080fd5b612941836121fd565b91506122b7602084016121fd565b600080600080600060a0868803121561296757600080fd5b612970866121fd565b945061297e602087016121fd565b9350604086013592506060860135915060808601356001600160401b038111156129a757600080fd5b61258488828901612475565b60006101008083526129c78184018c6122d9565b602084019a909a5250506040810196909652606086019490945260808501929092526001600160801b031660a084015260c08301526001600160a01b031660e090910152919050565b6020808252818101527f4f776e61626c653a2063616c6c6572206973206e6f7420746865206f776e6572604082015260600190565b600181811c90821680612a5957607f821691505b602082108103612a7957634e487b7160e01b600052602260045260246000fd5b50919050565b634e487b7160e01b600052601160045260246000fd5b6000816000190483118215151615612aaf57612aaf612a7f565b500290565b600082612ad157634e487b7160e01b600052601260045260246000fd5b500490565b634e487b7160e01b600052603260045260246000fd5b600060018201612afe57612afe612a7f565b5060010190565b60208082526010908201526f14185d5cd8589b194e881c185d5cd95960821b604082015260600190565b6020808252601b908201527f717565727920666f72206e6f6e6578697374656e7420746f6b656e0000000000604082015260600190565b60008219821115612b7957612b79612a7f565b500190565b600060208284031215612b9057600080fd5b5051919050565b600082821015612ba957612ba9612a7f565b500390565b6020808252602a908201527f455243323938313a20726f79616c7479206665652077696c6c206578636565646040820152692073616c65507269636560b01b606082015260800190565b60208082526025908201527f455243313135353a207472616e7366657220746f20746865207a65726f206164604082015264647265737360d81b606082015260800190565b6020808252602a908201527f455243313135353a20696e73756666696369656e742062616c616e636520666f60408201526939103a3930b739b332b960b11b606082015260800190565b604081526000612c9a604083018561265b565b8281036020840152612cac818561265b565b95945050505050565b6001600160a01b0386811682528516602082015260a060408201819052600090612ce19083018661265b565b8281036060840152612cf3818661265b565b90508281036080840152612d0781856122d9565b98975050505050505050565b600060208284031215612d2557600080fd5b81516107da81612243565b600060033d1115612d495760046000803e5060005160e01c5b90565b600060443d1015612d5a5790565b6040516003193d81016004833e81513d6001600160401b038160248401118184111715612d8957505050505090565b8285019150815181811115612da15750505050505090565b843d8701016020828501011115612dbb5750505050505090565b612dca6020828601018761238c565b509095945050505050565b60208082526028908201527f455243313135353a204552433131353552656365697665722072656a656374656040820152676420746f6b656e7360c01b606082015260800190565b6001600160a01b03868116825285166020820152604081018490526060810183905260a060808201819052600090612e57908301846122d9565b97965050505050505056fea2646970667358221220f8f83ca4f0e48967f796491f0267603f1d202068b82eb001faf13d2e0234806164736f6c634300080d0033",
  "linkReferences": {},
  "deployedLinkReferences": {}
}