{
  "_format": "hh-sol-artifact-1",
  "contractName": "Playables",
  "sourceName": "contracts/Playables.sol",
  "abi": [
    {
      "inputs": [
        {
          "internalType": "address payable",
          "name": "_receiver",
          "type": "address"
        },
        {
          "internalType": "address",
          "name": "_promoter",
          "type": "address"
        },
        {
          "internalType": "string",
          "name": "_defaultURI",
          "type": "string"
        }
      ],
      "stateMutability": "nonpayable",
      "type": "constructor"
    },
    {
      "anonymous": false,
      "inputs": [
        {
          "indexed": true,
          "internalType": "address",
          "name": "account",
          "type": "address"
        },
        {
          "indexed": true,
          "internalType": "address",
          "name": "operator",
          "type": "address"
        },
        {
          "indexed": false,
          "internalType": "bool",
          "name": "approved",
          "type": "bool"
        }
      ],
      "name": "ApprovalForAll",
      "type": "event"
    },
    {
      "anonymous": false,
      "inputs": [
        {
          "indexed": true,
          "internalType": "address",
          "name": "previousOwner",
          "type": "address"
        },
        {
          "indexed": true,
          "internalType": "address",
          "name": "newOwner",
          "type": "address"
        }
      ],
      "name": "OwnershipTransferred",
      "type": "event"
    },
    {
      "anonymous": false,
      "inputs": [
        {
          "indexed": false,
          "internalType": "address",
          "name": "account",
          "type": "address"
        }
      ],
      "name": "Paused",
      "type": "event"
    },
    {
      "anonymous": false,
      "inputs": [
        {
          "indexed": true,
          "internalType": "address",
          "name": "operator",
          "type": "address"
        },
        {
          "indexed": true,
          "internalType": "address",
          "name": "from",
          "type": "address"
        },
        {
          "indexed": true,
          "internalType": "address",
          "name": "to",
          "type": "address"
        },
        {
          "indexed": false,
          "internalType": "uint256[]",
          "name": "ids",
          "type": "uint256[]"
        },
        {
          "indexed": false,
          "internalType": "uint256[]",
          "name": "values",
          "type": "uint256[]"
        }
      ],
      "name": "TransferBatch",
      "type": "event"
    },
    {
      "anonymous": false,
      "inputs": [
        {
          "indexed": true,
          "internalType": "address",
          "name": "operator",
          "type": "address"
        },
        {
          "indexed": true,
          "internalType": "address",
          "name": "from",
          "type": "address"
        },
        {
          "indexed": true,
          "internalType": "address",
          "name": "to",
          "type": "address"
        },
        {
          "indexed": false,
          "internalType": "uint256",
          "name": "id",
          "type": "uint256"
        },
        {
          "indexed": false,
          "internalType": "uint256",
          "name": "value",
          "type": "uint256"
        }
      ],
      "name": "TransferSingle",
      "type": "event"
    },
    {
      "anonymous": false,
      "inputs": [
        {
          "indexed": false,
          "internalType": "string",
          "name": "value",
          "type": "string"
        },
        {
          "indexed": true,
          "internalType": "uint256",
          "name": "id",
          "type": "uint256"
        }
      ],
      "name": "URI",
      "type": "event"
    },
    {
      "anonymous": false,
      "inputs": [
        {
          "indexed": false,
          "internalType": "address",
          "name": "account",
          "type": "address"
        }
      ],
      "name": "Unpaused",
      "type": "event"
    },
    {
      "inputs": [
        {
          "components": [
            {
              "internalType": "string",
              "name": "uri",
              "type": "string"
            },
            {
              "internalType": "uint256",
              "name": "createdAt",
              "type": "uint256"
            },
            {
              "internalType": "uint256",
              "name": "launchedAt",
              "type": "uint256"
            },
            {
              "internalType": "uint256",
              "name": "supply",
              "type": "uint256"
            },
            {
              "internalType": "uint256",
              "name": "minted",
              "type": "uint256"
            },
            {
              "internalType": "uint128",
              "name": "weight",
              "type": "uint128"
            },
            {
              "internalType": "uint256",
              "name": "price",
              "type": "uint256"
            },
            {
              "internalType": "bool",
              "name": "revealed",
              "type": "bool"
            }
          ],
          "internalType": "struct Playables.Token",
          "name": "newToken",
          "type": "tuple"
        }
      ],
      "name": "addToken",
      "outputs": [],
      "stateMutability": "nonpayable",
      "type": "function"
    },
    {
      "inputs": [
        {
          "components": [
            {
              "internalType": "string",
              "name": "uri",
              "type": "string"
            },
            {
              "internalType": "uint256",
              "name": "createdAt",
              "type": "uint256"
            },
            {
              "internalType": "uint256",
              "name": "launchedAt",
              "type": "uint256"
            },
            {
              "internalType": "uint256",
              "name": "supply",
              "type": "uint256"
            },
            {
              "internalType": "uint256",
              "name": "minted",
              "type": "uint256"
            },
            {
              "internalType": "uint128",
              "name": "weight",
              "type": "uint128"
            },
            {
              "internalType": "uint256",
              "name": "price",
              "type": "uint256"
            },
            {
              "internalType": "bool",
              "name": "revealed",
              "type": "bool"
            }
          ],
          "internalType": "struct Playables.Token[]",
          "name": "newTokens",
          "type": "tuple[]"
        }
      ],
      "name": "addTokens",
      "outputs": [],
      "stateMutability": "nonpayable",
      "type": "function"
    },
    {
      "inputs": [
        {
          "internalType": "address",
          "name": "account",
          "type": "address"
        },
        {
          "internalType": "uint256",
          "name": "id",
          "type": "uint256"
        }
      ],
      "name": "balanceOf",
      "outputs": [
        {
          "internalType": "uint256",
          "name": "",
          "type": "uint256"
        }
      ],
      "stateMutability": "view",
      "type": "function"
    },
    {
      "inputs": [
        {
          "internalType": "address[]",
          "name": "accounts",
          "type": "address[]"
        },
        {
          "internalType": "uint256[]",
          "name": "ids",
          "type": "uint256[]"
        }
      ],
      "name": "balanceOfBatch",
      "outputs": [
        {
          "internalType": "uint256[]",
          "name": "",
          "type": "uint256[]"
        }
      ],
      "stateMutability": "view",
      "type": "function"
    },
    {
      "inputs": [
        {
          "internalType": "uint256",
          "name": "tokenId",
          "type": "uint256"
        }
      ],
      "name": "getStakingWeight",
      "outputs": [
        {
          "internalType": "uint128",
          "name": "",
          "type": "uint128"
        }
      ],
      "stateMutability": "view",
      "type": "function"
    },
    {
      "inputs": [],
      "name": "getTokens",
      "outputs": [
        {
          "components": [
            {
              "internalType": "string",
              "name": "uri",
              "type": "string"
            },
            {
              "internalType": "uint256",
              "name": "createdAt",
              "type": "uint256"
            },
            {
              "internalType": "uint256",
              "name": "launchedAt",
              "type": "uint256"
            },
            {
              "internalType": "uint256",
              "name": "supply",
              "type": "uint256"
            },
            {
              "internalType": "uint256",
              "name": "minted",
              "type": "uint256"
            },
            {
              "internalType": "uint128",
              "name": "weight",
              "type": "uint128"
            },
            {
              "internalType": "uint256",
              "name": "price",
              "type": "uint256"
            },
            {
              "internalType": "bool",
              "name": "revealed",
              "type": "bool"
            }
          ],
          "internalType": "struct Playables.Token[]",
          "name": "",
          "type": "tuple[]"
        }
      ],
      "stateMutability": "view",
      "type": "function"
    },
    {
      "inputs": [
        {
          "internalType": "address",
          "name": "account",
          "type": "address"
        },
        {
          "internalType": "address",
          "name": "operator",
          "type": "address"
        }
      ],
      "name": "isApprovedForAll",
      "outputs": [
        {
          "internalType": "bool",
          "name": "",
          "type": "bool"
        }
      ],
      "stateMutability": "view",
      "type": "function"
    },
    {
      "inputs": [],
      "name": "liqudityReceiver",
      "outputs": [
        {
          "internalType": "address payable",
          "name": "",
          "type": "address"
        }
      ],
      "stateMutability": "view",
      "type": "function"
    },
    {
      "inputs": [
        {
          "components": [
            {
              "internalType": "uint256",
              "name": "tokenId",
              "type": "uint256"
            },
            {
              "internalType": "uint256",
              "name": "amount",
              "type": "uint256"
            },
            {
              "internalType": "string",
              "name": "promoCode",
              "type": "string"
            }
          ],
          "internalType": "struct Playables.MintParams",
          "name": "p",
          "type": "tuple"
        }
      ],
      "name": "mint",
      "outputs": [],
      "stateMutability": "payable",
      "type": "function"
    },
    {
      "inputs": [],
      "name": "owner",
      "outputs": [
        {
          "internalType": "address",
          "name": "",
          "type": "address"
        }
      ],
      "stateMutability": "view",
      "type": "function"
    },
    {
      "inputs": [],
      "name": "pause",
      "outputs": [],
      "stateMutability": "nonpayable",
      "type": "function"
    },
    {
      "inputs": [],
      "name": "paused",
      "outputs": [
        {
          "internalType": "bool",
          "name": "",
          "type": "bool"
        }
      ],
      "stateMutability": "view",
      "type": "function"
    },
    {
      "inputs": [],
      "name": "promoters",
      "outputs": [
        {
          "internalType": "contract IPromoter",
          "name": "",
          "type": "address"
        }
      ],
      "stateMutability": "view",
      "type": "function"
    },
    {
      "inputs": [],
      "name": "renounceOwnership",
      "outputs": [],
      "stateMutability": "nonpayable",
      "type": "function"
    },
    {
      "inputs": [
        {
          "components": [
            {
              "internalType": "uint256",
              "name": "tokenId",
              "type": "uint256"
            },
            {
              "internalType": "uint256",
              "name": "amount",
              "type": "uint256"
            },
            {
              "internalType": "address",
              "name": "recipient",
              "type": "address"
            }
          ],
          "internalType": "struct Playables.RewardParams",
          "name": "p",
          "type": "tuple"
        }
      ],
      "name": "reward",
      "outputs": [],
      "stateMutability": "nonpayable",
      "type": "function"
    },
    {
      "inputs": [
        {
          "internalType": "address",
          "name": "from",
          "type": "address"
        },
        {
          "internalType": "address",
          "name": "to",
          "type": "address"
        },
        {
          "internalType": "uint256[]",
          "name": "ids",
          "type": "uint256[]"
        },
        {
          "internalType": "uint256[]",
          "name": "amounts",
          "type": "uint256[]"
        },
        {
          "internalType": "bytes",
          "name": "data",
          "type": "bytes"
        }
      ],
      "name": "safeBatchTransferFrom",
      "outputs": [],
      "stateMutability": "nonpayable",
      "type": "function"
    },
    {
      "inputs": [
        {
          "internalType": "address",
          "name": "from",
          "type": "address"
        },
        {
          "internalType": "address",
          "name": "to",
          "type": "address"
        },
        {
          "internalType": "uint256",
          "name": "id",
          "type": "uint256"
        },
        {
          "internalType": "uint256",
          "name": "amount",
          "type": "uint256"
        },
        {
          "internalType": "bytes",
          "name": "data",
          "type": "bytes"
        }
      ],
      "name": "safeTransferFrom",
      "outputs": [],
      "stateMutability": "nonpayable",
      "type": "function"
    },
    {
      "inputs": [
        {
          "internalType": "address",
          "name": "operator",
          "type": "address"
        },
        {
          "internalType": "bool",
          "name": "approved",
          "type": "bool"
        }
      ],
      "name": "setApprovalForAll",
      "outputs": [],
      "stateMutability": "nonpayable",
      "type": "function"
    },
    {
      "inputs": [
        {
          "internalType": "address payable",
          "name": "receiver",
          "type": "address"
        }
      ],
      "name": "setLiquidityReceiver",
      "outputs": [],
      "stateMutability": "nonpayable",
      "type": "function"
    },
    {
      "inputs": [
        {
          "internalType": "address",
          "name": "kontrakt",
          "type": "address"
        }
      ],
      "name": "setPromoterContract",
      "outputs": [],
      "stateMutability": "nonpayable",
      "type": "function"
    },
    {
      "inputs": [
        {
          "internalType": "uint256",
          "name": "tokenId",
          "type": "uint256"
        },
        {
          "components": [
            {
              "internalType": "string",
              "name": "uri",
              "type": "string"
            },
            {
              "internalType": "uint256",
              "name": "createdAt",
              "type": "uint256"
            },
            {
              "internalType": "uint256",
              "name": "launchedAt",
              "type": "uint256"
            },
            {
              "internalType": "uint256",
              "name": "supply",
              "type": "uint256"
            },
            {
              "internalType": "uint256",
              "name": "minted",
              "type": "uint256"
            },
            {
              "internalType": "uint128",
              "name": "weight",
              "type": "uint128"
            },
            {
              "internalType": "uint256",
              "name": "price",
              "type": "uint256"
            },
            {
              "internalType": "bool",
              "name": "revealed",
              "type": "bool"
            }
          ],
          "internalType": "struct Playables.Token",
          "name": "newData",
          "type": "tuple"
        }
      ],
      "name": "setToken",
      "outputs": [],
      "stateMutability": "nonpayable",
      "type": "function"
    },
    {
      "inputs": [
        {
          "internalType": "bytes4",
          "name": "interfaceId",
          "type": "bytes4"
        }
      ],
      "name": "supportsInterface",
      "outputs": [
        {
          "internalType": "bool",
          "name": "",
          "type": "bool"
        }
      ],
      "stateMutability": "view",
      "type": "function"
    },
    {
      "inputs": [
        {
          "internalType": "uint256",
          "name": "",
          "type": "uint256"
        }
      ],
      "name": "tokens",
      "outputs": [
        {
          "internalType": "string",
          "name": "uri",
          "type": "string"
        },
        {
          "internalType": "uint256",
          "name": "createdAt",
          "type": "uint256"
        },
        {
          "internalType": "uint256",
          "name": "launchedAt",
          "type": "uint256"
        },
        {
          "internalType": "uint256",
          "name": "supply",
          "type": "uint256"
        },
        {
          "internalType": "uint256",
          "name": "minted",
          "type": "uint256"
        },
        {
          "internalType": "uint128",
          "name": "weight",
          "type": "uint128"
        },
        {
          "internalType": "uint256",
          "name": "price",
          "type": "uint256"
        },
        {
          "internalType": "bool",
          "name": "revealed",
          "type": "bool"
        }
      ],
      "stateMutability": "view",
      "type": "function"
    },
    {
      "inputs": [],
      "name": "tokensCount",
      "outputs": [
        {
          "internalType": "uint256",
          "name": "",
          "type": "uint256"
        }
      ],
      "stateMutability": "view",
      "type": "function"
    },
    {
      "inputs": [
        {
          "internalType": "address",
          "name": "newOwner",
          "type": "address"
        }
      ],
      "name": "transferOwnership",
      "outputs": [],
      "stateMutability": "nonpayable",
      "type": "function"
    },
    {
      "inputs": [],
      "name": "unpause",
      "outputs": [],
      "stateMutability": "nonpayable",
      "type": "function"
    },
    {
      "inputs": [
        {
          "internalType": "uint256",
          "name": "tokenId",
          "type": "uint256"
        }
      ],
      "name": "uri",
      "outputs": [
        {
          "internalType": "string",
          "name": "",
          "type": "string"
        }
      ],
      "stateMutability": "view",
      "type": "function"
    },
    {
      "stateMutability": "payable",
      "type": "receive"
    }
  ],
  "bytecode": "0x60806040523480156200001157600080fd5b506040516200341738038062003417833981016040819052620000349162000306565b80620000408162000078565b506200004c3362000091565b6003805460ff60a01b191690556200006483620000e3565b6200006f826200015d565b5050506200044c565b80516200008d90600290602084019062000231565b5050565b600380546001600160a01b038381166001600160a01b0319831681179093556040519116919082907f8be0079c531659141344cd1fd0a4f28419497f9722a3daafe3b4186f6b6457e090600090a35050565b620000ed620001d3565b6001600160a01b0381166200013b5760405162461bcd60e51b815260206004820152600f60248201526e696e76616c6964206164647265737360881b60448201526064015b60405180910390fd5b600680546001600160a01b0319166001600160a01b0392909216919091179055565b62000167620001d3565b6001600160a01b038116620001b15760405162461bcd60e51b815260206004820152600f60248201526e696e76616c6964206164647265737360881b604482015260640162000132565b600780546001600160a01b0319166001600160a01b0392909216919091179055565b6003546001600160a01b031633146200022f5760405162461bcd60e51b815260206004820181905260248201527f4f776e61626c653a2063616c6c6572206973206e6f7420746865206f776e6572604482015260640162000132565b565b8280546200023f9062000410565b90600052602060002090601f016020900481019282620002635760008555620002ae565b82601f106200027e57805160ff1916838001178555620002ae565b82800160010185558215620002ae579182015b82811115620002ae57825182559160200191906001019062000291565b50620002bc929150620002c0565b5090565b5b80821115620002bc5760008155600101620002c1565b6001600160a01b0381168114620002ed57600080fd5b50565b634e487b7160e01b600052604160045260246000fd5b6000806000606084860312156200031c57600080fd5b83516200032981620002d7565b809350506020808501516200033e81620002d7565b60408601519093506001600160401b03808211156200035c57600080fd5b818701915087601f8301126200037157600080fd5b815181811115620003865762000386620002f0565b604051601f8201601f19908116603f01168101908382118183101715620003b157620003b1620002f0565b816040528281528a86848701011115620003ca57600080fd5b600093505b82841015620003ee5784840186015181850187015292850192620003cf565b82841115620004005760008684830101525b8096505050505050509250925092565b600181811c908216806200042557607f821691505b6020821081036200044657634e487b7160e01b600052602260045260246000fd5b50919050565b612fbb806200045c6000396000f3fe60806040526004361061019f5760003560e01c8063797ccefe116100ec578063b57e36821161008a578063dbeb8ff811610064578063dbeb8ff81461052d578063e985e9c514610540578063f242432a14610560578063f2fde38b1461058057600080fd5b8063b57e3682146104cd578063c49a248a146104ed578063cf9ee2291461050d57600080fd5b8063a22cb465116100c6578063a22cb46514610455578063a64ed8ba14610475578063aa6ca8081461048b578063b46bcfb6146104ad57600080fd5b8063797ccefe146104025780638456cb59146104225780638da5cb5b1461043757600080fd5b80634f64b2be11610159578063654028e711610133578063654028e714610375578063715018a61461039557806372108579146103aa57806379404c0e146103e257600080fd5b80634f64b2be146102ea578063583478d21461031e5780635c975abb1461035657600080fd5b8062fdd58e146101f657806301ffc9a7146102295780630e89341c146102595780632eb2c2d6146102865780633f4ba83a146102a85780634e1273f4146102bd57600080fd5b366101f15760405162461bcd60e51b815260206004820152601f60248201527f757365206d696e74696e672066756e6374696f6e206578706c696369746c790060448201526064015b60405180910390fd5b600080fd5b34801561020257600080fd5b50610216610211366004612266565b6105a0565b6040519081526020015b60405180910390f35b34801561023557600080fd5b506102496102443660046122a8565b610631565b6040519015158152602001610220565b34801561026557600080fd5b506102796102743660046122c5565b610642565b604051610220919061232b565b34801561029257600080fd5b506102a66102a13660046124b0565b61072f565b005b3480156102b457600080fd5b506102a661077b565b3480156102c957600080fd5b506102dd6102d836600461255d565b61078d565b6040516102209190612664565b3480156102f657600080fd5b5061030a6103053660046122c5565b6108b6565b604051610220989796959493929190612677565b34801561032a57600080fd5b5060065461033e906001600160a01b031681565b6040516001600160a01b039091168152602001610220565b34801561036257600080fd5b50600354600160a01b900460ff16610249565b34801561038157600080fd5b506102a6610390366004612795565b61098e565b3480156103a157600080fd5b506102a6610c16565b3480156103b657600080fd5b506103ca6103c53660046122c5565b610c28565b6040516001600160801b039091168152602001610220565b3480156103ee57600080fd5b506102a66103fd3660046127d1565b610c79565b34801561040e57600080fd5b5060075461033e906001600160a01b031681565b34801561042e57600080fd5b506102a6610ce1565b34801561044357600080fd5b506003546001600160a01b031661033e565b34801561046157600080fd5b506102a661047036600461280d565b610cf1565b34801561048157600080fd5b5061021660055481565b34801561049757600080fd5b506104a0610cfc565b6040516102209190612842565b3480156104b957600080fd5b506102a66104c8366004612901565b610ecf565b3480156104d957600080fd5b506102a66104e8366004612962565b61103a565b3480156104f957600080fd5b506102a661050836600461297f565b61108a565b34801561051957600080fd5b506102a6610528366004612962565b61122c565b6102a661053b366004612a3a565b61127c565b34801561054c57600080fd5b5061024961055b366004612ad2565b61150c565b34801561056c57600080fd5b506102a661057b366004612b0b565b61156b565b34801561058c57600080fd5b506102a661059b366004612962565b6115b0565b60006001600160a01b03831661060b5760405162461bcd60e51b815260206004820152602a60248201527f455243313135353a2061646472657373207a65726f206973206e6f742061207660448201526930b634b21037bbb732b960b11b60648201526084016101e8565b506000908152602081815260408083206001600160a01b03949094168352929052205490565b600061063c82611629565b92915050565b60608160055481111580156106575750600081115b6106735760405162461bcd60e51b81526004016101e890612b73565b6000838152600460205260408120805461068c90612ba2565b80601f01602080910402602001604051908101604052809291908181526020018280546106b890612ba2565b80156107055780601f106106da57610100808354040283529160200191610705565b820191906000526020600020905b8154815290600101906020018083116106e857829003601f168201915b5050505050905060008151116107235761071e84611679565b610725565b805b9250505b50919050565b6001600160a01b03851633148061074b575061074b853361150c565b6107675760405162461bcd60e51b81526004016101e890612bd6565b610774858585858561170d565b5050505050565b6107836118ea565b61078b611944565b565b606081518351146107f25760405162461bcd60e51b815260206004820152602960248201527f455243313135353a206163636f756e747320616e6420696473206c656e677468604482015268040dad2e6dac2e8c6d60bb1b60648201526084016101e8565b600083516001600160401b0381111561080d5761080d61233e565b604051908082528060200260200182016040528015610836578160200160208202803683370190505b50905060005b84518110156108ae5761088185828151811061085a5761085a612c24565b602002602001015185838151811061087457610874612c24565b60200260200101516105a0565b82828151811061089357610893612c24565b60209081029190910101526108a781612c50565b905061083c565b509392505050565b6004602052600090815260409020805481906108d190612ba2565b80601f01602080910402602001604051908101604052809291908181526020018280546108fd90612ba2565b801561094a5780601f1061091f5761010080835404028352916020019161094a565b820191906000526020600020905b81548152906001019060200180831161092d57829003601f168201915b50505060018401546002850154600386015460048701546005880154600689015460079099015497989497939650919450926001600160801b039091169160ff1688565b6109966118ea565b8160055481111580156109a95750600081115b6109c55760405162461bcd60e51b81526004016101e890612b73565b8160400151600003610a0d5760405162461bcd60e51b81526020600482015260116024820152701a5b9d985b1a59081b185d5b98da08185d607a1b60448201526064016101e8565b60008381526004602052604080822081516101008101909252805482908290610a3590612ba2565b80601f0160208091040260200160405190810160405280929190818152602001828054610a6190612ba2565b8015610aae5780601f10610a8357610100808354040283529160200191610aae565b820191906000526020600020905b815481529060010190602001808311610a9157829003601f168201915b505050918352505060018201546020820152600282015460408201526003820154606080830191909152600483015460808084019190915260058401546001600160801b031660a0840152600684015460c084015260079093015460ff16151560e09092019190915290820151908501519192501115610b615760405162461bcd60e51b815260206004820152600e60248201526d696e76616c696420737570706c7960901b60448201526064016101e8565b60208082015184820152604080830151818601526080808401519086015260008681526004835220845180518693610b9d928492910190612168565b506020820151600182015560408201516002820155606082015160038201556080820151600482015560a08201516005820180546001600160801b0319166001600160801b0390921691909117905560c0820151600682015560e0909101516007909101805460ff191691151591909117905550505050565b610c1e6118ea565b61078b6000611999565b6000816005548111158015610c3d5750600081115b610c595760405162461bcd60e51b81526004016101e890612b73565b50506000908152600460205260409020600501546001600160801b031690565b610c816118ea565b604080516001808252818301909252600091816020015b610ca06121ec565b815260200190600190039081610c985790505090508181600081518110610cc957610cc9612c24565b6020026020010181905250610cdd8161108a565b5050565b610ce96118ea565b61078b6119eb565b610cdd338383611a2e565b606060006005546001600160401b03811115610d1a57610d1a61233e565b604051908082528060200260200182016040528015610d5357816020015b610d406121ec565b815260200190600190039081610d385790505b50905060005b81518110156107295760046000610d71836001612c69565b815260200190815260200160002060405180610100016040529081600082018054610d9b90612ba2565b80601f0160208091040260200160405190810160405280929190818152602001828054610dc790612ba2565b8015610e145780601f10610de957610100808354040283529160200191610e14565b820191906000526020600020905b815481529060010190602001808311610df757829003601f168201915b50505091835250506001820154602082015260028201546040820152600382015460608201526004820154608082015260058201546001600160801b031660a0820152600682015460c082015260079091015460ff16151560e0909101528251839083908110610e8657610e86612c24565b6020908102919091010152610e9f610274826001612c69565b828281518110610eb157610eb1612c24565b60209081029190910101515280610ec781612c50565b915050610d59565b80516005548111801590610ee35750600081115b610eff5760405162461bcd60e51b81526004016101e890612b73565b610f076118ea565b60408201516001600160a01b0316610f315760405162461bcd60e51b81526004016101e890612c81565b8151600090815260046020908152604090912090830151610f945760405162461bcd60e51b815260206004820152601d60248201527f616d6f756e74206d7573742062652067726561746572207468616e203000000060448201526064016101e8565b806003015483602001518260040154610fad9190612c69565b1115610ff55760405162461bcd60e51b81526020600482015260176024820152761b585e1a5b5d5b481cdd5c1c1b1e48195e18d959591959604a1b60448201526064016101e8565b61101c83604001518460000151856020015160405180602001604052806000815250611b0e565b826020015181600401546110309190612c69565b6004909101555050565b6110426118ea565b6001600160a01b0381166110685760405162461bcd60e51b81526004016101e890612c81565b600680546001600160a01b0319166001600160a01b0392909216919091179055565b6110926118ea565b60005b8151811015610cdd5760008282815181106110b2576110b2612c24565b6020026020010151905080604001516000036111045760405162461bcd60e51b81526020600482015260116024820152701a5b9d985b1a59081b185d5b98da08185d607a1b60448201526064016101e8565b60018160600151101561114a5760405162461bcd60e51b815260206004820152600e60248201526d696e76616c696420737570706c7960901b60448201526064016101e8565b6005805490600061115a83612c50565b90915550506005546000908152600460209081526040909120825180518493611187928492910190612168565b50602082810151600183810191909155604080850151600285015560608501516003850155608085015160048086019190915560a0860151600580870180546001600160801b0319166001600160801b039093169290921790915560c0870151600687015560e0909601516007909501805460ff191695151595909517909455935460009081529290915291902042910155508061122481612c50565b915050611095565b6112346118ea565b6001600160a01b03811661125a5760405162461bcd60e51b81526004016101e890612c81565b600780546001600160a01b0319166001600160a01b0392909216919091179055565b805160055481118015906112905750600081115b6112ac5760405162461bcd60e51b81526004016101e890612b73565b6112b4611c22565b81516000908152600460205260409020600281015442101561130b5760405162461bcd60e51b815260206004820152601060248201526f1b9bdd081b185d5b98da1959081e595d60821b60448201526064016101e8565b600083602001511161135f5760405162461bcd60e51b815260206004820152601d60248201527f616d6f756e74206d7573742062652067726561746572207468616e203000000060448201526064016101e8565b8060030154836020015182600401546113789190612c69565b11156113c05760405162461bcd60e51b81526020600482015260176024820152761b585e1a5b5d5b481cdd5c1c1b1e48195e18d959591959604a1b60448201526064016101e8565b6000836020015182600601546113d69190612caa565b6040850151519091501561146e5760075460408086015190516326baf4e560e21b81526000926001600160a01b031691639aebd3949161141b91908690600401612cc9565b6020604051808303816000875af115801561143a573d6000803e3d6000fd5b505050506040513d601f19601f8201168201806040525081019061145e9190612ceb565b905061146a8183612d04565b9150505b803410156114b55760405162461bcd60e51b81526020600482015260146024820152733737ba1032b737bab3b41032ba341033b4bb32b760611b60448201526064016101e8565b6006546114cb906001600160a01b031634611c6f565b6114ea3385516020808801516040805192830190526000825290611b0e565b836020015182600401546114fe9190612c69565b826004018190555050505050565b6000816001600160a01b031661152a6003546001600160a01b031690565b6001600160a01b0316148061156457506001600160a01b0380841660009081526001602090815260408083209386168352929052205460ff165b9392505050565b6001600160a01b0385163314806115875750611587853361150c565b6115a35760405162461bcd60e51b81526004016101e890612bd6565b6107748585858585611d8d565b6115b86118ea565b6001600160a01b03811661161d5760405162461bcd60e51b815260206004820152602660248201527f4f776e61626c653a206e6577206f776e657220697320746865207a65726f206160448201526564647265737360d01b60648201526084016101e8565b61162681611999565b50565b60006001600160e01b03198216636cdb3d1360e11b148061165a57506001600160e01b031982166303a24d0760e21b145b8061063c57506301ffc9a760e01b6001600160e01b031983161461063c565b60606002805461168890612ba2565b80601f01602080910402602001604051908101604052809291908181526020018280546116b490612ba2565b80156117015780601f106116d657610100808354040283529160200191611701565b820191906000526020600020905b8154815290600101906020018083116116e457829003601f168201915b50505050509050919050565b815183511461176f5760405162461bcd60e51b815260206004820152602860248201527f455243313135353a2069647320616e6420616d6f756e7473206c656e677468206044820152670dad2e6dac2e8c6d60c31b60648201526084016101e8565b6001600160a01b0384166117955760405162461bcd60e51b81526004016101e890612d1b565b3360005b845181101561187c5760008582815181106117b6576117b6612c24565b6020026020010151905060008583815181106117d4576117d4612c24565b602090810291909101810151600084815280835260408082206001600160a01b038e1683529093529190912054909150818110156118245760405162461bcd60e51b81526004016101e890612d60565b6000838152602081815260408083206001600160a01b038e8116855292528083208585039055908b16825281208054849290611861908490612c69565b925050819055505050508061187590612c50565b9050611799565b50846001600160a01b0316866001600160a01b0316826001600160a01b03167f4a39dc06d4c0dbc64b70af90fd698a233a518aa5d07e595d983b8c0526c8f7fb87876040516118cc929190612daa565b60405180910390a46118e2818787878787611eb7565b505050505050565b6003546001600160a01b0316331461078b5760405162461bcd60e51b815260206004820181905260248201527f4f776e61626c653a2063616c6c6572206973206e6f7420746865206f776e657260448201526064016101e8565b61194c612012565b6003805460ff60a01b191690557f5db9ee0a495bf2e6ff9c91a7834c1ba4fdd244a5e8aa4e537bd38aeae4b073aa335b6040516001600160a01b03909116815260200160405180910390a1565b600380546001600160a01b038381166001600160a01b0319831681179093556040519116919082907f8be0079c531659141344cd1fd0a4f28419497f9722a3daafe3b4186f6b6457e090600090a35050565b6119f3611c22565b6003805460ff60a01b1916600160a01b1790557f62e78cea01bee320cd4e420270b5ea74000d11b0c9f74754ebdbfc544b05a25861197c3390565b816001600160a01b0316836001600160a01b031603611aa15760405162461bcd60e51b815260206004820152602960248201527f455243313135353a2073657474696e6720617070726f76616c20737461747573604482015268103337b91039b2b63360b91b60648201526084016101e8565b6001600160a01b03838116600081815260016020908152604080832094871680845294825291829020805460ff191686151590811790915591519182527f17307eab39ab6107e8899845ad3d59bd9653f200f220920489ca2b5937696c31910160405180910390a3505050565b6001600160a01b038416611b6e5760405162461bcd60e51b815260206004820152602160248201527f455243313135353a206d696e7420746f20746865207a65726f206164647265736044820152607360f81b60648201526084016101e8565b336000611b7a85612062565b90506000611b8785612062565b90506000868152602081815260408083206001600160a01b038b16845290915281208054879290611bb9908490612c69565b909155505060408051878152602081018790526001600160a01b03808a1692600092918716917fc3d58168c5ae7397731d063d5bbf3d657854427343f4c083240f7aacaa2d0f62910160405180910390a4611c19836000898989896120ad565b50505050505050565b600354600160a01b900460ff161561078b5760405162461bcd60e51b815260206004820152601060248201526f14185d5cd8589b194e881c185d5cd95960821b60448201526064016101e8565b80471015611cbf5760405162461bcd60e51b815260206004820152601d60248201527f416464726573733a20696e73756666696369656e742062616c616e636500000060448201526064016101e8565b6000826001600160a01b03168260405160006040518083038185875af1925050503d8060008114611d0c576040519150601f19603f3d011682016040523d82523d6000602084013e611d11565b606091505b5050905080611d885760405162461bcd60e51b815260206004820152603a60248201527f416464726573733a20756e61626c6520746f2073656e642076616c75652c207260448201527f6563697069656e74206d6179206861766520726576657274656400000000000060648201526084016101e8565b505050565b6001600160a01b038416611db35760405162461bcd60e51b81526004016101e890612d1b565b336000611dbf85612062565b90506000611dcc85612062565b90506000868152602081815260408083206001600160a01b038c16845290915290205485811015611e0f5760405162461bcd60e51b81526004016101e890612d60565b6000878152602081815260408083206001600160a01b038d8116855292528083208985039055908a16825281208054889290611e4c908490612c69565b909155505060408051888152602081018890526001600160a01b03808b16928c821692918816917fc3d58168c5ae7397731d063d5bbf3d657854427343f4c083240f7aacaa2d0f62910160405180910390a4611eac848a8a8a8a8a6120ad565b505050505050505050565b6001600160a01b0384163b156118e25760405163bc197c8160e01b81526001600160a01b0385169063bc197c8190611efb9089908990889088908890600401612dd8565b6020604051808303816000875af1925050508015611f36575060408051601f3d908101601f19168201909252611f3391810190612e36565b60015b611fe257611f42612e53565b806308c379a003611f7b5750611f56612e6f565b80611f615750611f7d565b8060405162461bcd60e51b81526004016101e8919061232b565b505b60405162461bcd60e51b815260206004820152603460248201527f455243313135353a207472616e7366657220746f206e6f6e2d455243313135356044820152732932b1b2b4bb32b91034b6b83632b6b2b73a32b960611b60648201526084016101e8565b6001600160e01b0319811663bc197c8160e01b14611c195760405162461bcd60e51b81526004016101e890612ef8565b600354600160a01b900460ff1661078b5760405162461bcd60e51b815260206004820152601460248201527314185d5cd8589b194e881b9bdd081c185d5cd95960621b60448201526064016101e8565b6040805160018082528183019092526060916000919060208083019080368337019050509050828160008151811061209c5761209c612c24565b602090810291909101015292915050565b6001600160a01b0384163b156118e25760405163f23a6e6160e01b81526001600160a01b0385169063f23a6e61906120f19089908990889088908890600401612f40565b6020604051808303816000875af192505050801561212c575060408051601f3d908101601f1916820190925261212991810190612e36565b60015b61213857611f42612e53565b6001600160e01b0319811663f23a6e6160e01b14611c195760405162461bcd60e51b81526004016101e890612ef8565b82805461217490612ba2565b90600052602060002090601f01602090048101928261219657600085556121dc565b82601f106121af57805160ff19168380011785556121dc565b828001600101855582156121dc579182015b828111156121dc5782518255916020019190600101906121c1565b506121e892915061223c565b5090565b604051806101000160405280606081526020016000815260200160008152602001600081526020016000815260200160006001600160801b03168152602001600081526020016000151581525090565b5b808211156121e8576000815560010161223d565b6001600160a01b038116811461162657600080fd5b6000806040838503121561227957600080fd5b823561228481612251565b946020939093013593505050565b6001600160e01b03198116811461162657600080fd5b6000602082840312156122ba57600080fd5b813561156481612292565b6000602082840312156122d757600080fd5b5035919050565b6000815180845260005b81811015612304576020818501810151868301820152016122e8565b81811115612316576000602083870101525b50601f01601f19169290920160200192915050565b60208152600061156460208301846122de565b634e487b7160e01b600052604160045260246000fd5b601f8201601f191681016001600160401b03811182821017156123795761237961233e565b6040525050565b60405161010081016001600160401b03811182821017156123a3576123a361233e565b60405290565b60006001600160401b038211156123c2576123c261233e565b5060051b60200190565b600082601f8301126123dd57600080fd5b813560206123ea826123a9565b6040516123f78282612354565b83815260059390931b850182019282810191508684111561241757600080fd5b8286015b84811015612432578035835291830191830161241b565b509695505050505050565b600082601f83011261244e57600080fd5b81356001600160401b038111156124675761246761233e565b60405161247e601f8301601f191660200182612354565b81815284602083860101111561249357600080fd5b816020850160208301376000918101602001919091529392505050565b600080600080600060a086880312156124c857600080fd5b85356124d381612251565b945060208601356124e381612251565b935060408601356001600160401b03808211156124ff57600080fd5b61250b89838a016123cc565b9450606088013591508082111561252157600080fd5b61252d89838a016123cc565b9350608088013591508082111561254357600080fd5b506125508882890161243d565b9150509295509295909350565b6000806040838503121561257057600080fd5b82356001600160401b038082111561258757600080fd5b818501915085601f83011261259b57600080fd5b813560206125a8826123a9565b6040516125b58282612354565b83815260059390931b85018201928281019150898411156125d557600080fd5b948201945b838610156125fc5785356125ed81612251565b825294820194908201906125da565b9650508601359250508082111561261257600080fd5b5061261f858286016123cc565b9150509250929050565b600081518084526020808501945080840160005b838110156126595781518752958201959082019060010161263d565b509495945050505050565b6020815260006115646020830184612629565b600061010080835261268b8184018c6122de565b602084019a909a5250506040810196909652606086019490945260808501929092526001600160801b031660a084015260c0830152151560e090910152919050565b80356001600160801b03811681146126e457600080fd5b919050565b803580151581146126e457600080fd5b6000610100828403121561270c57600080fd5b612714612380565b905081356001600160401b0381111561272c57600080fd5b6127388482850161243d565b8252506020820135602082015260408201356040820152606082013560608201526080820135608082015261276f60a083016126cd565b60a082015260c082013560c082015261278a60e083016126e9565b60e082015292915050565b600080604083850312156127a857600080fd5b8235915060208301356001600160401b038111156127c557600080fd5b61261f858286016126f9565b6000602082840312156127e357600080fd5b81356001600160401b038111156127f957600080fd5b612805848285016126f9565b949350505050565b6000806040838503121561282057600080fd5b823561282b81612251565b9150612839602084016126e9565b90509250929050565b60006020808301818452808551808352604092508286019150828160051b87010184880160005b838110156128f357603f1989840301855281516101008151818652612890828701826122de565b838b0151878c0152898401518a880152606080850151908801526080808501519088015260a0808501516001600160801b03169088015260c0808501519088015260e0938401511515939096019290925250509386019390860190600101612869565b509098975050505050505050565b60006060828403121561291357600080fd5b604051606081018181106001600160401b03821117156129355761293561233e565b80604052508235815260208301356020820152604083013561295681612251565b60408201529392505050565b60006020828403121561297457600080fd5b813561156481612251565b6000602080838503121561299257600080fd5b82356001600160401b03808211156129a957600080fd5b818501915085601f8301126129bd57600080fd5b81356129c8816123a9565b6040516129d58282612354565b82815260059290921b84018501918581019150888311156129f557600080fd5b8585015b83811015612a2d57803585811115612a115760008081fd5b612a1f8b89838a01016126f9565b8452509186019186016129f9565b5098975050505050505050565b600060208284031215612a4c57600080fd5b81356001600160401b0380821115612a6357600080fd5b9083019060608286031215612a7757600080fd5b604051606081018181108382111715612a9257612a9261233e565b80604052508235815260208301356020820152604083013582811115612ab757600080fd5b612ac38782860161243d565b60408301525095945050505050565b60008060408385031215612ae557600080fd5b8235612af081612251565b91506020830135612b0081612251565b809150509250929050565b600080600080600060a08688031215612b2357600080fd5b8535612b2e81612251565b94506020860135612b3e81612251565b9350604086013592506060860135915060808601356001600160401b03811115612b6757600080fd5b6125508882890161243d565b602080825260159082015274746f6b656e20646f6573206e6f742065786973747360581b604082015260600190565b600181811c90821680612bb657607f821691505b60208210810361072957634e487b7160e01b600052602260045260246000fd5b6020808252602e908201527f455243313135353a2063616c6c6572206973206e6f7420746f6b656e206f776e60408201526d195c881bdc88185c1c1c9bdd995960921b606082015260800190565b634e487b7160e01b600052603260045260246000fd5b634e487b7160e01b600052601160045260246000fd5b600060018201612c6257612c62612c3a565b5060010190565b60008219821115612c7c57612c7c612c3a565b500190565b6020808252600f908201526e696e76616c6964206164647265737360881b604082015260600190565b6000816000190483118215151615612cc457612cc4612c3a565b500290565b604081526000612cdc60408301856122de565b90508260208301529392505050565b600060208284031215612cfd57600080fd5b5051919050565b600082821015612d1657612d16612c3a565b500390565b60208082526025908201527f455243313135353a207472616e7366657220746f20746865207a65726f206164604082015264647265737360d81b606082015260800190565b6020808252602a908201527f455243313135353a20696e73756666696369656e742062616c616e636520666f60408201526939103a3930b739b332b960b11b606082015260800190565b604081526000612dbd6040830185612629565b8281036020840152612dcf8185612629565b95945050505050565b6001600160a01b0386811682528516602082015260a060408201819052600090612e0490830186612629565b8281036060840152612e168186612629565b90508281036080840152612e2a81856122de565b98975050505050505050565b600060208284031215612e4857600080fd5b815161156481612292565b600060033d1115612e6c5760046000803e5060005160e01c5b90565b600060443d1015612e7d5790565b6040516003193d81016004833e81513d6001600160401b038160248401118184111715612eac57505050505090565b8285019150815181811115612ec45750505050505090565b843d8701016020828501011115612ede5750505050505090565b612eed60208286010187612354565b509095945050505050565b60208082526028908201527f455243313135353a204552433131353552656365697665722072656a656374656040820152676420746f6b656e7360c01b606082015260800190565b6001600160a01b03868116825285166020820152604081018490526060810183905260a060808201819052600090612f7a908301846122de565b97965050505050505056fea26469706673582212208002386bd6b412a4e49cdc9cca78a63a1b6c35dc5800bf6fd2b3db337eae065364736f6c634300080d0033",
  "linkReferences": {},
  "deployedLinkReferences": {}
}