{
  "_format": "hh-sol-artifact-1",
  "contractName": "Playables",
  "sourceName": "contracts/Playables.sol",
  "abi": [
    {
      "inputs": [
        {
          "internalType": "address payable",
          "name": "_receiver",
          "type": "address"
        },
        {
          "internalType": "address",
          "name": "_promoter",
          "type": "address"
        },
        {
          "internalType": "string",
          "name": "_defaultURI",
          "type": "string"
        }
      ],
      "stateMutability": "nonpayable",
      "type": "constructor"
    },
    {
      "anonymous": false,
      "inputs": [
        {
          "indexed": true,
          "internalType": "address",
          "name": "account",
          "type": "address"
        },
        {
          "indexed": true,
          "internalType": "address",
          "name": "operator",
          "type": "address"
        },
        {
          "indexed": false,
          "internalType": "bool",
          "name": "approved",
          "type": "bool"
        }
      ],
      "name": "ApprovalForAll",
      "type": "event"
    },
    {
      "anonymous": false,
      "inputs": [
        {
          "indexed": true,
          "internalType": "address",
          "name": "previousOwner",
          "type": "address"
        },
        {
          "indexed": true,
          "internalType": "address",
          "name": "newOwner",
          "type": "address"
        }
      ],
      "name": "OwnershipTransferred",
      "type": "event"
    },
    {
      "anonymous": false,
      "inputs": [
        {
          "indexed": false,
          "internalType": "address",
          "name": "account",
          "type": "address"
        }
      ],
      "name": "Paused",
      "type": "event"
    },
    {
      "anonymous": false,
      "inputs": [
        {
          "indexed": true,
          "internalType": "address",
          "name": "operator",
          "type": "address"
        },
        {
          "indexed": true,
          "internalType": "address",
          "name": "from",
          "type": "address"
        },
        {
          "indexed": true,
          "internalType": "address",
          "name": "to",
          "type": "address"
        },
        {
          "indexed": false,
          "internalType": "uint256[]",
          "name": "ids",
          "type": "uint256[]"
        },
        {
          "indexed": false,
          "internalType": "uint256[]",
          "name": "values",
          "type": "uint256[]"
        }
      ],
      "name": "TransferBatch",
      "type": "event"
    },
    {
      "anonymous": false,
      "inputs": [
        {
          "indexed": true,
          "internalType": "address",
          "name": "operator",
          "type": "address"
        },
        {
          "indexed": true,
          "internalType": "address",
          "name": "from",
          "type": "address"
        },
        {
          "indexed": true,
          "internalType": "address",
          "name": "to",
          "type": "address"
        },
        {
          "indexed": false,
          "internalType": "uint256",
          "name": "id",
          "type": "uint256"
        },
        {
          "indexed": false,
          "internalType": "uint256",
          "name": "value",
          "type": "uint256"
        }
      ],
      "name": "TransferSingle",
      "type": "event"
    },
    {
      "anonymous": false,
      "inputs": [
        {
          "indexed": false,
          "internalType": "string",
          "name": "value",
          "type": "string"
        },
        {
          "indexed": true,
          "internalType": "uint256",
          "name": "id",
          "type": "uint256"
        }
      ],
      "name": "URI",
      "type": "event"
    },
    {
      "anonymous": false,
      "inputs": [
        {
          "indexed": false,
          "internalType": "address",
          "name": "account",
          "type": "address"
        }
      ],
      "name": "Unpaused",
      "type": "event"
    },
    {
      "inputs": [
        {
          "components": [
            {
              "internalType": "string",
              "name": "uri",
              "type": "string"
            },
            {
              "internalType": "uint256",
              "name": "createdAt",
              "type": "uint256"
            },
            {
              "internalType": "uint256",
              "name": "launchedAt",
              "type": "uint256"
            },
            {
              "internalType": "uint256",
              "name": "supply",
              "type": "uint256"
            },
            {
              "internalType": "uint256",
              "name": "minted",
              "type": "uint256"
            },
            {
              "internalType": "uint128",
              "name": "weight",
              "type": "uint128"
            },
            {
              "internalType": "uint256",
              "name": "price",
              "type": "uint256"
            },
            {
              "internalType": "bool",
              "name": "revealed",
              "type": "bool"
            }
          ],
          "internalType": "struct Playables.Token",
          "name": "newToken",
          "type": "tuple"
        }
      ],
      "name": "addToken",
      "outputs": [],
      "stateMutability": "nonpayable",
      "type": "function"
    },
    {
      "inputs": [
        {
          "components": [
            {
              "internalType": "string",
              "name": "uri",
              "type": "string"
            },
            {
              "internalType": "uint256",
              "name": "createdAt",
              "type": "uint256"
            },
            {
              "internalType": "uint256",
              "name": "launchedAt",
              "type": "uint256"
            },
            {
              "internalType": "uint256",
              "name": "supply",
              "type": "uint256"
            },
            {
              "internalType": "uint256",
              "name": "minted",
              "type": "uint256"
            },
            {
              "internalType": "uint128",
              "name": "weight",
              "type": "uint128"
            },
            {
              "internalType": "uint256",
              "name": "price",
              "type": "uint256"
            },
            {
              "internalType": "bool",
              "name": "revealed",
              "type": "bool"
            }
          ],
          "internalType": "struct Playables.Token[]",
          "name": "newTokens",
          "type": "tuple[]"
        }
      ],
      "name": "addTokens",
      "outputs": [],
      "stateMutability": "nonpayable",
      "type": "function"
    },
    {
      "inputs": [
        {
          "internalType": "address",
          "name": "account",
          "type": "address"
        },
        {
          "internalType": "uint256",
          "name": "id",
          "type": "uint256"
        }
      ],
      "name": "balanceOf",
      "outputs": [
        {
          "internalType": "uint256",
          "name": "",
          "type": "uint256"
        }
      ],
      "stateMutability": "view",
      "type": "function"
    },
    {
      "inputs": [
        {
          "internalType": "address[]",
          "name": "accounts",
          "type": "address[]"
        },
        {
          "internalType": "uint256[]",
          "name": "ids",
          "type": "uint256[]"
        }
      ],
      "name": "balanceOfBatch",
      "outputs": [
        {
          "internalType": "uint256[]",
          "name": "",
          "type": "uint256[]"
        }
      ],
      "stateMutability": "view",
      "type": "function"
    },
    {
      "inputs": [
        {
          "internalType": "uint256",
          "name": "tokenId",
          "type": "uint256"
        }
      ],
      "name": "getStakingWeight",
      "outputs": [
        {
          "internalType": "uint128",
          "name": "",
          "type": "uint128"
        }
      ],
      "stateMutability": "view",
      "type": "function"
    },
    {
      "inputs": [],
      "name": "getTokens",
      "outputs": [
        {
          "components": [
            {
              "internalType": "string",
              "name": "uri",
              "type": "string"
            },
            {
              "internalType": "uint256",
              "name": "createdAt",
              "type": "uint256"
            },
            {
              "internalType": "uint256",
              "name": "launchedAt",
              "type": "uint256"
            },
            {
              "internalType": "uint256",
              "name": "supply",
              "type": "uint256"
            },
            {
              "internalType": "uint256",
              "name": "minted",
              "type": "uint256"
            },
            {
              "internalType": "uint128",
              "name": "weight",
              "type": "uint128"
            },
            {
              "internalType": "uint256",
              "name": "price",
              "type": "uint256"
            },
            {
              "internalType": "bool",
              "name": "revealed",
              "type": "bool"
            }
          ],
          "internalType": "struct Playables.Token[]",
          "name": "",
          "type": "tuple[]"
        }
      ],
      "stateMutability": "view",
      "type": "function"
    },
    {
      "inputs": [
        {
          "internalType": "address",
          "name": "account",
          "type": "address"
        },
        {
          "internalType": "address",
          "name": "operator",
          "type": "address"
        }
      ],
      "name": "isApprovedForAll",
      "outputs": [
        {
          "internalType": "bool",
          "name": "",
          "type": "bool"
        }
      ],
      "stateMutability": "view",
      "type": "function"
    },
    {
      "inputs": [],
      "name": "liqudityReceiver",
      "outputs": [
        {
          "internalType": "address payable",
          "name": "",
          "type": "address"
        }
      ],
      "stateMutability": "view",
      "type": "function"
    },
    {
      "inputs": [
        {
          "components": [
            {
              "internalType": "uint256",
              "name": "tokenId",
              "type": "uint256"
            },
            {
              "internalType": "uint256",
              "name": "amount",
              "type": "uint256"
            },
            {
              "internalType": "string",
              "name": "promoCode",
              "type": "string"
            }
          ],
          "internalType": "struct Playables.MintParams",
          "name": "p",
          "type": "tuple"
        }
      ],
      "name": "mint",
      "outputs": [],
      "stateMutability": "payable",
      "type": "function"
    },
    {
      "inputs": [],
      "name": "owner",
      "outputs": [
        {
          "internalType": "address",
          "name": "",
          "type": "address"
        }
      ],
      "stateMutability": "view",
      "type": "function"
    },
    {
      "inputs": [],
      "name": "pause",
      "outputs": [],
      "stateMutability": "nonpayable",
      "type": "function"
    },
    {
      "inputs": [],
      "name": "paused",
      "outputs": [
        {
          "internalType": "bool",
          "name": "",
          "type": "bool"
        }
      ],
      "stateMutability": "view",
      "type": "function"
    },
    {
      "inputs": [],
      "name": "promoters",
      "outputs": [
        {
          "internalType": "contract IPromoter",
          "name": "",
          "type": "address"
        }
      ],
      "stateMutability": "view",
      "type": "function"
    },
    {
      "inputs": [],
      "name": "renounceOwnership",
      "outputs": [],
      "stateMutability": "nonpayable",
      "type": "function"
    },
    {
      "inputs": [
        {
          "components": [
            {
              "internalType": "uint256",
              "name": "tokenId",
              "type": "uint256"
            },
            {
              "internalType": "uint256",
              "name": "amount",
              "type": "uint256"
            },
            {
              "internalType": "address",
              "name": "recipient",
              "type": "address"
            }
          ],
          "internalType": "struct Playables.RewardParams",
          "name": "p",
          "type": "tuple"
        }
      ],
      "name": "reward",
      "outputs": [],
      "stateMutability": "nonpayable",
      "type": "function"
    },
    {
      "inputs": [
        {
          "internalType": "address",
          "name": "from",
          "type": "address"
        },
        {
          "internalType": "address",
          "name": "to",
          "type": "address"
        },
        {
          "internalType": "uint256[]",
          "name": "ids",
          "type": "uint256[]"
        },
        {
          "internalType": "uint256[]",
          "name": "amounts",
          "type": "uint256[]"
        },
        {
          "internalType": "bytes",
          "name": "data",
          "type": "bytes"
        }
      ],
      "name": "safeBatchTransferFrom",
      "outputs": [],
      "stateMutability": "nonpayable",
      "type": "function"
    },
    {
      "inputs": [
        {
          "internalType": "address",
          "name": "from",
          "type": "address"
        },
        {
          "internalType": "address",
          "name": "to",
          "type": "address"
        },
        {
          "internalType": "uint256",
          "name": "id",
          "type": "uint256"
        },
        {
          "internalType": "uint256",
          "name": "amount",
          "type": "uint256"
        },
        {
          "internalType": "bytes",
          "name": "data",
          "type": "bytes"
        }
      ],
      "name": "safeTransferFrom",
      "outputs": [],
      "stateMutability": "nonpayable",
      "type": "function"
    },
    {
      "inputs": [
        {
          "internalType": "address",
          "name": "operator",
          "type": "address"
        },
        {
          "internalType": "bool",
          "name": "approved",
          "type": "bool"
        }
      ],
      "name": "setApprovalForAll",
      "outputs": [],
      "stateMutability": "nonpayable",
      "type": "function"
    },
    {
      "inputs": [
        {
          "internalType": "address payable",
          "name": "receiver",
          "type": "address"
        }
      ],
      "name": "setLiquidityReceiver",
      "outputs": [],
      "stateMutability": "nonpayable",
      "type": "function"
    },
    {
      "inputs": [
        {
          "internalType": "address",
          "name": "kontrakt",
          "type": "address"
        }
      ],
      "name": "setPromoterContract",
      "outputs": [],
      "stateMutability": "nonpayable",
      "type": "function"
    },
    {
      "inputs": [
        {
          "internalType": "uint256",
          "name": "tokenId",
          "type": "uint256"
        },
        {
          "components": [
            {
              "internalType": "string",
              "name": "uri",
              "type": "string"
            },
            {
              "internalType": "uint256",
              "name": "createdAt",
              "type": "uint256"
            },
            {
              "internalType": "uint256",
              "name": "launchedAt",
              "type": "uint256"
            },
            {
              "internalType": "uint256",
              "name": "supply",
              "type": "uint256"
            },
            {
              "internalType": "uint256",
              "name": "minted",
              "type": "uint256"
            },
            {
              "internalType": "uint128",
              "name": "weight",
              "type": "uint128"
            },
            {
              "internalType": "uint256",
              "name": "price",
              "type": "uint256"
            },
            {
              "internalType": "bool",
              "name": "revealed",
              "type": "bool"
            }
          ],
          "internalType": "struct Playables.Token",
          "name": "newData",
          "type": "tuple"
        }
      ],
      "name": "setToken",
      "outputs": [],
      "stateMutability": "nonpayable",
      "type": "function"
    },
    {
      "inputs": [
        {
          "internalType": "bytes4",
          "name": "interfaceId",
          "type": "bytes4"
        }
      ],
      "name": "supportsInterface",
      "outputs": [
        {
          "internalType": "bool",
          "name": "",
          "type": "bool"
        }
      ],
      "stateMutability": "view",
      "type": "function"
    },
    {
      "inputs": [
        {
          "internalType": "uint256",
          "name": "",
          "type": "uint256"
        }
      ],
      "name": "tokens",
      "outputs": [
        {
          "internalType": "string",
          "name": "uri",
          "type": "string"
        },
        {
          "internalType": "uint256",
          "name": "createdAt",
          "type": "uint256"
        },
        {
          "internalType": "uint256",
          "name": "launchedAt",
          "type": "uint256"
        },
        {
          "internalType": "uint256",
          "name": "supply",
          "type": "uint256"
        },
        {
          "internalType": "uint256",
          "name": "minted",
          "type": "uint256"
        },
        {
          "internalType": "uint128",
          "name": "weight",
          "type": "uint128"
        },
        {
          "internalType": "uint256",
          "name": "price",
          "type": "uint256"
        },
        {
          "internalType": "bool",
          "name": "revealed",
          "type": "bool"
        }
      ],
      "stateMutability": "view",
      "type": "function"
    },
    {
      "inputs": [],
      "name": "tokensCount",
      "outputs": [
        {
          "internalType": "uint256",
          "name": "",
          "type": "uint256"
        }
      ],
      "stateMutability": "view",
      "type": "function"
    },
    {
      "inputs": [
        {
          "internalType": "address",
          "name": "newOwner",
          "type": "address"
        }
      ],
      "name": "transferOwnership",
      "outputs": [],
      "stateMutability": "nonpayable",
      "type": "function"
    },
    {
      "inputs": [],
      "name": "unpause",
      "outputs": [],
      "stateMutability": "nonpayable",
      "type": "function"
    },
    {
      "inputs": [
        {
          "internalType": "uint256",
          "name": "tokenId",
          "type": "uint256"
        }
      ],
      "name": "uri",
      "outputs": [
        {
          "internalType": "string",
          "name": "",
          "type": "string"
        }
      ],
      "stateMutability": "view",
      "type": "function"
    },
    {
      "stateMutability": "payable",
      "type": "receive"
    }
  ],
  "bytecode": "0x60806040523480156200001157600080fd5b506040516200374f3803806200374f83398101604081905262000034916200032a565b80620000408162000078565b506200004c3362000091565b6003805460ff60a01b191690556200006483620000e3565b6200006f826200019e565b50505062000470565b80516200008d90600290602084019062000255565b5050565b600380546001600160a01b038381166001600160a01b0319831681179093556040519116919082907f8be0079c531659141344cd1fd0a4f28419497f9722a3daafe3b4186f6b6457e090600090a35050565b6003546001600160a01b03163314620001325760405162461bcd60e51b815260206004820181905260248201526000805160206200372f83398151915260448201526064015b60405180910390fd5b6001600160a01b0381166200017c5760405162461bcd60e51b815260206004820152600f60248201526e696e76616c6964206164647265737360881b604482015260640162000129565b600680546001600160a01b0319166001600160a01b0392909216919091179055565b6003546001600160a01b03163314620001e95760405162461bcd60e51b815260206004820181905260248201526000805160206200372f833981519152604482015260640162000129565b6001600160a01b038116620002335760405162461bcd60e51b815260206004820152600f60248201526e696e76616c6964206164647265737360881b604482015260640162000129565b600780546001600160a01b0319166001600160a01b0392909216919091179055565b828054620002639062000434565b90600052602060002090601f016020900481019282620002875760008555620002d2565b82601f10620002a257805160ff1916838001178555620002d2565b82800160010185558215620002d2579182015b82811115620002d2578251825591602001919060010190620002b5565b50620002e0929150620002e4565b5090565b5b80821115620002e05760008155600101620002e5565b6001600160a01b03811681146200031157600080fd5b50565b634e487b7160e01b600052604160045260246000fd5b6000806000606084860312156200034057600080fd5b83516200034d81620002fb565b809350506020808501516200036281620002fb565b60408601519093506001600160401b03808211156200038057600080fd5b818701915087601f8301126200039557600080fd5b815181811115620003aa57620003aa62000314565b604051601f8201601f19908116603f01168101908382118183101715620003d557620003d562000314565b816040528281528a86848701011115620003ee57600080fd5b600093505b82841015620004125784840186015181850187015292850192620003f3565b82841115620004245760008684830101525b8096505050505050509250925092565b600181811c908216806200044957607f821691505b6020821081036200046a57634e487b7160e01b600052602260045260246000fd5b50919050565b6132af80620004806000396000f3fe6080604052600436106101af5760003560e01c8063797ccefe116100ec578063b57e36821161008a578063dbeb8ff811610064578063dbeb8ff81461053d578063e985e9c514610550578063f242432a14610570578063f2fde38b1461059057600080fd5b8063b57e3682146104dd578063c49a248a146104fd578063cf9ee2291461051d57600080fd5b8063a22cb465116100c6578063a22cb46514610465578063a64ed8ba14610485578063aa6ca8081461049b578063b46bcfb6146104bd57600080fd5b8063797ccefe146104125780638456cb59146104325780638da5cb5b1461044757600080fd5b80634f64b2be11610159578063654028e711610133578063654028e714610385578063715018a6146103a557806372108579146103ba57806379404c0e146103f257600080fd5b80634f64b2be146102fa578063583478d21461032e5780635c975abb1461036657600080fd5b80632eb2c2d61161018a5780632eb2c2d6146102965780633f4ba83a146102b85780634e1273f4146102cd57600080fd5b8062fdd58e1461020657806301ffc9a7146102395780630e89341c1461026957600080fd5b366102015760405162461bcd60e51b815260206004820152601f60248201527f757365206d696e74696e672066756e6374696f6e206578706c696369746c790060448201526064015b60405180910390fd5b600080fd5b34801561021257600080fd5b506102266102213660046125bf565b6105b0565b6040519081526020015b60405180910390f35b34801561024557600080fd5b50610259610254366004612601565b610642565b6040519015158152602001610230565b34801561027557600080fd5b5061028961028436600461261e565b610653565b6040516102309190612684565b3480156102a257600080fd5b506102b66102b136600461280d565b610768565b005b3480156102c457600080fd5b506102b66107ff565b3480156102d957600080fd5b506102ed6102e83660046128bb565b610833565b60405161023091906129c3565b34801561030657600080fd5b5061031a61031536600461261e565b61095d565b6040516102309897969594939291906129d6565b34801561033a57600080fd5b5060065461034e906001600160a01b031681565b6040516001600160a01b039091168152602001610230565b34801561037257600080fd5b50600354600160a01b900460ff16610259565b34801561039157600080fd5b506102b66103a0366004612af5565b610a35565b3480156103b157600080fd5b506102b6610d10565b3480156103c657600080fd5b506103da6103d536600461261e565b610d44565b6040516001600160801b039091168152602001610230565b3480156103fe57600080fd5b506102b661040d366004612b32565b610dbd565b34801561041e57600080fd5b5060075461034e906001600160a01b031681565b34801561043e57600080fd5b506102b6610e92565b34801561045357600080fd5b506003546001600160a01b031661034e565b34801561047157600080fd5b506102b6610480366004612b6f565b610ec4565b34801561049157600080fd5b5061022660055481565b3480156104a757600080fd5b506104b0610ecf565b6040516102309190612ba4565b3480156104c957600080fd5b506102b66104d8366004612c63565b6110ee565b3480156104e957600080fd5b506102b66104f8366004612cc5565b6112c5565b34801561050957600080fd5b506102b6610518366004612ce2565b611359565b34801561052957600080fd5b506102b6610538366004612cc5565b611526565b6102b661054b366004612d9e565b6115ba565b34801561055c57600080fd5b5061025961056b366004612e37565b6118c0565b34801561057c57600080fd5b506102b661058b366004612e70565b61191f565b34801561059c57600080fd5b506102b66105ab366004612cc5565b6119a6565b60006001600160a01b03831661061c5760405162461bcd60e51b815260206004820152602b60248201527f455243313135353a2062616c616e636520717565727920666f7220746865207a60448201526a65726f206164647265737360a81b60648201526084016101f8565b506000908152602081815260408083206001600160a01b03949094168352929052205490565b600061064d82611a41565b92915050565b60608160055481111580156106685750600081115b6106ac5760405162461bcd60e51b8152602060048201526015602482015274746f6b656e20646f6573206e6f742065786973747360581b60448201526064016101f8565b600083815260046020526040812080546106c590612ed9565b80601f01602080910402602001604051908101604052809291908181526020018280546106f190612ed9565b801561073e5780601f106107135761010080835404028352916020019161073e565b820191906000526020600020905b81548152906001019060200180831161072157829003601f168201915b50505050509050600081511161075c5761075784611a91565b61075e565b805b9250505b50919050565b6001600160a01b038516331480610784575061078485336118c0565b6107eb5760405162461bcd60e51b815260206004820152603260248201527f455243313135353a207472616e736665722063616c6c6572206973206e6f74206044820152711bdddb995c881b9bdc88185c1c1c9bdd995960721b60648201526084016101f8565b6107f88585858585611b25565b5050505050565b6003546001600160a01b031633146108295760405162461bcd60e51b81526004016101f890612f0d565b610831611d02565b565b606081518351146108985760405162461bcd60e51b815260206004820152602960248201527f455243313135353a206163636f756e747320616e6420696473206c656e677468604482015268040dad2e6dac2e8c6d60bb1b60648201526084016101f8565b6000835167ffffffffffffffff8111156108b4576108b4612697565b6040519080825280602002602001820160405280156108dd578160200160208202803683370190505b50905060005b84518110156109555761092885828151811061090157610901612f42565b602002602001015185838151811061091b5761091b612f42565b60200260200101516105b0565b82828151811061093a5761093a612f42565b602090810291909101015261094e81612f6e565b90506108e3565b509392505050565b60046020526000908152604090208054819061097890612ed9565b80601f01602080910402602001604051908101604052809291908181526020018280546109a490612ed9565b80156109f15780601f106109c6576101008083540402835291602001916109f1565b820191906000526020600020905b8154815290600101906020018083116109d457829003601f168201915b50505060018401546002850154600386015460048701546005880154600689015460079099015497989497939650919450926001600160801b039091169160ff1688565b6003546001600160a01b03163314610a5f5760405162461bcd60e51b81526004016101f890612f0d565b816005548111158015610a725750600081115b610ab65760405162461bcd60e51b8152602060048201526015602482015274746f6b656e20646f6573206e6f742065786973747360581b60448201526064016101f8565b8160400151600003610afe5760405162461bcd60e51b81526020600482015260116024820152701a5b9d985b1a59081b185d5b98da08185d607a1b60448201526064016101f8565b60008381526004602052604080822081516101008101909252805482908290610b2690612ed9565b80601f0160208091040260200160405190810160405280929190818152602001828054610b5290612ed9565b8015610b9f5780601f10610b7457610100808354040283529160200191610b9f565b820191906000526020600020905b815481529060010190602001808311610b8257829003601f168201915b505050918352505060018201546020820152600282015460408201526003820154606080830191909152600483015460808084019190915260058401546001600160801b031660a0840152600684015460c084015260079093015460ff16151560e09092019190915290820151908501519192501115610c525760405162461bcd60e51b815260206004820152600e60248201526d696e76616c696420737570706c7960901b60448201526064016101f8565b60208082015184820152604080830151818601526080808401519086015260008681526004835220845180518693610c8e928492910190612511565b506020820151600182015560408201516002820155606082015160038201556080820151600482015560a08201516005820180546fffffffffffffffffffffffffffffffff19166001600160801b0390921691909117905560c0820151600682015560e0909101516007909101805460ff191691151591909117905550505050565b6003546001600160a01b03163314610d3a5760405162461bcd60e51b81526004016101f890612f0d565b6108316000611da8565b6000816005548111158015610d595750600081115b610d9d5760405162461bcd60e51b8152602060048201526015602482015274746f6b656e20646f6573206e6f742065786973747360581b60448201526064016101f8565b50506000908152600460205260409020600501546001600160801b031690565b6003546001600160a01b03163314610de75760405162461bcd60e51b81526004016101f890612f0d565b604080516001808252818301909252600091816020015b610e51604051806101000160405280606081526020016000815260200160008152602001600081526020016000815260200160006001600160801b03168152602001600081526020016000151581525090565b815260200190600190039081610dfe5790505090508181600081518110610e7a57610e7a612f42565b6020026020010181905250610e8e81611359565b5050565b6003546001600160a01b03163314610ebc5760405162461bcd60e51b81526004016101f890612f0d565b610831611dfa565b610e8e338383611e82565b6060600060055467ffffffffffffffff811115610eee57610eee612697565b604051908082528060200260200182016040528015610f7257816020015b610f5f604051806101000160405280606081526020016000815260200160008152602001600081526020016000815260200160006001600160801b03168152602001600081526020016000151581525090565b815260200190600190039081610f0c5790505b50905060005b81518110156107625760046000610f90836001612f87565b815260200190815260200160002060405180610100016040529081600082018054610fba90612ed9565b80601f0160208091040260200160405190810160405280929190818152602001828054610fe690612ed9565b80156110335780601f1061100857610100808354040283529160200191611033565b820191906000526020600020905b81548152906001019060200180831161101657829003601f168201915b50505091835250506001820154602082015260028201546040820152600382015460608201526004820154608082015260058201546001600160801b031660a0820152600682015460c082015260079091015460ff16151560e09091015282518390839081106110a5576110a5612f42565b60209081029190910101526110be610284826001612f87565b8282815181106110d0576110d0612f42565b602090810291909101015152806110e681612f6e565b915050610f78565b805160055481118015906111025750600081115b6111465760405162461bcd60e51b8152602060048201526015602482015274746f6b656e20646f6573206e6f742065786973747360581b60448201526064016101f8565b6003546001600160a01b031633146111705760405162461bcd60e51b81526004016101f890612f0d565b60408201516001600160a01b03166111bc5760405162461bcd60e51b815260206004820152600f60248201526e696e76616c6964206164647265737360881b60448201526064016101f8565b815160009081526004602090815260409091209083015161121f5760405162461bcd60e51b815260206004820152601d60248201527f616d6f756e74206d7573742062652067726561746572207468616e203000000060448201526064016101f8565b8060030154836020015182600401546112389190612f87565b11156112805760405162461bcd60e51b81526020600482015260176024820152761b585e1a5b5d5b481cdd5c1c1b1e48195e18d959591959604a1b60448201526064016101f8565b6112a783604001518460000151856020015160405180602001604052806000815250611f62565b826020015181600401546112bb9190612f87565b6004909101555050565b6003546001600160a01b031633146112ef5760405162461bcd60e51b81526004016101f890612f0d565b6001600160a01b0381166113375760405162461bcd60e51b815260206004820152600f60248201526e696e76616c6964206164647265737360881b60448201526064016101f8565b600680546001600160a01b0319166001600160a01b0392909216919091179055565b6003546001600160a01b031633146113835760405162461bcd60e51b81526004016101f890612f0d565b60005b8151811015610e8e5760008282815181106113a3576113a3612f42565b6020026020010151905080604001516000036113f55760405162461bcd60e51b81526020600482015260116024820152701a5b9d985b1a59081b185d5b98da08185d607a1b60448201526064016101f8565b60018160600151101561143b5760405162461bcd60e51b815260206004820152600e60248201526d696e76616c696420737570706c7960901b60448201526064016101f8565b6005805490600061144b83612f6e565b90915550506005546000908152600460209081526040909120825180518493611478928492910190612511565b50602082810151600183810191909155604080850151600285015560608501516003850155608085015160048086019190915560a0860151600580870180546fffffffffffffffffffffffffffffffff19166001600160801b039093169290921790915560c0870151600687015560e0909601516007909501805460ff191695151595909517909455935460009081529290915291902042910155508061151e81612f6e565b915050611386565b6003546001600160a01b031633146115505760405162461bcd60e51b81526004016101f890612f0d565b6001600160a01b0381166115985760405162461bcd60e51b815260206004820152600f60248201526e696e76616c6964206164647265737360881b60448201526064016101f8565b600780546001600160a01b0319166001600160a01b0392909216919091179055565b805160055481118015906115ce5750600081115b6116125760405162461bcd60e51b8152602060048201526015602482015274746f6b656e20646f6573206e6f742065786973747360581b60448201526064016101f8565b600354600160a01b900460ff161561165f5760405162461bcd60e51b815260206004820152601060248201526f14185d5cd8589b194e881c185d5cd95960821b60448201526064016101f8565b8151600090815260046020526040902060028101544210156116b65760405162461bcd60e51b815260206004820152601060248201526f1b9bdd081b185d5b98da1959081e595d60821b60448201526064016101f8565b600083602001511161170a5760405162461bcd60e51b815260206004820152601d60248201527f616d6f756e74206d7573742062652067726561746572207468616e203000000060448201526064016101f8565b8060030154836020015182600401546117239190612f87565b111561176b5760405162461bcd60e51b81526020600482015260176024820152761b585e1a5b5d5b481cdd5c1c1b1e48195e18d959591959604a1b60448201526064016101f8565b6000836020015182600601546117819190612f9f565b604085015151909150156118195760075460408086015190516326baf4e560e21b81526000926001600160a01b031691639aebd394916117c691908690600401612fbe565b6020604051808303816000875af11580156117e5573d6000803e3d6000fd5b505050506040513d601f19601f820116820180604052508101906118099190612fe0565b90506118158183612ff9565b9150505b803410156118695760405162461bcd60e51b815260206004820152601460248201527f6e6f7420656e6f7567682065746820676976656e00000000000000000000000060448201526064016101f8565b60065461187f906001600160a01b03163461206c565b61189e3385516020808801516040805192830190526000825290611f62565b836020015182600401546118b29190612f87565b826004018190555050505050565b6000816001600160a01b03166118de6003546001600160a01b031690565b6001600160a01b0316148061191857506001600160a01b0380841660009081526001602090815260408083209386168352929052205460ff165b9392505050565b6001600160a01b03851633148061193b575061193b85336118c0565b6119995760405162461bcd60e51b815260206004820152602960248201527f455243313135353a2063616c6c6572206973206e6f74206f776e6572206e6f7260448201526808185c1c1c9bdd995960ba1b60648201526084016101f8565b6107f8858585858561218a565b6003546001600160a01b031633146119d05760405162461bcd60e51b81526004016101f890612f0d565b6001600160a01b038116611a355760405162461bcd60e51b815260206004820152602660248201527f4f776e61626c653a206e6577206f776e657220697320746865207a65726f206160448201526564647265737360d01b60648201526084016101f8565b611a3e81611da8565b50565b60006001600160e01b03198216636cdb3d1360e11b1480611a7257506001600160e01b031982166303a24d0760e21b145b8061064d57506301ffc9a760e01b6001600160e01b031983161461064d565b606060028054611aa090612ed9565b80601f0160208091040260200160405190810160405280929190818152602001828054611acc90612ed9565b8015611b195780601f10611aee57610100808354040283529160200191611b19565b820191906000526020600020905b815481529060010190602001808311611afc57829003601f168201915b50505050509050919050565b8151835114611b875760405162461bcd60e51b815260206004820152602860248201527f455243313135353a2069647320616e6420616d6f756e7473206c656e677468206044820152670dad2e6dac2e8c6d60c31b60648201526084016101f8565b6001600160a01b038416611bad5760405162461bcd60e51b81526004016101f890613010565b3360005b8451811015611c94576000858281518110611bce57611bce612f42565b602002602001015190506000858381518110611bec57611bec612f42565b602090810291909101810151600084815280835260408082206001600160a01b038e168352909352919091205490915081811015611c3c5760405162461bcd60e51b81526004016101f890613055565b6000838152602081815260408083206001600160a01b038e8116855292528083208585039055908b16825281208054849290611c79908490612f87565b9250508190555050505080611c8d90612f6e565b9050611bb1565b50846001600160a01b0316866001600160a01b0316826001600160a01b03167f4a39dc06d4c0dbc64b70af90fd698a233a518aa5d07e595d983b8c0526c8f7fb8787604051611ce492919061309f565b60405180910390a4611cfa8187878787876122a7565b505050505050565b600354600160a01b900460ff16611d5b5760405162461bcd60e51b815260206004820152601460248201527f5061757361626c653a206e6f742070617573656400000000000000000000000060448201526064016101f8565b6003805460ff60a01b191690557f5db9ee0a495bf2e6ff9c91a7834c1ba4fdd244a5e8aa4e537bd38aeae4b073aa335b6040516001600160a01b03909116815260200160405180910390a1565b600380546001600160a01b038381166001600160a01b0319831681179093556040519116919082907f8be0079c531659141344cd1fd0a4f28419497f9722a3daafe3b4186f6b6457e090600090a35050565b600354600160a01b900460ff1615611e475760405162461bcd60e51b815260206004820152601060248201526f14185d5cd8589b194e881c185d5cd95960821b60448201526064016101f8565b6003805460ff60a01b1916600160a01b1790557f62e78cea01bee320cd4e420270b5ea74000d11b0c9f74754ebdbfc544b05a258611d8b3390565b816001600160a01b0316836001600160a01b031603611ef55760405162461bcd60e51b815260206004820152602960248201527f455243313135353a2073657474696e6720617070726f76616c20737461747573604482015268103337b91039b2b63360b91b60648201526084016101f8565b6001600160a01b03838116600081815260016020908152604080832094871680845294825291829020805460ff191686151590811790915591519182527f17307eab39ab6107e8899845ad3d59bd9653f200f220920489ca2b5937696c31910160405180910390a3505050565b6001600160a01b038416611fc25760405162461bcd60e51b815260206004820152602160248201527f455243313135353a206d696e7420746f20746865207a65726f206164647265736044820152607360f81b60648201526084016101f8565b33611fdc81600087611fd38861240b565b6107f88861240b565b6000848152602081815260408083206001600160a01b03891684529091528120805485929061200c908490612f87565b909155505060408051858152602081018590526001600160a01b0380881692600092918516917fc3d58168c5ae7397731d063d5bbf3d657854427343f4c083240f7aacaa2d0f62910160405180910390a46107f881600087878787612456565b804710156120bc5760405162461bcd60e51b815260206004820152601d60248201527f416464726573733a20696e73756666696369656e742062616c616e636500000060448201526064016101f8565b6000826001600160a01b03168260405160006040518083038185875af1925050503d8060008114612109576040519150601f19603f3d011682016040523d82523d6000602084013e61210e565b606091505b50509050806121855760405162461bcd60e51b815260206004820152603a60248201527f416464726573733a20756e61626c6520746f2073656e642076616c75652c207260448201527f6563697069656e74206d6179206861766520726576657274656400000000000060648201526084016101f8565b505050565b6001600160a01b0384166121b05760405162461bcd60e51b81526004016101f890613010565b336121c0818787611fd38861240b565b6000848152602081815260408083206001600160a01b038a168452909152902054838110156122015760405162461bcd60e51b81526004016101f890613055565b6000858152602081815260408083206001600160a01b038b811685529252808320878503905590881682528120805486929061223e908490612f87565b909155505060408051868152602081018690526001600160a01b03808916928a821692918616917fc3d58168c5ae7397731d063d5bbf3d657854427343f4c083240f7aacaa2d0f62910160405180910390a461229e828888888888612456565b50505050505050565b6001600160a01b0384163b15611cfa5760405163bc197c8160e01b81526001600160a01b0385169063bc197c81906122eb90899089908890889088906004016130cd565b6020604051808303816000875af1925050508015612326575060408051601f3d908101601f191682019092526123239181019061312b565b60015b6123db57612332613148565b806308c379a00361236b5750612346613164565b80612351575061236d565b8060405162461bcd60e51b81526004016101f89190612684565b505b60405162461bcd60e51b815260206004820152603460248201527f455243313135353a207472616e7366657220746f206e6f6e204552433131353560448201527f526563656976657220696d706c656d656e74657200000000000000000000000060648201526084016101f8565b6001600160e01b0319811663bc197c8160e01b1461229e5760405162461bcd60e51b81526004016101f8906131ee565b6040805160018082528183019092526060916000919060208083019080368337019050509050828160008151811061244557612445612f42565b602090810291909101015292915050565b6001600160a01b0384163b15611cfa5760405163f23a6e6160e01b81526001600160a01b0385169063f23a6e619061249a9089908990889088908890600401613236565b6020604051808303816000875af19250505080156124d5575060408051601f3d908101601f191682019092526124d29181019061312b565b60015b6124e157612332613148565b6001600160e01b0319811663f23a6e6160e01b1461229e5760405162461bcd60e51b81526004016101f8906131ee565b82805461251d90612ed9565b90600052602060002090601f01602090048101928261253f5760008555612585565b82601f1061255857805160ff1916838001178555612585565b82800160010185558215612585579182015b8281111561258557825182559160200191906001019061256a565b50612591929150612595565b5090565b5b808211156125915760008155600101612596565b6001600160a01b0381168114611a3e57600080fd5b600080604083850312156125d257600080fd5b82356125dd816125aa565b946020939093013593505050565b6001600160e01b031981168114611a3e57600080fd5b60006020828403121561261357600080fd5b8135611918816125eb565b60006020828403121561263057600080fd5b5035919050565b6000815180845260005b8181101561265d57602081850181015186830182015201612641565b8181111561266f576000602083870101525b50601f01601f19169290920160200192915050565b6020815260006119186020830184612637565b634e487b7160e01b600052604160045260246000fd5b601f8201601f1916810167ffffffffffffffff811182821017156126d3576126d3612697565b6040525050565b604051610100810167ffffffffffffffff811182821017156126fe576126fe612697565b60405290565b600067ffffffffffffffff82111561271e5761271e612697565b5060051b60200190565b600082601f83011261273957600080fd5b8135602061274682612704565b60405161275382826126ad565b83815260059390931b850182019282810191508684111561277357600080fd5b8286015b8481101561278e5780358352918301918301612777565b509695505050505050565b600082601f8301126127aa57600080fd5b813567ffffffffffffffff8111156127c4576127c4612697565b6040516127db601f8301601f1916602001826126ad565b8181528460208386010111156127f057600080fd5b816020850160208301376000918101602001919091529392505050565b600080600080600060a0868803121561282557600080fd5b8535612830816125aa565b94506020860135612840816125aa565b9350604086013567ffffffffffffffff8082111561285d57600080fd5b61286989838a01612728565b9450606088013591508082111561287f57600080fd5b61288b89838a01612728565b935060808801359150808211156128a157600080fd5b506128ae88828901612799565b9150509295509295909350565b600080604083850312156128ce57600080fd5b823567ffffffffffffffff808211156128e657600080fd5b818501915085601f8301126128fa57600080fd5b8135602061290782612704565b60405161291482826126ad565b83815260059390931b850182019282810191508984111561293457600080fd5b948201945b8386101561295b57853561294c816125aa565b82529482019490820190612939565b9650508601359250508082111561297157600080fd5b5061297e85828601612728565b9150509250929050565b600081518084526020808501945080840160005b838110156129b85781518752958201959082019060010161299c565b509495945050505050565b6020815260006119186020830184612988565b60006101008083526129ea8184018c612637565b602084019a909a5250506040810196909652606086019490945260808501929092526001600160801b031660a084015260c0830152151560e090910152919050565b80356001600160801b0381168114612a4357600080fd5b919050565b80358015158114612a4357600080fd5b60006101008284031215612a6b57600080fd5b612a736126da565b9050813567ffffffffffffffff811115612a8c57600080fd5b612a9884828501612799565b82525060208201356020820152604082013560408201526060820135606082015260808201356080820152612acf60a08301612a2c565b60a082015260c082013560c0820152612aea60e08301612a48565b60e082015292915050565b60008060408385031215612b0857600080fd5b82359150602083013567ffffffffffffffff811115612b2657600080fd5b61297e85828601612a58565b600060208284031215612b4457600080fd5b813567ffffffffffffffff811115612b5b57600080fd5b612b6784828501612a58565b949350505050565b60008060408385031215612b8257600080fd5b8235612b8d816125aa565b9150612b9b60208401612a48565b90509250929050565b60006020808301818452808551808352604092508286019150828160051b87010184880160005b83811015612c5557603f1989840301855281516101008151818652612bf282870182612637565b838b0151878c0152898401518a880152606080850151908801526080808501519088015260a0808501516001600160801b03169088015260c0808501519088015260e0938401511515939096019290925250509386019390860190600101612bcb565b509098975050505050505050565b600060608284031215612c7557600080fd5b6040516060810181811067ffffffffffffffff82111715612c9857612c98612697565b806040525082358152602083013560208201526040830135612cb9816125aa565b60408201529392505050565b600060208284031215612cd757600080fd5b8135611918816125aa565b60006020808385031215612cf557600080fd5b823567ffffffffffffffff80821115612d0d57600080fd5b818501915085601f830112612d2157600080fd5b8135612d2c81612704565b604051612d3982826126ad565b82815260059290921b8401850191858101915088831115612d5957600080fd5b8585015b83811015612d9157803585811115612d755760008081fd5b612d838b89838a0101612a58565b845250918601918601612d5d565b5098975050505050505050565b600060208284031215612db057600080fd5b813567ffffffffffffffff80821115612dc857600080fd5b9083019060608286031215612ddc57600080fd5b604051606081018181108382111715612df757612df7612697565b80604052508235815260208301356020820152604083013582811115612e1c57600080fd5b612e2887828601612799565b60408301525095945050505050565b60008060408385031215612e4a57600080fd5b8235612e55816125aa565b91506020830135612e65816125aa565b809150509250929050565b600080600080600060a08688031215612e8857600080fd5b8535612e93816125aa565b94506020860135612ea3816125aa565b93506040860135925060608601359150608086013567ffffffffffffffff811115612ecd57600080fd5b6128ae88828901612799565b600181811c90821680612eed57607f821691505b60208210810361076257634e487b7160e01b600052602260045260246000fd5b6020808252818101527f4f776e61626c653a2063616c6c6572206973206e6f7420746865206f776e6572604082015260600190565b634e487b7160e01b600052603260045260246000fd5b634e487b7160e01b600052601160045260246000fd5b600060018201612f8057612f80612f58565b5060010190565b60008219821115612f9a57612f9a612f58565b500190565b6000816000190483118215151615612fb957612fb9612f58565b500290565b604081526000612fd16040830185612637565b90508260208301529392505050565b600060208284031215612ff257600080fd5b5051919050565b60008282101561300b5761300b612f58565b500390565b60208082526025908201527f455243313135353a207472616e7366657220746f20746865207a65726f206164604082015264647265737360d81b606082015260800190565b6020808252602a908201527f455243313135353a20696e73756666696369656e742062616c616e636520666f60408201526939103a3930b739b332b960b11b606082015260800190565b6040815260006130b26040830185612988565b82810360208401526130c48185612988565b95945050505050565b60006001600160a01b03808816835280871660208401525060a060408301526130f960a0830186612988565b828103606084015261310b8186612988565b9050828103608084015261311f8185612637565b98975050505050505050565b60006020828403121561313d57600080fd5b8151611918816125eb565b600060033d11156131615760046000803e5060005160e01c5b90565b600060443d10156131725790565b6040516003193d81016004833e81513d67ffffffffffffffff81602484011181841117156131a257505050505090565b82850191508151818111156131ba5750505050505090565b843d87010160208285010111156131d45750505050505090565b6131e3602082860101876126ad565b509095945050505050565b60208082526028908201527f455243313135353a204552433131353552656365697665722072656a656374656040820152676420746f6b656e7360c01b606082015260800190565b60006001600160a01b03808816835280871660208401525084604083015283606083015260a0608083015261326e60a0830184612637565b97965050505050505056fea264697066735822122061294856e4caf7ae0188f42a9ad9793009e2c77f1a86de7510bf45d8e35a376a64736f6c634300080d00334f776e61626c653a2063616c6c6572206973206e6f7420746865206f776e6572",
  "linkReferences": {},
  "deployedLinkReferences": {}
}