{
  "_format": "hh-sol-artifact-1",
  "contractName": "Playables",
  "sourceName": "contracts/Playables.sol",
  "abi": [
    {
      "inputs": [
        {
          "internalType": "address payable",
          "name": "_receiver",
          "type": "address"
        },
        {
          "internalType": "address",
          "name": "_promoter",
          "type": "address"
        },
        {
          "internalType": "string",
          "name": "_preURI",
          "type": "string"
        }
      ],
      "stateMutability": "nonpayable",
      "type": "constructor"
    },
    {
      "anonymous": false,
      "inputs": [
        {
          "indexed": true,
          "internalType": "address",
          "name": "account",
          "type": "address"
        },
        {
          "indexed": true,
          "internalType": "address",
          "name": "operator",
          "type": "address"
        },
        {
          "indexed": false,
          "internalType": "bool",
          "name": "approved",
          "type": "bool"
        }
      ],
      "name": "ApprovalForAll",
      "type": "event"
    },
    {
      "anonymous": false,
      "inputs": [
        {
          "indexed": false,
          "internalType": "address",
          "name": "account",
          "type": "address"
        }
      ],
      "name": "Paused",
      "type": "event"
    },
    {
      "anonymous": false,
      "inputs": [
        {
          "indexed": true,
          "internalType": "bytes32",
          "name": "role",
          "type": "bytes32"
        },
        {
          "indexed": true,
          "internalType": "bytes32",
          "name": "previousAdminRole",
          "type": "bytes32"
        },
        {
          "indexed": true,
          "internalType": "bytes32",
          "name": "newAdminRole",
          "type": "bytes32"
        }
      ],
      "name": "RoleAdminChanged",
      "type": "event"
    },
    {
      "anonymous": false,
      "inputs": [
        {
          "indexed": true,
          "internalType": "bytes32",
          "name": "role",
          "type": "bytes32"
        },
        {
          "indexed": true,
          "internalType": "address",
          "name": "account",
          "type": "address"
        },
        {
          "indexed": true,
          "internalType": "address",
          "name": "sender",
          "type": "address"
        }
      ],
      "name": "RoleGranted",
      "type": "event"
    },
    {
      "anonymous": false,
      "inputs": [
        {
          "indexed": true,
          "internalType": "bytes32",
          "name": "role",
          "type": "bytes32"
        },
        {
          "indexed": true,
          "internalType": "address",
          "name": "account",
          "type": "address"
        },
        {
          "indexed": true,
          "internalType": "address",
          "name": "sender",
          "type": "address"
        }
      ],
      "name": "RoleRevoked",
      "type": "event"
    },
    {
      "anonymous": false,
      "inputs": [
        {
          "indexed": true,
          "internalType": "address",
          "name": "operator",
          "type": "address"
        },
        {
          "indexed": true,
          "internalType": "address",
          "name": "from",
          "type": "address"
        },
        {
          "indexed": true,
          "internalType": "address",
          "name": "to",
          "type": "address"
        },
        {
          "indexed": false,
          "internalType": "uint256[]",
          "name": "ids",
          "type": "uint256[]"
        },
        {
          "indexed": false,
          "internalType": "uint256[]",
          "name": "values",
          "type": "uint256[]"
        }
      ],
      "name": "TransferBatch",
      "type": "event"
    },
    {
      "anonymous": false,
      "inputs": [
        {
          "indexed": true,
          "internalType": "address",
          "name": "operator",
          "type": "address"
        },
        {
          "indexed": true,
          "internalType": "address",
          "name": "from",
          "type": "address"
        },
        {
          "indexed": true,
          "internalType": "address",
          "name": "to",
          "type": "address"
        },
        {
          "indexed": false,
          "internalType": "uint256",
          "name": "id",
          "type": "uint256"
        },
        {
          "indexed": false,
          "internalType": "uint256",
          "name": "value",
          "type": "uint256"
        }
      ],
      "name": "TransferSingle",
      "type": "event"
    },
    {
      "anonymous": false,
      "inputs": [
        {
          "indexed": false,
          "internalType": "string",
          "name": "value",
          "type": "string"
        },
        {
          "indexed": true,
          "internalType": "uint256",
          "name": "id",
          "type": "uint256"
        }
      ],
      "name": "URI",
      "type": "event"
    },
    {
      "anonymous": false,
      "inputs": [
        {
          "indexed": false,
          "internalType": "address",
          "name": "account",
          "type": "address"
        }
      ],
      "name": "Unpaused",
      "type": "event"
    },
    {
      "inputs": [],
      "name": "ADMIN",
      "outputs": [
        {
          "internalType": "bytes32",
          "name": "",
          "type": "bytes32"
        }
      ],
      "stateMutability": "view",
      "type": "function"
    },
    {
      "inputs": [],
      "name": "DEFAULT_ADMIN_ROLE",
      "outputs": [
        {
          "internalType": "bytes32",
          "name": "",
          "type": "bytes32"
        }
      ],
      "stateMutability": "view",
      "type": "function"
    },
    {
      "inputs": [],
      "name": "REWARDER",
      "outputs": [
        {
          "internalType": "bytes32",
          "name": "",
          "type": "bytes32"
        }
      ],
      "stateMutability": "view",
      "type": "function"
    },
    {
      "inputs": [
        {
          "internalType": "address",
          "name": "account",
          "type": "address"
        },
        {
          "internalType": "uint256",
          "name": "id",
          "type": "uint256"
        }
      ],
      "name": "balanceOf",
      "outputs": [
        {
          "internalType": "uint256",
          "name": "",
          "type": "uint256"
        }
      ],
      "stateMutability": "view",
      "type": "function"
    },
    {
      "inputs": [
        {
          "internalType": "address[]",
          "name": "accounts",
          "type": "address[]"
        },
        {
          "internalType": "uint256[]",
          "name": "ids",
          "type": "uint256[]"
        }
      ],
      "name": "balanceOfBatch",
      "outputs": [
        {
          "internalType": "uint256[]",
          "name": "",
          "type": "uint256[]"
        }
      ],
      "stateMutability": "view",
      "type": "function"
    },
    {
      "inputs": [],
      "name": "contractURI",
      "outputs": [
        {
          "internalType": "string",
          "name": "",
          "type": "string"
        }
      ],
      "stateMutability": "view",
      "type": "function"
    },
    {
      "inputs": [
        {
          "internalType": "bytes32",
          "name": "role",
          "type": "bytes32"
        }
      ],
      "name": "getRoleAdmin",
      "outputs": [
        {
          "internalType": "bytes32",
          "name": "",
          "type": "bytes32"
        }
      ],
      "stateMutability": "view",
      "type": "function"
    },
    {
      "inputs": [
        {
          "internalType": "uint256",
          "name": "tokenId",
          "type": "uint256"
        }
      ],
      "name": "getStakingWeight",
      "outputs": [
        {
          "internalType": "uint128",
          "name": "",
          "type": "uint128"
        }
      ],
      "stateMutability": "view",
      "type": "function"
    },
    {
      "inputs": [
        {
          "internalType": "bytes32",
          "name": "role",
          "type": "bytes32"
        },
        {
          "internalType": "address",
          "name": "account",
          "type": "address"
        }
      ],
      "name": "grantRole",
      "outputs": [],
      "stateMutability": "nonpayable",
      "type": "function"
    },
    {
      "inputs": [
        {
          "internalType": "bytes32",
          "name": "role",
          "type": "bytes32"
        },
        {
          "internalType": "address",
          "name": "account",
          "type": "address"
        }
      ],
      "name": "hasRole",
      "outputs": [
        {
          "internalType": "bool",
          "name": "",
          "type": "bool"
        }
      ],
      "stateMutability": "view",
      "type": "function"
    },
    {
      "inputs": [
        {
          "internalType": "address",
          "name": "account",
          "type": "address"
        },
        {
          "internalType": "address",
          "name": "operator",
          "type": "address"
        }
      ],
      "name": "isApprovedForAll",
      "outputs": [
        {
          "internalType": "bool",
          "name": "",
          "type": "bool"
        }
      ],
      "stateMutability": "view",
      "type": "function"
    },
    {
      "inputs": [],
      "name": "liqudityReceiver",
      "outputs": [
        {
          "internalType": "address payable",
          "name": "",
          "type": "address"
        }
      ],
      "stateMutability": "view",
      "type": "function"
    },
    {
      "inputs": [
        {
          "components": [
            {
              "internalType": "uint256",
              "name": "tokenId",
              "type": "uint256"
            },
            {
              "internalType": "uint64",
              "name": "amount",
              "type": "uint64"
            },
            {
              "internalType": "string",
              "name": "promoCode",
              "type": "string"
            }
          ],
          "internalType": "struct Playables.MintParams",
          "name": "p",
          "type": "tuple"
        }
      ],
      "name": "mint",
      "outputs": [],
      "stateMutability": "payable",
      "type": "function"
    },
    {
      "inputs": [],
      "name": "pause",
      "outputs": [],
      "stateMutability": "nonpayable",
      "type": "function"
    },
    {
      "inputs": [],
      "name": "paused",
      "outputs": [
        {
          "internalType": "bool",
          "name": "",
          "type": "bool"
        }
      ],
      "stateMutability": "view",
      "type": "function"
    },
    {
      "inputs": [],
      "name": "promoters",
      "outputs": [
        {
          "internalType": "contract IPromoter",
          "name": "",
          "type": "address"
        }
      ],
      "stateMutability": "view",
      "type": "function"
    },
    {
      "inputs": [
        {
          "internalType": "bytes32",
          "name": "role",
          "type": "bytes32"
        },
        {
          "internalType": "address",
          "name": "account",
          "type": "address"
        }
      ],
      "name": "renounceRole",
      "outputs": [],
      "stateMutability": "nonpayable",
      "type": "function"
    },
    {
      "inputs": [
        {
          "internalType": "bytes32",
          "name": "role",
          "type": "bytes32"
        },
        {
          "internalType": "address",
          "name": "account",
          "type": "address"
        }
      ],
      "name": "revokeRole",
      "outputs": [],
      "stateMutability": "nonpayable",
      "type": "function"
    },
    {
      "inputs": [
        {
          "internalType": "uint256",
          "name": "tokenId",
          "type": "uint256"
        },
        {
          "internalType": "uint64",
          "name": "amount",
          "type": "uint64"
        }
      ],
      "name": "reward",
      "outputs": [],
      "stateMutability": "nonpayable",
      "type": "function"
    },
    {
      "inputs": [
        {
          "internalType": "uint256",
          "name": "_tokenId",
          "type": "uint256"
        },
        {
          "internalType": "uint256",
          "name": "_salePrice",
          "type": "uint256"
        }
      ],
      "name": "royaltyInfo",
      "outputs": [
        {
          "internalType": "address",
          "name": "",
          "type": "address"
        },
        {
          "internalType": "uint256",
          "name": "",
          "type": "uint256"
        }
      ],
      "stateMutability": "view",
      "type": "function"
    },
    {
      "inputs": [
        {
          "internalType": "address",
          "name": "from",
          "type": "address"
        },
        {
          "internalType": "address",
          "name": "to",
          "type": "address"
        },
        {
          "internalType": "uint256[]",
          "name": "ids",
          "type": "uint256[]"
        },
        {
          "internalType": "uint256[]",
          "name": "amounts",
          "type": "uint256[]"
        },
        {
          "internalType": "bytes",
          "name": "data",
          "type": "bytes"
        }
      ],
      "name": "safeBatchTransferFrom",
      "outputs": [],
      "stateMutability": "nonpayable",
      "type": "function"
    },
    {
      "inputs": [
        {
          "internalType": "address",
          "name": "from",
          "type": "address"
        },
        {
          "internalType": "address",
          "name": "to",
          "type": "address"
        },
        {
          "internalType": "uint256",
          "name": "id",
          "type": "uint256"
        },
        {
          "internalType": "uint256",
          "name": "amount",
          "type": "uint256"
        },
        {
          "internalType": "bytes",
          "name": "data",
          "type": "bytes"
        }
      ],
      "name": "safeTransferFrom",
      "outputs": [],
      "stateMutability": "nonpayable",
      "type": "function"
    },
    {
      "inputs": [
        {
          "internalType": "address",
          "name": "operator",
          "type": "address"
        },
        {
          "internalType": "bool",
          "name": "approved",
          "type": "bool"
        }
      ],
      "name": "setApprovalForAll",
      "outputs": [],
      "stateMutability": "nonpayable",
      "type": "function"
    },
    {
      "inputs": [
        {
          "internalType": "string",
          "name": "_uri",
          "type": "string"
        }
      ],
      "name": "setContractURI",
      "outputs": [],
      "stateMutability": "nonpayable",
      "type": "function"
    },
    {
      "inputs": [
        {
          "internalType": "address",
          "name": "_receiver",
          "type": "address"
        },
        {
          "internalType": "uint96",
          "name": "feeNumerator",
          "type": "uint96"
        }
      ],
      "name": "setDefaultRoyalty",
      "outputs": [],
      "stateMutability": "nonpayable",
      "type": "function"
    },
    {
      "inputs": [
        {
          "internalType": "address payable",
          "name": "receiver",
          "type": "address"
        }
      ],
      "name": "setLiquidityReceiver",
      "outputs": [],
      "stateMutability": "nonpayable",
      "type": "function"
    },
    {
      "inputs": [
        {
          "internalType": "address",
          "name": "kontrakt",
          "type": "address"
        }
      ],
      "name": "setPromoterContract",
      "outputs": [],
      "stateMutability": "nonpayable",
      "type": "function"
    },
    {
      "inputs": [
        {
          "internalType": "uint256",
          "name": "tokenId",
          "type": "uint256"
        },
        {
          "components": [
            {
              "internalType": "string",
              "name": "uri",
              "type": "string"
            },
            {
              "internalType": "uint256",
              "name": "createdAt",
              "type": "uint256"
            },
            {
              "internalType": "uint256",
              "name": "launchedAt",
              "type": "uint256"
            },
            {
              "internalType": "uint64",
              "name": "supply",
              "type": "uint64"
            },
            {
              "internalType": "uint64",
              "name": "minted",
              "type": "uint64"
            },
            {
              "internalType": "uint128",
              "name": "weight",
              "type": "uint128"
            },
            {
              "internalType": "uint256",
              "name": "price",
              "type": "uint256"
            }
          ],
          "internalType": "struct Playables.Token",
          "name": "token",
          "type": "tuple"
        }
      ],
      "name": "setToken",
      "outputs": [],
      "stateMutability": "nonpayable",
      "type": "function"
    },
    {
      "inputs": [
        {
          "internalType": "uint256",
          "name": "tokenId",
          "type": "uint256"
        },
        {
          "internalType": "address",
          "name": "_receiver",
          "type": "address"
        },
        {
          "internalType": "uint96",
          "name": "feeNumerator",
          "type": "uint96"
        }
      ],
      "name": "setTokenRoyalty",
      "outputs": [],
      "stateMutability": "nonpayable",
      "type": "function"
    },
    {
      "inputs": [
        {
          "internalType": "bytes4",
          "name": "interfaceId",
          "type": "bytes4"
        }
      ],
      "name": "supportsInterface",
      "outputs": [
        {
          "internalType": "bool",
          "name": "",
          "type": "bool"
        }
      ],
      "stateMutability": "view",
      "type": "function"
    },
    {
      "inputs": [
        {
          "internalType": "uint256",
          "name": "",
          "type": "uint256"
        }
      ],
      "name": "tokens",
      "outputs": [
        {
          "internalType": "string",
          "name": "uri",
          "type": "string"
        },
        {
          "internalType": "uint256",
          "name": "createdAt",
          "type": "uint256"
        },
        {
          "internalType": "uint256",
          "name": "launchedAt",
          "type": "uint256"
        },
        {
          "internalType": "uint64",
          "name": "supply",
          "type": "uint64"
        },
        {
          "internalType": "uint64",
          "name": "minted",
          "type": "uint64"
        },
        {
          "internalType": "uint128",
          "name": "weight",
          "type": "uint128"
        },
        {
          "internalType": "uint256",
          "name": "price",
          "type": "uint256"
        }
      ],
      "stateMutability": "view",
      "type": "function"
    },
    {
      "inputs": [],
      "name": "unpause",
      "outputs": [],
      "stateMutability": "nonpayable",
      "type": "function"
    },
    {
      "inputs": [
        {
          "internalType": "uint256",
          "name": "tokenId",
          "type": "uint256"
        }
      ],
      "name": "uri",
      "outputs": [
        {
          "internalType": "string",
          "name": "",
          "type": "string"
        }
      ],
      "stateMutability": "view",
      "type": "function"
    },
    {
      "stateMutability": "payable",
      "type": "receive"
    }
  ],
  "bytecode": "0x60806040523480156200001157600080fd5b5060405162003e6838038062003e68833981016040819052620000349162000768565b806200004081620000d8565b506006805460ff191690556200007560008051602062003e2883398151915260008051602062003e48833981519152620000f1565b6200009060008051602062003e48833981519152336200013c565b620000ab60008051602062003e28833981519152336200013c565b620000b9836101f462000148565b620000c4836200024d565b620000cf82620002d6565b505050620009ba565b8051620000ed90600290602084019062000660565b5050565b600082815260056020526040808220600101805490849055905190918391839186917fbd79b86ffe0ab8e8776151514217cd7cacd52c909f66475c3af44e129f0b00ff9190a4505050565b620000ed82826200035f565b6127106001600160601b0382161115620001bc5760405162461bcd60e51b815260206004820152602a60248201527f455243323938313a20726f79616c7479206665652077696c6c206578636565646044820152692073616c65507269636560b01b60648201526084015b60405180910390fd5b6001600160a01b038216620002145760405162461bcd60e51b815260206004820152601960248201527f455243323938313a20696e76616c6964207265636569766572000000000000006044820152606401620001b3565b604080518082019091526001600160a01b039092168083526001600160601b039091166020909201829052600160a01b90910217600355565b60008051602062003e4883398151915262000269813362000403565b6001600160a01b038216620002b35760405162461bcd60e51b815260206004820152600f60248201526e696e76616c6964206164647265737360881b6044820152606401620001b3565b50600880546001600160a01b0319166001600160a01b0392909216919091179055565b60008051602062003e48833981519152620002f2813362000403565b6001600160a01b0382166200033c5760405162461bcd60e51b815260206004820152600f60248201526e696e76616c6964206164647265737360881b6044820152606401620001b3565b50600980546001600160a01b0319166001600160a01b0392909216919091179055565b60008281526005602090815260408083206001600160a01b038516845290915290205460ff16620000ed5760008281526005602090815260408083206001600160a01b03851684529091529020805460ff19166001179055620003bf3390565b6001600160a01b0316816001600160a01b0316837f2f8788117e7eff1d82e926ec794901d17c78024a50270940304540a733656f0d60405160405180910390a45050565b60008281526005602090815260408083206001600160a01b038516845290915290205460ff16620000ed576200044f816001600160a01b03166014620004a060201b620016e41760201c565b62000465836020620016e4620004a0821b17811c565b604051602001620004789291906200084d565b60408051601f198184030181529082905262461bcd60e51b8252620001b391600401620008c6565b60606000620004b183600262000911565b620004be90600262000933565b6001600160401b03811115620004d857620004d86200071f565b6040519080825280601f01601f19166020018201604052801562000503576020820181803683370190505b509050600360fc1b816000815181106200052157620005216200094e565b60200101906001600160f81b031916908160001a905350600f60fb1b816001815181106200055357620005536200094e565b60200101906001600160f81b031916908160001a90535060006200057984600262000911565b6200058690600162000933565b90505b600181111562000608576f181899199a1a9b1b9c1cb0b131b232b360811b85600f1660108110620005be57620005be6200094e565b1a60f81b828281518110620005d757620005d76200094e565b60200101906001600160f81b031916908160001a90535060049490941c93620006008162000964565b905062000589565b508315620006595760405162461bcd60e51b815260206004820181905260248201527f537472696e67733a20686578206c656e67746820696e73756666696369656e746044820152606401620001b3565b9392505050565b8280546200066e906200097e565b90600052602060002090601f016020900481019282620006925760008555620006dd565b82601f10620006ad57805160ff1916838001178555620006dd565b82800160010185558215620006dd579182015b82811115620006dd578251825591602001919060010190620006c0565b50620006eb929150620006ef565b5090565b5b80821115620006eb5760008155600101620006f0565b6001600160a01b03811681146200071c57600080fd5b50565b634e487b7160e01b600052604160045260246000fd5b60005b838110156200075257818101518382015260200162000738565b8381111562000762576000848401525b50505050565b6000806000606084860312156200077e57600080fd5b83516200078b8162000706565b60208501519093506200079e8162000706565b60408501519092506001600160401b0380821115620007bc57600080fd5b818601915086601f830112620007d157600080fd5b815181811115620007e657620007e66200071f565b604051601f8201601f19908116603f011681019083821181831017156200081157620008116200071f565b816040528281528960208487010111156200082b57600080fd5b6200083e83602083016020880162000735565b80955050505050509250925092565b7f416363657373436f6e74726f6c3a206163636f756e74200000000000000000008152600083516200088781601785016020880162000735565b7001034b99036b4b9b9b4b733903937b6329607d1b6017918401918201528351620008ba81602884016020880162000735565b01602801949350505050565b6020815260008251806020840152620008e781604085016020870162000735565b601f01601f19169190910160400192915050565b634e487b7160e01b600052601160045260246000fd5b60008160001904831182151516156200092e576200092e620008fb565b500290565b60008219821115620009495762000949620008fb565b500190565b634e487b7160e01b600052603260045260246000fd5b600081620009765762000976620008fb565b506000190190565b600181811c908216806200099357607f821691505b602082108103620009b457634e487b7160e01b600052602260045260246000fd5b50919050565b61345e80620009ca6000396000f3fe6080604052600436106101f15760003560e01c80635c975abb1161010d578063a22cb465116100a0578063d547741f1161006f578063d547741f14610645578063e8a3d48514610665578063e985e9c51461067a578063f13a7a311461069a578063f242432a146106ce57600080fd5b8063a22cb465146105d2578063b57e3682146105f2578063cf9ee22914610612578063d22b9f181461063257600080fd5b80638cb4043d116100dc5780638cb4043d1461055d57806391d148541461057d578063938e3d7b1461059d578063a217fddf146105bd57600080fd5b80635c975abb146104d857806372108579146104f0578063797ccefe146105285780638456cb591461054857600080fd5b80632eb2c2d6116101855780634e1273f4116101545780634e1273f4146104205780634f64b2be1461044d578063583478d2146104805780635944c753146104b857600080fd5b80632eb2c2d6146103ab5780632f2ff15d146103cb57806336568abe146103eb5780633f4ba83a1461040b57600080fd5b80630e89341c116101c15780630e89341c146102ed578063248a9ca31461031a5780632a0acc6a1461034a5780632a55205a1461036c57600080fd5b8062fdd58e1461024857806301ffc9a71461027b57806304634d8d146102ab5780630475207b146102cd57600080fd5b366102435760405162461bcd60e51b815260206004820152601f60248201527f757365206d696e74696e672066756e6374696f6e206578706c696369746c790060448201526064015b60405180910390fd5b600080fd5b34801561025457600080fd5b50610268610263366004612711565b6106ee565b6040519081526020015b60405180910390f35b34801561028757600080fd5b5061029b610296366004612753565b610780565b6040519015158152602001610272565b3480156102b757600080fd5b506102cb6102c636600461278c565b610791565b005b3480156102d957600080fd5b506102cb6102e83660046127d8565b6107b9565b3480156102f957600080fd5b5061030d6103083660046127fb565b6109cb565b604051610272919061286c565b34801561032657600080fd5b506102686103353660046127fb565b60009081526005602052604090206001015490565b34801561035657600080fd5b5061026860008051602061340983398151915281565b34801561037857600080fd5b5061038c61038736600461287f565b610ae5565b604080516001600160a01b039093168352602083019190915201610272565b3480156103b757600080fd5b506102cb6103c6366004612a12565b610b91565b3480156103d757600080fd5b506102cb6103e6366004612abf565b610c28565b3480156103f757600080fd5b506102cb610406366004612abf565b610c4e565b34801561041757600080fd5b506102cb610ccc565b34801561042c57600080fd5b5061044061043b366004612aef565b610cf0565b6040516102729190612bf6565b34801561045957600080fd5b5061046d6104683660046127fb565b610e19565b6040516102729796959493929190612c09565b34801561048c57600080fd5b506008546104a0906001600160a01b031681565b6040516001600160a01b039091168152602001610272565b3480156104c457600080fd5b506102cb6104d3366004612c61565b610ef7565b3480156104e457600080fd5b5060065460ff1661029b565b3480156104fc57600080fd5b5061051061050b3660046127fb565b610f21565b6040516001600160801b039091168152602001610272565b34801561053457600080fd5b506009546104a0906001600160a01b031681565b34801561055457600080fd5b506102cb610fa5565b34801561056957600080fd5b506102cb610578366004612cb6565b610fc6565b34801561058957600080fd5b5061029b610598366004612abf565b6110a3565b3480156105a957600080fd5b506102cb6105b8366004612d7f565b6110ce565b3480156105c957600080fd5b50610268600081565b3480156105de57600080fd5b506102cb6105ed366004612df0565b6110f3565b3480156105fe57600080fd5b506102cb61060d366004612e23565b6110fe565b34801561061e57600080fd5b506102cb61062d366004612e23565b611182565b6102cb610640366004612e40565b611206565b34801561065157600080fd5b506102cb610660366004612abf565b61155b565b34801561067157600080fd5b5061030d611581565b34801561068657600080fd5b5061029b610695366004612edd565b61160f565b3480156106a657600080fd5b506102687f5a8bfb9223d93ad39e310233fff7bc65227887789e6e83c62b12f0dfdd782ec381565b3480156106da57600080fd5b506102cb6106e9366004612f0b565b61165d565b60006001600160a01b03831661075a5760405162461bcd60e51b815260206004820152602b60248201527f455243313135353a2062616c616e636520717565727920666f7220746865207a60448201526a65726f206164647265737360a81b606482015260840161023a565b506000908152602081815260408083206001600160a01b03949094168352929052205490565b600061078b8261187f565b92915050565b6000805160206134098339815191526107aa81336118a4565b6107b48383611908565b505050565b7f5a8bfb9223d93ad39e310233fff7bc65227887789e6e83c62b12f0dfdd782ec36107e481336118a4565b6000838152600760205260409020600101546108365760405162461bcd60e51b81526020600482015260116024820152703737b732bc34b9ba32b73a103a37b5b2b760791b604482015260640161023a565b6000838152600760205260409020600281015442101561088b5760405162461bcd60e51b815260206004820152601060248201526f1b9bdd081b185d5b98da1959081e595d60821b604482015260640161023a565b6000836001600160401b0316116108e45760405162461bcd60e51b815260206004820152601d60248201527f616d6f756e74206d7573742062652067726561746572207468616e2030000000604482015260640161023a565b60038101546001600160401b0380821691610908918691600160401b900416612f89565b6001600160401b031611156109595760405162461bcd60e51b81526020600482015260176024820152761b585e1a5b5d5b481cdd5c1c1b1e48195e18d959591959604a1b604482015260640161023a565b61097d3385856001600160401b0316604051806020016040528060008152506119c2565b600381015461099d908490600160401b90046001600160401b0316612f89565b8160030160086101000a8154816001600160401b0302191690836001600160401b0316021790555050505050565b600081815260076020526040902060010154606090610a2c5760405162461bcd60e51b815260206004820152601f60248201527f55524920717565727920666f72206e6f6e6578697374656e7420746f6b656e00604482015260640161023a565b60008281526007602052604081208054610a4590612fb4565b80601f0160208091040260200160405190810160405280929190818152602001828054610a7190612fb4565b8015610abe5780601f10610a9357610100808354040283529160200191610abe565b820191906000526020600020905b815481529060010190602001808311610aa157829003601f168201915b505050505090506000815111610adc57610ad783611acc565b610ade565b805b9392505050565b60008281526004602090815260408083208151808301909252546001600160a01b038116808352600160a01b9091046001600160601b0316928201929092528291610b5a5750604080518082019091526003546001600160a01b0381168252600160a01b90046001600160601b031660208201525b602081015160009061271090610b79906001600160601b031687612fee565b610b83919061300d565b915196919550909350505050565b6001600160a01b038516331480610bad5750610bad853361160f565b610c145760405162461bcd60e51b815260206004820152603260248201527f455243313135353a207472616e736665722063616c6c6572206973206e6f74206044820152711bdddb995c881b9bdc88185c1c1c9bdd995960721b606482015260840161023a565b610c218585858585611b60565b5050505050565b600082815260056020526040902060010154610c4481336118a4565b6107b48383611d3d565b6001600160a01b0381163314610cbe5760405162461bcd60e51b815260206004820152602f60248201527f416363657373436f6e74726f6c3a2063616e206f6e6c792072656e6f756e636560448201526e103937b632b9903337b91039b2b63360891b606482015260840161023a565b610cc88282611dc3565b5050565b600080516020613409833981519152610ce581336118a4565b610ced611e2a565b50565b60608151835114610d555760405162461bcd60e51b815260206004820152602960248201527f455243313135353a206163636f756e747320616e6420696473206c656e677468604482015268040dad2e6dac2e8c6d60bb1b606482015260840161023a565b600083516001600160401b03811115610d7057610d706128a1565b604051908082528060200260200182016040528015610d99578160200160208202803683370190505b50905060005b8451811015610e1157610de4858281518110610dbd57610dbd61302f565b6020026020010151858381518110610dd757610dd761302f565b60200260200101516106ee565b828281518110610df657610df661302f565b6020908102919091010152610e0a81613045565b9050610d9f565b509392505050565b600760205260009081526040902080548190610e3490612fb4565b80601f0160208091040260200160405190810160405280929190818152602001828054610e6090612fb4565b8015610ead5780601f10610e8257610100808354040283529160200191610ead565b820191906000526020600020905b815481529060010190602001808311610e9057829003601f168201915b505050600184015460028501546003860154600490960154949591949093506001600160401b038083169350600160401b830416916001600160801b03600160801b909104169087565b600080516020613409833981519152610f1081336118a4565b610f1b848484611ebd565b50505050565b600081815260076020526040812060010154610f7f5760405162461bcd60e51b815260206004820152601b60248201527f717565727920666f72206e6f6e6578697374656e7420746f6b656e0000000000604482015260640161023a565b50600090815260076020526040902060030154600160801b90046001600160801b031690565b600080516020613409833981519152610fbe81336118a4565b610ced611f88565b600080516020613409833981519152610fdf81336118a4565b60008381526007602090815260409091208351805185936110049284929101906125ef565b5060208281015160018084019190915560408085015160028501556060850151600385018054608088015160a08901516001600160801b03908116600160801b026001600160401b03928316600160401b026fffffffffffffffffffffffffffffffff199094169290951691909117919091171691909117905560c0909401516004909301929092556000958652600790529320429301929092555050565b60009182526005602090815260408084206001600160a01b0393909316845291905290205460ff1690565b6000805160206134098339815191526110e781336118a4565b610f1b600a8484612673565b610cc8338383612003565b60008051602061340983398151915261111781336118a4565b6001600160a01b03821661115f5760405162461bcd60e51b815260206004820152600f60248201526e696e76616c6964206164647265737360881b604482015260640161023a565b50600880546001600160a01b0319166001600160a01b0392909216919091179055565b60008051602061340983398151915261119b81336118a4565b6001600160a01b0382166111e35760405162461bcd60e51b815260206004820152600f60248201526e696e76616c6964206164647265737360881b604482015260640161023a565b50600980546001600160a01b0319166001600160a01b0392909216919091179055565b60065460ff161561124c5760405162461bcd60e51b815260206004820152601060248201526f14185d5cd8589b194e881c185d5cd95960821b604482015260640161023a565b80516000908152600760205260409020600101546112a05760405162461bcd60e51b81526020600482015260116024820152703737b732bc34b9ba32b73a103a37b5b2b760791b604482015260640161023a565b8051600090815260076020526040902060028101544210156112f75760405162461bcd60e51b815260206004820152601060248201526f1b9bdd081b185d5b98da1959081e595d60821b604482015260640161023a565b600082602001516001600160401b0316116113545760405162461bcd60e51b815260206004820152601d60248201527f616d6f756e74206d7573742062652067726561746572207468616e2030000000604482015260640161023a565b600381015460208301516001600160401b038083169261137d9291600160401b90910416612f89565b6001600160401b031611156113ce5760405162461bcd60e51b81526020600482015260176024820152761b585e1a5b5d5b481cdd5c1c1b1e48195e18d959591959604a1b604482015260640161023a565b600082602001516001600160401b031682600401546113ed9190612fee565b604084015151909150156114855760095460408085015190516326baf4e560e21b81526000926001600160a01b031691639aebd394916114329190869060040161305e565b6020604051808303816000875af1158015611451573d6000803e3d6000fd5b505050506040513d601f19601f820116820180604052508101906114759190613080565b90506114818183613099565b9150505b803410156114cc5760405162461bcd60e51b81526020600482015260146024820152733737ba1032b737bab3b41032ba341033b4bb32b760611b604482015260640161023a565b6008546114e2906001600160a01b0316346120e3565b61150a338451602080870151604080519283019052600082526001600160401b0316906119c2565b6020830151600383015461152e9190600160401b90046001600160401b0316612f89565b8260030160086101000a8154816001600160401b0302191690836001600160401b03160217905550505050565b60008281526005602052604090206001015461157781336118a4565b6107b48383611dc3565b600a805461158e90612fb4565b80601f01602080910402602001604051908101604052809291908181526020018280546115ba90612fb4565b80156116075780601f106115dc57610100808354040283529160200191611607565b820191906000526020600020905b8154815290600101906020018083116115ea57829003601f168201915b505050505081565b6000611629600080516020613409833981519152836110a3565b80610ade57506001600160a01b0380841660009081526001602090815260408083209386168352929052205460ff16610ade565b6001600160a01b0385163314806116795750611679853361160f565b6116d75760405162461bcd60e51b815260206004820152602960248201527f455243313135353a2063616c6c6572206973206e6f74206f776e6572206e6f7260448201526808185c1c1c9bdd995960ba1b606482015260840161023a565b610c2185858585856121fc565b606060006116f3836002612fee565b6116fe9060026130b0565b6001600160401b03811115611715576117156128a1565b6040519080825280601f01601f19166020018201604052801561173f576020820181803683370190505b509050600360fc1b8160008151811061175a5761175a61302f565b60200101906001600160f81b031916908160001a905350600f60fb1b816001815181106117895761178961302f565b60200101906001600160f81b031916908160001a90535060006117ad846002612fee565b6117b89060016130b0565b90505b6001811115611830576f181899199a1a9b1b9c1cb0b131b232b360811b85600f16601081106117ec576117ec61302f565b1a60f81b8282815181106118025761180261302f565b60200101906001600160f81b031916908160001a90535060049490941c93611829816130c8565b90506117bb565b508315610ade5760405162461bcd60e51b815260206004820181905260248201527f537472696e67733a20686578206c656e67746820696e73756666696369656e74604482015260640161023a565b60006001600160e01b03198216637965db0b60e01b148061078b575061078b82612319565b6118ae82826110a3565b610cc8576118c6816001600160a01b031660146116e4565b6118d18360206116e4565b6040516020016118e29291906130df565b60408051601f198184030181529082905262461bcd60e51b825261023a9160040161286c565b6127106001600160601b03821611156119335760405162461bcd60e51b815260040161023a90613154565b6001600160a01b0382166119895760405162461bcd60e51b815260206004820152601960248201527f455243323938313a20696e76616c696420726563656976657200000000000000604482015260640161023a565b604080518082019091526001600160a01b039092168083526001600160601b039091166020909201829052600160a01b90910217600355565b6001600160a01b038416611a225760405162461bcd60e51b815260206004820152602160248201527f455243313135353a206d696e7420746f20746865207a65726f206164647265736044820152607360f81b606482015260840161023a565b33611a3c81600087611a338861233e565b610c218861233e565b6000848152602081815260408083206001600160a01b038916845290915281208054859290611a6c9084906130b0565b909155505060408051858152602081018590526001600160a01b0380881692600092918516917fc3d58168c5ae7397731d063d5bbf3d657854427343f4c083240f7aacaa2d0f62910160405180910390a4610c2181600087878787612389565b606060028054611adb90612fb4565b80601f0160208091040260200160405190810160405280929190818152602001828054611b0790612fb4565b8015611b545780601f10611b2957610100808354040283529160200191611b54565b820191906000526020600020905b815481529060010190602001808311611b3757829003601f168201915b50505050509050919050565b8151835114611bc25760405162461bcd60e51b815260206004820152602860248201527f455243313135353a2069647320616e6420616d6f756e7473206c656e677468206044820152670dad2e6dac2e8c6d60c31b606482015260840161023a565b6001600160a01b038416611be85760405162461bcd60e51b815260040161023a9061319e565b3360005b8451811015611ccf576000858281518110611c0957611c0961302f565b602002602001015190506000858381518110611c2757611c2761302f565b602090810291909101810151600084815280835260408082206001600160a01b038e168352909352919091205490915081811015611c775760405162461bcd60e51b815260040161023a906131e3565b6000838152602081815260408083206001600160a01b038e8116855292528083208585039055908b16825281208054849290611cb49084906130b0565b9250508190555050505080611cc890613045565b9050611bec565b50846001600160a01b0316866001600160a01b0316826001600160a01b03167f4a39dc06d4c0dbc64b70af90fd698a233a518aa5d07e595d983b8c0526c8f7fb8787604051611d1f92919061322d565b60405180910390a4611d358187878787876124e4565b505050505050565b611d4782826110a3565b610cc85760008281526005602090815260408083206001600160a01b03851684529091529020805460ff19166001179055611d7f3390565b6001600160a01b0316816001600160a01b0316837f2f8788117e7eff1d82e926ec794901d17c78024a50270940304540a733656f0d60405160405180910390a45050565b611dcd82826110a3565b15610cc85760008281526005602090815260408083206001600160a01b0385168085529252808320805460ff1916905551339285917ff6391f5c32d9c69d2a47ea670b442974b53935d1edc7fd64eb21e047a839171b9190a45050565b60065460ff16611e735760405162461bcd60e51b815260206004820152601460248201527314185d5cd8589b194e881b9bdd081c185d5cd95960621b604482015260640161023a565b6006805460ff191690557f5db9ee0a495bf2e6ff9c91a7834c1ba4fdd244a5e8aa4e537bd38aeae4b073aa335b6040516001600160a01b03909116815260200160405180910390a1565b6127106001600160601b0382161115611ee85760405162461bcd60e51b815260040161023a90613154565b6001600160a01b038216611f3e5760405162461bcd60e51b815260206004820152601b60248201527f455243323938313a20496e76616c696420706172616d65746572730000000000604482015260640161023a565b6040805180820182526001600160a01b0393841681526001600160601b0392831660208083019182526000968752600490529190942093519051909116600160a01b029116179055565b60065460ff1615611fce5760405162461bcd60e51b815260206004820152601060248201526f14185d5cd8589b194e881c185d5cd95960821b604482015260640161023a565b6006805460ff191660011790557f62e78cea01bee320cd4e420270b5ea74000d11b0c9f74754ebdbfc544b05a258611ea03390565b816001600160a01b0316836001600160a01b0316036120765760405162461bcd60e51b815260206004820152602960248201527f455243313135353a2073657474696e6720617070726f76616c20737461747573604482015268103337b91039b2b63360b91b606482015260840161023a565b6001600160a01b03838116600081815260016020908152604080832094871680845294825291829020805460ff191686151590811790915591519182527f17307eab39ab6107e8899845ad3d59bd9653f200f220920489ca2b5937696c31910160405180910390a3505050565b804710156121335760405162461bcd60e51b815260206004820152601d60248201527f416464726573733a20696e73756666696369656e742062616c616e6365000000604482015260640161023a565b6000826001600160a01b03168260405160006040518083038185875af1925050503d8060008114612180576040519150601f19603f3d011682016040523d82523d6000602084013e612185565b606091505b50509050806107b45760405162461bcd60e51b815260206004820152603a60248201527f416464726573733a20756e61626c6520746f2073656e642076616c75652c207260448201527f6563697069656e74206d61792068617665207265766572746564000000000000606482015260840161023a565b6001600160a01b0384166122225760405162461bcd60e51b815260040161023a9061319e565b33612232818787611a338861233e565b6000848152602081815260408083206001600160a01b038a168452909152902054838110156122735760405162461bcd60e51b815260040161023a906131e3565b6000858152602081815260408083206001600160a01b038b81168552925280832087850390559088168252812080548692906122b09084906130b0565b909155505060408051868152602081018690526001600160a01b03808916928a821692918616917fc3d58168c5ae7397731d063d5bbf3d657854427343f4c083240f7aacaa2d0f62910160405180910390a4612310828888888888612389565b50505050505050565b60006001600160e01b0319821663152a902d60e11b148061078b575061078b8261259f565b604080516001808252818301909252606091600091906020808301908036833701905050905082816000815181106123785761237861302f565b602090810291909101015292915050565b6001600160a01b0384163b15611d355760405163f23a6e6160e01b81526001600160a01b0385169063f23a6e61906123cd908990899088908890889060040161325b565b6020604051808303816000875af1925050508015612408575060408051601f3d908101601f19168201909252612405918101906132a0565b60015b6124b4576124146132bd565b806308c379a00361244d57506124286132d9565b80612433575061244f565b8060405162461bcd60e51b815260040161023a919061286c565b505b60405162461bcd60e51b815260206004820152603460248201527f455243313135353a207472616e7366657220746f206e6f6e20455243313135356044820152732932b1b2b4bb32b91034b6b83632b6b2b73a32b960611b606482015260840161023a565b6001600160e01b0319811663f23a6e6160e01b146123105760405162461bcd60e51b815260040161023a90613362565b6001600160a01b0384163b15611d355760405163bc197c8160e01b81526001600160a01b0385169063bc197c819061252890899089908890889088906004016133aa565b6020604051808303816000875af1925050508015612563575060408051601f3d908101601f19168201909252612560918101906132a0565b60015b61256f576124146132bd565b6001600160e01b0319811663bc197c8160e01b146123105760405162461bcd60e51b815260040161023a90613362565b60006001600160e01b03198216636cdb3d1360e11b14806125d057506001600160e01b031982166303a24d0760e21b145b8061078b57506301ffc9a760e01b6001600160e01b031983161461078b565b8280546125fb90612fb4565b90600052602060002090601f01602090048101928261261d5760008555612663565b82601f1061263657805160ff1916838001178555612663565b82800160010185558215612663579182015b82811115612663578251825591602001919060010190612648565b5061266f9291506126e7565b5090565b82805461267f90612fb4565b90600052602060002090601f0160209004810192826126a15760008555612663565b82601f106126ba5782800160ff19823516178555612663565b82800160010185558215612663579182015b828111156126635782358255916020019190600101906126cc565b5b8082111561266f57600081556001016126e8565b6001600160a01b0381168114610ced57600080fd5b6000806040838503121561272457600080fd5b823561272f816126fc565b946020939093013593505050565b6001600160e01b031981168114610ced57600080fd5b60006020828403121561276557600080fd5b8135610ade8161273d565b80356001600160601b038116811461278757600080fd5b919050565b6000806040838503121561279f57600080fd5b82356127aa816126fc565b91506127b860208401612770565b90509250929050565b80356001600160401b038116811461278757600080fd5b600080604083850312156127eb57600080fd5b823591506127b8602084016127c1565b60006020828403121561280d57600080fd5b5035919050565b60005b8381101561282f578181015183820152602001612817565b83811115610f1b5750506000910152565b60008151808452612858816020860160208601612814565b601f01601f19169290920160200192915050565b602081526000610ade6020830184612840565b6000806040838503121561289257600080fd5b50508035926020909101359150565b634e487b7160e01b600052604160045260246000fd5b601f8201601f191681016001600160401b03811182821017156128dc576128dc6128a1565b6040525050565b60405160e081016001600160401b0381118282101715612905576129056128a1565b60405290565b60006001600160401b03821115612924576129246128a1565b5060051b60200190565b600082601f83011261293f57600080fd5b8135602061294c8261290b565b60405161295982826128b7565b83815260059390931b850182019282810191508684111561297957600080fd5b8286015b84811015612994578035835291830191830161297d565b509695505050505050565b600082601f8301126129b057600080fd5b81356001600160401b038111156129c9576129c96128a1565b6040516129e0601f8301601f1916602001826128b7565b8181528460208386010111156129f557600080fd5b816020850160208301376000918101602001919091529392505050565b600080600080600060a08688031215612a2a57600080fd5b8535612a35816126fc565b94506020860135612a45816126fc565b935060408601356001600160401b0380821115612a6157600080fd5b612a6d89838a0161292e565b94506060880135915080821115612a8357600080fd5b612a8f89838a0161292e565b93506080880135915080821115612aa557600080fd5b50612ab28882890161299f565b9150509295509295909350565b60008060408385031215612ad257600080fd5b823591506020830135612ae4816126fc565b809150509250929050565b60008060408385031215612b0257600080fd5b82356001600160401b0380821115612b1957600080fd5b818501915085601f830112612b2d57600080fd5b81356020612b3a8261290b565b604051612b4782826128b7565b83815260059390931b8501820192828101915089841115612b6757600080fd5b948201945b83861015612b8e578535612b7f816126fc565b82529482019490820190612b6c565b96505086013592505080821115612ba457600080fd5b50612bb18582860161292e565b9150509250929050565b600081518084526020808501945080840160005b83811015612beb57815187529582019590820190600101612bcf565b509495945050505050565b602081526000610ade6020830184612bbb565b60e081526000612c1c60e083018a612840565b60208301989098525060408101959095526001600160401b0393841660608601529190921660808401526001600160801b0390911660a083015260c090910152919050565b600080600060608486031215612c7657600080fd5b833592506020840135612c88816126fc565b9150612c9660408501612770565b90509250925092565b80356001600160801b038116811461278757600080fd5b60008060408385031215612cc957600080fd5b8235915060208301356001600160401b0380821115612ce757600080fd5b9084019060e08287031215612cfb57600080fd5b612d036128e3565b823582811115612d1257600080fd5b612d1e8882860161299f565b8252506020830135602082015260408301356040820152612d41606084016127c1565b6060820152612d52608084016127c1565b6080820152612d6360a08401612c9f565b60a082015260c083013560c08201528093505050509250929050565b60008060208385031215612d9257600080fd5b82356001600160401b0380821115612da957600080fd5b818501915085601f830112612dbd57600080fd5b813581811115612dcc57600080fd5b866020828501011115612dde57600080fd5b60209290920196919550909350505050565b60008060408385031215612e0357600080fd5b8235612e0e816126fc565b915060208301358015158114612ae457600080fd5b600060208284031215612e3557600080fd5b8135610ade816126fc565b600060208284031215612e5257600080fd5b81356001600160401b0380821115612e6957600080fd5b9083019060608286031215612e7d57600080fd5b604051606081018181108382111715612e9857612e986128a1565b60405282358152612eab602084016127c1565b6020820152604083013582811115612ec257600080fd5b612ece8782860161299f565b60408301525095945050505050565b60008060408385031215612ef057600080fd5b8235612efb816126fc565b91506020830135612ae4816126fc565b600080600080600060a08688031215612f2357600080fd5b8535612f2e816126fc565b94506020860135612f3e816126fc565b9350604086013592506060860135915060808601356001600160401b03811115612f6757600080fd5b612ab28882890161299f565b634e487b7160e01b600052601160045260246000fd5b60006001600160401b03808316818516808303821115612fab57612fab612f73565b01949350505050565b600181811c90821680612fc857607f821691505b602082108103612fe857634e487b7160e01b600052602260045260246000fd5b50919050565b600081600019048311821515161561300857613008612f73565b500290565b60008261302a57634e487b7160e01b600052601260045260246000fd5b500490565b634e487b7160e01b600052603260045260246000fd5b60006001820161305757613057612f73565b5060010190565b6040815260006130716040830185612840565b90508260208301529392505050565b60006020828403121561309257600080fd5b5051919050565b6000828210156130ab576130ab612f73565b500390565b600082198211156130c3576130c3612f73565b500190565b6000816130d7576130d7612f73565b506000190190565b7f416363657373436f6e74726f6c3a206163636f756e7420000000000000000000815260008351613117816017850160208801612814565b7001034b99036b4b9b9b4b733903937b6329607d1b6017918401918201528351613148816028840160208801612814565b01602801949350505050565b6020808252602a908201527f455243323938313a20726f79616c7479206665652077696c6c206578636565646040820152692073616c65507269636560b01b606082015260800190565b60208082526025908201527f455243313135353a207472616e7366657220746f20746865207a65726f206164604082015264647265737360d81b606082015260800190565b6020808252602a908201527f455243313135353a20696e73756666696369656e742062616c616e636520666f60408201526939103a3930b739b332b960b11b606082015260800190565b6040815260006132406040830185612bbb565b82810360208401526132528185612bbb565b95945050505050565b6001600160a01b03868116825285166020820152604081018490526060810183905260a06080820181905260009061329590830184612840565b979650505050505050565b6000602082840312156132b257600080fd5b8151610ade8161273d565b600060033d11156132d65760046000803e5060005160e01c5b90565b600060443d10156132e75790565b6040516003193d81016004833e81513d6001600160401b03816024840111818411171561331657505050505090565b828501915081518181111561332e5750505050505090565b843d87010160208285010111156133485750505050505090565b613357602082860101876128b7565b509095945050505050565b60208082526028908201527f455243313135353a204552433131353552656365697665722072656a656374656040820152676420746f6b656e7360c01b606082015260800190565b6001600160a01b0386811682528516602082015260a0604082018190526000906133d690830186612bbb565b82810360608401526133e88186612bbb565b905082810360808401526133fc8185612840565b9897505050505050505056fedf8b4c520ffe197c5343c6f5aec59570151ef9a492f2c624fd45ddde6135ec42a2646970667358221220b85e99b97400c4dcb3fb97094ac1bf2498e1604e0578b5dec67585a4bbd674ce64736f6c634300080d00335a8bfb9223d93ad39e310233fff7bc65227887789e6e83c62b12f0dfdd782ec3df8b4c520ffe197c5343c6f5aec59570151ef9a492f2c624fd45ddde6135ec42",
  "linkReferences": {},
  "deployedLinkReferences": {}
}