{
  "_format": "hh-sol-artifact-1",
  "contractName": "Staking",
  "sourceName": "contracts/Staking.sol",
  "abi": [
    {
      "inputs": [
        {
          "internalType": "uint32",
          "name": "_cycleLengthInSeconds",
          "type": "uint32"
        },
        {
          "internalType": "uint16",
          "name": "_periodLengthInCycles",
          "type": "uint16"
        },
        {
          "internalType": "address",
          "name": "_coin",
          "type": "address"
        }
      ],
      "stateMutability": "nonpayable",
      "type": "constructor"
    },
    {
      "anonymous": false,
      "inputs": [],
      "name": "Disabled",
      "type": "event"
    },
    {
      "anonymous": false,
      "inputs": [
        {
          "indexed": false,
          "internalType": "address",
          "name": "staker",
          "type": "address"
        },
        {
          "indexed": false,
          "internalType": "uint256",
          "name": "startCycle",
          "type": "uint256"
        },
        {
          "indexed": false,
          "internalType": "uint256",
          "name": "stakerStake",
          "type": "uint256"
        },
        {
          "indexed": false,
          "internalType": "uint256",
          "name": "globalStake",
          "type": "uint256"
        }
      ],
      "name": "HistoriesUpdated",
      "type": "event"
    },
    {
      "anonymous": false,
      "inputs": [
        {
          "indexed": false,
          "internalType": "address",
          "name": "staker",
          "type": "address"
        },
        {
          "indexed": false,
          "internalType": "uint256",
          "name": "cycle",
          "type": "uint256"
        },
        {
          "indexed": false,
          "internalType": "address",
          "name": "nft",
          "type": "address"
        },
        {
          "indexed": false,
          "internalType": "uint256",
          "name": "tokenId",
          "type": "uint256"
        },
        {
          "indexed": false,
          "internalType": "uint256",
          "name": "weight",
          "type": "uint256"
        }
      ],
      "name": "NftStaked",
      "type": "event"
    },
    {
      "anonymous": false,
      "inputs": [
        {
          "indexed": false,
          "internalType": "address",
          "name": "staker",
          "type": "address"
        },
        {
          "indexed": false,
          "internalType": "uint256",
          "name": "cycle",
          "type": "uint256"
        },
        {
          "indexed": false,
          "internalType": "address",
          "name": "nft",
          "type": "address"
        },
        {
          "indexed": false,
          "internalType": "uint256",
          "name": "tokenId",
          "type": "uint256"
        },
        {
          "indexed": false,
          "internalType": "uint256",
          "name": "weight",
          "type": "uint256"
        }
      ],
      "name": "NftUnstaked",
      "type": "event"
    },
    {
      "anonymous": false,
      "inputs": [
        {
          "indexed": false,
          "internalType": "address",
          "name": "staker",
          "type": "address"
        },
        {
          "indexed": false,
          "internalType": "uint256",
          "name": "cycle",
          "type": "uint256"
        },
        {
          "indexed": false,
          "internalType": "address",
          "name": "nft",
          "type": "address"
        },
        {
          "indexed": false,
          "internalType": "uint256[]",
          "name": "tokenIds",
          "type": "uint256[]"
        },
        {
          "indexed": false,
          "internalType": "uint256[]",
          "name": "weights",
          "type": "uint256[]"
        }
      ],
      "name": "NftsBatchStaked",
      "type": "event"
    },
    {
      "anonymous": false,
      "inputs": [
        {
          "indexed": false,
          "internalType": "address",
          "name": "staker",
          "type": "address"
        },
        {
          "indexed": false,
          "internalType": "uint256",
          "name": "cycle",
          "type": "uint256"
        },
        {
          "indexed": false,
          "internalType": "address",
          "name": "nft",
          "type": "address"
        },
        {
          "indexed": false,
          "internalType": "uint256[]",
          "name": "tokenIds",
          "type": "uint256[]"
        },
        {
          "indexed": false,
          "internalType": "uint256[]",
          "name": "weights",
          "type": "uint256[]"
        }
      ],
      "name": "NftsBatchUnstaked",
      "type": "event"
    },
    {
      "anonymous": false,
      "inputs": [
        {
          "indexed": false,
          "internalType": "address",
          "name": "from",
          "type": "address"
        },
        {
          "indexed": false,
          "internalType": "address",
          "name": "to",
          "type": "address"
        },
        {
          "indexed": false,
          "internalType": "address",
          "name": "nft",
          "type": "address"
        },
        {
          "indexed": false,
          "internalType": "uint256",
          "name": "tokenId",
          "type": "uint256"
        }
      ],
      "name": "OwnershipChanged",
      "type": "event"
    },
    {
      "anonymous": false,
      "inputs": [
        {
          "indexed": false,
          "internalType": "address",
          "name": "account",
          "type": "address"
        }
      ],
      "name": "Paused",
      "type": "event"
    },
    {
      "anonymous": false,
      "inputs": [
        {
          "indexed": false,
          "internalType": "uint256",
          "name": "startPeriod",
          "type": "uint256"
        },
        {
          "indexed": false,
          "internalType": "uint256",
          "name": "endPeriod",
          "type": "uint256"
        },
        {
          "indexed": false,
          "internalType": "uint256",
          "name": "rewardsPerCycle",
          "type": "uint256"
        }
      ],
      "name": "RewardsAdded",
      "type": "event"
    },
    {
      "anonymous": false,
      "inputs": [
        {
          "indexed": false,
          "internalType": "address",
          "name": "staker",
          "type": "address"
        },
        {
          "indexed": false,
          "internalType": "uint256",
          "name": "cycle",
          "type": "uint256"
        },
        {
          "indexed": false,
          "internalType": "uint256",
          "name": "startPeriod",
          "type": "uint256"
        },
        {
          "indexed": false,
          "internalType": "uint256",
          "name": "periods",
          "type": "uint256"
        },
        {
          "indexed": false,
          "internalType": "uint256",
          "name": "amount",
          "type": "uint256"
        }
      ],
      "name": "RewardsClaimed",
      "type": "event"
    },
    {
      "anonymous": false,
      "inputs": [
        {
          "indexed": true,
          "internalType": "bytes32",
          "name": "role",
          "type": "bytes32"
        },
        {
          "indexed": true,
          "internalType": "bytes32",
          "name": "previousAdminRole",
          "type": "bytes32"
        },
        {
          "indexed": true,
          "internalType": "bytes32",
          "name": "newAdminRole",
          "type": "bytes32"
        }
      ],
      "name": "RoleAdminChanged",
      "type": "event"
    },
    {
      "anonymous": false,
      "inputs": [
        {
          "indexed": true,
          "internalType": "bytes32",
          "name": "role",
          "type": "bytes32"
        },
        {
          "indexed": true,
          "internalType": "address",
          "name": "account",
          "type": "address"
        },
        {
          "indexed": true,
          "internalType": "address",
          "name": "sender",
          "type": "address"
        }
      ],
      "name": "RoleGranted",
      "type": "event"
    },
    {
      "anonymous": false,
      "inputs": [
        {
          "indexed": true,
          "internalType": "bytes32",
          "name": "role",
          "type": "bytes32"
        },
        {
          "indexed": true,
          "internalType": "address",
          "name": "account",
          "type": "address"
        },
        {
          "indexed": true,
          "internalType": "address",
          "name": "sender",
          "type": "address"
        }
      ],
      "name": "RoleRevoked",
      "type": "event"
    },
    {
      "anonymous": false,
      "inputs": [],
      "name": "Started",
      "type": "event"
    },
    {
      "anonymous": false,
      "inputs": [
        {
          "indexed": false,
          "internalType": "address",
          "name": "account",
          "type": "address"
        }
      ],
      "name": "Unpaused",
      "type": "event"
    },
    {
      "inputs": [],
      "name": "ADMIN",
      "outputs": [
        {
          "internalType": "bytes32",
          "name": "",
          "type": "bytes32"
        }
      ],
      "stateMutability": "view",
      "type": "function"
    },
    {
      "inputs": [],
      "name": "DEFAULT_ADMIN_ROLE",
      "outputs": [
        {
          "internalType": "bytes32",
          "name": "",
          "type": "bytes32"
        }
      ],
      "stateMutability": "view",
      "type": "function"
    },
    {
      "inputs": [],
      "name": "REWARDER",
      "outputs": [
        {
          "internalType": "bytes32",
          "name": "",
          "type": "bytes32"
        }
      ],
      "stateMutability": "view",
      "type": "function"
    },
    {
      "inputs": [],
      "name": "SLUSHER",
      "outputs": [
        {
          "internalType": "bytes32",
          "name": "",
          "type": "bytes32"
        }
      ],
      "stateMutability": "view",
      "type": "function"
    },
    {
      "inputs": [
        {
          "internalType": "address",
          "name": "nft",
          "type": "address"
        }
      ],
      "name": "addContract",
      "outputs": [],
      "stateMutability": "nonpayable",
      "type": "function"
    },
    {
      "inputs": [
        {
          "internalType": "uint16",
          "name": "startPeriod",
          "type": "uint16"
        },
        {
          "internalType": "uint16",
          "name": "endPeriod",
          "type": "uint16"
        },
        {
          "internalType": "uint256",
          "name": "rewardsPerCycle",
          "type": "uint256"
        }
      ],
      "name": "addRewardsForPeriods",
      "outputs": [],
      "stateMutability": "nonpayable",
      "type": "function"
    },
    {
      "inputs": [
        {
          "internalType": "address",
          "name": "nft",
          "type": "address"
        },
        {
          "internalType": "uint256[]",
          "name": "tokenIds",
          "type": "uint256[]"
        }
      ],
      "name": "batchUnstake",
      "outputs": [],
      "stateMutability": "nonpayable",
      "type": "function"
    },
    {
      "inputs": [
        {
          "internalType": "uint16",
          "name": "maxPeriods",
          "type": "uint16"
        }
      ],
      "name": "claimRewards",
      "outputs": [],
      "stateMutability": "nonpayable",
      "type": "function"
    },
    {
      "inputs": [],
      "name": "coin",
      "outputs": [
        {
          "internalType": "contract ICoin",
          "name": "",
          "type": "address"
        }
      ],
      "stateMutability": "view",
      "type": "function"
    },
    {
      "inputs": [],
      "name": "cycleLengthInSeconds",
      "outputs": [
        {
          "internalType": "uint32",
          "name": "",
          "type": "uint32"
        }
      ],
      "stateMutability": "view",
      "type": "function"
    },
    {
      "inputs": [
        {
          "internalType": "uint16",
          "name": "maxPeriods",
          "type": "uint16"
        }
      ],
      "name": "estimateRewards",
      "outputs": [
        {
          "internalType": "uint16",
          "name": "startPeriod",
          "type": "uint16"
        },
        {
          "internalType": "uint16",
          "name": "periods",
          "type": "uint16"
        },
        {
          "internalType": "uint256",
          "name": "amount",
          "type": "uint256"
        }
      ],
      "stateMutability": "view",
      "type": "function"
    },
    {
      "inputs": [],
      "name": "getCurrentCycle",
      "outputs": [
        {
          "internalType": "uint16",
          "name": "",
          "type": "uint16"
        }
      ],
      "stateMutability": "view",
      "type": "function"
    },
    {
      "inputs": [],
      "name": "getCurrentPeriod",
      "outputs": [
        {
          "internalType": "uint16",
          "name": "",
          "type": "uint16"
        }
      ],
      "stateMutability": "view",
      "type": "function"
    },
    {
      "inputs": [
        {
          "internalType": "bytes32",
          "name": "role",
          "type": "bytes32"
        }
      ],
      "name": "getRoleAdmin",
      "outputs": [
        {
          "internalType": "bytes32",
          "name": "",
          "type": "bytes32"
        }
      ],
      "stateMutability": "view",
      "type": "function"
    },
    {
      "inputs": [
        {
          "internalType": "address",
          "name": "nft",
          "type": "address"
        },
        {
          "internalType": "uint256",
          "name": "id",
          "type": "uint256"
        }
      ],
      "name": "getTokenInfo",
      "outputs": [
        {
          "components": [
            {
              "internalType": "address",
              "name": "owner",
              "type": "address"
            },
            {
              "internalType": "uint128",
              "name": "weight",
              "type": "uint128"
            },
            {
              "internalType": "uint256",
              "name": "amount",
              "type": "uint256"
            },
            {
              "internalType": "uint16",
              "name": "depositCycle",
              "type": "uint16"
            },
            {
              "internalType": "uint16",
              "name": "withdrawCycle",
              "type": "uint16"
            }
          ],
          "internalType": "struct IStaking.TokenInfo",
          "name": "",
          "type": "tuple"
        }
      ],
      "stateMutability": "view",
      "type": "function"
    },
    {
      "inputs": [
        {
          "internalType": "uint256",
          "name": "",
          "type": "uint256"
        }
      ],
      "name": "globalHistory",
      "outputs": [
        {
          "internalType": "uint128",
          "name": "stake",
          "type": "uint128"
        },
        {
          "internalType": "uint128",
          "name": "startCycle",
          "type": "uint128"
        }
      ],
      "stateMutability": "view",
      "type": "function"
    },
    {
      "inputs": [
        {
          "internalType": "bytes32",
          "name": "role",
          "type": "bytes32"
        },
        {
          "internalType": "address",
          "name": "account",
          "type": "address"
        }
      ],
      "name": "grantRole",
      "outputs": [],
      "stateMutability": "nonpayable",
      "type": "function"
    },
    {
      "inputs": [
        {
          "internalType": "bytes32",
          "name": "role",
          "type": "bytes32"
        },
        {
          "internalType": "address",
          "name": "account",
          "type": "address"
        }
      ],
      "name": "hasRole",
      "outputs": [
        {
          "internalType": "bool",
          "name": "",
          "type": "bool"
        }
      ],
      "stateMutability": "view",
      "type": "function"
    },
    {
      "inputs": [],
      "name": "lastGlobalSnapshotIndex",
      "outputs": [
        {
          "internalType": "uint256",
          "name": "",
          "type": "uint256"
        }
      ],
      "stateMutability": "view",
      "type": "function"
    },
    {
      "inputs": [
        {
          "internalType": "address",
          "name": "staker",
          "type": "address"
        }
      ],
      "name": "lastStakerSnapshotIndex",
      "outputs": [
        {
          "internalType": "uint256",
          "name": "",
          "type": "uint256"
        }
      ],
      "stateMutability": "view",
      "type": "function"
    },
    {
      "inputs": [
        {
          "internalType": "address",
          "name": "",
          "type": "address"
        }
      ],
      "name": "nextClaims",
      "outputs": [
        {
          "internalType": "uint16",
          "name": "period",
          "type": "uint16"
        },
        {
          "internalType": "uint64",
          "name": "globalSnapshotIndex",
          "type": "uint64"
        },
        {
          "internalType": "uint64",
          "name": "stakerSnapshotIndex",
          "type": "uint64"
        }
      ],
      "stateMutability": "view",
      "type": "function"
    },
    {
      "inputs": [
        {
          "internalType": "address",
          "name": "",
          "type": "address"
        },
        {
          "internalType": "address",
          "name": "from",
          "type": "address"
        },
        {
          "internalType": "uint256[]",
          "name": "ids",
          "type": "uint256[]"
        },
        {
          "internalType": "uint256[]",
          "name": "amounts",
          "type": "uint256[]"
        },
        {
          "internalType": "bytes",
          "name": "",
          "type": "bytes"
        }
      ],
      "name": "onERC1155BatchReceived",
      "outputs": [
        {
          "internalType": "bytes4",
          "name": "",
          "type": "bytes4"
        }
      ],
      "stateMutability": "nonpayable",
      "type": "function"
    },
    {
      "inputs": [
        {
          "internalType": "address",
          "name": "",
          "type": "address"
        },
        {
          "internalType": "address",
          "name": "from",
          "type": "address"
        },
        {
          "internalType": "uint256",
          "name": "id",
          "type": "uint256"
        },
        {
          "internalType": "uint256",
          "name": "amount",
          "type": "uint256"
        },
        {
          "internalType": "bytes",
          "name": "",
          "type": "bytes"
        }
      ],
      "name": "onERC1155Received",
      "outputs": [
        {
          "internalType": "bytes4",
          "name": "",
          "type": "bytes4"
        }
      ],
      "stateMutability": "nonpayable",
      "type": "function"
    },
    {
      "inputs": [
        {
          "internalType": "address",
          "name": "",
          "type": "address"
        },
        {
          "internalType": "address",
          "name": "from",
          "type": "address"
        },
        {
          "internalType": "uint256",
          "name": "id",
          "type": "uint256"
        },
        {
          "internalType": "bytes",
          "name": "",
          "type": "bytes"
        }
      ],
      "name": "onERC721Received",
      "outputs": [
        {
          "internalType": "bytes4",
          "name": "",
          "type": "bytes4"
        }
      ],
      "stateMutability": "nonpayable",
      "type": "function"
    },
    {
      "inputs": [],
      "name": "pause",
      "outputs": [],
      "stateMutability": "nonpayable",
      "type": "function"
    },
    {
      "inputs": [],
      "name": "paused",
      "outputs": [
        {
          "internalType": "bool",
          "name": "",
          "type": "bool"
        }
      ],
      "stateMutability": "view",
      "type": "function"
    },
    {
      "inputs": [],
      "name": "periodLengthInCycles",
      "outputs": [
        {
          "internalType": "uint16",
          "name": "",
          "type": "uint16"
        }
      ],
      "stateMutability": "view",
      "type": "function"
    },
    {
      "inputs": [
        {
          "internalType": "address",
          "name": "nft",
          "type": "address"
        }
      ],
      "name": "removeContract",
      "outputs": [],
      "stateMutability": "nonpayable",
      "type": "function"
    },
    {
      "inputs": [
        {
          "internalType": "bytes32",
          "name": "role",
          "type": "bytes32"
        },
        {
          "internalType": "address",
          "name": "account",
          "type": "address"
        }
      ],
      "name": "renounceRole",
      "outputs": [],
      "stateMutability": "nonpayable",
      "type": "function"
    },
    {
      "inputs": [
        {
          "internalType": "bytes32",
          "name": "role",
          "type": "bytes32"
        },
        {
          "internalType": "address",
          "name": "account",
          "type": "address"
        }
      ],
      "name": "revokeRole",
      "outputs": [],
      "stateMutability": "nonpayable",
      "type": "function"
    },
    {
      "inputs": [
        {
          "internalType": "uint256",
          "name": "",
          "type": "uint256"
        }
      ],
      "name": "rewardsSchedule",
      "outputs": [
        {
          "internalType": "uint256",
          "name": "",
          "type": "uint256"
        }
      ],
      "stateMutability": "view",
      "type": "function"
    },
    {
      "inputs": [
        {
          "internalType": "address",
          "name": "_coin",
          "type": "address"
        }
      ],
      "name": "setCoin",
      "outputs": [],
      "stateMutability": "nonpayable",
      "type": "function"
    },
    {
      "inputs": [
        {
          "internalType": "address",
          "name": "nft",
          "type": "address"
        },
        {
          "internalType": "uint256",
          "name": "tokenId",
          "type": "uint256"
        }
      ],
      "name": "slush",
      "outputs": [],
      "stateMutability": "nonpayable",
      "type": "function"
    },
    {
      "inputs": [
        {
          "internalType": "address",
          "name": "",
          "type": "address"
        },
        {
          "internalType": "uint256",
          "name": "",
          "type": "uint256"
        }
      ],
      "name": "stakerHistories",
      "outputs": [
        {
          "internalType": "uint128",
          "name": "stake",
          "type": "uint128"
        },
        {
          "internalType": "uint128",
          "name": "startCycle",
          "type": "uint128"
        }
      ],
      "stateMutability": "view",
      "type": "function"
    },
    {
      "inputs": [
        {
          "internalType": "address",
          "name": "",
          "type": "address"
        }
      ],
      "name": "stakingContracts",
      "outputs": [
        {
          "internalType": "contract IStakable",
          "name": "nft",
          "type": "address"
        },
        {
          "internalType": "bool",
          "name": "enabled",
          "type": "bool"
        }
      ],
      "stateMutability": "view",
      "type": "function"
    },
    {
      "inputs": [],
      "name": "start",
      "outputs": [],
      "stateMutability": "nonpayable",
      "type": "function"
    },
    {
      "inputs": [],
      "name": "startTimestamp",
      "outputs": [
        {
          "internalType": "uint256",
          "name": "",
          "type": "uint256"
        }
      ],
      "stateMutability": "view",
      "type": "function"
    },
    {
      "inputs": [
        {
          "internalType": "bytes4",
          "name": "interfaceId",
          "type": "bytes4"
        }
      ],
      "name": "supportsInterface",
      "outputs": [
        {
          "internalType": "bool",
          "name": "",
          "type": "bool"
        }
      ],
      "stateMutability": "view",
      "type": "function"
    },
    {
      "inputs": [],
      "name": "totalRewardsPool",
      "outputs": [
        {
          "internalType": "uint256",
          "name": "",
          "type": "uint256"
        }
      ],
      "stateMutability": "view",
      "type": "function"
    },
    {
      "inputs": [
        {
          "internalType": "address",
          "name": "nft",
          "type": "address"
        },
        {
          "internalType": "uint256",
          "name": "tokenId",
          "type": "uint256"
        },
        {
          "internalType": "address",
          "name": "recipient",
          "type": "address"
        }
      ],
      "name": "transferToken",
      "outputs": [],
      "stateMutability": "nonpayable",
      "type": "function"
    },
    {
      "inputs": [
        {
          "internalType": "address",
          "name": "nft",
          "type": "address"
        },
        {
          "internalType": "uint256",
          "name": "tokenId",
          "type": "uint256"
        },
        {
          "internalType": "address",
          "name": "_owner",
          "type": "address"
        }
      ],
      "name": "transferTokenOwnership",
      "outputs": [],
      "stateMutability": "nonpayable",
      "type": "function"
    },
    {
      "inputs": [],
      "name": "unpause",
      "outputs": [],
      "stateMutability": "nonpayable",
      "type": "function"
    },
    {
      "inputs": [
        {
          "internalType": "address",
          "name": "nft",
          "type": "address"
        },
        {
          "internalType": "uint256",
          "name": "tokenId",
          "type": "uint256"
        }
      ],
      "name": "unstake",
      "outputs": [],
      "stateMutability": "nonpayable",
      "type": "function"
    },
    {
      "inputs": [
        {
          "internalType": "uint256",
          "name": "",
          "type": "uint256"
        }
      ],
      "name": "withdrawnLostCycles",
      "outputs": [
        {
          "internalType": "bool",
          "name": "",
          "type": "bool"
        }
      ],
      "stateMutability": "view",
      "type": "function"
    }
  ],
  "bytecode": "0x60c06040523480156200001157600080fd5b506040516200472938038062004729833981016040819052620000349162000574565b6000805460ff19169055603c63ffffffff841610156200009b5760405162461bcd60e51b815260206004820152601460248201527f696e76616c6964206379636c65206c656e67746800000000000000000000000060448201526064015b60405180910390fd5b60028261ffff161015620000f25760405162461bcd60e51b815260206004820152601560248201527f696e76616c696420706572696f64206c656e6774680000000000000000000000604482015260640162000092565b6200012d7f5a8bfb9223d93ad39e310233fff7bc65227887789e6e83c62b12f0dfdd782ec360008051602062004709833981519152620001a9565b620001687f7a506b34856e3e79517d05229309bd1a4228aed6ece935e9b2c1b1508093fc0860008051602062004709833981519152620001a9565b620001836000805160206200470983398151915233620001f6565b63ffffffff831660805261ffff821660a052620001a08162000206565b5050506200075b565b6000828152600160208190526040808320909101805490849055905190918391839186917fbd79b86ffe0ab8e8776151514217cd7cacd52c909f66475c3af44e129f0b00ff9190a4505050565b6200020282826200028f565b5050565b6000805160206200470983398151915262000222813362000317565b6001600160a01b0382166200026c5760405162461bcd60e51b815260206004820152600f60248201526e696e76616c6964206164647265737360881b604482015260640162000092565b50600480546001600160a01b0319166001600160a01b0392909216919091179055565b60008281526001602090815260408083206001600160a01b038516845290915290205460ff16620002025760008281526001602081815260408084206001600160a01b0386168086529252808420805460ff19169093179092559051339285917f2f8788117e7eff1d82e926ec794901d17c78024a50270940304540a733656f0d9190a45050565b60008281526001602090815260408083206001600160a01b038516845290915290205460ff16620002025762000363816001600160a01b03166014620003b460201b62001b841760201c565b6200037983602062001b84620003b4821b17811c565b6040516020016200038c92919062000614565b60408051601f198184030181529082905262461bcd60e51b825262000092916004016200068d565b60606000620003c5836002620006d8565b620003d2906002620006fa565b6001600160401b03811115620003ec57620003ec62000715565b6040519080825280601f01601f19166020018201604052801562000417576020820181803683370190505b509050600360fc1b816000815181106200043557620004356200072b565b60200101906001600160f81b031916908160001a905350600f60fb1b816001815181106200046757620004676200072b565b60200101906001600160f81b031916908160001a90535060006200048d846002620006d8565b6200049a906001620006fa565b90505b60018111156200051c576f181899199a1a9b1b9c1cb0b131b232b360811b85600f1660108110620004d257620004d26200072b565b1a60f81b828281518110620004eb57620004eb6200072b565b60200101906001600160f81b031916908160001a90535060049490941c93620005148162000741565b90506200049d565b5083156200056d5760405162461bcd60e51b815260206004820181905260248201527f537472696e67733a20686578206c656e67746820696e73756666696369656e74604482015260640162000092565b9392505050565b6000806000606084860312156200058a57600080fd5b835163ffffffff811681146200059f57600080fd5b602085015190935061ffff81168114620005b857600080fd5b60408501519092506001600160a01b0381168114620005d657600080fd5b809150509250925092565b60005b83811015620005fe578181015183820152602001620005e4565b838111156200060e576000848401525b50505050565b7f416363657373436f6e74726f6c3a206163636f756e74200000000000000000008152600083516200064e816017850160208801620005e1565b7001034b99036b4b9b9b4b733903937b6329607d1b601791840191820152835162000681816028840160208801620005e1565b01602801949350505050565b6020815260008251806020840152620006ae816040850160208701620005e1565b601f01601f19169190910160400192915050565b634e487b7160e01b600052601160045260246000fd5b6000816000190483118215151615620006f557620006f5620006c2565b500290565b60008219821115620007105762000710620006c2565b500190565b634e487b7160e01b600052604160045260246000fd5b634e487b7160e01b600052603260045260246000fd5b600081620007535762000753620006c2565b506000190190565b60805160a051613f50620007b9600039600081816102db0152818161086a01528181611261015281816119f901528181611aeb01528181611de2015281816123b901526130670152600081816103500152612a210152613f506000f3fe608060405234801561001057600080fd5b50600436106102745760003560e01c806382e46b7511610151578063be9a6555116100c3578063d8ebeb8a11610087578063d8ebeb8a14610791578063e6fd48bc146107b4578063f13a7a31146107bd578063f23a6e61146107e4578063f640d508146107f7578063f81649b41461080a57600080fd5b8063be9a65551461073d578063c2a672e014610745578063c375c2ef14610758578063cc60fbf11461076b578063d547741f1461077e57600080fd5b80639bc181d2116101155780639bc181d2146105ad578063a217fddf14610602578063a522bbaa1461060a578063bbd7d2091461061d578063bc197c8114610722578063be26ed7f1461073557600080fd5b806382e46b75146105595780638456cb591461056c578063899bb8d21461057457806391d1485414610587578063961de0d71461059a57600080fd5b80632a4f0f00116101ea5780634fc5b849116101ae5780634fc5b849146104835780635a32502d146104965780635c975abb146104ca5780635f539d69146104d557806369628952146104e85780637b62e0401461055157600080fd5b80632a4f0f00146104375780632ef3ff6f1461044c5780632f2ff15d1461045557806336568abe146104685780633f4ba83a1461047b57600080fd5b80630d2cb02a1161023c5780630d2cb02a1461034b57806311df999514610387578063150b7a02146103b25780632217f165146103de578063248a9ca3146103fe5780632a0acc6a1461042257600080fd5b806301ffc9a7146102795780630244bd48146102a15780630320d053146102d6578063086146d2146103105780630bc2b26914610318575b600080fd5b61028c6102873660046134c3565b61081d565b60405190151581526020015b60405180910390f35b6102c87f7a506b34856e3e79517d05229309bd1a4228aed6ece935e9b2c1b1508093fc0881565b604051908152602001610298565b6102fd7f000000000000000000000000000000000000000000000000000000000000000081565b60405161ffff9091168152602001610298565b6102fd610863565b61032b610326366004613509565b610893565b604080516001600160801b03938416815292909116602083015201610298565b6103727f000000000000000000000000000000000000000000000000000000000000000081565b60405163ffffffff9091168152602001610298565b60045461039a906001600160a01b031681565b6040516001600160a01b039091168152602001610298565b6103c56103c0366004613574565b6108d6565b6040516001600160e01b03199091168152602001610298565b6102c86103ec3660046135e2565b60086020526000908152604090205481565b6102c861040c3660046135e2565b6000908152600160208190526040909120015490565b6102c8600080516020613efb83398151915281565b61044a610445366004613509565b6108f6565b005b6102c860025481565b61044a6104633660046135fb565b610931565b61044a6104763660046135fb565b610958565b61044a6109db565b61032b6104913660046135e2565b6109ff565b6104a96104a4366004613639565b610a34565b6040805161ffff948516815293909216602084015290820152606001610298565b60005460ff1661028c565b61044a6104e3366004613654565b610aab565b6105276104f6366004613654565b60076020526000908152604090205461ffff8116906001600160401b03620100008204811691600160501b90041683565b6040805161ffff90941684526001600160401b039283166020850152911690820152606001610298565b6102c8610afd565b61044a610567366004613654565b610b5a565b61044a610bde565b61044a61058236600461366f565b610bff565b61028c6105953660046135fb565b610d06565b61044a6105a83660046136ef565b610d31565b6105e36105bb366004613654565b600a60205260009081526040902080546002909101546001600160a01b039091169060ff1682565b604080516001600160a01b039093168352901515602083015201610298565b6102c8600081565b61044a610618366004613639565b61108c565b6106c961062b366004613509565b6040805160a081018252600080825260208201819052918101829052606081018290526080810191909152506001600160a01b039182166000908152600a602090815260408083209383526001938401825291829020825160a08101845281549095168552928301546001600160801b0316908401526002820154908301526003015461ffff80821660608401526201000090910416608082015290565b604051610298919081516001600160a01b031681526020808301516001600160801b0316908201526040808301519082015260608083015161ffff90811691830191909152608092830151169181019190915260a00190565b6103c5610730366004613741565b6114b3565b6102fd61153a565b61044a611545565b61044a610753366004613509565b6115d4565b61044a610766366004613654565b6117a6565b6102c8610779366004613654565b6117e4565b61044a61078c3660046135fb565b611855565b61028c61079f3660046135e2565b60096020526000908152604090205460ff1681565b6102c860035481565b6102c87f5a8bfb9223d93ad39e310233fff7bc65227887789e6e83c62b12f0dfdd782ec381565b6103c56107f23660046137fb565b61187c565b61044a61080536600461366f565b61189c565b61044a610818366004613872565b611965565b6000630a85bd0160e11b6001600160e01b03198316148061084e5750630271189760e51b6001600160e01b03198316145b8061085d575061085d82611d1f565b92915050565b600061088e7f0000000000000000000000000000000000000000000000000000000000000000611d54565b905090565b600660205281600052604060002081815481106108af57600080fd5b6000918252602090912001546001600160801b038082169350600160801b90910416905082565b60006108e484866001611d68565b50630a85bd0160e11b95945050505050565b7f7a506b34856e3e79517d05229309bd1a4228aed6ece935e9b2c1b1508093fc086109218133612147565b61092c838330610bff565b505050565b6000828152600160208190526040909120015461094e8133612147565b61092c83836121ab565b6001600160a01b03811633146109cd5760405162461bcd60e51b815260206004820152602f60248201527f416363657373436f6e74726f6c3a2063616e206f6e6c792072656e6f756e636560448201526e103937b632b9903337b91039b2b63360891b60648201526084015b60405180910390fd5b6109d78282612216565b5050565b600080516020613efb8339815191526109f48133612147565b6109fc61227d565b50565b60058181548110610a0f57600080fd5b6000918252602090912001546001600160801b038082169250600160801b9091041682565b6000806000610a4560005460ff1690565b15610a625760405162461bcd60e51b81526004016109c4906138ae565b600354600003610a845760405162461bcd60e51b81526004016109c4906138d8565b6000610a903386612310565b50805160208201516040909201519097919650945092505050565b600080516020613efb833981519152610ac48133612147565b506001600160a01b03166000818152600a6020526040902080546001600160a01b0319169091178155600201805460ff19166001179055565b600554600090808203610b495760405162461bcd60e51b8152602060048201526014602482015273656d70747920676c6f62616c20686973746f727960601b60448201526064016109c4565b610b5460018261391b565b91505090565b600080516020613efb833981519152610b738133612147565b6001600160a01b038216610bbb5760405162461bcd60e51b815260206004820152600f60248201526e696e76616c6964206164647265737360881b60448201526064016109c4565b50600480546001600160a01b0319166001600160a01b0392909216919091179055565b600080516020613efb833981519152610bf78133612147565b6109fc612970565b600080516020613efb833981519152610c188133612147565b6001600160a01b038085166000908152600a60209081526040808320878452600181019092529091208054919290911615610c8d5760405162461bcd60e51b81526020600482015260156024820152743237903737ba1037bbb7103a3434b9903a37b5b2b760591b60448201526064016109c4565b8054604080516001600160a01b03928316815286831660208201529188168282015260608201879052517fa8b4b2dc83f247420b3c2664bf2ff46717a7b15f69851480db579cfd3f6e37659181900360800190a180546001600160a01b0319166001600160a01b03949094169390931790925550505050565b60009182526001602090815260408084206001600160a01b0393909316845291905290205460ff1690565b6001600160a01b0383166000908152600a60205260409020600281015460ff16610d6d5760405162461bcd60e51b81526004016109c490613932565b816000819003610dab5760405162461bcd60e51b81526020600482015260096024820152686e6f20746f6b656e7360b81b60448201526064016109c4565b6000610db6426129c8565b9050600080836001600160401b03811115610dd357610dd3613960565b604051908082528060200260200182016040528015610dfc578160200160208202803683370190505b5090506000846001600160401b03811115610e1957610e19613960565b604051908082528060200260200182016040528015610e42578160200160208202803683370190505b50905060005b85811015610fc4576000898983818110610e6457610e64613976565b90506020020135905060008860010160008381526020019081526020016000209050610e8d3390565b81546001600160a01b03908116911614610ee05760405162461bcd60e51b81526020600482015260146024820152733737ba1039ba30b5b2b2103337b91037bbb732b960611b60448201526064016109c4565b6003810154600290610ef69061ffff168961398c565b61ffff161015610f3d5760405162461bcd60e51b81526020600482015260126024820152713a37b5b2b71039ba34b63610333937bd32b760711b60448201526064016109c4565b80546001600160a01b031916815560018101546001600160801b0316610f6381886139af565b9650806001600160801b0316858581518110610f8157610f81613976565b6020026020010181815250508160020154868581518110610fa457610fa4613976565b60200260200101818152505050505080610fbd906139fe565b9050610e48565b50610fd833610fd285613a17565b86612a6e565b61103430338a8a80806020026020016040519081016040528093929190818152602001838360200280828437600092018290525060408051602081019091529081528d546001600160a01b031696959493508992509050612b73565b7fbe7f6c1642387b32c1680db6a1c902b6c76170129e678d05a6b5705cbf0220c2338754604051611079929188916001600160a01b03909116908d908d908890613a78565b60405180910390a1505050505050505050565b60005460ff16156110af5760405162461bcd60e51b81526004016109c4906138ae565b6003546000036110d15760405162461bcd60e51b81526004016109c4906138d8565b3360008181526007602090815260408083208151606081018352905461ffff811682526001600160401b03620100008204811694830194909452600160501b9004909216908201529181906111269085612310565b915091506000600660006111373390565b6001600160a01b03166001600160a01b0316815260200190815260200160002090505b81604001516001600160401b031684604001516001600160401b031610156111cb57604084018051829161118d82613af5565b6001600160401b03166001600160401b03168152506001600160401b0316815481106111bb576111bb613976565b600091825260208220015561115a565b826020015161ffff166000036111e2575050505050565b3360009081526007602052604081205461ffff169003611203575050505050565b805460009082906112169060019061391b565b8154811061122657611226613976565b60009182526020808320604080518082019091529201546001600160801b038082168452600160801b909104168282015286015186519193507f00000000000000000000000000000000000000000000000000000000000000009160019161128d91613b1b565b611297919061398c565b6112a19190613b41565b61ffff16905081602001516001600160801b031681101580156112cc575081516001600160801b0316155b156112fe57336000908152600760205260409020805471ffffffffffffffffffffffffffffffffffff19169055611366565b3360009081526007602090815260409182902086518154928801519388015161ffff90911669ffffffffffffffffffff1990931692909217620100006001600160401b03948516021767ffffffffffffffff60501b1916600160501b93909216929092021790555b604085015115611434576004805460408781015181516323b872dd60e01b81526001600160a01b039093169383018490523360248401526044830152516323b872dd9160648082019260209290919082900301816000875af11580156113d0573d6000803e3d6000fd5b505050506040513d601f19601f820116820180604052508101906113f49190613b6b565b6114345760405162461bcd60e51b815260206004820152601160248201527018dbdd5b19081b9bdd081899481c185a59607a1b60448201526064016109c4565b7f5619b8583bbbb0760d27ac9ff844cec866b333bf7ad0262c2d809ff42f22e5fc3361145f426129c8565b87516020808a01516040808c015181516001600160a01b03909716875261ffff958616938701939093529284169285019290925291166060830152608082015260a00160405180910390a150505050505050565b600061152587878080602002602001604051908101604052809392919081815260200183836020028082843760009201919091525050604080516020808b0282810182019093528a82528e94509092508a918a91829190850190849080828437600092019190915250612c9592505050565b5063bc197c8160e01b98975050505050505050565b600061088e426129c8565b600080516020613efb83398151915261155e8133612147565b600354156115a45760405162461bcd60e51b81526020600482015260136024820152721cdd185ada5b99c81a185cc81cdd185c9d1959606a1b60448201526064016109c4565b426003556040517fd8cea0ecd56872ff072e771658b5682ffe4de16d752947f79597d600ea56f7a990600090a150565b6001600160a01b0382166000908152600a60205260409020600281015460ff166116105760405162461bcd60e51b81526004016109c490613932565b6000828152600182016020526040902080546001600160a01b031633146116705760405162461bcd60e51b81526020600482015260146024820152733737ba1039ba30b5b2b2103337b91037bbb732b960611b60448201526064016109c4565b600061167b426129c8565b600183015460038401549192506001600160801b0316906002906116a39061ffff168461398c565b61ffff1610156116ea5760405162461bcd60e51b81526020600482015260126024820152713a37b5b2b71039ba34b63610333937bd32b760711b60448201526064016109c4565b6116fd336116f783613a17565b84612a6e565b82546001600160a01b031916835560038301805463ffff000019166201000061ffff8516021790556117533033600286015460408051602081019091526000815288546001600160a01b03169392918a91613179565b7f46766e5fd2bfe7a9791c3cde5b0b14ee02b6827e7d307d3022eb41ec11fbea1a338554604051611796929186916001600160a01b03909116908a908790613b8d565b60405180910390a1505050505050565b600080516020613efb8339815191526117bf8133612147565b506001600160a01b03166000908152600a60205260409020600201805460ff19169055565b6001600160a01b0381166000908152600660205260408120548082036118435760405162461bcd60e51b8152602060048201526014602482015273656d707479207374616b657220686973746f727960601b60448201526064016109c4565b61184e60018261391b565b9392505050565b600082815260016020819052604090912001546118728133612147565b61092c8383612216565b6000611889858786611d68565b5063f23a6e6160e01b9695505050505050565b600080516020613efb8339815191526118b58133612147565b6001600160a01b038085166000908152600a602090815260408083208784526001810190925290912080549192909116301461192b5760405162461bcd60e51b81526020600482015260156024820152743237903737ba1037bbb7103a3434b9903a37b5b2b760591b60448201526064016109c4565b6002810154604080516020810190915260008152835461195d926001600160a01b0390911691309188918a9190613179565b505050505050565b7f5a8bfb9223d93ad39e310233fff7bc65227887789e6e83c62b12f0dfdd782ec36119908133612147565b61ffff8416158015906119ab57508261ffff168461ffff1611155b6119ec5760405162461bcd60e51b815260206004820152601260248201527177726f6e6720706572696f642072616e676560701b60448201526064016109c4565b60035415611a7e57611a1d7f0000000000000000000000000000000000000000000000000000000000000000611d54565b61ffff168461ffff161015611a7e5760405162461bcd60e51b815260206004820152602160248201527f616c726561647920636f6d6d697474656420726577617264207363686564756c6044820152606560f81b60648201526084016109c4565b61ffff84165b8361ffff168111611ac757600081815260086020526040902054611aa8908461324b565b600082815260086020526040902055611ac0816139fe565b9050611a84565b506000611b23611ad7868661398c565b611ae2906001613b1b565b61ffff16611b1d7f000000000000000000000000000000000000000000000000000000000000000061ffff168661325790919063ffffffff16565b90613257565b600254909150611b33908261324b565b6002556040805161ffff8088168252861660208201529081018490527fbff8d5ced955e6f69a19ecc71d313996f6ddfed652cdb458859af89e2f076835906060015b60405180910390a15050505050565b60606000611b93836002613bcd565b611b9e906002613bec565b6001600160401b03811115611bb557611bb5613960565b6040519080825280601f01601f191660200182016040528015611bdf576020820181803683370190505b509050600360fc1b81600081518110611bfa57611bfa613976565b60200101906001600160f81b031916908160001a905350600f60fb1b81600181518110611c2957611c29613976565b60200101906001600160f81b031916908160001a9053506000611c4d846002613bcd565b611c58906001613bec565b90505b6001811115611cd0576f181899199a1a9b1b9c1cb0b131b232b360811b85600f1660108110611c8c57611c8c613976565b1a60f81b828281518110611ca257611ca2613976565b60200101906001600160f81b031916908160001a90535060049490941c93611cc981613c04565b9050611c5b565b50831561184e5760405162461bcd60e51b815260206004820181905260248201527f537472696e67733a20686578206c656e67746820696e73756666696369656e7460448201526064016109c4565b60006001600160e01b03198216637965db0b60e01b148061085d57506301ffc9a760e01b6001600160e01b031983161461085d565b600061085d611d62426129c8565b83613263565b60005460ff1615611d8b5760405162461bcd60e51b81526004016109c4906138ae565b600354600003611dad5760405162461bcd60e51b81526004016109c4906138d8565b336000908152600a60205260409020600281015460ff16611de05760405162461bcd60e51b81526004016109c490613932565b7f00000000000000000000000000000000000000000000000000000000000000006000611e0c426129c8565b8354604051637210857960e01b81526004810189905291925060009186916001600160a01b031690637210857990602401602060405180830381865afa158015611e5a573d6000803e3d6000fd5b505050506040513d601f19601f82011682018060405250810190611e7e9190613c1b565b6001600160801b0316611e919190613bcd565b9050611e9e868284612a6e565b6001600160a01b03861660009081526007602052604081205461ffff169003611f77576000611ecd8385613263565b905060405180606001604052808261ffff1681526020016001600580549050611ef6919061391b565b6001600160401b039081168252600060209283018190526001600160a01b038b16815260078352604090819020845181549486015195909201518316600160501b0267ffffffffffffffff60501b1995909316620100000269ffffffffffffffffffff1990941661ffff909216919091179290921792909216919091179055505b600087815260018501602052604090206003015461ffff620100009091048116908316819003611fe35760405162461bcd60e51b81526020600482015260176024820152763ab739ba30b5b2b2103a37b5b2b71031b7b7b63237bbb760491b60448201526064016109c4565b6040518060a00160405280886001600160a01b03168152602001836001600160801b031681526020018781526020018461ffff168152602001600061ffff168152508560010160008a815260200190815260200160002060008201518160000160006101000a8154816001600160a01b0302191690836001600160a01b0316021790555060208201518160010160006101000a8154816001600160801b0302191690836001600160801b031602179055506040820151816002015560608201518160030160006101000a81548161ffff021916908361ffff16021790555060808201518160030160026101000a81548161ffff021916908361ffff1602179055509050507f6f2ebd05287fb5a17e668e345d9af0380dcec9864ad925d59d4702d6bb243f1287848760000160009054906101000a90046001600160a01b03168b86604051612135959493929190613b8d565b60405180910390a15050505050505050565b6121518282610d06565b6109d757612169816001600160a01b03166014611b84565b612174836020611b84565b604051602001612185929190613c74565b60408051601f198184030181529082905262461bcd60e51b82526109c491600401613d15565b6121b58282610d06565b6109d75760008281526001602081815260408084206001600160a01b0386168086529252808420805460ff19169093179092559051339285917f2f8788117e7eff1d82e926ec794901d17c78024a50270940304540a733656f0d9190a45050565b6122208282610d06565b156109d75760008281526001602090815260408083206001600160a01b0385168085529252808320805460ff1916905551339285917ff6391f5c32d9c69d2a47ea670b442974b53935d1edc7fd64eb21e047a839171b9190a45050565b60005460ff166122c65760405162461bcd60e51b815260206004820152601460248201527314185d5cd8589b194e881b9bdd081c185d5cd95960621b60448201526064016109c4565b6000805460ff191690557f5db9ee0a495bf2e6ff9c91a7834c1ba4fdd244a5e8aa4e537bd38aeae4b073aa335b6040516001600160a01b03909116815260200160405180910390a1565b604080516060808201835260008083526020808401829052838501829052845192830185528183528201819052928101929092529061ffff831615612969576005541561296957506001600160a01b0383166000908152600760209081526040918290208251606081018452905461ffff81168083526001600160401b03620100008304811694840194909452600160501b9091049092169281019290925280835215612969577f000000000000000000000000000000000000000000000000000000000000000060006123e382611d54565b90508061ffff16836000015161ffff16036123ff575050612969565b6001600160a01b038616600090815260066020908152604080832080548251818502810185019093528083529192909190849084015b8282101561247e57600084815260209081902060408051808201909152908401546001600160801b038082168352600160801b9091041681830152825260019092019101612435565b5050505090506000600585602001516001600160401b0316815481106124a6576124a6613976565b6000918252602080832060408051808201825293909101546001600160801b038082168552600160801b9091041691830191909152870151845191935084916001600160401b039091169081106124ff576124ff613976565b60200260200101519050612523604080518082019091526000808252602082015290565b60408051808201909152600080825260208201526005546125469060019061391b565b88602001516001600160401b0316146125bd5760058860200151600161256c9190613d28565b6001600160401b03168154811061258557612585613976565b6000918252602091829020604080518082019091529101546001600160801b038082168352600160801b909104169181019190915291505b600185516125cb919061391b565b88604001516001600160401b0316146126145784886040015160016125f09190613d28565b6001600160401b03168151811061260957612609613976565b602002602001015190505b8751612620908761398c565b61ffff90811660208b01819052908b1610156126415761ffff8a1660208a01525b602089015188516126529190613b1b565b95505b8561ffff16886000015161ffff1614612961578751600090612678908990613b41565b612683906001613b1b565b895161ffff166000908152600860205260408120549192506126a58a8461398c565b61ffff16905060005b8361ffff168114612944578188602001516001600160801b031611156126df5787602001516001600160801b031691505b8187602001516001600160801b031611156127055786602001516001600160801b031691505b50602085015161ffff8416906001600160801b03161580159061273457508086602001516001600160801b0316105b15612749575060208501516001600160801b03165b87516001600160801b03161580159061276b575086516001600160801b031615155b801561277657508215155b156127ca578651600090612799906001600160801b0316611b1d8681878761391b565b89519091506127b1906001600160801b031682613d60565b60408f01519091506127c3908261324b565b60408f0152505b8086602001516001600160801b03160361289c578597508b60200180516127f090613af5565b6001600160401b0316905260055461280a9060019061391b565b8c602001516001600160401b0316146128855760058c6020015160016128309190613d28565b6001600160401b03168154811061284957612849613976565b6000918252602091829020604080518082019091529101546001600160801b038082168352600160801b9091041691810191909152955061289c565b604080518082019091526000808252602082015295505b8085602001516001600160801b03160361293f578496508b60400180516128c290613af5565b6001600160401b0316905288516128db9060019061391b565b8c604001516001600160401b03161461292857888c6040015160016129009190613d28565b6001600160401b03168151811061291957612919613976565b602002602001015194506126ae565b604080518082019091526000808252602082015294505b6126ae565b8b518c9061295190613d74565b61ffff1690525061265592505050565b505050505050505b9250929050565b60005460ff16156129935760405162461bcd60e51b81526004016109c4906138ae565b6000805460ff191660011790557f62e78cea01bee320cd4e420270b5ea74000d11b0c9f74754ebdbfc544b05a2586122f33390565b6000600354821015612a1c5760405162461bcd60e51b815260206004820152601860248201527f74696d657374616d70207072656365656473207374617274000000000000000060448201526064016109c4565b61085d7f000000000000000000000000000000000000000000000000000000000000000063ffffffff1660035484612a54919061391b565b612a5e9190613d60565b612a69906001613bec565b6132d1565b6001600160a01b0383166000908152600660205260408120612a91908484613338565b90506000612aa160058585613338565b90507f6b53edb1a2d26a789b4466210277239d9ab872345e93a9f6028058e71e64c186858460066000896001600160a01b03166001600160a01b031681526020019081526020016000208581548110612afc57612afc613976565b600091825260209091200154600580546001600160801b039092169186908110612b2857612b28613976565b60009182526020918290200154604080516001600160a01b03909616865261ffff909416918501919091526001600160801b0391821692840192909252166060820152608001611b75565b604051631759616b60e11b81526001600160a01b03871690632eb2c2d690612ba79088908890889088908890600401613d8b565b600060405180830381600087803b158015612bc157600080fd5b505af1925050508015612bd2575060015b612c9057825160005b81811015612c8957876001600160a01b03166323b872dd8888888581518110612c0657612c06613976565b60209081029190910101516040516001600160e01b031960e086901b1681526001600160a01b0393841660048201529290911660248301526044820152606401600060405180830381600087803b158015612c6057600080fd5b505af1158015612c74573d6000803e3d6000fd5b5050505080612c82906139fe565b9050612bdb565b505061195d565b61195d565b60005460ff1615612cb85760405162461bcd60e51b81526004016109c4906138ae565b600354600003612cda5760405162461bcd60e51b81526004016109c4906138d8565b336000908152600a60205260409020600281015460ff16612d0d5760405162461bcd60e51b81526004016109c490613932565b83516000819003612d4c5760405162461bcd60e51b81526020600482015260096024820152686e6f20746f6b656e7360b81b60448201526064016109c4565b6000612d57426129c8565b9050600080836001600160401b03811115612d7457612d74613960565b604051908082528060200260200182016040528015612d9d578160200160208202803683370190505b50905060005b84811015613030576000898281518110612dbf57612dbf613976565b602002602001015190506000888381518110612ddd57612ddd613976565b6020026020010151905087600101600083815260200190815260200160002060030160029054906101000a900461ffff1661ffff168661ffff1603612e5e5760405162461bcd60e51b81526020600482015260176024820152763ab739ba30b5b2b2103a37b5b2b71031b7b7b63237bbb760491b60448201526064016109c4565b8754604051637210857960e01b81526004810184905260009183916001600160a01b0390911690637210857990602401602060405180830381865afa158015612eab573d6000803e3d6000fd5b505050506040513d601f19601f82011682018060405250810190612ecf9190613c1b565b6001600160801b0316612ee29190613bcd565b9050612eee8187613de9565b9550806001600160801b0316858581518110612f0c57612f0c613976565b6020026020010181815250506040518060a001604052808c6001600160a01b03168152602001826001600160801b031681526020018381526020018861ffff168152602001600061ffff1681525089600101600085815260200190815260200160002060008201518160000160006101000a8154816001600160a01b0302191690836001600160a01b0316021790555060208201518160010160006101000a8154816001600160801b0302191690836001600160801b031602179055506040820151816002015560608201518160030160006101000a81548161ffff021916908361ffff16021790555060808201518160030160026101000a81548161ffff021916908361ffff16021790555090505050505080613029906139fe565b9050612da3565b5061303c878385612a6e565b6001600160a01b03871660009081526007602052604081205461ffff16900361313557600061308b847f0000000000000000000000000000000000000000000000000000000000000000613263565b905060405180606001604052808261ffff16815260200160016005805490506130b4919061391b565b6001600160401b039081168252600060209283018190526001600160a01b038c16815260078352604090819020845181549486015195909201518316600160501b0267ffffffffffffffff60501b1995909316620100000269ffffffffffffffffffff1990941661ffff909216919091179290921792909216919091179055505b84546040517fc8d9c6e9aea799bcdf92999670320f311287a68ca77e07e9c9adf0885253f74891612135918a9187916001600160a01b03909116908d908790613e0b565b604051637921219560e11b81526001600160a01b0387169063f242432a906131ad9088908890889088908890600401613e53565b600060405180830381600087803b1580156131c757600080fd5b505af19250505080156131d8575060015b612c90576040516323b872dd60e01b81526001600160a01b0386811660048301528581166024830152604482018590528716906323b872dd90606401600060405180830381600087803b15801561322e57600080fd5b505af1158015613242573d6000803e3d6000fd5b5050505061195d565b600061184e8284613bec565b600061184e8284613bcd565b60008261ffff166000036132b05760405162461bcd60e51b81526020600482015260146024820152736379636c652063616e6e6f74206265207a65726f60601b60448201526064016109c4565b816132bc60018561398c565b6132c69190613e98565b61184e906001613b1b565b600061ffff8211156133345760405162461bcd60e51b815260206004820152602660248201527f53616665436173743a2076616c756520646f65736e27742066697420696e203160448201526536206269747360d01b60648201526084016109c4565b5090565b82546000908181156133f95761334f60018361391b565b9250600086848154811061336557613365613976565b6000918252602090912001805490915061339990613394906001600160801b0316600f90810b9089900b61344e565b61345a565b815490925061ffff8616600160801b9091046001600160801b0316036133e65780546fffffffffffffffffffffffffffffffff19166001600160801b03929092169190911790555061184e565b6133f1600185613bec565b9350506133fc565b50835b604080518082019091526001600160801b03918216815261ffff949094166020808601918252875460018101895560009889529720945190518216600160801b02911617929094019190915592915050565b600061184e8284613eb9565b60006001600160801b038211156133345760405162461bcd60e51b815260206004820152602760248201527f53616665436173743a2076616c756520646f65736e27742066697420696e20316044820152663238206269747360c81b60648201526084016109c4565b6000602082840312156134d557600080fd5b81356001600160e01b03198116811461184e57600080fd5b80356001600160a01b038116811461350457600080fd5b919050565b6000806040838503121561351c57600080fd5b613525836134ed565b946020939093013593505050565b60008083601f84011261354557600080fd5b5081356001600160401b0381111561355c57600080fd5b60208301915083602082850101111561296957600080fd5b60008060008060006080868803121561358c57600080fd5b613595866134ed565b94506135a3602087016134ed565b93506040860135925060608601356001600160401b038111156135c557600080fd5b6135d188828901613533565b969995985093965092949392505050565b6000602082840312156135f457600080fd5b5035919050565b6000806040838503121561360e57600080fd5b8235915061361e602084016134ed565b90509250929050565b803561ffff8116811461350457600080fd5b60006020828403121561364b57600080fd5b61184e82613627565b60006020828403121561366657600080fd5b61184e826134ed565b60008060006060848603121561368457600080fd5b61368d846134ed565b9250602084013591506136a2604085016134ed565b90509250925092565b60008083601f8401126136bd57600080fd5b5081356001600160401b038111156136d457600080fd5b6020830191508360208260051b850101111561296957600080fd5b60008060006040848603121561370457600080fd5b61370d846134ed565b925060208401356001600160401b0381111561372857600080fd5b613734868287016136ab565b9497909650939450505050565b60008060008060008060008060a0898b03121561375d57600080fd5b613766896134ed565b975061377460208a016134ed565b965060408901356001600160401b038082111561379057600080fd5b61379c8c838d016136ab565b909850965060608b01359150808211156137b557600080fd5b6137c18c838d016136ab565b909650945060808b01359150808211156137da57600080fd5b506137e78b828c01613533565b999c989b5096995094979396929594505050565b60008060008060008060a0878903121561381457600080fd5b61381d876134ed565b955061382b602088016134ed565b9450604087013593506060870135925060808701356001600160401b0381111561385457600080fd5b61386089828a01613533565b979a9699509497509295939492505050565b60008060006060848603121561388757600080fd5b61389084613627565b925061389e60208501613627565b9150604084013590509250925092565b60208082526010908201526f14185d5cd8589b194e881c185d5cd95960821b604082015260600190565b6020808252601390820152721cdd185ada5b99c81b9bdd081cdd185c9d1959606a1b604082015260600190565b634e487b7160e01b600052601160045260246000fd5b60008282101561392d5761392d613905565b500390565b60208082526014908201527318dbdb9d1c9858dd081b9bdd08195b98589b195960621b604082015260600190565b634e487b7160e01b600052604160045260246000fd5b634e487b7160e01b600052603260045260246000fd5b600061ffff838116908316818110156139a7576139a7613905565b039392505050565b600081600f0b83600f0b600082128260016001607f1b03038213811516156139d9576139d9613905565b8260016001607f1b03190382128116156139f5576139f5613905565b50019392505050565b600060018201613a1057613a10613905565b5060010190565b600081600f0b60016001607f1b03198103613a3457613a34613905565b60000392915050565b600081518084526020808501945080840160005b83811015613a6d57815187529582019590820190600101613a51565b509495945050505050565b6001600160a01b03878116825261ffff871660208301528516604082015260a060608201819052810183905260006001600160fb1b03841115613aba57600080fd5b8360051b808660c0850137808301905060c081016000815260c0848303016080850152613ae78186613a3d565b9a9950505050505050505050565b60006001600160401b03808316818103613b1157613b11613905565b6001019392505050565b600061ffff808316818516808303821115613b3857613b38613905565b01949350505050565b600061ffff80831681851681830481118215151615613b6257613b62613905565b02949350505050565b600060208284031215613b7d57600080fd5b8151801515811461184e57600080fd5b6001600160a01b03958616815261ffff94909416602085015291909316604083015260608201929092526001600160801b03909116608082015260a00190565b6000816000190483118215151615613be757613be7613905565b500290565b60008219821115613bff57613bff613905565b500190565b600081613c1357613c13613905565b506000190190565b600060208284031215613c2d57600080fd5b81516001600160801b038116811461184e57600080fd5b60005b83811015613c5f578181015183820152602001613c47565b83811115613c6e576000848401525b50505050565b7f416363657373436f6e74726f6c3a206163636f756e7420000000000000000000815260008351613cac816017850160208801613c44565b7001034b99036b4b9b9b4b733903937b6329607d1b6017918401918201528351613cdd816028840160208801613c44565b01602801949350505050565b60008151808452613d01816020860160208601613c44565b601f01601f19169290920160200192915050565b60208152600061184e6020830184613ce9565b60006001600160401b03808316818516808303821115613b3857613b38613905565b634e487b7160e01b600052601260045260246000fd5b600082613d6f57613d6f613d4a565b500490565b600061ffff808316818103613b1157613b11613905565b6001600160a01b0386811682528516602082015260a060408201819052600090613db790830186613a3d565b8281036060840152613dc98186613a3d565b90508281036080840152613ddd8185613ce9565b98975050505050505050565b60006001600160801b03808316818516808303821115613b3857613b38613905565b6001600160a01b03868116825261ffff861660208301528416604082015260a060608201819052600090613e4190830185613a3d565b8281036080840152613ddd8185613a3d565b6001600160a01b03868116825285166020820152604081018490526060810183905260a060808201819052600090613e8d90830184613ce9565b979650505050505050565b600061ffff80841680613ead57613ead613d4a565b92169190910492915050565b600080821280156001600160ff1b0384900385131615613edb57613edb613905565b600160ff1b8390038412811615613ef457613ef4613905565b5050019056fedf8b4c520ffe197c5343c6f5aec59570151ef9a492f2c624fd45ddde6135ec42a264697066735822122089ee42477490c950717890604c63ca70c46c28aeb64ecaf5a6a98860a798f36664736f6c634300080d0033df8b4c520ffe197c5343c6f5aec59570151ef9a492f2c624fd45ddde6135ec42",
  "linkReferences": {},
  "deployedLinkReferences": {}
}