{
  "_format": "hh-sol-artifact-1",
  "contractName": "Staking",
  "sourceName": "contracts/Staking.sol",
  "abi": [
    {
      "inputs": [
        {
          "internalType": "uint32",
          "name": "cycleLengthInSeconds_",
          "type": "uint32"
        },
        {
          "internalType": "uint16",
          "name": "periodLengthInCycles_",
          "type": "uint16"
        },
        {
          "internalType": "address",
          "name": "coin_",
          "type": "address"
        }
      ],
      "stateMutability": "nonpayable",
      "type": "constructor"
    },
    {
      "anonymous": false,
      "inputs": [],
      "name": "Disabled",
      "type": "event"
    },
    {
      "anonymous": false,
      "inputs": [
        {
          "indexed": false,
          "internalType": "address",
          "name": "staker",
          "type": "address"
        },
        {
          "indexed": false,
          "internalType": "uint256",
          "name": "startCycle",
          "type": "uint256"
        },
        {
          "indexed": false,
          "internalType": "uint256",
          "name": "stakerStake",
          "type": "uint256"
        },
        {
          "indexed": false,
          "internalType": "uint256",
          "name": "globalStake",
          "type": "uint256"
        }
      ],
      "name": "HistoriesUpdated",
      "type": "event"
    },
    {
      "anonymous": false,
      "inputs": [
        {
          "indexed": false,
          "internalType": "address",
          "name": "staker",
          "type": "address"
        },
        {
          "indexed": false,
          "internalType": "uint256",
          "name": "cycle",
          "type": "uint256"
        },
        {
          "indexed": false,
          "internalType": "address",
          "name": "nft",
          "type": "address"
        },
        {
          "indexed": false,
          "internalType": "uint256",
          "name": "tokenId",
          "type": "uint256"
        },
        {
          "indexed": false,
          "internalType": "uint256",
          "name": "weight",
          "type": "uint256"
        }
      ],
      "name": "NftStaked",
      "type": "event"
    },
    {
      "anonymous": false,
      "inputs": [
        {
          "indexed": false,
          "internalType": "address",
          "name": "staker",
          "type": "address"
        },
        {
          "indexed": false,
          "internalType": "uint256",
          "name": "cycle",
          "type": "uint256"
        },
        {
          "indexed": false,
          "internalType": "address",
          "name": "nft",
          "type": "address"
        },
        {
          "indexed": false,
          "internalType": "uint256",
          "name": "tokenId",
          "type": "uint256"
        },
        {
          "indexed": false,
          "internalType": "uint256",
          "name": "weight",
          "type": "uint256"
        }
      ],
      "name": "NftUnstaked",
      "type": "event"
    },
    {
      "anonymous": false,
      "inputs": [
        {
          "indexed": false,
          "internalType": "address",
          "name": "staker",
          "type": "address"
        },
        {
          "indexed": false,
          "internalType": "uint256",
          "name": "cycle",
          "type": "uint256"
        },
        {
          "indexed": false,
          "internalType": "address",
          "name": "nft",
          "type": "address"
        },
        {
          "indexed": false,
          "internalType": "uint256[]",
          "name": "tokenIds",
          "type": "uint256[]"
        },
        {
          "indexed": false,
          "internalType": "uint256[]",
          "name": "weights",
          "type": "uint256[]"
        }
      ],
      "name": "NftsBatchStaked",
      "type": "event"
    },
    {
      "anonymous": false,
      "inputs": [
        {
          "indexed": false,
          "internalType": "address",
          "name": "staker",
          "type": "address"
        },
        {
          "indexed": false,
          "internalType": "uint256",
          "name": "cycle",
          "type": "uint256"
        },
        {
          "indexed": false,
          "internalType": "address",
          "name": "nft",
          "type": "address"
        },
        {
          "indexed": false,
          "internalType": "uint256[]",
          "name": "tokenIds",
          "type": "uint256[]"
        },
        {
          "indexed": false,
          "internalType": "uint256[]",
          "name": "weights",
          "type": "uint256[]"
        }
      ],
      "name": "NftsBatchUnstaked",
      "type": "event"
    },
    {
      "anonymous": false,
      "inputs": [
        {
          "indexed": true,
          "internalType": "address",
          "name": "previousOwner",
          "type": "address"
        },
        {
          "indexed": true,
          "internalType": "address",
          "name": "newOwner",
          "type": "address"
        }
      ],
      "name": "OwnershipTransferred",
      "type": "event"
    },
    {
      "anonymous": false,
      "inputs": [
        {
          "indexed": false,
          "internalType": "address",
          "name": "account",
          "type": "address"
        }
      ],
      "name": "Paused",
      "type": "event"
    },
    {
      "anonymous": false,
      "inputs": [
        {
          "indexed": false,
          "internalType": "uint256",
          "name": "startPeriod",
          "type": "uint256"
        },
        {
          "indexed": false,
          "internalType": "uint256",
          "name": "endPeriod",
          "type": "uint256"
        },
        {
          "indexed": false,
          "internalType": "uint256",
          "name": "rewardsPerCycle",
          "type": "uint256"
        }
      ],
      "name": "RewardsAdded",
      "type": "event"
    },
    {
      "anonymous": false,
      "inputs": [
        {
          "indexed": false,
          "internalType": "address",
          "name": "staker",
          "type": "address"
        },
        {
          "indexed": false,
          "internalType": "uint256",
          "name": "cycle",
          "type": "uint256"
        },
        {
          "indexed": false,
          "internalType": "uint256",
          "name": "startPeriod",
          "type": "uint256"
        },
        {
          "indexed": false,
          "internalType": "uint256",
          "name": "periods",
          "type": "uint256"
        },
        {
          "indexed": false,
          "internalType": "uint256",
          "name": "amount",
          "type": "uint256"
        }
      ],
      "name": "RewardsClaimed",
      "type": "event"
    },
    {
      "anonymous": false,
      "inputs": [],
      "name": "Started",
      "type": "event"
    },
    {
      "anonymous": false,
      "inputs": [
        {
          "indexed": false,
          "internalType": "address",
          "name": "account",
          "type": "address"
        }
      ],
      "name": "Unpaused",
      "type": "event"
    },
    {
      "inputs": [
        {
          "internalType": "address",
          "name": "nft",
          "type": "address"
        }
      ],
      "name": "addContract",
      "outputs": [],
      "stateMutability": "nonpayable",
      "type": "function"
    },
    {
      "inputs": [
        {
          "internalType": "uint16",
          "name": "startPeriod",
          "type": "uint16"
        },
        {
          "internalType": "uint16",
          "name": "endPeriod",
          "type": "uint16"
        },
        {
          "internalType": "uint256",
          "name": "rewardsPerCycle",
          "type": "uint256"
        }
      ],
      "name": "addRewardsForPeriods",
      "outputs": [],
      "stateMutability": "nonpayable",
      "type": "function"
    },
    {
      "inputs": [
        {
          "internalType": "address",
          "name": "nft",
          "type": "address"
        },
        {
          "internalType": "uint256[]",
          "name": "tokenIds",
          "type": "uint256[]"
        }
      ],
      "name": "batchUnstake",
      "outputs": [],
      "stateMutability": "nonpayable",
      "type": "function"
    },
    {
      "inputs": [
        {
          "internalType": "uint16",
          "name": "maxPeriods",
          "type": "uint16"
        }
      ],
      "name": "claimRewards",
      "outputs": [],
      "stateMutability": "nonpayable",
      "type": "function"
    },
    {
      "inputs": [],
      "name": "coin",
      "outputs": [
        {
          "internalType": "contract ICoin",
          "name": "",
          "type": "address"
        }
      ],
      "stateMutability": "view",
      "type": "function"
    },
    {
      "inputs": [],
      "name": "cycleLengthInSeconds",
      "outputs": [
        {
          "internalType": "uint32",
          "name": "",
          "type": "uint32"
        }
      ],
      "stateMutability": "view",
      "type": "function"
    },
    {
      "inputs": [],
      "name": "enabled",
      "outputs": [
        {
          "internalType": "bool",
          "name": "",
          "type": "bool"
        }
      ],
      "stateMutability": "view",
      "type": "function"
    },
    {
      "inputs": [
        {
          "internalType": "uint16",
          "name": "maxPeriods",
          "type": "uint16"
        }
      ],
      "name": "estimateRewards",
      "outputs": [
        {
          "internalType": "uint16",
          "name": "startPeriod",
          "type": "uint16"
        },
        {
          "internalType": "uint16",
          "name": "periods",
          "type": "uint16"
        },
        {
          "internalType": "uint256",
          "name": "amount",
          "type": "uint256"
        }
      ],
      "stateMutability": "view",
      "type": "function"
    },
    {
      "inputs": [],
      "name": "getCurrentCycle",
      "outputs": [
        {
          "internalType": "uint16",
          "name": "",
          "type": "uint16"
        }
      ],
      "stateMutability": "view",
      "type": "function"
    },
    {
      "inputs": [],
      "name": "getCurrentPeriod",
      "outputs": [
        {
          "internalType": "uint16",
          "name": "",
          "type": "uint16"
        }
      ],
      "stateMutability": "view",
      "type": "function"
    },
    {
      "inputs": [
        {
          "internalType": "address",
          "name": "nft",
          "type": "address"
        },
        {
          "internalType": "uint256",
          "name": "id",
          "type": "uint256"
        }
      ],
      "name": "getTokenInfo",
      "outputs": [
        {
          "components": [
            {
              "internalType": "address",
              "name": "owner",
              "type": "address"
            },
            {
              "internalType": "uint128",
              "name": "weight",
              "type": "uint128"
            },
            {
              "internalType": "uint256",
              "name": "amount",
              "type": "uint256"
            },
            {
              "internalType": "uint16",
              "name": "depositCycle",
              "type": "uint16"
            },
            {
              "internalType": "uint16",
              "name": "withdrawCycle",
              "type": "uint16"
            }
          ],
          "internalType": "struct IStaking.TokenInfo",
          "name": "",
          "type": "tuple"
        }
      ],
      "stateMutability": "view",
      "type": "function"
    },
    {
      "inputs": [
        {
          "internalType": "uint256",
          "name": "",
          "type": "uint256"
        }
      ],
      "name": "globalHistory",
      "outputs": [
        {
          "internalType": "uint128",
          "name": "stake",
          "type": "uint128"
        },
        {
          "internalType": "uint128",
          "name": "startCycle",
          "type": "uint128"
        }
      ],
      "stateMutability": "view",
      "type": "function"
    },
    {
      "inputs": [],
      "name": "lastGlobalSnapshotIndex",
      "outputs": [
        {
          "internalType": "uint256",
          "name": "",
          "type": "uint256"
        }
      ],
      "stateMutability": "view",
      "type": "function"
    },
    {
      "inputs": [
        {
          "internalType": "address",
          "name": "staker",
          "type": "address"
        }
      ],
      "name": "lastStakerSnapshotIndex",
      "outputs": [
        {
          "internalType": "uint256",
          "name": "",
          "type": "uint256"
        }
      ],
      "stateMutability": "view",
      "type": "function"
    },
    {
      "inputs": [
        {
          "internalType": "address",
          "name": "",
          "type": "address"
        }
      ],
      "name": "nextClaims",
      "outputs": [
        {
          "internalType": "uint16",
          "name": "period",
          "type": "uint16"
        },
        {
          "internalType": "uint64",
          "name": "globalSnapshotIndex",
          "type": "uint64"
        },
        {
          "internalType": "uint64",
          "name": "stakerSnapshotIndex",
          "type": "uint64"
        }
      ],
      "stateMutability": "view",
      "type": "function"
    },
    {
      "inputs": [
        {
          "internalType": "address",
          "name": "",
          "type": "address"
        },
        {
          "internalType": "address",
          "name": "from",
          "type": "address"
        },
        {
          "internalType": "uint256[]",
          "name": "ids",
          "type": "uint256[]"
        },
        {
          "internalType": "uint256[]",
          "name": "amounts",
          "type": "uint256[]"
        },
        {
          "internalType": "bytes",
          "name": "",
          "type": "bytes"
        }
      ],
      "name": "onERC1155BatchReceived",
      "outputs": [
        {
          "internalType": "bytes4",
          "name": "",
          "type": "bytes4"
        }
      ],
      "stateMutability": "nonpayable",
      "type": "function"
    },
    {
      "inputs": [
        {
          "internalType": "address",
          "name": "",
          "type": "address"
        },
        {
          "internalType": "address",
          "name": "from",
          "type": "address"
        },
        {
          "internalType": "uint256",
          "name": "id",
          "type": "uint256"
        },
        {
          "internalType": "uint256",
          "name": "amount",
          "type": "uint256"
        },
        {
          "internalType": "bytes",
          "name": "",
          "type": "bytes"
        }
      ],
      "name": "onERC1155Received",
      "outputs": [
        {
          "internalType": "bytes4",
          "name": "",
          "type": "bytes4"
        }
      ],
      "stateMutability": "nonpayable",
      "type": "function"
    },
    {
      "inputs": [
        {
          "internalType": "address",
          "name": "",
          "type": "address"
        },
        {
          "internalType": "address",
          "name": "from",
          "type": "address"
        },
        {
          "internalType": "uint256",
          "name": "id",
          "type": "uint256"
        },
        {
          "internalType": "bytes",
          "name": "",
          "type": "bytes"
        }
      ],
      "name": "onERC721Received",
      "outputs": [
        {
          "internalType": "bytes4",
          "name": "",
          "type": "bytes4"
        }
      ],
      "stateMutability": "nonpayable",
      "type": "function"
    },
    {
      "inputs": [],
      "name": "owner",
      "outputs": [
        {
          "internalType": "address",
          "name": "",
          "type": "address"
        }
      ],
      "stateMutability": "view",
      "type": "function"
    },
    {
      "inputs": [],
      "name": "pause",
      "outputs": [],
      "stateMutability": "nonpayable",
      "type": "function"
    },
    {
      "inputs": [],
      "name": "paused",
      "outputs": [
        {
          "internalType": "bool",
          "name": "",
          "type": "bool"
        }
      ],
      "stateMutability": "view",
      "type": "function"
    },
    {
      "inputs": [],
      "name": "periodLengthInCycles",
      "outputs": [
        {
          "internalType": "uint16",
          "name": "",
          "type": "uint16"
        }
      ],
      "stateMutability": "view",
      "type": "function"
    },
    {
      "inputs": [
        {
          "internalType": "address",
          "name": "nft",
          "type": "address"
        }
      ],
      "name": "removeContract",
      "outputs": [],
      "stateMutability": "nonpayable",
      "type": "function"
    },
    {
      "inputs": [],
      "name": "renounceOwnership",
      "outputs": [],
      "stateMutability": "nonpayable",
      "type": "function"
    },
    {
      "inputs": [
        {
          "internalType": "uint256",
          "name": "",
          "type": "uint256"
        }
      ],
      "name": "rewardsSchedule",
      "outputs": [
        {
          "internalType": "uint256",
          "name": "",
          "type": "uint256"
        }
      ],
      "stateMutability": "view",
      "type": "function"
    },
    {
      "inputs": [
        {
          "internalType": "address",
          "name": "",
          "type": "address"
        },
        {
          "internalType": "uint256",
          "name": "",
          "type": "uint256"
        }
      ],
      "name": "stakerHistories",
      "outputs": [
        {
          "internalType": "uint128",
          "name": "stake",
          "type": "uint128"
        },
        {
          "internalType": "uint128",
          "name": "startCycle",
          "type": "uint128"
        }
      ],
      "stateMutability": "view",
      "type": "function"
    },
    {
      "inputs": [
        {
          "internalType": "address",
          "name": "",
          "type": "address"
        }
      ],
      "name": "staking",
      "outputs": [
        {
          "internalType": "contract IStakable",
          "name": "nft",
          "type": "address"
        },
        {
          "internalType": "bool",
          "name": "enabled",
          "type": "bool"
        }
      ],
      "stateMutability": "view",
      "type": "function"
    },
    {
      "inputs": [],
      "name": "start",
      "outputs": [],
      "stateMutability": "nonpayable",
      "type": "function"
    },
    {
      "inputs": [],
      "name": "startTimestamp",
      "outputs": [
        {
          "internalType": "uint256",
          "name": "",
          "type": "uint256"
        }
      ],
      "stateMutability": "view",
      "type": "function"
    },
    {
      "inputs": [
        {
          "internalType": "bytes4",
          "name": "interfaceId",
          "type": "bytes4"
        }
      ],
      "name": "supportsInterface",
      "outputs": [
        {
          "internalType": "bool",
          "name": "",
          "type": "bool"
        }
      ],
      "stateMutability": "view",
      "type": "function"
    },
    {
      "inputs": [],
      "name": "totalRewardsPool",
      "outputs": [
        {
          "internalType": "uint256",
          "name": "",
          "type": "uint256"
        }
      ],
      "stateMutability": "view",
      "type": "function"
    },
    {
      "inputs": [
        {
          "internalType": "address",
          "name": "newOwner",
          "type": "address"
        }
      ],
      "name": "transferOwnership",
      "outputs": [],
      "stateMutability": "nonpayable",
      "type": "function"
    },
    {
      "inputs": [],
      "name": "unpause",
      "outputs": [],
      "stateMutability": "nonpayable",
      "type": "function"
    },
    {
      "inputs": [
        {
          "internalType": "address",
          "name": "nft",
          "type": "address"
        },
        {
          "internalType": "uint256",
          "name": "tokenId",
          "type": "uint256"
        }
      ],
      "name": "unstake",
      "outputs": [],
      "stateMutability": "nonpayable",
      "type": "function"
    },
    {
      "inputs": [
        {
          "internalType": "uint256",
          "name": "",
          "type": "uint256"
        }
      ],
      "name": "withdrawnLostCycles",
      "outputs": [
        {
          "internalType": "bool",
          "name": "",
          "type": "bool"
        }
      ],
      "stateMutability": "view",
      "type": "function"
    }
  ],
  "bytecode": "0x60e06040526000805460ff60a81b1916600160a81b1790553480156200002457600080fd5b5060405162003b8138038062003b81833981016040819052620000479162000187565b620000523362000137565b6000805460ff60a01b19169055603c63ffffffff84161015620000bc5760405162461bcd60e51b815260206004820152601460248201527f696e76616c6964206379636c65206c656e67746800000000000000000000000060448201526064015b60405180910390fd5b60028261ffff161015620001135760405162461bcd60e51b815260206004820152601560248201527f696e76616c696420706572696f64206c656e67746800000000000000000000006044820152606401620000b3565b63ffffffff90921660a05261ffff1660c0526001600160a01b0316608052620001f4565b600080546001600160a01b038381166001600160a01b0319831681178455604051919092169283917f8be0079c531659141344cd1fd0a4f28419497f9722a3daafe3b4186f6b6457e09190a35050565b6000806000606084860312156200019d57600080fd5b835163ffffffff81168114620001b257600080fd5b602085015190935061ffff81168114620001cb57600080fd5b60408501519092506001600160a01b0381168114620001e957600080fd5b809150509250925092565b60805160a05160c05161391e62000263600039600081816102430152818161074701528181610f870152818161177f015281816118710152818161199d01528181611e480152612b610152600081816102b8015261250d0152600081816102f401526110a0015261391e6000f3fe608060405234801561001057600080fd5b50600436106102115760003560e01c80637b62e04011610125578063c2a672e0116100ad578063d8ebeb8a1161007c578063d8ebeb8a14610689578063e6fd48bc146106ac578063f23a6e61146106b5578063f2fde38b146106c8578063f81649b4146106db57600080fd5b8063c2a672e0146105fb578063c375c2ef1461060e578063cc60fbf114610621578063d764b78f1461063457600080fd5b8063a522bbaa116100f4578063a522bbaa146104c0578063bbd7d209146104d3578063bc197c81146105d8578063be26ed7f146105eb578063be9a6555146105f357600080fd5b80637b62e0401461048c5780638456cb59146104945780638da5cb5b1461049c578063961de0d7146104ad57600080fd5b8063238dafe0116101a85780635a32502d116101775780635a32502d146103c25780635c975abb146103f65780635f539d6914610408578063696289521461041b578063715018a61461048457600080fd5b8063238dafe0146103885780632ef3ff6f1461039c5780633f4ba83a146103a55780634fc5b849146103af57600080fd5b80630d2cb02a116101e45780630d2cb02a146102b357806311df9995146102ef578063150b7a021461032e5780632217f1651461035a57600080fd5b806301ffc9a7146102165780630320d0531461023e578063086146d2146102785780630bc2b26914610280575b600080fd5b610229610224366004612fb4565b6106ee565b60405190151581526020015b60405180910390f35b6102657f000000000000000000000000000000000000000000000000000000000000000081565b60405161ffff9091168152602001610235565b610265610740565b61029361028e366004612ffa565b610770565b604080516001600160801b03938416815292909116602083015201610235565b6102da7f000000000000000000000000000000000000000000000000000000000000000081565b60405163ffffffff9091168152602001610235565b6103167f000000000000000000000000000000000000000000000000000000000000000081565b6040516001600160a01b039091168152602001610235565b61034161033c366004613065565b6107b3565b6040516001600160e01b03199091168152602001610235565b61037a6103683660046130d3565b60066020526000908152604090205481565b604051908152602001610235565b60005461022990600160a81b900460ff1681565b61037a60015481565b6103ad6107d3565b005b6102936103bd3660046130d3565b610810565b6103d56103d03660046130fe565b610845565b6040805161ffff948516815293909216602084015290820152606001610235565b600054600160a01b900460ff16610229565b6103ad610416366004613119565b6108c4565b61045a610429366004613119565b60056020526000908152604090205461ffff8116906001600160401b03620100008204811691600160501b90041683565b6040805161ffff90941684526001600160401b039283166020850152911690820152606001610235565b6103ad610926565b61037a61095a565b6103ad6109b7565b6000546001600160a01b0316610316565b6103ad6104bb366004613178565b6109e9565b6103ad6104ce3660046130fe565b610dab565b61057f6104e1366004612ffa565b6040805160a081018252600080825260208201819052918101829052606081018290526080810191909152506001600160a01b0391821660009081526008602090815260408083209383526001938401825291829020825160a08101845281549095168552928301546001600160801b0316908401526002820154908301526003015461ffff80821660608401526201000090910416608082015290565b604051610235919081516001600160a01b031681526020808301516001600160801b0316908201526040808301519082015260608083015161ffff90811691830191909152608092830151169181019190915260a00190565b6103416105e63660046131ca565b6111aa565b610265611231565b6103ad61123c565b6103ad610609366004612ffa565b6112db565b6103ad61061c366004613119565b611575565b61037a61062f366004613119565b6115c3565b61066a610642366004613119565b600860205260009081526040902080546002909101546001600160a01b039091169060ff1682565b604080516001600160a01b039093168352901515602083015201610235565b6102296106973660046130d3565b60076020526000908152604090205460ff1681565b61037a60025481565b6103416106c3366004613284565b611634565b6103ad6106d6366004613119565b611654565b6103ad6106e93660046132fb565b6116ec565b6000630a85bd0160e11b6001600160e01b03198316148061071f5750630271189760e51b6001600160e01b03198316145b8061073a57506301ffc9a760e01b6001600160e01b03198316145b92915050565b600061076b7f0000000000000000000000000000000000000000000000000000000000000000611908565b905090565b6004602052816000526040600020818154811061078c57600080fd5b6000918252602090912001546001600160801b038082169350600160801b90910416905082565b60006107c18486600161191c565b50630a85bd0160e11b95945050505050565b6000546001600160a01b031633146108065760405162461bcd60e51b81526004016107fd90613337565b60405180910390fd5b61080e611d02565b565b6003818154811061082057600080fd5b6000918252602090912001546001600160801b038082169250600160801b9091041682565b600080600061085e60005460ff600160a01b9091041690565b1561087b5760405162461bcd60e51b81526004016107fd9061336c565b60025460000361089d5760405162461bcd60e51b81526004016107fd90613396565b60006108a93386611d9f565b50805160208201516040909201519097919650945092505050565b6000546001600160a01b031633146108ee5760405162461bcd60e51b81526004016107fd90613337565b6001600160a01b0316600081815260086020526040902080546001600160a01b0319169091178155600201805460ff19166001179055565b6000546001600160a01b031633146109505760405162461bcd60e51b81526004016107fd90613337565b61080e60006123ff565b6003546000908082036109a65760405162461bcd60e51b8152602060048201526014602482015273656d70747920676c6f62616c20686973746f727960601b60448201526064016107fd565b6109b16001826133d9565b91505090565b6000546001600160a01b031633146109e15760405162461bcd60e51b81526004016107fd90613337565b61080e61244f565b6001600160a01b0383166000908152600860205260409020600281015460ff16610a255760405162461bcd60e51b81526004016107fd906133f0565b816000819003610a635760405162461bcd60e51b81526020600482015260096024820152686e6f20746f6b656e7360b81b60448201526064016107fd565b6000610a6e426124b4565b9050600080836001600160401b03811115610a8b57610a8b61341e565b604051908082528060200260200182016040528015610ab4578160200160208202803683370190505b5090506000846001600160401b03811115610ad157610ad161341e565b604051908082528060200260200182016040528015610afa578160200160208202803683370190505b50905060005b85811015610cd1576000898983818110610b1c57610b1c613434565b60209081029290920135600081815260018c81018552604091829020825160a08101845281546001600160a01b0316808252928201546001600160801b03169681019690965260028101549286019290925260039091015461ffff80821660608701526201000090910416608085015290935033149050610bd65760405162461bcd60e51b81526020600482015260146024820152733737ba1039ba30b5b2b2103337b91037bbb732b960611b60448201526064016107fd565b600054600160a81b900460ff1615610c9b576002816060015188610bfa919061344a565b61ffff161015610c415760405162461bcd60e51b81526020600482015260126024820152713a37b5b2b71039ba34b63610333937bd32b760711b60448201526064016107fd565b600082815260018a016020908152604090912080546001600160a01b0319169055810151610c6f818861346d565b9650806001600160801b0316858581518110610c8d57610c8d613434565b602002602001018181525050505b8060400151858481518110610cb257610cb2613434565b602002602001018181525050505080610cca906134bc565b9050610b00565b50600054600160a81b900460ff1615610cf757610cf733610cf1856134d5565b8661255a565b610d5330338a8a80806020026020016040519081016040528093929190818152602001838360200280828437600092018290525060408051602081019091529081528d546001600160a01b031696959493508992509050612667565b7fbe7f6c1642387b32c1680db6a1c902b6c76170129e678d05a6b5705cbf0220c2338754604051610d98929188916001600160a01b03909116908d908d908890613536565b60405180910390a1505050505050505050565b600054600160a01b900460ff1615610dd55760405162461bcd60e51b81526004016107fd9061336c565b600254600003610df75760405162461bcd60e51b81526004016107fd90613396565b3360008181526005602090815260408083208151606081018352905461ffff811682526001600160401b03620100008204811694830194909452600160501b900490921690820152918190610e4c9085611d9f565b91509150600060046000610e5d3390565b6001600160a01b03166001600160a01b0316815260200190815260200160002090505b81604001516001600160401b031684604001516001600160401b03161015610ef1576040840180518291610eb3826135b3565b6001600160401b03166001600160401b03168152506001600160401b031681548110610ee157610ee1613434565b6000918252602082200155610e80565b826020015161ffff16600003610f08575050505050565b3360009081526005602052604081205461ffff169003610f29575050505050565b80546000908290610f3c906001906133d9565b81548110610f4c57610f4c613434565b60009182526020808320604080518082019091529201546001600160801b038082168452600160801b909104168282015286015186519193507f000000000000000000000000000000000000000000000000000000000000000091600191610fb3916135d9565b610fbd919061344a565b610fc791906135ff565b61ffff16905081602001516001600160801b03168110158015610ff2575081516001600160801b0316155b1561102457336000908152600560205260409020805471ffffffffffffffffffffffffffffffffffff1916905561108c565b3360009081526005602090815260409182902086518154928801519388015161ffff90911669ffffffffffffffffffff1990931692909217620100006001600160401b03948516021767ffffffffffffffff60501b1916600160501b93909216929092021790555b60408501511561112a576001600160a01b037f00000000000000000000000000000000000000000000000000000000000000001663eef892aa3360408089015190516001600160e01b031960e085901b1681526001600160a01b0390921660048301526024820152604401600060405180830381600087803b15801561111157600080fd5b505af1158015611125573d6000803e3d6000fd5b505050505b7f5619b8583bbbb0760d27ac9ff844cec866b333bf7ad0262c2d809ff42f22e5fc33611155426124b4565b87516020808a01516040808c015181516001600160a01b03909716875261ffff958616938701939093529284169285019290925291166060830152608082015260a00160405180910390a15050505050505b50565b600061121c87878080602002602001604051908101604052809392919081815260200183836020028082843760009201919091525050604080516020808b0282810182019093528a82528e94509092508a918a9182919085019084908082843760009201919091525061278892505050565b5063bc197c8160e01b98975050505050505050565b600061076b426124b4565b6000546001600160a01b031633146112665760405162461bcd60e51b81526004016107fd90613337565b600254156112ac5760405162461bcd60e51b81526020600482015260136024820152721cdd185ada5b99c81a185cc81cdd185c9d1959606a1b60448201526064016107fd565b426002556040517fd8cea0ecd56872ff072e771658b5682ffe4de16d752947f79597d600ea56f7a990600090a1565b6001600160a01b0382166000908152600860205260409020600281015460ff166113175760405162461bcd60e51b81526004016107fd906133f0565b600082815260018281016020908152604092839020835160a08101855281546001600160a01b0316808252938201546001600160801b03169281019290925260028101549382019390935260039092015461ffff80821660608501526201000090910416608083015233146113c55760405162461bcd60e51b81526020600482015260146024820152733737ba1039ba30b5b2b2103337b91037bbb732b960611b60448201526064016107fd565b60006113d0426124b4565b602083015160005491925090600160a81b900460ff16156114f45760028360600151836113fd919061344a565b61ffff1610156114445760405162461bcd60e51b81526020600482015260126024820152713a37b5b2b71039ba34b63610333937bd32b760711b60448201526064016107fd565b61145733611451836134d5565b8461255a565b600080845261ffff8381166080860190815287835260018781016020908152604094859020885181546001600160a01b0319166001600160a01b039091161781559088015191810180546001600160801b0319166001600160801b0390931692909217909155928601516002840155606086015160039093018054915193831663ffffffff19909216919091176201000093909216929092021790555b61152230336040808701518151602081019092526000825288546001600160a01b03169392918a9190612c73565b7f46766e5fd2bfe7a9791c3cde5b0b14ee02b6827e7d307d3022eb41ec11fbea1a338554604051611565929186916001600160a01b03909116908a908790613629565b60405180910390a1505050505050565b6000546001600160a01b0316331461159f5760405162461bcd60e51b81526004016107fd90613337565b6001600160a01b03166000908152600860205260409020600201805460ff19169055565b6001600160a01b0381166000908152600460205260408120548082036116225760405162461bcd60e51b8152602060048201526014602482015273656d707479207374616b657220686973746f727960601b60448201526064016107fd565b61162d6001826133d9565b9392505050565b600061164185878661191c565b5063f23a6e6160e01b9695505050505050565b6000546001600160a01b0316331461167e5760405162461bcd60e51b81526004016107fd90613337565b6001600160a01b0381166116e35760405162461bcd60e51b815260206004820152602660248201527f4f776e61626c653a206e6577206f776e657220697320746865207a65726f206160448201526564647265737360d01b60648201526084016107fd565b6111a7816123ff565b6000546001600160a01b031633146117165760405162461bcd60e51b81526004016107fd90613337565b61ffff83161580159061173157508161ffff168361ffff1611155b6117725760405162461bcd60e51b815260206004820152601260248201527177726f6e6720706572696f642072616e676560701b60448201526064016107fd565b60025415611804576117a37f0000000000000000000000000000000000000000000000000000000000000000611908565b61ffff168361ffff1610156118045760405162461bcd60e51b815260206004820152602160248201527f616c726561647920636f6d6d697474656420726577617264207363686564756c6044820152606560f81b60648201526084016107fd565b61ffff83165b8261ffff16811161184d5760008181526006602052604090205461182e9083612d45565b600082815260066020526040902055611846816134bc565b905061180a565b5060006118a961185d858561344a565b6118689060016135d9565b61ffff166118a37f000000000000000000000000000000000000000000000000000000000000000061ffff1685612d5190919063ffffffff16565b90612d51565b6001549091506118b99082612d45565b6001556040805161ffff8087168252851660208201529081018390527fbff8d5ced955e6f69a19ecc71d313996f6ddfed652cdb458859af89e2f0768359060600160405180910390a150505050565b600061073a611916426124b4565b83612d5d565b600054600160a01b900460ff16156119465760405162461bcd60e51b81526004016107fd9061336c565b6002546000036119685760405162461bcd60e51b81526004016107fd90613396565b336000908152600860205260409020600281015460ff1661199b5760405162461bcd60e51b81526004016107fd906133f0565b7f000000000000000000000000000000000000000000000000000000000000000060006119c7426124b4565b8354604051637210857960e01b81526004810189905291925060009186916001600160a01b031690637210857990602401602060405180830381865afa158015611a15573d6000803e3d6000fd5b505050506040513d601f19601f82011682018060405250810190611a399190613669565b6001600160801b0316611a4c9190613692565b9050611a5986828461255a565b6001600160a01b03861660009081526005602052604081205461ffff169003611b32576000611a888385612d5d565b905060405180606001604052808261ffff1681526020016001600380549050611ab191906133d9565b6001600160401b039081168252600060209283018190526001600160a01b038b16815260058352604090819020845181549486015195909201518316600160501b0267ffffffffffffffff60501b1995909316620100000269ffffffffffffffffffff1990941661ffff909216919091179290921792909216919091179055505b600087815260018501602052604090206003015461ffff620100009091048116908316819003611b9e5760405162461bcd60e51b81526020600482015260176024820152763ab739ba30b5b2b2103a37b5b2b71031b7b7b63237bbb760491b60448201526064016107fd565b6040518060a00160405280886001600160a01b03168152602001836001600160801b031681526020018781526020018461ffff168152602001600061ffff168152508560010160008a815260200190815260200160002060008201518160000160006101000a8154816001600160a01b0302191690836001600160a01b0316021790555060208201518160010160006101000a8154816001600160801b0302191690836001600160801b031602179055506040820151816002015560608201518160030160006101000a81548161ffff021916908361ffff16021790555060808201518160030160026101000a81548161ffff021916908361ffff1602179055509050507f6f2ebd05287fb5a17e668e345d9af0380dcec9864ad925d59d4702d6bb243f1287848760000160009054906101000a90046001600160a01b03168b86604051611cf0959493929190613629565b60405180910390a15050505050505050565b600054600160a01b900460ff16611d525760405162461bcd60e51b815260206004820152601460248201527314185d5cd8589b194e881b9bdd081c185d5cd95960621b60448201526064016107fd565b6000805460ff60a01b191690557f5db9ee0a495bf2e6ff9c91a7834c1ba4fdd244a5e8aa4e537bd38aeae4b073aa335b6040516001600160a01b03909116815260200160405180910390a1565b604080516060808201835260008083526020808401829052838501829052845192830185528183528201819052928101929092529061ffff8316156123f857600354156123f857506001600160a01b0383166000908152600560209081526040918290208251606081018452905461ffff81168083526001600160401b03620100008304811694840194909452600160501b90910490921692810192909252808352156123f8577f00000000000000000000000000000000000000000000000000000000000000006000611e7282611908565b90508061ffff16836000015161ffff1603611e8e5750506123f8565b6001600160a01b038616600090815260046020908152604080832080548251818502810185019093528083529192909190849084015b82821015611f0d57600084815260209081902060408051808201909152908401546001600160801b038082168352600160801b9091041681830152825260019092019101611ec4565b5050505090506000600385602001516001600160401b031681548110611f3557611f35613434565b6000918252602080832060408051808201825293909101546001600160801b038082168552600160801b9091041691830191909152870151845191935084916001600160401b03909116908110611f8e57611f8e613434565b60200260200101519050611fb2604080518082019091526000808252602082015290565b6040805180820190915260008082526020820152600354611fd5906001906133d9565b88602001516001600160401b03161461204c57600388602001516001611ffb91906136b1565b6001600160401b03168154811061201457612014613434565b6000918252602091829020604080518082019091529101546001600160801b038082168352600160801b909104169181019190915291505b6001855161205a91906133d9565b88604001516001600160401b0316146120a357848860400151600161207f91906136b1565b6001600160401b03168151811061209857612098613434565b602002602001015190505b87516120af908761344a565b61ffff90811660208b01819052908b1610156120d05761ffff8a1660208a01525b602089015188516120e191906135d9565b95505b8561ffff16886000015161ffff16146123f05787516000906121079089906135ff565b6121129060016135d9565b895161ffff166000908152600660205260408120549192506121348a8461344a565b61ffff16905060005b8361ffff1681146123d3578188602001516001600160801b0316111561216e5787602001516001600160801b031691505b8187602001516001600160801b031611156121945786602001516001600160801b031691505b50602085015161ffff8416906001600160801b0316158015906121c357508086602001516001600160801b0316105b156121d8575060208501516001600160801b03165b87516001600160801b0316158015906121fa575086516001600160801b031615155b801561220557508215155b15612259578651600090612228906001600160801b03166118a3868187876133d9565b8951909150612240906001600160801b0316826136e9565b60408f01519091506122529082612d45565b60408f0152505b8086602001516001600160801b03160361232b578597508b602001805161227f906135b3565b6001600160401b03169052600354612299906001906133d9565b8c602001516001600160401b0316146123145760038c6020015160016122bf91906136b1565b6001600160401b0316815481106122d8576122d8613434565b6000918252602091829020604080518082019091529101546001600160801b038082168352600160801b9091041691810191909152955061232b565b604080518082019091526000808252602082015295505b8085602001516001600160801b0316036123ce578496508b6040018051612351906135b3565b6001600160401b03169052885161236a906001906133d9565b8c604001516001600160401b0316146123b757888c60400151600161238f91906136b1565b6001600160401b0316815181106123a8576123a8613434565b6020026020010151945061213d565b604080518082019091526000808252602082015294505b61213d565b8b518c906123e0906136fd565b61ffff169052506120e492505050565b505050505050505b9250929050565b600080546001600160a01b038381166001600160a01b0319831681178455604051919092169283917f8be0079c531659141344cd1fd0a4f28419497f9722a3daafe3b4186f6b6457e09190a35050565b600054600160a01b900460ff16156124795760405162461bcd60e51b81526004016107fd9061336c565b6000805460ff60a01b1916600160a01b1790557f62e78cea01bee320cd4e420270b5ea74000d11b0c9f74754ebdbfc544b05a258611d823390565b60006002548210156125085760405162461bcd60e51b815260206004820152601860248201527f74696d657374616d70207072656365656473207374617274000000000000000060448201526064016107fd565b61073a7f000000000000000000000000000000000000000000000000000000000000000063ffffffff166002548461254091906133d9565b61254a91906136e9565b612555906001613714565b612dcb565b6001600160a01b038316600090815260046020526040812061257d908484612e32565b9050600061258d60038585612e32565b90507f6b53edb1a2d26a789b4466210277239d9ab872345e93a9f6028058e71e64c186858460046000896001600160a01b03166001600160a01b0316815260200190815260200160002085815481106125e8576125e8613434565b600091825260209091200154600380546001600160801b03909216918690811061261457612614613434565b60009182526020918290200154604080516001600160a01b0396909616865261ffff94909416918501919091526001600160801b0391821684840152166060830152519081900360800190a15050505050565b604051631759616b60e11b81526001600160a01b03871690632eb2c2d69061269b9088908890889088908890600401613779565b600060405180830381600087803b1580156126b557600080fd5b505af19250505080156126c6575060015b61278057825160005b8181101561277d57876001600160a01b03166323b872dd88888885815181106126fa576126fa613434565b60209081029190910101516040516001600160e01b031960e086901b1681526001600160a01b0393841660048201529290911660248301526044820152606401600060405180830381600087803b15801561275457600080fd5b505af1158015612768573d6000803e3d6000fd5b5050505080612776906134bc565b90506126cf565b50505b505050505050565b600054600160a01b900460ff16156127b25760405162461bcd60e51b81526004016107fd9061336c565b6002546000036127d45760405162461bcd60e51b81526004016107fd90613396565b336000908152600860205260409020600281015460ff166128075760405162461bcd60e51b81526004016107fd906133f0565b835160008190036128465760405162461bcd60e51b81526020600482015260096024820152686e6f20746f6b656e7360b81b60448201526064016107fd565b6000612851426124b4565b9050600080836001600160401b0381111561286e5761286e61341e565b604051908082528060200260200182016040528015612897578160200160208202803683370190505b50905060005b84811015612b2a5760008982815181106128b9576128b9613434565b6020026020010151905060008883815181106128d7576128d7613434565b6020026020010151905087600101600083815260200190815260200160002060030160029054906101000a900461ffff1661ffff168661ffff16036129585760405162461bcd60e51b81526020600482015260176024820152763ab739ba30b5b2b2103a37b5b2b71031b7b7b63237bbb760491b60448201526064016107fd565b8754604051637210857960e01b81526004810184905260009183916001600160a01b0390911690637210857990602401602060405180830381865afa1580156129a5573d6000803e3d6000fd5b505050506040513d601f19601f820116820180604052508101906129c99190613669565b6001600160801b03166129dc9190613692565b90506129e881876137d7565b9550806001600160801b0316858581518110612a0657612a06613434565b6020026020010181815250506040518060a001604052808c6001600160a01b03168152602001826001600160801b031681526020018381526020018861ffff168152602001600061ffff1681525089600101600085815260200190815260200160002060008201518160000160006101000a8154816001600160a01b0302191690836001600160a01b0316021790555060208201518160010160006101000a8154816001600160801b0302191690836001600160801b031602179055506040820151816002015560608201518160030160006101000a81548161ffff021916908361ffff16021790555060808201518160030160026101000a81548161ffff021916908361ffff16021790555090505050505080612b23906134bc565b905061289d565b50612b3687838561255a565b6001600160a01b03871660009081526005602052604081205461ffff169003612c2f576000612b85847f0000000000000000000000000000000000000000000000000000000000000000612d5d565b905060405180606001604052808261ffff1681526020016001600380549050612bae91906133d9565b6001600160401b039081168252600060209283018190526001600160a01b038c16815260058352604090819020845181549486015195909201518316600160501b0267ffffffffffffffff60501b1995909316620100000269ffffffffffffffffffff1990941661ffff909216919091179290921792909216919091179055505b84546040517fc8d9c6e9aea799bcdf92999670320f311287a68ca77e07e9c9adf0885253f74891611cf0918a9187916001600160a01b03909116908d9087906137f9565b604051637921219560e11b81526001600160a01b0387169063f242432a90612ca79088908890889088908890600401613841565b600060405180830381600087803b158015612cc157600080fd5b505af1925050508015612cd2575060015b612780576040516323b872dd60e01b81526001600160a01b0386811660048301528581166024830152604482018590528716906323b872dd90606401600060405180830381600087803b158015612d2857600080fd5b505af1158015612d3c573d6000803e3d6000fd5b50505050612780565b600061162d8284613714565b600061162d8284613692565b60008261ffff16600003612daa5760405162461bcd60e51b81526020600482015260146024820152736379636c652063616e6e6f74206265207a65726f60601b60448201526064016107fd565b81612db660018561344a565b612dc09190613886565b61162d9060016135d9565b600061ffff821115612e2e5760405162461bcd60e51b815260206004820152602660248201527f53616665436173743a2076616c756520646f65736e27742066697420696e203160448201526536206269747360d01b60648201526084016107fd565b5090565b8254600090818115612eea57612e496001836133d9565b92506000868481548110612e5f57612e5f613434565b60009182526020909120018054909150612e9390612e8e906001600160801b0316600f90810b9089900b612f3f565b612f4b565b815490925061ffff8616600160801b9091046001600160801b031603612ed75780546001600160801b0319166001600160801b03929092169190911790555061162d565b612ee2600185613714565b935050612eed565b50835b604080518082019091526001600160801b03918216815261ffff949094166020808601918252875460018101895560009889529720945190518216600160801b02911617929094019190915592915050565b600061162d82846138a7565b60006001600160801b03821115612e2e5760405162461bcd60e51b815260206004820152602760248201527f53616665436173743a2076616c756520646f65736e27742066697420696e20316044820152663238206269747360c81b60648201526084016107fd565b600060208284031215612fc657600080fd5b81356001600160e01b03198116811461162d57600080fd5b80356001600160a01b0381168114612ff557600080fd5b919050565b6000806040838503121561300d57600080fd5b61301683612fde565b946020939093013593505050565b60008083601f84011261303657600080fd5b5081356001600160401b0381111561304d57600080fd5b6020830191508360208285010111156123f857600080fd5b60008060008060006080868803121561307d57600080fd5b61308686612fde565b945061309460208701612fde565b93506040860135925060608601356001600160401b038111156130b657600080fd5b6130c288828901613024565b969995985093965092949392505050565b6000602082840312156130e557600080fd5b5035919050565b803561ffff81168114612ff557600080fd5b60006020828403121561311057600080fd5b61162d826130ec565b60006020828403121561312b57600080fd5b61162d82612fde565b60008083601f84011261314657600080fd5b5081356001600160401b0381111561315d57600080fd5b6020830191508360208260051b85010111156123f857600080fd5b60008060006040848603121561318d57600080fd5b61319684612fde565b925060208401356001600160401b038111156131b157600080fd5b6131bd86828701613134565b9497909650939450505050565b60008060008060008060008060a0898b0312156131e657600080fd5b6131ef89612fde565b97506131fd60208a01612fde565b965060408901356001600160401b038082111561321957600080fd5b6132258c838d01613134565b909850965060608b013591508082111561323e57600080fd5b61324a8c838d01613134565b909650945060808b013591508082111561326357600080fd5b506132708b828c01613024565b999c989b5096995094979396929594505050565b60008060008060008060a0878903121561329d57600080fd5b6132a687612fde565b95506132b460208801612fde565b9450604087013593506060870135925060808701356001600160401b038111156132dd57600080fd5b6132e989828a01613024565b979a9699509497509295939492505050565b60008060006060848603121561331057600080fd5b613319846130ec565b9250613327602085016130ec565b9150604084013590509250925092565b6020808252818101527f4f776e61626c653a2063616c6c6572206973206e6f7420746865206f776e6572604082015260600190565b60208082526010908201526f14185d5cd8589b194e881c185d5cd95960821b604082015260600190565b6020808252601390820152721cdd185ada5b99c81b9bdd081cdd185c9d1959606a1b604082015260600190565b634e487b7160e01b600052601160045260246000fd5b6000828210156133eb576133eb6133c3565b500390565b60208082526014908201527318dbdb9d1c9858dd081b9bdd08195b98589b195960621b604082015260600190565b634e487b7160e01b600052604160045260246000fd5b634e487b7160e01b600052603260045260246000fd5b600061ffff83811690831681811015613465576134656133c3565b039392505050565b600081600f0b83600f0b600082128260016001607f1b0303821381151615613497576134976133c3565b8260016001607f1b03190382128116156134b3576134b36133c3565b50019392505050565b6000600182016134ce576134ce6133c3565b5060010190565b600081600f0b60016001607f1b031981036134f2576134f26133c3565b60000392915050565b600081518084526020808501945080840160005b8381101561352b5781518752958201959082019060010161350f565b509495945050505050565b6001600160a01b03878116825261ffff871660208301528516604082015260a060608201819052810183905260006001600160fb1b0384111561357857600080fd5b8360051b808660c0850137808301905060c081016000815260c08483030160808501526135a581866134fb565b9a9950505050505050505050565b60006001600160401b038083168181036135cf576135cf6133c3565b6001019392505050565b600061ffff8083168185168083038211156135f6576135f66133c3565b01949350505050565b600061ffff80831681851681830481118215151615613620576136206133c3565b02949350505050565b6001600160a01b03958616815261ffff94909416602085015291909316604083015260608201929092526001600160801b03909116608082015260a00190565b60006020828403121561367b57600080fd5b81516001600160801b038116811461162d57600080fd5b60008160001904831182151516156136ac576136ac6133c3565b500290565b60006001600160401b038083168185168083038211156135f6576135f66133c3565b634e487b7160e01b600052601260045260246000fd5b6000826136f8576136f86136d3565b500490565b600061ffff8083168181036135cf576135cf6133c3565b60008219821115613727576137276133c3565b500190565b6000815180845260005b8181101561375257602081850181015186830182015201613736565b81811115613764576000602083870101525b50601f01601f19169290920160200192915050565b6001600160a01b0386811682528516602082015260a0604082018190526000906137a5908301866134fb565b82810360608401526137b781866134fb565b905082810360808401526137cb818561372c565b98975050505050505050565b60006001600160801b038083168185168083038211156135f6576135f66133c3565b6001600160a01b03868116825261ffff861660208301528416604082015260a06060820181905260009061382f908301856134fb565b82810360808401526137cb81856134fb565b6001600160a01b03868116825285166020820152604081018490526060810183905260a06080820181905260009061387b9083018461372c565b979650505050505050565b600061ffff8084168061389b5761389b6136d3565b92169190910492915050565b600080821280156001600160ff1b03849003851316156138c9576138c96133c3565b600160ff1b83900384128116156138e2576138e26133c3565b5050019056fea264697066735822122085bec9cb9d937c1a30668e27bc4be65ce6e5670d1a2368ad1dfbb4180e6b3f8964736f6c634300080d0033",
  "linkReferences": {},
  "deployedLinkReferences": {}
}