{
  "_format": "hh-sol-artifact-1",
  "contractName": "Affiliate",
  "sourceName": "contracts/Affiliate.sol",
  "abi": [
    {
      "inputs": [
        {
          "internalType": "address",
          "name": "_coin",
          "type": "address"
        }
      ],
      "stateMutability": "nonpayable",
      "type": "constructor"
    },
    {
      "anonymous": false,
      "inputs": [
        {
          "indexed": false,
          "internalType": "address",
          "name": "account",
          "type": "address"
        }
      ],
      "name": "Paused",
      "type": "event"
    },
    {
      "anonymous": false,
      "inputs": [
        {
          "indexed": true,
          "internalType": "bytes32",
          "name": "role",
          "type": "bytes32"
        },
        {
          "indexed": true,
          "internalType": "bytes32",
          "name": "previousAdminRole",
          "type": "bytes32"
        },
        {
          "indexed": true,
          "internalType": "bytes32",
          "name": "newAdminRole",
          "type": "bytes32"
        }
      ],
      "name": "RoleAdminChanged",
      "type": "event"
    },
    {
      "anonymous": false,
      "inputs": [
        {
          "indexed": true,
          "internalType": "bytes32",
          "name": "role",
          "type": "bytes32"
        },
        {
          "indexed": true,
          "internalType": "address",
          "name": "account",
          "type": "address"
        },
        {
          "indexed": true,
          "internalType": "address",
          "name": "sender",
          "type": "address"
        }
      ],
      "name": "RoleGranted",
      "type": "event"
    },
    {
      "anonymous": false,
      "inputs": [
        {
          "indexed": true,
          "internalType": "bytes32",
          "name": "role",
          "type": "bytes32"
        },
        {
          "indexed": true,
          "internalType": "address",
          "name": "account",
          "type": "address"
        },
        {
          "indexed": true,
          "internalType": "address",
          "name": "sender",
          "type": "address"
        }
      ],
      "name": "RoleRevoked",
      "type": "event"
    },
    {
      "anonymous": false,
      "inputs": [
        {
          "indexed": false,
          "internalType": "address",
          "name": "account",
          "type": "address"
        }
      ],
      "name": "Unpaused",
      "type": "event"
    },
    {
      "inputs": [],
      "name": "ADMIN",
      "outputs": [
        {
          "internalType": "bytes32",
          "name": "",
          "type": "bytes32"
        }
      ],
      "stateMutability": "view",
      "type": "function"
    },
    {
      "inputs": [],
      "name": "DEFAULT_ADMIN_ROLE",
      "outputs": [
        {
          "internalType": "bytes32",
          "name": "",
          "type": "bytes32"
        }
      ],
      "stateMutability": "view",
      "type": "function"
    },
    {
      "inputs": [
        {
          "internalType": "address",
          "name": "kontrakt",
          "type": "address"
        },
        {
          "internalType": "uint256",
          "name": "gas",
          "type": "uint256"
        }
      ],
      "name": "allowContractToReward",
      "outputs": [],
      "stateMutability": "nonpayable",
      "type": "function"
    },
    {
      "inputs": [
        {
          "internalType": "address",
          "name": "",
          "type": "address"
        }
      ],
      "name": "balances",
      "outputs": [
        {
          "internalType": "uint256",
          "name": "",
          "type": "uint256"
        }
      ],
      "stateMutability": "view",
      "type": "function"
    },
    {
      "inputs": [],
      "name": "coin",
      "outputs": [
        {
          "internalType": "contract ICoin",
          "name": "",
          "type": "address"
        }
      ],
      "stateMutability": "view",
      "type": "function"
    },
    {
      "inputs": [
        {
          "internalType": "bytes32",
          "name": "role",
          "type": "bytes32"
        }
      ],
      "name": "getRoleAdmin",
      "outputs": [
        {
          "internalType": "bytes32",
          "name": "",
          "type": "bytes32"
        }
      ],
      "stateMutability": "view",
      "type": "function"
    },
    {
      "inputs": [
        {
          "internalType": "bytes32",
          "name": "role",
          "type": "bytes32"
        },
        {
          "internalType": "address",
          "name": "account",
          "type": "address"
        }
      ],
      "name": "grantRole",
      "outputs": [],
      "stateMutability": "nonpayable",
      "type": "function"
    },
    {
      "inputs": [
        {
          "internalType": "bytes32",
          "name": "role",
          "type": "bytes32"
        },
        {
          "internalType": "address",
          "name": "account",
          "type": "address"
        }
      ],
      "name": "hasRole",
      "outputs": [
        {
          "internalType": "bool",
          "name": "",
          "type": "bool"
        }
      ],
      "stateMutability": "view",
      "type": "function"
    },
    {
      "inputs": [],
      "name": "pause",
      "outputs": [],
      "stateMutability": "nonpayable",
      "type": "function"
    },
    {
      "inputs": [],
      "name": "paused",
      "outputs": [
        {
          "internalType": "bool",
          "name": "",
          "type": "bool"
        }
      ],
      "stateMutability": "view",
      "type": "function"
    },
    {
      "inputs": [
        {
          "internalType": "string",
          "name": "code",
          "type": "string"
        }
      ],
      "name": "register",
      "outputs": [],
      "stateMutability": "nonpayable",
      "type": "function"
    },
    {
      "inputs": [
        {
          "internalType": "address",
          "name": "affiliater",
          "type": "address"
        }
      ],
      "name": "release",
      "outputs": [],
      "stateMutability": "nonpayable",
      "type": "function"
    },
    {
      "inputs": [
        {
          "internalType": "bytes32",
          "name": "role",
          "type": "bytes32"
        },
        {
          "internalType": "address",
          "name": "account",
          "type": "address"
        }
      ],
      "name": "renounceRole",
      "outputs": [],
      "stateMutability": "nonpayable",
      "type": "function"
    },
    {
      "inputs": [
        {
          "internalType": "bytes32",
          "name": "role",
          "type": "bytes32"
        },
        {
          "internalType": "address",
          "name": "account",
          "type": "address"
        }
      ],
      "name": "revokeRole",
      "outputs": [],
      "stateMutability": "nonpayable",
      "type": "function"
    },
    {
      "inputs": [
        {
          "internalType": "string",
          "name": "code",
          "type": "string"
        },
        {
          "internalType": "address",
          "name": "user",
          "type": "address"
        }
      ],
      "name": "reward",
      "outputs": [
        {
          "internalType": "uint256",
          "name": "eth",
          "type": "uint256"
        },
        {
          "internalType": "uint256",
          "name": "bhc",
          "type": "uint256"
        },
        {
          "internalType": "bool",
          "name": "eligible",
          "type": "bool"
        }
      ],
      "stateMutability": "view",
      "type": "function"
    },
    {
      "inputs": [
        {
          "internalType": "address",
          "name": "_affiliate",
          "type": "address"
        },
        {
          "internalType": "uint256",
          "name": "bhc",
          "type": "uint256"
        }
      ],
      "name": "setBalance",
      "outputs": [],
      "stateMutability": "nonpayable",
      "type": "function"
    },
    {
      "inputs": [
        {
          "internalType": "address",
          "name": "_coin",
          "type": "address"
        }
      ],
      "name": "setCoin",
      "outputs": [],
      "stateMutability": "nonpayable",
      "type": "function"
    },
    {
      "inputs": [
        {
          "internalType": "bytes4",
          "name": "interfaceId",
          "type": "bytes4"
        }
      ],
      "name": "supportsInterface",
      "outputs": [
        {
          "internalType": "bool",
          "name": "",
          "type": "bool"
        }
      ],
      "stateMutability": "view",
      "type": "function"
    },
    {
      "inputs": [],
      "name": "unpause",
      "outputs": [],
      "stateMutability": "nonpayable",
      "type": "function"
    },
    {
      "inputs": [
        {
          "internalType": "string",
          "name": "code",
          "type": "string"
        },
        {
          "internalType": "address",
          "name": "user",
          "type": "address"
        }
      ],
      "name": "use",
      "outputs": [
        {
          "internalType": "uint256",
          "name": "eth",
          "type": "uint256"
        },
        {
          "internalType": "uint256",
          "name": "bhc",
          "type": "uint256"
        }
      ],
      "stateMutability": "nonpayable",
      "type": "function"
    }
  ],
  "bytecode": "0x60806040523480156200001157600080fd5b5060405162001a5a38038062001a5a833981016040819052620000349162000409565b6001805460ff191690556200005960008051602062001a3a833981519152336200006b565b62000064816200007b565b50620005ae565b6200007782826200010e565b5050565b60008051602062001a3a833981519152620000978133620001ae565b6001600160a01b038216620000e55760405162461bcd60e51b815260206004820152600f60248201526e696e76616c6964206164647265737360881b60448201526064015b60405180910390fd5b50600180546001600160a01b0390921661010002610100600160a81b0319909216919091179055565b6000828152602081815260408083206001600160a01b038516845290915290205460ff1662000077576000828152602081815260408083206001600160a01b03851684529091529020805460ff191660011790556200016a3390565b6001600160a01b0316816001600160a01b0316837f2f8788117e7eff1d82e926ec794901d17c78024a50270940304540a733656f0d60405160405180910390a45050565b6000828152602081815260408083206001600160a01b038516845290915290205460ff166200007757620001f8816001600160a01b031660146200024960201b62000a771760201c565b6200020e83602062000a7762000249821b17811c565b6040516020016200022192919062000467565b60408051601f198184030181529082905262461bcd60e51b8252620000dc91600401620004e0565b606060006200025a8360026200052b565b620002679060026200054d565b6001600160401b0381111562000281576200028162000568565b6040519080825280601f01601f191660200182016040528015620002ac576020820181803683370190505b509050600360fc1b81600081518110620002ca57620002ca6200057e565b60200101906001600160f81b031916908160001a905350600f60fb1b81600181518110620002fc57620002fc6200057e565b60200101906001600160f81b031916908160001a9053506000620003228460026200052b565b6200032f9060016200054d565b90505b6001811115620003b1576f181899199a1a9b1b9c1cb0b131b232b360811b85600f16601081106200036757620003676200057e565b1a60f81b8282815181106200038057620003806200057e565b60200101906001600160f81b031916908160001a90535060049490941c93620003a98162000594565b905062000332565b508315620004025760405162461bcd60e51b815260206004820181905260248201527f537472696e67733a20686578206c656e67746820696e73756666696369656e746044820152606401620000dc565b9392505050565b6000602082840312156200041c57600080fd5b81516001600160a01b03811681146200040257600080fd5b60005b838110156200045157818101518382015260200162000437565b8381111562000461576000848401525b50505050565b7f416363657373436f6e74726f6c3a206163636f756e7420000000000000000000815260008351620004a181601785016020880162000434565b7001034b99036b4b9b9b4b733903937b6329607d1b6017918401918201528351620004d481602884016020880162000434565b01602801949350505050565b60208152600082518060208401526200050181604085016020870162000434565b601f01601f19169190910160400192915050565b634e487b7160e01b600052601160045260246000fd5b600081600019048311821515161562000548576200054862000515565b500290565b6000821982111562000563576200056362000515565b500190565b634e487b7160e01b600052604160045260246000fd5b634e487b7160e01b600052603260045260246000fd5b600081620005a657620005a662000515565b506000190190565b61147c80620005be6000396000f3fe608060405234801561001057600080fd5b506004361061012c5760003560e01c806382e46b75116100ad578063a4ff7e6f11610071578063a4ff7e6f1461029b578063b5cf9cd8146102ae578063d547741f146102de578063e30443bc146102f1578063f2c298be1461030457600080fd5b806382e46b751461023d5780638456cb591461025057806391d14854146102585780639e8662311461026b578063a217fddf1461029357600080fd5b80632a0acc6a116100f45780632a0acc6a146101ef5780632f2ff15d1461020457806336568abe146102175780633f4ba83a1461022a5780635c975abb1461023257600080fd5b806301ffc9a71461013157806311df9995146101595780631916558714610189578063248a9ca31461019e57806327e235e3146101cf575b600080fd5b61014461013f366004611025565b610317565b60405190151581526020015b60405180910390f35b6001546101719061010090046001600160a01b031681565b6040516001600160a01b039091168152602001610150565b61019c61019736600461106b565b61034e565b005b6101c16101ac366004611086565b60009081526020819052604090206001015490565b604051908152602001610150565b6101c16101dd36600461106b565b60026020526000908152604090205481565b6101c160008051602061142783398151915281565b61019c61021236600461109f565b610488565b61019c61022536600461109f565b6104b3565b61019c610531565b60015460ff16610144565b61019c61024b36600461106b565b610555565b61019c6105bd565b61014461026636600461109f565b6105de565b61027e61027936600461116e565b610607565b60408051928352602083019190915201610150565b6101c1600081565b61019c6102a93660046111b3565b61074c565b6102c16102bc36600461116e565b6107e9565b604080519384526020840192909252151590820152606001610150565b61019c6102ec36600461109f565b610866565b61019c6102ff3660046111b3565b61088c565b61019c6103123660046111dd565b6108e8565b60006001600160e01b03198216637965db0b60e01b148061034857506301ffc9a760e01b6001600160e01b03198316145b92915050565b6001600160a01b038116600090815260026020526040812054908190036103ab5760405162461bcd60e51b815260206004820152600c60248201526b7a65726f2062616c616e636560a01b60448201526064015b60405180910390fd5b6001546040516323b872dd60e01b81526001600160a01b036101009092048216600482018190529184166024820152604481018390526323b872dd906064016020604051808303816000875af1158015610409573d6000803e3d6000fd5b505050506040513d601f19601f8201168201806040525081019061042d919061121a565b61046d5760405162461bcd60e51b815260206004820152601160248201527018dbdd5b19081b9bdd081899481c185a59607a1b60448201526064016103a2565b506001600160a01b0316600090815260026020526040812055565b6000828152602081905260409020600101546104a48133610c1a565b6104ae8383610c7e565b505050565b6001600160a01b03811633146105235760405162461bcd60e51b815260206004820152602f60248201527f416363657373436f6e74726f6c3a2063616e206f6e6c792072656e6f756e636560448201526e103937b632b9903337b91039b2b63360891b60648201526084016103a2565b61052d8282610d02565b5050565b60008051602061142783398151915261054a8133610c1a565b610552610d67565b50565b60008051602061142783398151915261056e8133610c1a565b6001600160a01b0382166105945760405162461bcd60e51b81526004016103a29061123c565b50600180546001600160a01b0390921661010002610100600160a81b0319909216919091179055565b6000805160206114278339815191526105d68133610c1a565b610552610dfa565b6000918252602082815260408084206001600160a01b0393909316845291905290205460ff1690565b600080600060038560405161061c9190611295565b908152604051908190036020019020546001600160a01b031690508061067d5760405162461bcd60e51b8152602060048201526016602482015275696e76616c696420616666696c6961746520636f646560501b60448201526064016103a2565b6001600160a01b03841660009081526006602052604090205460ff16156106de5760405162461bcd60e51b8152602060048201526015602482015274185b1c9958591e481d5cd95908191a5cd8dbdd5b9d605a1b60448201526064016103a2565b6001600160a01b0384166000908152600660205260409020805460ff1916600117905561071061070b3390565b610e73565b6001600160a01b03831660009081526002602052604081208054939650919450849261073d9084906112c7565b92505081905550509250929050565b6000805160206114278339815191526107658133610c1a565b6001600160a01b03831661078b5760405162461bcd60e51b81526004016103a29061123c565b816000036107cc5760405162461bcd60e51b815260206004820152600e60248201526d1a5b9d985b1a59081c995dd85c9960921b60448201526064016103a2565b506001600160a01b03909116600090815260056020526040902055565b6000806000806003866040516107ff9190611295565b908152604051908190036020019020546001600160a01b03169050806108305760008060009350935093505061085f565b61083933610e73565b6001600160a01b038716600090815260066020526040902054919550935060ff16159150505b9250925092565b6000828152602081905260409020600101546108828133610c1a565b6104ae8383610d02565b6000805160206114278339815191526108a58133610c1a565b6001600160a01b0383166108cb5760405162461bcd60e51b81526004016103a29061123c565b506001600160a01b03909116600090815260026020526040902055565b60015460ff161561092e5760405162461bcd60e51b815260206004820152601060248201526f14185d5cd8589b194e881c185d5cd95960821b60448201526064016103a2565b6000815111801561094157506014815111155b6109835760405162461bcd60e51b81526020600482015260136024820152720d2dcecc2d8d2c840c6dec8ca40d8cadccee8d606b1b60448201526064016103a2565b60006001600160a01b031660038260405161099e9190611295565b908152604051908190036020019020546001600160a01b0316146109f85760405162461bcd60e51b815260206004820152601160248201527018dbd91948185b1c9958591e481d5cd959607a1b60448201526064016103a2565b33600382604051610a099190611295565b90815260405190819003602001902080546001600160a01b03929092166001600160a01b03199092169190911790558060046000610a443390565b6001600160a01b03166001600160a01b03168152602001908152602001600020908051906020019061052d929190610f8c565b60606000610a868360026112df565b610a919060026112c7565b67ffffffffffffffff811115610aa957610aa96110cb565b6040519080825280601f01601f191660200182016040528015610ad3576020820181803683370190505b509050600360fc1b81600081518110610aee57610aee6112fe565b60200101906001600160f81b031916908160001a905350600f60fb1b81600181518110610b1d57610b1d6112fe565b60200101906001600160f81b031916908160001a9053506000610b418460026112df565b610b4c9060016112c7565b90505b6001811115610bc4576f181899199a1a9b1b9c1cb0b131b232b360811b85600f1660108110610b8057610b806112fe565b1a60f81b828281518110610b9657610b966112fe565b60200101906001600160f81b031916908160001a90535060049490941c93610bbd81611314565b9050610b4f565b508315610c135760405162461bcd60e51b815260206004820181905260248201527f537472696e67733a20686578206c656e67746820696e73756666696369656e7460448201526064016103a2565b9392505050565b610c2482826105de565b61052d57610c3c816001600160a01b03166014610a77565b610c47836020610a77565b604051602001610c5892919061132b565b60408051601f198184030181529082905262461bcd60e51b82526103a2916004016113a0565b610c8882826105de565b61052d576000828152602081815260408083206001600160a01b03851684529091529020805460ff19166001179055610cbe3390565b6001600160a01b0316816001600160a01b0316837f2f8788117e7eff1d82e926ec794901d17c78024a50270940304540a733656f0d60405160405180910390a45050565b610d0c82826105de565b1561052d576000828152602081815260408083206001600160a01b0385168085529252808320805460ff1916905551339285917ff6391f5c32d9c69d2a47ea670b442974b53935d1edc7fd64eb21e047a839171b9190a45050565b60015460ff16610db05760405162461bcd60e51b815260206004820152601460248201527314185d5cd8589b194e881b9bdd081c185d5cd95960621b60448201526064016103a2565b6001805460ff191690557f5db9ee0a495bf2e6ff9c91a7834c1ba4fdd244a5e8aa4e537bd38aeae4b073aa335b6040516001600160a01b03909116815260200160405180910390a1565b60015460ff1615610e405760405162461bcd60e51b815260206004820152601060248201526f14185d5cd8589b194e881c185d5cd95960821b60448201526064016103a2565b6001805460ff1916811790557f62e78cea01bee320cd4e420270b5ea74000d11b0c9f74754ebdbfc544b05a25833610ddd565b6000806001600160a01b038316610e9c5760405162461bcd60e51b81526004016103a29061123c565b6001600160a01b0383166000908152600560205260408120549003610ed35760405162461bcd60e51b81526004016103a29061123c565b610f0660003a11610ee5576001610ee7565b3a5b6001600160a01b03851660009081526005602052604090205490610f80565b60015460405163cd7724c360e01b81526004810183905291935061010090046001600160a01b03169063cd7724c390602401602060405180830381865afa158015610f55573d6000803e3d6000fd5b505050506040513d601f19601f82011682018060405250810190610f7991906113d3565b9050915091565b6000610c1382846112df565b828054610f98906113ec565b90600052602060002090601f016020900481019282610fba5760008555611000565b82601f10610fd357805160ff1916838001178555611000565b82800160010185558215611000579182015b82811115611000578251825591602001919060010190610fe5565b5061100c929150611010565b5090565b5b8082111561100c5760008155600101611011565b60006020828403121561103757600080fd5b81356001600160e01b031981168114610c1357600080fd5b80356001600160a01b038116811461106657600080fd5b919050565b60006020828403121561107d57600080fd5b610c138261104f565b60006020828403121561109857600080fd5b5035919050565b600080604083850312156110b257600080fd5b823591506110c26020840161104f565b90509250929050565b634e487b7160e01b600052604160045260246000fd5b600082601f8301126110f257600080fd5b813567ffffffffffffffff8082111561110d5761110d6110cb565b604051601f8301601f19908116603f01168101908282118183101715611135576111356110cb565b8160405283815286602085880101111561114e57600080fd5b836020870160208301376000602085830101528094505050505092915050565b6000806040838503121561118157600080fd5b823567ffffffffffffffff81111561119857600080fd5b6111a4858286016110e1565b9250506110c26020840161104f565b600080604083850312156111c657600080fd5b6111cf8361104f565b946020939093013593505050565b6000602082840312156111ef57600080fd5b813567ffffffffffffffff81111561120657600080fd5b611212848285016110e1565b949350505050565b60006020828403121561122c57600080fd5b81518015158114610c1357600080fd5b6020808252600f908201526e696e76616c6964206164647265737360881b604082015260600190565b60005b83811015611280578181015183820152602001611268565b8381111561128f576000848401525b50505050565b600082516112a7818460208701611265565b9190910192915050565b634e487b7160e01b600052601160045260246000fd5b600082198211156112da576112da6112b1565b500190565b60008160001904831182151516156112f9576112f96112b1565b500290565b634e487b7160e01b600052603260045260246000fd5b600081611323576113236112b1565b506000190190565b7f416363657373436f6e74726f6c3a206163636f756e7420000000000000000000815260008351611363816017850160208801611265565b7001034b99036b4b9b9b4b733903937b6329607d1b6017918401918201528351611394816028840160208801611265565b01602801949350505050565b60208152600082518060208401526113bf816040850160208701611265565b601f01601f19169190910160400192915050565b6000602082840312156113e557600080fd5b5051919050565b600181811c9082168061140057607f821691505b60208210810361142057634e487b7160e01b600052602260045260246000fd5b5091905056fedf8b4c520ffe197c5343c6f5aec59570151ef9a492f2c624fd45ddde6135ec42a2646970667358221220ed3b39ef978f26bc89f448c80af292c6e6cd44f33b407e57324eaca198ea23ac64736f6c634300080d0033df8b4c520ffe197c5343c6f5aec59570151ef9a492f2c624fd45ddde6135ec42",
  "linkReferences": {},
  "deployedLinkReferences": {}
}