{
  "_format": "hh-sol-artifact-1",
  "contractName": "Affiliate",
  "sourceName": "contracts/Affiliate.sol",
  "abi": [
    {
      "inputs": [
        {
          "internalType": "address",
          "name": "_coin",
          "type": "address"
        }
      ],
      "stateMutability": "nonpayable",
      "type": "constructor"
    },
    {
      "anonymous": false,
      "inputs": [
        {
          "indexed": true,
          "internalType": "address",
          "name": "previousOwner",
          "type": "address"
        },
        {
          "indexed": true,
          "internalType": "address",
          "name": "newOwner",
          "type": "address"
        }
      ],
      "name": "OwnershipTransferred",
      "type": "event"
    },
    {
      "anonymous": false,
      "inputs": [
        {
          "indexed": false,
          "internalType": "address",
          "name": "account",
          "type": "address"
        }
      ],
      "name": "Paused",
      "type": "event"
    },
    {
      "anonymous": false,
      "inputs": [
        {
          "indexed": false,
          "internalType": "address",
          "name": "account",
          "type": "address"
        }
      ],
      "name": "Unpaused",
      "type": "event"
    },
    {
      "inputs": [
        {
          "internalType": "address",
          "name": "addr",
          "type": "address"
        },
        {
          "internalType": "uint256",
          "name": "gas",
          "type": "uint256"
        }
      ],
      "name": "allowRewarding",
      "outputs": [],
      "stateMutability": "nonpayable",
      "type": "function"
    },
    {
      "inputs": [
        {
          "internalType": "address",
          "name": "",
          "type": "address"
        }
      ],
      "name": "balances",
      "outputs": [
        {
          "internalType": "uint256",
          "name": "",
          "type": "uint256"
        }
      ],
      "stateMutability": "view",
      "type": "function"
    },
    {
      "inputs": [],
      "name": "coin",
      "outputs": [
        {
          "internalType": "contract ICoin",
          "name": "",
          "type": "address"
        }
      ],
      "stateMutability": "view",
      "type": "function"
    },
    {
      "inputs": [],
      "name": "owner",
      "outputs": [
        {
          "internalType": "address",
          "name": "",
          "type": "address"
        }
      ],
      "stateMutability": "view",
      "type": "function"
    },
    {
      "inputs": [],
      "name": "pause",
      "outputs": [],
      "stateMutability": "nonpayable",
      "type": "function"
    },
    {
      "inputs": [],
      "name": "paused",
      "outputs": [
        {
          "internalType": "bool",
          "name": "",
          "type": "bool"
        }
      ],
      "stateMutability": "view",
      "type": "function"
    },
    {
      "inputs": [
        {
          "internalType": "string",
          "name": "code",
          "type": "string"
        }
      ],
      "name": "register",
      "outputs": [],
      "stateMutability": "nonpayable",
      "type": "function"
    },
    {
      "inputs": [
        {
          "internalType": "address",
          "name": "affiliater",
          "type": "address"
        }
      ],
      "name": "release",
      "outputs": [],
      "stateMutability": "nonpayable",
      "type": "function"
    },
    {
      "inputs": [],
      "name": "renounceOwnership",
      "outputs": [],
      "stateMutability": "nonpayable",
      "type": "function"
    },
    {
      "inputs": [
        {
          "internalType": "string",
          "name": "code",
          "type": "string"
        }
      ],
      "name": "reward",
      "outputs": [
        {
          "internalType": "uint256",
          "name": "",
          "type": "uint256"
        }
      ],
      "stateMutability": "nonpayable",
      "type": "function"
    },
    {
      "inputs": [
        {
          "internalType": "address",
          "name": "newOwner",
          "type": "address"
        }
      ],
      "name": "transferOwnership",
      "outputs": [],
      "stateMutability": "nonpayable",
      "type": "function"
    },
    {
      "inputs": [],
      "name": "unpause",
      "outputs": [],
      "stateMutability": "nonpayable",
      "type": "function"
    }
  ],
  "bytecode": "0x60a060405234801561001057600080fd5b50604051610c83380380610c8383398101604081905261002f916100a6565b61003833610056565b6000805460ff60a01b191690556001600160a01b03166080526100d6565b600080546001600160a01b038381166001600160a01b0319831681178455604051919092169283917f8be0079c531659141344cd1fd0a4f28419497f9722a3daafe3b4186f6b6457e09190a35050565b6000602082840312156100b857600080fd5b81516001600160a01b03811681146100cf57600080fd5b9392505050565b608051610b8c6100f76000396000818160be01526102460152610b8c6000f3fe608060405234801561001057600080fd5b50600436106100b45760003560e01c80635c975abb116100715780635c975abb1461016e578063715018a61461018b5780638456cb59146101935780638da5cb5b1461019b578063f2c298be146101ac578063f2fde38b146101bf57600080fd5b806311df9995146100b957806319165587146100fd57806327b0229e1461011257806327e235e31461013357806334a1134b146101535780633f4ba83a14610166575b600080fd5b6100e07f000000000000000000000000000000000000000000000000000000000000000081565b6040516001600160a01b0390911681526020015b60405180910390f35b61011061010b366004610964565b6101d2565b005b61012561012036600461099c565b610325565b6040519081526020016100f4565b610125610141366004610964565b60016020526000908152604090205481565b610110610161366004610a4d565b6104b6565b610110610544565b600054600160a01b900460ff1660405190151581526020016100f4565b610110610578565b6101106105ac565b6000546001600160a01b03166100e0565b6101106101ba36600461099c565b6105de565b6101106101cd366004610964565b610738565b6001600160a01b0381166000908152600160205260408120549081900361022f5760405162461bcd60e51b815260206004820152600c60248201526b7a65726f2062616c616e636560a01b60448201526064015b60405180910390fd5b6040516323b872dd60e01b81526001600160a01b037f0000000000000000000000000000000000000000000000000000000000000000811660048301819052908416602483015260448201839052906323b872dd906064016020604051808303816000875af11580156102a6573d6000803e3d6000fd5b505050506040513d601f19601f820116820180604052508101906102ca9190610a77565b61030a5760405162461bcd60e51b815260206004820152601160248201527018dbdd5b19081b9bdd081899481c185a59607a1b6044820152606401610226565b506001600160a01b0316600090815260016020526040812055565b6000806002836040516103389190610a99565b908152604051908190036020019020546001600160a01b03169050806103995760405162461bcd60e51b8152602060048201526016602482015275696e76616c696420616666696c6961746520636f646560501b6044820152606401610226565b33600090815260036020526040812054908190036103ec5760405162461bcd60e51b815260206004820152601060248201526f34b73b30b634b2103932bbb0b93232b960811b6044820152606401610226565b6001600160a01b03821660009081526004602052604090205460ff161561044d5760405162461bcd60e51b8152602060048201526015602482015274185b1c9958591e481d5cd95908191a5cd8dbdd5b9d605a1b6044820152606401610226565b60006104593a83610aea565b6001600160a01b038416600090815260016020526040812080549293508392909190610486908490610b09565b90915550506001600160a01b039092166000908152600460205260409020805460ff191660011790555092915050565b6000546001600160a01b031633146104e05760405162461bcd60e51b815260040161022690610b21565b6001600160a01b0382166105285760405162461bcd60e51b815260206004820152600f60248201526e696e76616c6964206164647265737360881b6044820152606401610226565b6001600160a01b03909116600090815260036020526040902055565b6000546001600160a01b0316331461056e5760405162461bcd60e51b815260040161022690610b21565b6105766107d3565b565b6000546001600160a01b031633146105a25760405162461bcd60e51b815260040161022690610b21565b6105766000610870565b6000546001600160a01b031633146105d65760405162461bcd60e51b815260040161022690610b21565b6105766108c0565b600054600160a01b900460ff161561062b5760405162461bcd60e51b815260206004820152601060248201526f14185d5cd8589b194e881c185d5cd95960821b6044820152606401610226565b6000815111801561063e57506014815111155b6106805760405162461bcd60e51b81526020600482015260136024820152720d2dcecc2d8d2c840c6dec8ca40d8cadccee8d606b1b6044820152606401610226565b60006001600160a01b031660028260405161069b9190610a99565b908152604051908190036020019020546001600160a01b0316146106f55760405162461bcd60e51b815260206004820152601160248201527018dbd91948185b1c9958591e481d5cd959607a1b6044820152606401610226565b336002826040516107069190610a99565b90815260405190819003602001902080546001600160a01b03929092166001600160a01b031990921691909117905550565b6000546001600160a01b031633146107625760405162461bcd60e51b815260040161022690610b21565b6001600160a01b0381166107c75760405162461bcd60e51b815260206004820152602660248201527f4f776e61626c653a206e6577206f776e657220697320746865207a65726f206160448201526564647265737360d01b6064820152608401610226565b6107d081610870565b50565b600054600160a01b900460ff166108235760405162461bcd60e51b815260206004820152601460248201527314185d5cd8589b194e881b9bdd081c185d5cd95960621b6044820152606401610226565b6000805460ff60a01b191690557f5db9ee0a495bf2e6ff9c91a7834c1ba4fdd244a5e8aa4e537bd38aeae4b073aa335b6040516001600160a01b03909116815260200160405180910390a1565b600080546001600160a01b038381166001600160a01b0319831681178455604051919092169283917f8be0079c531659141344cd1fd0a4f28419497f9722a3daafe3b4186f6b6457e09190a35050565b600054600160a01b900460ff161561090d5760405162461bcd60e51b815260206004820152601060248201526f14185d5cd8589b194e881c185d5cd95960821b6044820152606401610226565b6000805460ff60a01b1916600160a01b1790557f62e78cea01bee320cd4e420270b5ea74000d11b0c9f74754ebdbfc544b05a2586108533390565b80356001600160a01b038116811461095f57600080fd5b919050565b60006020828403121561097657600080fd5b61097f82610948565b9392505050565b634e487b7160e01b600052604160045260246000fd5b6000602082840312156109ae57600080fd5b813567ffffffffffffffff808211156109c657600080fd5b818401915084601f8301126109da57600080fd5b8135818111156109ec576109ec610986565b604051601f8201601f19908116603f01168101908382118183101715610a1457610a14610986565b81604052828152876020848701011115610a2d57600080fd5b826020860160208301376000928101602001929092525095945050505050565b60008060408385031215610a6057600080fd5b610a6983610948565b946020939093013593505050565b600060208284031215610a8957600080fd5b8151801515811461097f57600080fd5b6000825160005b81811015610aba5760208186018101518583015201610aa0565b81811115610ac9576000828501525b509190910192915050565b634e487b7160e01b600052601160045260246000fd5b6000816000190483118215151615610b0457610b04610ad4565b500290565b60008219821115610b1c57610b1c610ad4565b500190565b6020808252818101527f4f776e61626c653a2063616c6c6572206973206e6f7420746865206f776e657260408201526060019056fea26469706673582212203790c1f00f198ab3edc18a5ab052eba36ef1013665032a3beda91676cd53fa6364736f6c634300080d0033",
  "linkReferences": {},
  "deployedLinkReferences": {}
}