{
  "_format": "hh-sol-artifact-1",
  "contractName": "Affiliate",
  "sourceName": "contracts/Affiliate.sol",
  "abi": [
    {
      "inputs": [
        {
          "internalType": "address",
          "name": "_coin",
          "type": "address"
        }
      ],
      "stateMutability": "nonpayable",
      "type": "constructor"
    },
    {
      "anonymous": false,
      "inputs": [
        {
          "indexed": false,
          "internalType": "address",
          "name": "account",
          "type": "address"
        }
      ],
      "name": "Paused",
      "type": "event"
    },
    {
      "anonymous": false,
      "inputs": [
        {
          "indexed": true,
          "internalType": "bytes32",
          "name": "role",
          "type": "bytes32"
        },
        {
          "indexed": true,
          "internalType": "bytes32",
          "name": "previousAdminRole",
          "type": "bytes32"
        },
        {
          "indexed": true,
          "internalType": "bytes32",
          "name": "newAdminRole",
          "type": "bytes32"
        }
      ],
      "name": "RoleAdminChanged",
      "type": "event"
    },
    {
      "anonymous": false,
      "inputs": [
        {
          "indexed": true,
          "internalType": "bytes32",
          "name": "role",
          "type": "bytes32"
        },
        {
          "indexed": true,
          "internalType": "address",
          "name": "account",
          "type": "address"
        },
        {
          "indexed": true,
          "internalType": "address",
          "name": "sender",
          "type": "address"
        }
      ],
      "name": "RoleGranted",
      "type": "event"
    },
    {
      "anonymous": false,
      "inputs": [
        {
          "indexed": true,
          "internalType": "bytes32",
          "name": "role",
          "type": "bytes32"
        },
        {
          "indexed": true,
          "internalType": "address",
          "name": "account",
          "type": "address"
        },
        {
          "indexed": true,
          "internalType": "address",
          "name": "sender",
          "type": "address"
        }
      ],
      "name": "RoleRevoked",
      "type": "event"
    },
    {
      "anonymous": false,
      "inputs": [
        {
          "indexed": false,
          "internalType": "address",
          "name": "account",
          "type": "address"
        }
      ],
      "name": "Unpaused",
      "type": "event"
    },
    {
      "inputs": [],
      "name": "ADMIN",
      "outputs": [
        {
          "internalType": "bytes32",
          "name": "",
          "type": "bytes32"
        }
      ],
      "stateMutability": "view",
      "type": "function"
    },
    {
      "inputs": [],
      "name": "DEFAULT_ADMIN_ROLE",
      "outputs": [
        {
          "internalType": "bytes32",
          "name": "",
          "type": "bytes32"
        }
      ],
      "stateMutability": "view",
      "type": "function"
    },
    {
      "inputs": [],
      "name": "REWARDER",
      "outputs": [
        {
          "internalType": "bytes32",
          "name": "",
          "type": "bytes32"
        }
      ],
      "stateMutability": "view",
      "type": "function"
    },
    {
      "inputs": [
        {
          "internalType": "address",
          "name": "addr",
          "type": "address"
        },
        {
          "internalType": "uint256",
          "name": "gas",
          "type": "uint256"
        }
      ],
      "name": "allowRewarding",
      "outputs": [],
      "stateMutability": "nonpayable",
      "type": "function"
    },
    {
      "inputs": [
        {
          "internalType": "address",
          "name": "",
          "type": "address"
        }
      ],
      "name": "balances",
      "outputs": [
        {
          "internalType": "uint256",
          "name": "",
          "type": "uint256"
        }
      ],
      "stateMutability": "view",
      "type": "function"
    },
    {
      "inputs": [],
      "name": "coin",
      "outputs": [
        {
          "internalType": "contract ICoin",
          "name": "",
          "type": "address"
        }
      ],
      "stateMutability": "view",
      "type": "function"
    },
    {
      "inputs": [
        {
          "internalType": "bytes32",
          "name": "role",
          "type": "bytes32"
        }
      ],
      "name": "getRoleAdmin",
      "outputs": [
        {
          "internalType": "bytes32",
          "name": "",
          "type": "bytes32"
        }
      ],
      "stateMutability": "view",
      "type": "function"
    },
    {
      "inputs": [
        {
          "internalType": "bytes32",
          "name": "role",
          "type": "bytes32"
        },
        {
          "internalType": "address",
          "name": "account",
          "type": "address"
        }
      ],
      "name": "grantRole",
      "outputs": [],
      "stateMutability": "nonpayable",
      "type": "function"
    },
    {
      "inputs": [
        {
          "internalType": "bytes32",
          "name": "role",
          "type": "bytes32"
        },
        {
          "internalType": "address",
          "name": "account",
          "type": "address"
        }
      ],
      "name": "hasRole",
      "outputs": [
        {
          "internalType": "bool",
          "name": "",
          "type": "bool"
        }
      ],
      "stateMutability": "view",
      "type": "function"
    },
    {
      "inputs": [],
      "name": "pause",
      "outputs": [],
      "stateMutability": "nonpayable",
      "type": "function"
    },
    {
      "inputs": [],
      "name": "paused",
      "outputs": [
        {
          "internalType": "bool",
          "name": "",
          "type": "bool"
        }
      ],
      "stateMutability": "view",
      "type": "function"
    },
    {
      "inputs": [
        {
          "internalType": "address",
          "name": "addr",
          "type": "address"
        }
      ],
      "name": "payoff",
      "outputs": [
        {
          "internalType": "uint256",
          "name": "eth",
          "type": "uint256"
        },
        {
          "internalType": "uint256",
          "name": "bhc",
          "type": "uint256"
        }
      ],
      "stateMutability": "view",
      "type": "function"
    },
    {
      "inputs": [
        {
          "internalType": "string",
          "name": "code",
          "type": "string"
        }
      ],
      "name": "register",
      "outputs": [],
      "stateMutability": "nonpayable",
      "type": "function"
    },
    {
      "inputs": [
        {
          "internalType": "address",
          "name": "affiliater",
          "type": "address"
        }
      ],
      "name": "release",
      "outputs": [],
      "stateMutability": "nonpayable",
      "type": "function"
    },
    {
      "inputs": [
        {
          "internalType": "bytes32",
          "name": "role",
          "type": "bytes32"
        },
        {
          "internalType": "address",
          "name": "account",
          "type": "address"
        }
      ],
      "name": "renounceRole",
      "outputs": [],
      "stateMutability": "nonpayable",
      "type": "function"
    },
    {
      "inputs": [
        {
          "internalType": "bytes32",
          "name": "role",
          "type": "bytes32"
        },
        {
          "internalType": "address",
          "name": "account",
          "type": "address"
        }
      ],
      "name": "revokeRole",
      "outputs": [],
      "stateMutability": "nonpayable",
      "type": "function"
    },
    {
      "inputs": [
        {
          "internalType": "string",
          "name": "code",
          "type": "string"
        }
      ],
      "name": "reward",
      "outputs": [
        {
          "internalType": "uint256",
          "name": "",
          "type": "uint256"
        }
      ],
      "stateMutability": "nonpayable",
      "type": "function"
    },
    {
      "inputs": [
        {
          "internalType": "address",
          "name": "_affiliate",
          "type": "address"
        },
        {
          "internalType": "uint256",
          "name": "bhc",
          "type": "uint256"
        }
      ],
      "name": "setBalance",
      "outputs": [],
      "stateMutability": "nonpayable",
      "type": "function"
    },
    {
      "inputs": [
        {
          "internalType": "address",
          "name": "_coin",
          "type": "address"
        }
      ],
      "name": "setCoin",
      "outputs": [],
      "stateMutability": "nonpayable",
      "type": "function"
    },
    {
      "inputs": [
        {
          "internalType": "bytes4",
          "name": "interfaceId",
          "type": "bytes4"
        }
      ],
      "name": "supportsInterface",
      "outputs": [
        {
          "internalType": "bool",
          "name": "",
          "type": "bool"
        }
      ],
      "stateMutability": "view",
      "type": "function"
    },
    {
      "inputs": [],
      "name": "unpause",
      "outputs": [],
      "stateMutability": "nonpayable",
      "type": "function"
    }
  ],
  "bytecode": "0x60806040523480156200001157600080fd5b50604051620019303803806200193083398101604081905262000034916200048f565b6001805460ff19169055620000797f5a8bfb9223d93ad39e310233fff7bc65227887789e6e83c62b12f0dfdd782ec360008051602062001910833981519152620000a6565b620000946000805160206200191083398151915233620000f1565b6200009f8162000101565b5062000634565b600082815260208190526040808220600101805490849055905190918391839186917fbd79b86ffe0ab8e8776151514217cd7cacd52c909f66475c3af44e129f0b00ff9190a4505050565b620000fd828262000194565b5050565b600080516020620019108339815191526200011d813362000234565b6001600160a01b0382166200016b5760405162461bcd60e51b815260206004820152600f60248201526e696e76616c6964206164647265737360881b60448201526064015b60405180910390fd5b50600180546001600160a01b0390921661010002610100600160a81b0319909216919091179055565b6000828152602081815260408083206001600160a01b038516845290915290205460ff16620000fd576000828152602081815260408083206001600160a01b03851684529091529020805460ff19166001179055620001f03390565b6001600160a01b0316816001600160a01b0316837f2f8788117e7eff1d82e926ec794901d17c78024a50270940304540a733656f0d60405160405180910390a45050565b6000828152602081815260408083206001600160a01b038516845290915290205460ff16620000fd576200027e816001600160a01b03166014620002cf60201b620009f81760201c565b62000294836020620009f8620002cf821b17811c565b604051602001620002a7929190620004ed565b60408051601f198184030181529082905262461bcd60e51b8252620001629160040162000566565b60606000620002e0836002620005b1565b620002ed906002620005d3565b6001600160401b03811115620003075762000307620005ee565b6040519080825280601f01601f19166020018201604052801562000332576020820181803683370190505b509050600360fc1b8160008151811062000350576200035062000604565b60200101906001600160f81b031916908160001a905350600f60fb1b8160018151811062000382576200038262000604565b60200101906001600160f81b031916908160001a9053506000620003a8846002620005b1565b620003b5906001620005d3565b90505b600181111562000437576f181899199a1a9b1b9c1cb0b131b232b360811b85600f1660108110620003ed57620003ed62000604565b1a60f81b82828151811062000406576200040662000604565b60200101906001600160f81b031916908160001a90535060049490941c936200042f816200061a565b9050620003b8565b508315620004885760405162461bcd60e51b815260206004820181905260248201527f537472696e67733a20686578206c656e67746820696e73756666696369656e74604482015260640162000162565b9392505050565b600060208284031215620004a257600080fd5b81516001600160a01b03811681146200048857600080fd5b60005b83811015620004d7578181015183820152602001620004bd565b83811115620004e7576000848401525b50505050565b7f416363657373436f6e74726f6c3a206163636f756e742000000000000000000081526000835162000527816017850160208801620004ba565b7001034b99036b4b9b9b4b733903937b6329607d1b60179184019182015283516200055a816028840160208801620004ba565b01602801949350505050565b602081526000825180602084015262000587816040850160208701620004ba565b601f01601f19169190910160400192915050565b634e487b7160e01b600052601160045260246000fd5b6000816000190483118215151615620005ce57620005ce6200059b565b500290565b60008219821115620005e957620005e96200059b565b500190565b634e487b7160e01b600052604160045260246000fd5b634e487b7160e01b600052603260045260246000fd5b6000816200062c576200062c6200059b565b506000190190565b6112cc80620006446000396000f3fe608060405234801561001057600080fd5b50600436106101375760003560e01c80633f4ba83a116100b8578063a217fddf1161007c578063a217fddf1461029c578063c1294224146102a4578063d547741f146102cc578063e30443bc146102df578063f13a7a31146102f2578063f2c298be1461031957600080fd5b80633f4ba83a1461025b5780635c975abb1461026357806382e46b751461026e5780638456cb591461028157806391d148541461028957600080fd5b806327e235e3116100ff57806327e235e3146101ed5780632a0acc6a1461020d5780632f2ff15d1461022257806334a1134b1461023557806336568abe1461024857600080fd5b806301ffc9a71461013c57806311df9995146101645780631916558714610194578063248a9ca3146101a957806327b0229e146101da575b600080fd5b61014f61014a366004610f0d565b61032c565b60405190151581526020015b60405180910390f35b60015461017c9061010090046001600160a01b031681565b6040516001600160a01b03909116815260200161015b565b6101a76101a2366004610f53565b610363565b005b6101cc6101b7366004610f6e565b60009081526020819052604090206001015490565b60405190815260200161015b565b6101cc6101e8366004610f9d565b61049d565b6101cc6101fb366004610f53565b60026020526000908152604090205481565b6101cc60008051602061127783398151915281565b6101a761023036600461104e565b6105e0565b6101a761024336600461107a565b61060b565b6101a761025636600461104e565b6106ba565b6101a7610738565b60015460ff1661014f565b6101a761027c366004610f53565b61075c565b6101a76107c4565b61014f61029736600461104e565b6107e5565b6101cc600081565b6102b76102b2366004610f53565b61080e565b6040805192835260208301919091520161015b565b6101a76102da36600461104e565b610823565b6101a76102ed36600461107a565b610849565b6101cc7f5a8bfb9223d93ad39e310233fff7bc65227887789e6e83c62b12f0dfdd782ec381565b6101a7610327366004610f9d565b6108a5565b60006001600160e01b03198216637965db0b60e01b148061035d57506301ffc9a760e01b6001600160e01b03198316145b92915050565b6001600160a01b038116600090815260026020526040812054908190036103c05760405162461bcd60e51b815260206004820152600c60248201526b7a65726f2062616c616e636560a01b60448201526064015b60405180910390fd5b6001546040516323b872dd60e01b81526001600160a01b036101009092048216600482018190529184166024820152604481018390526323b872dd906064016020604051808303816000875af115801561041e573d6000803e3d6000fd5b505050506040513d601f19601f8201168201806040525081019061044291906110a4565b6104825760405162461bcd60e51b815260206004820152601160248201527018dbdd5b19081b9bdd081899481c185a59607a1b60448201526064016103b7565b506001600160a01b0316600090815260026020526040812055565b6000806003836040516104b091906110f6565b908152604051908190036020019020546001600160a01b03169050806105115760405162461bcd60e51b8152602060048201526016602482015275696e76616c696420616666696c6961746520636f646560501b60448201526064016103b7565b6001600160a01b03811660009081526005602052604090205460ff16156105725760405162461bcd60e51b8152602060048201526015602482015274185b1c9958591e481d5cd95908191a5cd8dbdd5b9d605a1b60448201526064016103b7565b6001600160a01b0381166000908152600560205260408120805460ff19166001179055806105a56105a03390565b610b9b565b6001600160a01b0385166000908152600260205260408120805493955091935083926105d2908490611128565b909155509195945050505050565b6000828152602081905260409020600101546105fc8133610ca8565b6106068383610d0c565b505050565b7f5a8bfb9223d93ad39e310233fff7bc65227887789e6e83c62b12f0dfdd782ec36106368133610ca8565b6001600160a01b03831661065c5760405162461bcd60e51b81526004016103b790611140565b8160000361069d5760405162461bcd60e51b815260206004820152600e60248201526d1a5b9d985b1a59081c995dd85c9960921b60448201526064016103b7565b506001600160a01b03909116600090815260046020526040902055565b6001600160a01b038116331461072a5760405162461bcd60e51b815260206004820152602f60248201527f416363657373436f6e74726f6c3a2063616e206f6e6c792072656e6f756e636560448201526e103937b632b9903337b91039b2b63360891b60648201526084016103b7565b6107348282610d90565b5050565b6000805160206112778339815191526107518133610ca8565b610759610df5565b50565b6000805160206112778339815191526107758133610ca8565b6001600160a01b03821661079b5760405162461bcd60e51b81526004016103b790611140565b50600180546001600160a01b0390921661010002610100600160a81b0319909216919091179055565b6000805160206112778339815191526107dd8133610ca8565b610759610e88565b6000918252602082815260408084206001600160a01b0393909316845291905290205460ff1690565b60008061081a83610b9b565b91509150915091565b60008281526020819052604090206001015461083f8133610ca8565b6106068383610d90565b6000805160206112778339815191526108628133610ca8565b6001600160a01b0383166108885760405162461bcd60e51b81526004016103b790611140565b506001600160a01b03909116600090815260026020526040902055565b60015460ff16156108eb5760405162461bcd60e51b815260206004820152601060248201526f14185d5cd8589b194e881c185d5cd95960821b60448201526064016103b7565b600081511180156108fe57506014815111155b6109405760405162461bcd60e51b81526020600482015260136024820152720d2dcecc2d8d2c840c6dec8ca40d8cadccee8d606b1b60448201526064016103b7565b60006001600160a01b031660038260405161095b91906110f6565b908152604051908190036020019020546001600160a01b0316146109b55760405162461bcd60e51b815260206004820152601160248201527018dbd91948185b1c9958591e481d5cd959607a1b60448201526064016103b7565b336003826040516109c691906110f6565b90815260405190819003602001902080546001600160a01b03929092166001600160a01b031990921691909117905550565b60606000610a07836002611169565b610a12906002611128565b67ffffffffffffffff811115610a2a57610a2a610f87565b6040519080825280601f01601f191660200182016040528015610a54576020820181803683370190505b509050600360fc1b81600081518110610a6f57610a6f611188565b60200101906001600160f81b031916908160001a905350600f60fb1b81600181518110610a9e57610a9e611188565b60200101906001600160f81b031916908160001a9053506000610ac2846002611169565b610acd906001611128565b90505b6001811115610b45576f181899199a1a9b1b9c1cb0b131b232b360811b85600f1660108110610b0157610b01611188565b1a60f81b828281518110610b1757610b17611188565b60200101906001600160f81b031916908160001a90535060049490941c93610b3e8161119e565b9050610ad0565b508315610b945760405162461bcd60e51b815260206004820181905260248201527f537472696e67733a20686578206c656e67746820696e73756666696369656e7460448201526064016103b7565b9392505050565b6000806001600160a01b038316610bc45760405162461bcd60e51b81526004016103b790611140565b6001600160a01b0383166000908152600460205260408120549003610bfb5760405162461bcd60e51b81526004016103b790611140565b610c2e60003a11610c0d576001610c0f565b3a5b6001600160a01b03851660009081526004602052604090205490610f01565b60015460405163cd7724c360e01b81526004810183905291935061010090046001600160a01b03169063cd7724c390602401602060405180830381865afa158015610c7d573d6000803e3d6000fd5b505050506040513d601f19601f82011682018060405250810190610ca191906111b5565b9050915091565b610cb282826107e5565b61073457610cca816001600160a01b031660146109f8565b610cd58360206109f8565b604051602001610ce69291906111ce565b60408051601f198184030181529082905262461bcd60e51b82526103b791600401611243565b610d1682826107e5565b610734576000828152602081815260408083206001600160a01b03851684529091529020805460ff19166001179055610d4c3390565b6001600160a01b0316816001600160a01b0316837f2f8788117e7eff1d82e926ec794901d17c78024a50270940304540a733656f0d60405160405180910390a45050565b610d9a82826107e5565b15610734576000828152602081815260408083206001600160a01b0385168085529252808320805460ff1916905551339285917ff6391f5c32d9c69d2a47ea670b442974b53935d1edc7fd64eb21e047a839171b9190a45050565b60015460ff16610e3e5760405162461bcd60e51b815260206004820152601460248201527314185d5cd8589b194e881b9bdd081c185d5cd95960621b60448201526064016103b7565b6001805460ff191690557f5db9ee0a495bf2e6ff9c91a7834c1ba4fdd244a5e8aa4e537bd38aeae4b073aa335b6040516001600160a01b03909116815260200160405180910390a1565b60015460ff1615610ece5760405162461bcd60e51b815260206004820152601060248201526f14185d5cd8589b194e881c185d5cd95960821b60448201526064016103b7565b6001805460ff1916811790557f62e78cea01bee320cd4e420270b5ea74000d11b0c9f74754ebdbfc544b05a25833610e6b565b6000610b948284611169565b600060208284031215610f1f57600080fd5b81356001600160e01b031981168114610b9457600080fd5b80356001600160a01b0381168114610f4e57600080fd5b919050565b600060208284031215610f6557600080fd5b610b9482610f37565b600060208284031215610f8057600080fd5b5035919050565b634e487b7160e01b600052604160045260246000fd5b600060208284031215610faf57600080fd5b813567ffffffffffffffff80821115610fc757600080fd5b818401915084601f830112610fdb57600080fd5b813581811115610fed57610fed610f87565b604051601f8201601f19908116603f0116810190838211818310171561101557611015610f87565b8160405282815287602084870101111561102e57600080fd5b826020860160208301376000928101602001929092525095945050505050565b6000806040838503121561106157600080fd5b8235915061107160208401610f37565b90509250929050565b6000806040838503121561108d57600080fd5b61109683610f37565b946020939093013593505050565b6000602082840312156110b657600080fd5b81518015158114610b9457600080fd5b60005b838110156110e15781810151838201526020016110c9565b838111156110f0576000848401525b50505050565b600082516111088184602087016110c6565b9190910192915050565b634e487b7160e01b600052601160045260246000fd5b6000821982111561113b5761113b611112565b500190565b6020808252600f908201526e696e76616c6964206164647265737360881b604082015260600190565b600081600019048311821515161561118357611183611112565b500290565b634e487b7160e01b600052603260045260246000fd5b6000816111ad576111ad611112565b506000190190565b6000602082840312156111c757600080fd5b5051919050565b7f416363657373436f6e74726f6c3a206163636f756e74200000000000000000008152600083516112068160178501602088016110c6565b7001034b99036b4b9b9b4b733903937b6329607d1b60179184019182015283516112378160288401602088016110c6565b01602801949350505050565b60208152600082518060208401526112628160408501602087016110c6565b601f01601f1916919091016040019291505056fedf8b4c520ffe197c5343c6f5aec59570151ef9a492f2c624fd45ddde6135ec42a264697066735822122035041dccb65f8a9272bcb10b1b599f51dde9ee31e70cd75aae286953c548699464736f6c634300080d0033df8b4c520ffe197c5343c6f5aec59570151ef9a492f2c624fd45ddde6135ec42",
  "linkReferences": {},
  "deployedLinkReferences": {}
}