{
  "_format": "hh-sol-artifact-1",
  "contractName": "Coin",
  "sourceName": "contracts/Coin.sol",
  "abi": [
    {
      "inputs": [
        {
          "internalType": "uint256",
          "name": "liquidity",
          "type": "uint256"
        }
      ],
      "stateMutability": "nonpayable",
      "type": "constructor"
    },
    {
      "anonymous": false,
      "inputs": [
        {
          "indexed": true,
          "internalType": "address",
          "name": "owner",
          "type": "address"
        },
        {
          "indexed": true,
          "internalType": "address",
          "name": "spender",
          "type": "address"
        },
        {
          "indexed": false,
          "internalType": "uint256",
          "name": "value",
          "type": "uint256"
        }
      ],
      "name": "Approval",
      "type": "event"
    },
    {
      "anonymous": false,
      "inputs": [
        {
          "indexed": true,
          "internalType": "address",
          "name": "delegator",
          "type": "address"
        },
        {
          "indexed": true,
          "internalType": "address",
          "name": "fromDelegate",
          "type": "address"
        },
        {
          "indexed": true,
          "internalType": "address",
          "name": "toDelegate",
          "type": "address"
        }
      ],
      "name": "DelegateChanged",
      "type": "event"
    },
    {
      "anonymous": false,
      "inputs": [
        {
          "indexed": true,
          "internalType": "address",
          "name": "delegate",
          "type": "address"
        },
        {
          "indexed": false,
          "internalType": "uint256",
          "name": "previousBalance",
          "type": "uint256"
        },
        {
          "indexed": false,
          "internalType": "uint256",
          "name": "newBalance",
          "type": "uint256"
        }
      ],
      "name": "DelegateVotesChanged",
      "type": "event"
    },
    {
      "anonymous": false,
      "inputs": [
        {
          "indexed": false,
          "internalType": "address",
          "name": "account",
          "type": "address"
        }
      ],
      "name": "Paused",
      "type": "event"
    },
    {
      "anonymous": false,
      "inputs": [
        {
          "indexed": true,
          "internalType": "bytes32",
          "name": "role",
          "type": "bytes32"
        },
        {
          "indexed": true,
          "internalType": "bytes32",
          "name": "previousAdminRole",
          "type": "bytes32"
        },
        {
          "indexed": true,
          "internalType": "bytes32",
          "name": "newAdminRole",
          "type": "bytes32"
        }
      ],
      "name": "RoleAdminChanged",
      "type": "event"
    },
    {
      "anonymous": false,
      "inputs": [
        {
          "indexed": true,
          "internalType": "bytes32",
          "name": "role",
          "type": "bytes32"
        },
        {
          "indexed": true,
          "internalType": "address",
          "name": "account",
          "type": "address"
        },
        {
          "indexed": true,
          "internalType": "address",
          "name": "sender",
          "type": "address"
        }
      ],
      "name": "RoleGranted",
      "type": "event"
    },
    {
      "anonymous": false,
      "inputs": [
        {
          "indexed": true,
          "internalType": "bytes32",
          "name": "role",
          "type": "bytes32"
        },
        {
          "indexed": true,
          "internalType": "address",
          "name": "account",
          "type": "address"
        },
        {
          "indexed": true,
          "internalType": "address",
          "name": "sender",
          "type": "address"
        }
      ],
      "name": "RoleRevoked",
      "type": "event"
    },
    {
      "anonymous": false,
      "inputs": [
        {
          "indexed": true,
          "internalType": "address",
          "name": "from",
          "type": "address"
        },
        {
          "indexed": true,
          "internalType": "address",
          "name": "to",
          "type": "address"
        },
        {
          "indexed": false,
          "internalType": "uint256",
          "name": "value",
          "type": "uint256"
        }
      ],
      "name": "Transfer",
      "type": "event"
    },
    {
      "anonymous": false,
      "inputs": [
        {
          "indexed": false,
          "internalType": "address",
          "name": "account",
          "type": "address"
        }
      ],
      "name": "Unpaused",
      "type": "event"
    },
    {
      "inputs": [],
      "name": "ADMIN",
      "outputs": [
        {
          "internalType": "bytes32",
          "name": "",
          "type": "bytes32"
        }
      ],
      "stateMutability": "view",
      "type": "function"
    },
    {
      "inputs": [],
      "name": "DEFAULT_ADMIN_ROLE",
      "outputs": [
        {
          "internalType": "bytes32",
          "name": "",
          "type": "bytes32"
        }
      ],
      "stateMutability": "view",
      "type": "function"
    },
    {
      "inputs": [],
      "name": "DISTRIBUTOR",
      "outputs": [
        {
          "internalType": "bytes32",
          "name": "",
          "type": "bytes32"
        }
      ],
      "stateMutability": "view",
      "type": "function"
    },
    {
      "inputs": [],
      "name": "DOMAIN_SEPARATOR",
      "outputs": [
        {
          "internalType": "bytes32",
          "name": "",
          "type": "bytes32"
        }
      ],
      "stateMutability": "view",
      "type": "function"
    },
    {
      "inputs": [],
      "name": "NAME",
      "outputs": [
        {
          "internalType": "string",
          "name": "",
          "type": "string"
        }
      ],
      "stateMutability": "view",
      "type": "function"
    },
    {
      "inputs": [],
      "name": "TICK",
      "outputs": [
        {
          "internalType": "string",
          "name": "",
          "type": "string"
        }
      ],
      "stateMutability": "view",
      "type": "function"
    },
    {
      "inputs": [
        {
          "internalType": "address",
          "name": "owner",
          "type": "address"
        },
        {
          "internalType": "address",
          "name": "spender",
          "type": "address"
        }
      ],
      "name": "allowance",
      "outputs": [
        {
          "internalType": "uint256",
          "name": "",
          "type": "uint256"
        }
      ],
      "stateMutability": "view",
      "type": "function"
    },
    {
      "inputs": [
        {
          "internalType": "address",
          "name": "spender",
          "type": "address"
        },
        {
          "internalType": "uint256",
          "name": "amount",
          "type": "uint256"
        }
      ],
      "name": "approve",
      "outputs": [
        {
          "internalType": "bool",
          "name": "",
          "type": "bool"
        }
      ],
      "stateMutability": "nonpayable",
      "type": "function"
    },
    {
      "inputs": [
        {
          "internalType": "address",
          "name": "account",
          "type": "address"
        }
      ],
      "name": "balanceOf",
      "outputs": [
        {
          "internalType": "uint256",
          "name": "",
          "type": "uint256"
        }
      ],
      "stateMutability": "view",
      "type": "function"
    },
    {
      "inputs": [
        {
          "internalType": "address",
          "name": "burnee",
          "type": "address"
        },
        {
          "internalType": "uint256",
          "name": "amount",
          "type": "uint256"
        }
      ],
      "name": "burn",
      "outputs": [],
      "stateMutability": "nonpayable",
      "type": "function"
    },
    {
      "inputs": [
        {
          "internalType": "address",
          "name": "account",
          "type": "address"
        },
        {
          "internalType": "uint32",
          "name": "pos",
          "type": "uint32"
        }
      ],
      "name": "checkpoints",
      "outputs": [
        {
          "components": [
            {
              "internalType": "uint32",
              "name": "fromBlock",
              "type": "uint32"
            },
            {
              "internalType": "uint224",
              "name": "votes",
              "type": "uint224"
            }
          ],
          "internalType": "struct ERC20Votes.Checkpoint",
          "name": "",
          "type": "tuple"
        }
      ],
      "stateMutability": "view",
      "type": "function"
    },
    {
      "inputs": [],
      "name": "decimals",
      "outputs": [
        {
          "internalType": "uint8",
          "name": "",
          "type": "uint8"
        }
      ],
      "stateMutability": "view",
      "type": "function"
    },
    {
      "inputs": [
        {
          "internalType": "address",
          "name": "spender",
          "type": "address"
        },
        {
          "internalType": "uint256",
          "name": "subtractedValue",
          "type": "uint256"
        }
      ],
      "name": "decreaseAllowance",
      "outputs": [
        {
          "internalType": "bool",
          "name": "",
          "type": "bool"
        }
      ],
      "stateMutability": "nonpayable",
      "type": "function"
    },
    {
      "inputs": [
        {
          "internalType": "address",
          "name": "delegatee",
          "type": "address"
        }
      ],
      "name": "delegate",
      "outputs": [],
      "stateMutability": "nonpayable",
      "type": "function"
    },
    {
      "inputs": [
        {
          "internalType": "address",
          "name": "delegatee",
          "type": "address"
        },
        {
          "internalType": "uint256",
          "name": "nonce",
          "type": "uint256"
        },
        {
          "internalType": "uint256",
          "name": "expiry",
          "type": "uint256"
        },
        {
          "internalType": "uint8",
          "name": "v",
          "type": "uint8"
        },
        {
          "internalType": "bytes32",
          "name": "r",
          "type": "bytes32"
        },
        {
          "internalType": "bytes32",
          "name": "s",
          "type": "bytes32"
        }
      ],
      "name": "delegateBySig",
      "outputs": [],
      "stateMutability": "nonpayable",
      "type": "function"
    },
    {
      "inputs": [
        {
          "internalType": "address",
          "name": "account",
          "type": "address"
        }
      ],
      "name": "delegates",
      "outputs": [
        {
          "internalType": "address",
          "name": "",
          "type": "address"
        }
      ],
      "stateMutability": "view",
      "type": "function"
    },
    {
      "inputs": [
        {
          "internalType": "address",
          "name": "recipient",
          "type": "address"
        },
        {
          "internalType": "uint256",
          "name": "amount",
          "type": "uint256"
        }
      ],
      "name": "distribute",
      "outputs": [],
      "stateMutability": "nonpayable",
      "type": "function"
    },
    {
      "inputs": [
        {
          "internalType": "uint256",
          "name": "blockNumber",
          "type": "uint256"
        }
      ],
      "name": "getPastTotalSupply",
      "outputs": [
        {
          "internalType": "uint256",
          "name": "",
          "type": "uint256"
        }
      ],
      "stateMutability": "view",
      "type": "function"
    },
    {
      "inputs": [
        {
          "internalType": "address",
          "name": "account",
          "type": "address"
        },
        {
          "internalType": "uint256",
          "name": "blockNumber",
          "type": "uint256"
        }
      ],
      "name": "getPastVotes",
      "outputs": [
        {
          "internalType": "uint256",
          "name": "",
          "type": "uint256"
        }
      ],
      "stateMutability": "view",
      "type": "function"
    },
    {
      "inputs": [
        {
          "internalType": "bytes32",
          "name": "role",
          "type": "bytes32"
        }
      ],
      "name": "getRoleAdmin",
      "outputs": [
        {
          "internalType": "bytes32",
          "name": "",
          "type": "bytes32"
        }
      ],
      "stateMutability": "view",
      "type": "function"
    },
    {
      "inputs": [
        {
          "internalType": "address",
          "name": "account",
          "type": "address"
        }
      ],
      "name": "getVotes",
      "outputs": [
        {
          "internalType": "uint256",
          "name": "",
          "type": "uint256"
        }
      ],
      "stateMutability": "view",
      "type": "function"
    },
    {
      "inputs": [
        {
          "internalType": "bytes32",
          "name": "role",
          "type": "bytes32"
        },
        {
          "internalType": "address",
          "name": "account",
          "type": "address"
        }
      ],
      "name": "grantRole",
      "outputs": [],
      "stateMutability": "nonpayable",
      "type": "function"
    },
    {
      "inputs": [
        {
          "internalType": "bytes32",
          "name": "role",
          "type": "bytes32"
        },
        {
          "internalType": "address",
          "name": "account",
          "type": "address"
        }
      ],
      "name": "hasRole",
      "outputs": [
        {
          "internalType": "bool",
          "name": "",
          "type": "bool"
        }
      ],
      "stateMutability": "view",
      "type": "function"
    },
    {
      "inputs": [
        {
          "internalType": "address",
          "name": "spender",
          "type": "address"
        },
        {
          "internalType": "uint256",
          "name": "addedValue",
          "type": "uint256"
        }
      ],
      "name": "increaseAllowance",
      "outputs": [
        {
          "internalType": "bool",
          "name": "",
          "type": "bool"
        }
      ],
      "stateMutability": "nonpayable",
      "type": "function"
    },
    {
      "inputs": [
        {
          "internalType": "address",
          "name": "recipient",
          "type": "address"
        },
        {
          "internalType": "uint256",
          "name": "amount",
          "type": "uint256"
        }
      ],
      "name": "mint",
      "outputs": [],
      "stateMutability": "nonpayable",
      "type": "function"
    },
    {
      "inputs": [],
      "name": "name",
      "outputs": [
        {
          "internalType": "string",
          "name": "",
          "type": "string"
        }
      ],
      "stateMutability": "view",
      "type": "function"
    },
    {
      "inputs": [
        {
          "internalType": "address",
          "name": "owner",
          "type": "address"
        }
      ],
      "name": "nonces",
      "outputs": [
        {
          "internalType": "uint256",
          "name": "",
          "type": "uint256"
        }
      ],
      "stateMutability": "view",
      "type": "function"
    },
    {
      "inputs": [
        {
          "internalType": "address",
          "name": "account",
          "type": "address"
        }
      ],
      "name": "numCheckpoints",
      "outputs": [
        {
          "internalType": "uint32",
          "name": "",
          "type": "uint32"
        }
      ],
      "stateMutability": "view",
      "type": "function"
    },
    {
      "inputs": [],
      "name": "pause",
      "outputs": [],
      "stateMutability": "nonpayable",
      "type": "function"
    },
    {
      "inputs": [],
      "name": "paused",
      "outputs": [
        {
          "internalType": "bool",
          "name": "",
          "type": "bool"
        }
      ],
      "stateMutability": "view",
      "type": "function"
    },
    {
      "inputs": [
        {
          "internalType": "address",
          "name": "owner",
          "type": "address"
        },
        {
          "internalType": "address",
          "name": "spender",
          "type": "address"
        },
        {
          "internalType": "uint256",
          "name": "value",
          "type": "uint256"
        },
        {
          "internalType": "uint256",
          "name": "deadline",
          "type": "uint256"
        },
        {
          "internalType": "uint8",
          "name": "v",
          "type": "uint8"
        },
        {
          "internalType": "bytes32",
          "name": "r",
          "type": "bytes32"
        },
        {
          "internalType": "bytes32",
          "name": "s",
          "type": "bytes32"
        }
      ],
      "name": "permit",
      "outputs": [],
      "stateMutability": "nonpayable",
      "type": "function"
    },
    {
      "inputs": [
        {
          "internalType": "bytes32",
          "name": "role",
          "type": "bytes32"
        },
        {
          "internalType": "address",
          "name": "account",
          "type": "address"
        }
      ],
      "name": "renounceRole",
      "outputs": [],
      "stateMutability": "nonpayable",
      "type": "function"
    },
    {
      "inputs": [
        {
          "internalType": "bytes32",
          "name": "role",
          "type": "bytes32"
        },
        {
          "internalType": "address",
          "name": "account",
          "type": "address"
        }
      ],
      "name": "revokeRole",
      "outputs": [],
      "stateMutability": "nonpayable",
      "type": "function"
    },
    {
      "inputs": [
        {
          "internalType": "bytes4",
          "name": "interfaceId",
          "type": "bytes4"
        }
      ],
      "name": "supportsInterface",
      "outputs": [
        {
          "internalType": "bool",
          "name": "",
          "type": "bool"
        }
      ],
      "stateMutability": "view",
      "type": "function"
    },
    {
      "inputs": [],
      "name": "symbol",
      "outputs": [
        {
          "internalType": "string",
          "name": "",
          "type": "string"
        }
      ],
      "stateMutability": "view",
      "type": "function"
    },
    {
      "inputs": [
        {
          "internalType": "address",
          "name": "owner",
          "type": "address"
        },
        {
          "internalType": "uint256",
          "name": "amount",
          "type": "uint256"
        }
      ],
      "name": "take",
      "outputs": [],
      "stateMutability": "nonpayable",
      "type": "function"
    },
    {
      "inputs": [],
      "name": "totalSupply",
      "outputs": [
        {
          "internalType": "uint256",
          "name": "",
          "type": "uint256"
        }
      ],
      "stateMutability": "view",
      "type": "function"
    },
    {
      "inputs": [
        {
          "internalType": "address",
          "name": "to",
          "type": "address"
        },
        {
          "internalType": "uint256",
          "name": "amount",
          "type": "uint256"
        }
      ],
      "name": "transfer",
      "outputs": [
        {
          "internalType": "bool",
          "name": "",
          "type": "bool"
        }
      ],
      "stateMutability": "nonpayable",
      "type": "function"
    },
    {
      "inputs": [
        {
          "internalType": "address",
          "name": "from",
          "type": "address"
        },
        {
          "internalType": "address",
          "name": "to",
          "type": "address"
        },
        {
          "internalType": "uint256",
          "name": "amount",
          "type": "uint256"
        }
      ],
      "name": "transferFrom",
      "outputs": [
        {
          "internalType": "bool",
          "name": "",
          "type": "bool"
        }
      ],
      "stateMutability": "nonpayable",
      "type": "function"
    },
    {
      "inputs": [],
      "name": "unpause",
      "outputs": [],
      "stateMutability": "nonpayable",
      "type": "function"
    },
    {
      "stateMutability": "payable",
      "type": "receive"
    }
  ],
  "bytecode": "0x6101606040527f6e71edae12b1b97f4d1f60370fef10105fa2faae0126114a169c64845d6126c9610140523480156200003757600080fd5b5060405162003530380380620035308339810160408190526200005a91620009d8565b6040518060400160405280601081526020016f213937ba3432b93437b7b21021b7b4b760811b81525080604051806040016040528060018152602001603160f81b8152506040518060400160405280601081526020016f213937ba3432b93437b7b21021b7b4b760811b8152506040518060400160405280600381526020016242484360e81b8152508160039080519060200190620000fb9291906200093c565b508051620001119060049060208401906200093c565b5050825160209384012082519284019290922060e08390526101008190524660a0818152604080517f8b73c3c69bb8fe3d512ecc4cf759cc79239f7b179b0ffacaa9a75d522b39400f818901819052818301979097526060810194909452608080850193909352308483018190528151808603909301835260c094850190915281519190960120905292909252610120525050600a805460ff19169055620001e97f85faced7bde13e1a7dad704b895f006e704f207617d68166b31ba2d79624862d600080516020620034f083398151915262000243565b62000204600080516020620034f0833981519152336200028e565b620002307f85faced7bde13e1a7dad704b895f006e704f207617d68166b31ba2d79624862d336200028e565b6200023c30826200029e565b5062000a8f565b600082815260096020526040808220600101805490849055905190918391839186917fbd79b86ffe0ab8e8776151514217cd7cacd52c909f66475c3af44e129f0b00ff9190a4505050565b6200029a8282620002b5565b5050565b6200029a82826200035960201b620011201760201c565b60008281526009602090815260408083206001600160a01b038516845290915290205460ff166200029a5760008281526009602090815260408083206001600160a01b03851684529091529020805460ff19166001179055620003153390565b6001600160a01b0316816001600160a01b0316837f2f8788117e7eff1d82e926ec794901d17c78024a50270940304540a733656f0d60405160405180910390a45050565b6200037082826200041060201b620011b01760201c565b6001600160e01b0362000384620004ff8216565b1115620003f15760405162461bcd60e51b815260206004820152603060248201527f4552433230566f7465733a20746f74616c20737570706c79207269736b73206f60448201526f766572666c6f77696e6720766f74657360801b60648201526084015b60405180910390fd5b6200040a6008620012976200050560201b17836200051a565b50505050565b6001600160a01b038216620004685760405162461bcd60e51b815260206004820152601f60248201527f45524332303a206d696e7420746f20746865207a65726f2061646472657373006044820152606401620003e8565b80600260008282546200047c919062000a08565b90915550506001600160a01b03821660009081526020819052604081208054839290620004ab90849062000a08565b90915550506040518181526001600160a01b038316906000907fddf252ad1be2c89b69c2b068fc378daa952ba7f163c4a11628f55a4df523b3ef9060200160405180910390a36200029a60008383620006d1565b60025490565b600062000513828462000a08565b9392505050565b8254600090819080156200056c57856200053660018362000a23565b8154811062000549576200054962000a3d565b60009182526020909120015464010000000090046001600160e01b03166200056f565b60005b6001600160e01b031692506200058683858760201c565b9150600081118015620005ca57504386620005a360018462000a23565b81548110620005b657620005b662000a3d565b60009182526020909120015463ffffffff16145b156200063e57620005e682620006e960201b620012a31760201c565b86620005f460018462000a23565b8154811062000607576200060762000a3d565b9060005260206000200160000160046101000a8154816001600160e01b0302191690836001600160e01b03160217905550620006c3565b85604051806040016040528062000660436200075860201b620013101760201c565b63ffffffff1681526020016200068185620006e960201b620012a31760201c565b6001600160e01b0390811690915282546001810184556000938452602093849020835194909301519091166401000000000263ffffffff909316929092179101555b50935093915050565b505050565b620006cc838383620007bf60201b620013751760201c565b60006001600160e01b03821115620007545760405162461bcd60e51b815260206004820152602760248201527f53616665436173743a2076616c756520646f65736e27742066697420696e20326044820152663234206269747360c81b6064820152608401620003e8565b5090565b600063ffffffff821115620007545760405162461bcd60e51b815260206004820152602660248201527f53616665436173743a2076616c756520646f65736e27742066697420696e203360448201526532206269747360d01b6064820152608401620003e8565b620007d7838383620006cc60201b620009931760201c565b6001600160a01b03838116600090815260066020526040808220548584168352912054620006cc92918216911683818314801590620008165750600081115b15620006cc576001600160a01b03831615620008a3576001600160a01b0383166000908152600760209081526040822082916200086091906200092e901b620013a717856200051a565b91509150846001600160a01b031660008051602062003510833981519152838360405162000898929190918252602082015260400190565b60405180910390a250505b6001600160a01b03821615620006cc576001600160a01b038216600090815260076020908152604082208291620008e7919062000505901b6200129717856200051a565b91509150836001600160a01b03166000805160206200351083398151915283836040516200091f929190918252602082015260400190565b60405180910390a25050505050565b600062000513828462000a23565b8280546200094a9062000a53565b90600052602060002090601f0160209004810192826200096e5760008555620009b9565b82601f106200098957805160ff1916838001178555620009b9565b82800160010185558215620009b9579182015b82811115620009b95782518255916020019190600101906200099c565b50620007549291505b80821115620007545760008155600101620009c2565b600060208284031215620009eb57600080fd5b5051919050565b634e487b7160e01b600052601160045260246000fd5b6000821982111562000a1e5762000a1e620009f2565b500190565b60008282101562000a385762000a38620009f2565b500390565b634e487b7160e01b600052603260045260246000fd5b600181811c9082168062000a6857607f821691505b60208210810362000a8957634e487b7160e01b600052602260045260246000fd5b50919050565b60805160a05160c05160e051610100516101205161014051612a0662000aea6000396000610f420152600061172a0152600061177901526000611754015260006116ad015260006116d7015260006117010152612a066000f3fe60806040526004361061023f5760003560e01c806370a082311161012e578063a3f4df7e116100ab578063d505accf1161006f578063d505accf14610778578063d547741f14610798578063dd62ed3e146107b8578063f1127ed8146107fe578063fb9321081461084857600080fd5b8063a3f4df7e146106ad578063a457c2d7146106e9578063a9059cbb14610709578063bcffa6cd14610729578063c3cda5201461075857600080fd5b806395d89b41116100f257806395d89b41146106215780639ab24eb0146106365780639c26149f146106565780639dc29fac14610678578063a217fddf1461069857600080fd5b806370a08231146105765780637ecebe00146105ac5780638456cb59146105cc5780638e539e8c146105e157806391d148541461060157600080fd5b806336568abe116101bc57806352180208116101805780635218020814610498578063587cde1e146104b85780635c19a95c146105095780635c975abb146105295780636fcfff451461054157600080fd5b806336568abe1461040357806339509351146104235780633a46b1a8146104435780633f4ba83a1461046357806340c10f191461047857600080fd5b8063248a9ca311610203578063248a9ca31461034c5780632a0acc6a1461037c5780632f2ff15d146103b0578063313ce567146103d25780633644e515146103ee57600080fd5b806301ffc9a71461029657806306fdde03146102cb578063095ea7b3146102ed57806318160ddd1461030d57806323b872dd1461032c57600080fd5b366102915760405162461bcd60e51b815260206004820181905260248201527f7468697320636f6e74726163742063616e6e6f7420726563656976652045544860448201526064015b60405180910390fd5b600080fd5b3480156102a257600080fd5b506102b66102b1366004612580565b610868565b60405190151581526020015b60405180910390f35b3480156102d757600080fd5b506102e061089f565b6040516102c291906125d6565b3480156102f957600080fd5b506102b6610308366004612625565b610931565b34801561031957600080fd5b506002545b6040519081526020016102c2565b34801561033857600080fd5b506102b661034736600461264f565b610949565b34801561035857600080fd5b5061031e61036736600461268b565b60009081526009602052604090206001015490565b34801561038857600080fd5b5061031e7fdf8b4c520ffe197c5343c6f5aec59570151ef9a492f2c624fd45ddde6135ec4281565b3480156103bc57600080fd5b506103d06103cb3660046126a4565b61096d565b005b3480156103de57600080fd5b50604051601281526020016102c2565b3480156103fa57600080fd5b5061031e610998565b34801561040f57600080fd5b506103d061041e3660046126a4565b6109a7565b34801561042f57600080fd5b506102b661043e366004612625565b610a25565b34801561044f57600080fd5b5061031e61045e366004612625565b610a64565b34801561046f57600080fd5b506103d0610ade565b34801561048457600080fd5b506103d0610493366004612625565b610b14565b3480156104a457600080fd5b506103d06104b3366004612625565b610b37565b3480156104c457600080fd5b506104f16104d33660046126d0565b6001600160a01b039081166000908152600660205260409020541690565b6040516001600160a01b0390911681526020016102c2565b34801561051557600080fd5b506103d06105243660046126d0565b610b5b565b34801561053557600080fd5b50600a5460ff166102b6565b34801561054d57600080fd5b5061056161055c3660046126d0565b610b65565b60405163ffffffff90911681526020016102c2565b34801561058257600080fd5b5061031e6105913660046126d0565b6001600160a01b031660009081526020819052604090205490565b3480156105b857600080fd5b5061031e6105c73660046126d0565b610b87565b3480156105d857600080fd5b506103d0610ba5565b3480156105ed57600080fd5b5061031e6105fc36600461268b565b610bd8565b34801561060d57600080fd5b506102b661061c3660046126a4565b610c34565b34801561062d57600080fd5b506102e0610c5f565b34801561064257600080fd5b5061031e6106513660046126d0565b610c6e565b34801561066257600080fd5b5061031e6000805160206129b183398151915281565b34801561068457600080fd5b506103d0610693366004612625565b610cf5565b3480156106a457600080fd5b5061031e600081565b3480156106b957600080fd5b506102e06040518060400160405280601081526020016f213937ba3432b93437b7b21021b7b4b760811b81525081565b3480156106f557600080fd5b506102b6610704366004612625565b610d18565b34801561071557600080fd5b506102b6610724366004612625565b610daa565b34801561073557600080fd5b506102e06040518060400160405280600381526020016242484360e81b81525081565b34801561076457600080fd5b506103d06107733660046126fc565b610db8565b34801561078457600080fd5b506103d0610793366004612754565b610eee565b3480156107a457600080fd5b506103d06107b33660046126a4565b611052565b3480156107c457600080fd5b5061031e6107d33660046127be565b6001600160a01b03918216600090815260016020908152604080832093909416825291909152205490565b34801561080a57600080fd5b5061081e6108193660046127e8565b611078565b60408051825163ffffffff1681526020928301516001600160e01b031692810192909252016102c2565b34801561085457600080fd5b506103d0610863366004612625565b6110fc565b60006001600160e01b03198216637965db0b60e01b148061089957506301ffc9a760e01b6001600160e01b03198316145b92915050565b6060600380546108ae90612828565b80601f01602080910402602001604051908101604052809291908181526020018280546108da90612828565b80156109275780601f106108fc57610100808354040283529160200191610927565b820191906000526020600020905b81548152906001019060200180831161090a57829003601f168201915b5050505050905090565b60003361093f8185856113b3565b5060019392505050565b6000336109578582856114d7565b610962858585611563565b506001949350505050565b60008281526009602052604090206001015461098981336115b6565b610993838361161a565b505050565b60006109a26116a0565b905090565b6001600160a01b0381163314610a175760405162461bcd60e51b815260206004820152602f60248201527f416363657373436f6e74726f6c3a2063616e206f6e6c792072656e6f756e636560448201526e103937b632b9903337b91039b2b63360891b6064820152608401610288565b610a2182826117c7565b5050565b3360008181526001602090815260408083206001600160a01b038716845290915281205490919061093f9082908690610a5f908790612872565b6113b3565b6000438210610ab55760405162461bcd60e51b815260206004820152601f60248201527f4552433230566f7465733a20626c6f636b206e6f7420796574206d696e6564006044820152606401610288565b6001600160a01b0383166000908152600760205260409020610ad7908361182e565b9392505050565b7fdf8b4c520ffe197c5343c6f5aec59570151ef9a492f2c624fd45ddde6135ec42610b0981336115b6565b610b116118eb565b50565b6000805160206129b1833981519152610b2d81336115b6565b610993838361197e565b6000805160206129b1833981519152610b5081336115b6565b610993833084611563565b610b113382611988565b6001600160a01b03811660009081526007602052604081205461089990611310565b6001600160a01b038116600090815260056020526040812054610899565b7fdf8b4c520ffe197c5343c6f5aec59570151ef9a492f2c624fd45ddde6135ec42610bd081336115b6565b610b11611a01565b6000438210610c295760405162461bcd60e51b815260206004820152601f60248201527f4552433230566f7465733a20626c6f636b206e6f7420796574206d696e6564006044820152606401610288565b61089960088361182e565b60009182526009602090815260408084206001600160a01b0393909316845291905290205460ff1690565b6060600480546108ae90612828565b6001600160a01b0381166000908152600760205260408120548015610ce2576001600160a01b0383166000908152600760205260409020610cb060018361288a565b81548110610cc057610cc06128a1565b60009182526020909120015464010000000090046001600160e01b0316610ce5565b60005b6001600160e01b03169392505050565b6000805160206129b1833981519152610d0e81336115b6565b6109938383611a7c565b3360008181526001602090815260408083206001600160a01b038716845290915281205490919083811015610d9d5760405162461bcd60e51b815260206004820152602560248201527f45524332303a2064656372656173656420616c6c6f77616e63652062656c6f77604482015264207a65726f60d81b6064820152608401610288565b61096282868684036113b3565b60003361093f818585611563565b83421115610e085760405162461bcd60e51b815260206004820152601d60248201527f4552433230566f7465733a207369676e617475726520657870697265640000006044820152606401610288565b604080517fe48329057bfd03d55e49b547132e39cffd9c1820ad7b9d4c5307691425d15adf60208201526001600160a01b038816918101919091526060810186905260808101859052600090610e8290610e7a9060a00160405160208183030381529060405280519060200120611a86565b858585611ad4565b9050610e8d81611afc565b8614610edb5760405162461bcd60e51b815260206004820152601960248201527f4552433230566f7465733a20696e76616c6964206e6f6e6365000000000000006044820152606401610288565b610ee58188611988565b50505050505050565b83421115610f3e5760405162461bcd60e51b815260206004820152601d60248201527f45524332305065726d69743a206578706972656420646561646c696e650000006044820152606401610288565b60007f0000000000000000000000000000000000000000000000000000000000000000888888610f6d8c611afc565b6040805160208101969096526001600160a01b0394851690860152929091166060840152608083015260a082015260c0810186905260e0016040516020818303038152906040528051906020012090506000610fc882611a86565b90506000610fd882878787611ad4565b9050896001600160a01b0316816001600160a01b03161461103b5760405162461bcd60e51b815260206004820152601e60248201527f45524332305065726d69743a20696e76616c6964207369676e617475726500006044820152606401610288565b6110468a8a8a6113b3565b50505050505050505050565b60008281526009602052604090206001015461106e81336115b6565b61099383836117c7565b60408051808201909152600080825260208201526001600160a01b0383166000908152600760205260409020805463ffffffff84169081106110bc576110bc6128a1565b60009182526020918290206040805180820190915291015463ffffffff8116825264010000000090046001600160e01b0316918101919091529392505050565b6000805160206129b183398151915261111581336115b6565b610993308484611563565b61112a82826111b0565b6002546001600160e01b03101561119c5760405162461bcd60e51b815260206004820152603060248201527f4552433230566f7465733a20746f74616c20737570706c79207269736b73206f60448201526f766572666c6f77696e6720766f74657360801b6064820152608401610288565b6111aa600861129783611b24565b50505050565b6001600160a01b0382166112065760405162461bcd60e51b815260206004820152601f60248201527f45524332303a206d696e7420746f20746865207a65726f2061646472657373006044820152606401610288565b80600260008282546112189190612872565b90915550506001600160a01b03821660009081526020819052604081208054839290611245908490612872565b90915550506040518181526001600160a01b038316906000907fddf252ad1be2c89b69c2b068fc378daa952ba7f163c4a11628f55a4df523b3ef9060200160405180910390a3610a2160008383611c9d565b6000610ad78284612872565b60006001600160e01b0382111561130c5760405162461bcd60e51b815260206004820152602760248201527f53616665436173743a2076616c756520646f65736e27742066697420696e20326044820152663234206269747360c81b6064820152608401610288565b5090565b600063ffffffff82111561130c5760405162461bcd60e51b815260206004820152602660248201527f53616665436173743a2076616c756520646f65736e27742066697420696e203360448201526532206269747360d01b6064820152608401610288565b6001600160a01b0383811660009081526006602052604080822054858416835291205461099392918216911683611ca8565b6000610ad7828461288a565b6001600160a01b0383166114155760405162461bcd60e51b8152602060048201526024808201527f45524332303a20617070726f76652066726f6d20746865207a65726f206164646044820152637265737360e01b6064820152608401610288565b6001600160a01b0382166114765760405162461bcd60e51b815260206004820152602260248201527f45524332303a20617070726f766520746f20746865207a65726f206164647265604482015261737360f01b6064820152608401610288565b6001600160a01b0383811660008181526001602090815260408083209487168084529482529182902085905590518481527f8c5be1e5ebec7d5bd14f71427d1e84f3dd0314c0f7b2291e5b200ac8c7c3b925910160405180910390a3505050565b6001600160a01b0383811660009081526001602090815260408083209386168352929052205460001981146111aa57818110156115565760405162461bcd60e51b815260206004820152601d60248201527f45524332303a20696e73756666696369656e7420616c6c6f77616e63650000006044820152606401610288565b6111aa84848484036113b3565b600a5460ff16156115ab5760405162461bcd60e51b815260206004820152601260248201527118dbdb9d1c9858dd081a5cc81c185d5cd95960721b6044820152606401610288565b610993838383611de5565b6115c08282610c34565b610a21576115d8816001600160a01b03166014611fb9565b6115e3836020611fb9565b6040516020016115f49291906128b7565b60408051601f198184030181529082905262461bcd60e51b8252610288916004016125d6565b6116248282610c34565b610a215760008281526009602090815260408083206001600160a01b03851684529091529020805460ff1916600117905561165c3390565b6001600160a01b0316816001600160a01b0316837f2f8788117e7eff1d82e926ec794901d17c78024a50270940304540a733656f0d60405160405180910390a45050565b6000306001600160a01b037f0000000000000000000000000000000000000000000000000000000000000000161480156116f957507f000000000000000000000000000000000000000000000000000000000000000046145b1561172357507f000000000000000000000000000000000000000000000000000000000000000090565b50604080517f00000000000000000000000000000000000000000000000000000000000000006020808301919091527f0000000000000000000000000000000000000000000000000000000000000000828401527f000000000000000000000000000000000000000000000000000000000000000060608301524660808301523060a0808401919091528351808403909101815260c0909201909252805191012090565b6117d18282610c34565b15610a215760008281526009602090815260408083206001600160a01b0385168085529252808320805460ff1916905551339285917ff6391f5c32d9c69d2a47ea670b442974b53935d1edc7fd64eb21e047a839171b9190a45050565b8154600090815b818110156118925760006118498284612155565b90508486828154811061185e5761185e6128a1565b60009182526020909120015463ffffffff16111561187e5780925061188c565b611889816001612872565b91505b50611835565b81156118d657846118a460018461288a565b815481106118b4576118b46128a1565b60009182526020909120015464010000000090046001600160e01b03166118d9565b60005b6001600160e01b031695945050505050565b600a5460ff166119345760405162461bcd60e51b815260206004820152601460248201527314185d5cd8589b194e881b9bdd081c185d5cd95960621b6044820152606401610288565b600a805460ff191690557f5db9ee0a495bf2e6ff9c91a7834c1ba4fdd244a5e8aa4e537bd38aeae4b073aa335b6040516001600160a01b03909116815260200160405180910390a1565b610a218282611120565b6001600160a01b038281166000818152600660208181526040808420805485845282862054949093528787166001600160a01b03198416811790915590519190951694919391928592917f3134e8a2e6d97e929a7e54011ea5485d7d196dd5f0ba4d4ef95803e8e3fc257f9190a46111aa828483611ca8565b600a5460ff1615611a475760405162461bcd60e51b815260206004820152601060248201526f14185d5cd8589b194e881c185d5cd95960821b6044820152606401610288565b600a805460ff191660011790557f62e78cea01bee320cd4e420270b5ea74000d11b0c9f74754ebdbfc544b05a2586119613390565b610a218282612170565b6000610899611a936116a0565b8360405161190160f01b6020820152602281018390526042810182905260009060620160405160208183030381529060405280519060200120905092915050565b6000806000611ae587878787612188565b91509150611af281612275565b5095945050505050565b6001600160a01b03811660009081526005602052604090208054600181018255905b50919050565b825460009081908015611b6f5785611b3d60018361288a565b81548110611b4d57611b4d6128a1565b60009182526020909120015464010000000090046001600160e01b0316611b72565b60005b6001600160e01b03169250611b8b83858763ffffffff16565b9150600081118015611bc957504386611ba560018461288a565b81548110611bb557611bb56128a1565b60009182526020909120015463ffffffff16145b15611c2957611bd7826112a3565b86611be360018461288a565b81548110611bf357611bf36128a1565b9060005260206000200160000160046101000a8154816001600160e01b0302191690836001600160e01b03160217905550611c94565b856040518060400160405280611c3e43611310565b63ffffffff168152602001611c52856112a3565b6001600160e01b0390811690915282546001810184556000938452602093849020835194909301519091166401000000000263ffffffff909316929092179101555b50935093915050565b610993838383611375565b816001600160a01b0316836001600160a01b031614158015611cca5750600081115b15610993576001600160a01b03831615611d58576001600160a01b03831660009081526007602052604081208190611d05906113a785611b24565b91509150846001600160a01b03167fdec2bacdd2f05b59de34da9b523dff8be42e5e38e818c82fdb0bae774387a7248383604051611d4d929190918252602082015260400190565b60405180910390a250505b6001600160a01b03821615610993576001600160a01b03821660009081526007602052604081208190611d8e9061129785611b24565b91509150836001600160a01b03167fdec2bacdd2f05b59de34da9b523dff8be42e5e38e818c82fdb0bae774387a7248383604051611dd6929190918252602082015260400190565b60405180910390a25050505050565b6001600160a01b038316611e495760405162461bcd60e51b815260206004820152602560248201527f45524332303a207472616e736665722066726f6d20746865207a65726f206164604482015264647265737360d81b6064820152608401610288565b6001600160a01b038216611eab5760405162461bcd60e51b815260206004820152602360248201527f45524332303a207472616e7366657220746f20746865207a65726f206164647260448201526265737360e81b6064820152608401610288565b6001600160a01b03831660009081526020819052604090205481811015611f235760405162461bcd60e51b815260206004820152602660248201527f45524332303a207472616e7366657220616d6f756e7420657863656564732062604482015265616c616e636560d01b6064820152608401610288565b6001600160a01b03808516600090815260208190526040808220858503905591851681529081208054849290611f5a908490612872565b92505081905550826001600160a01b0316846001600160a01b03167fddf252ad1be2c89b69c2b068fc378daa952ba7f163c4a11628f55a4df523b3ef84604051611fa691815260200190565b60405180910390a36111aa848484611c9d565b60606000611fc883600261292c565b611fd3906002612872565b67ffffffffffffffff811115611feb57611feb61294b565b6040519080825280601f01601f191660200182016040528015612015576020820181803683370190505b509050600360fc1b81600081518110612030576120306128a1565b60200101906001600160f81b031916908160001a905350600f60fb1b8160018151811061205f5761205f6128a1565b60200101906001600160f81b031916908160001a905350600061208384600261292c565b61208e906001612872565b90505b6001811115612106576f181899199a1a9b1b9c1cb0b131b232b360811b85600f16601081106120c2576120c26128a1565b1a60f81b8282815181106120d8576120d86128a1565b60200101906001600160f81b031916908160001a90535060049490941c936120ff81612961565b9050612091565b508315610ad75760405162461bcd60e51b815260206004820181905260248201527f537472696e67733a20686578206c656e67746820696e73756666696369656e746044820152606401610288565b60006121646002848418612978565b610ad790848416612872565b61217a828261242b565b6111aa60086113a783611b24565b6000807f7fffffffffffffffffffffffffffffff5d576e7357a4501ddfe92f46681b20a08311156121bf575060009050600361226c565b8460ff16601b141580156121d757508460ff16601c14155b156121e8575060009050600461226c565b6040805160008082526020820180845289905260ff881692820192909252606081018690526080810185905260019060a0016020604051602081039080840390855afa15801561223c573d6000803e3d6000fd5b5050604051601f1901519150506001600160a01b0381166122655760006001925092505061226c565b9150600090505b94509492505050565b60008160048111156122895761228961299a565b036122915750565b60018160048111156122a5576122a561299a565b036122f25760405162461bcd60e51b815260206004820152601860248201527f45434453413a20696e76616c6964207369676e617475726500000000000000006044820152606401610288565b60028160048111156123065761230661299a565b036123535760405162461bcd60e51b815260206004820152601f60248201527f45434453413a20696e76616c6964207369676e6174757265206c656e677468006044820152606401610288565b60038160048111156123675761236761299a565b036123bf5760405162461bcd60e51b815260206004820152602260248201527f45434453413a20696e76616c6964207369676e6174757265202773272076616c604482015261756560f01b6064820152608401610288565b60048160048111156123d3576123d361299a565b03610b115760405162461bcd60e51b815260206004820152602260248201527f45434453413a20696e76616c6964207369676e6174757265202776272076616c604482015261756560f01b6064820152608401610288565b6001600160a01b03821661248b5760405162461bcd60e51b815260206004820152602160248201527f45524332303a206275726e2066726f6d20746865207a65726f206164647265736044820152607360f81b6064820152608401610288565b6001600160a01b038216600090815260208190526040902054818110156124ff5760405162461bcd60e51b815260206004820152602260248201527f45524332303a206275726e20616d6f756e7420657863656564732062616c616e604482015261636560f01b6064820152608401610288565b6001600160a01b038316600090815260208190526040812083830390556002805484929061252e90849061288a565b90915550506040518281526000906001600160a01b038516907fddf252ad1be2c89b69c2b068fc378daa952ba7f163c4a11628f55a4df523b3ef9060200160405180910390a361099383600084611c9d565b60006020828403121561259257600080fd5b81356001600160e01b031981168114610ad757600080fd5b60005b838110156125c55781810151838201526020016125ad565b838111156111aa5750506000910152565b60208152600082518060208401526125f58160408501602087016125aa565b601f01601f19169190910160400192915050565b80356001600160a01b038116811461262057600080fd5b919050565b6000806040838503121561263857600080fd5b61264183612609565b946020939093013593505050565b60008060006060848603121561266457600080fd5b61266d84612609565b925061267b60208501612609565b9150604084013590509250925092565b60006020828403121561269d57600080fd5b5035919050565b600080604083850312156126b757600080fd5b823591506126c760208401612609565b90509250929050565b6000602082840312156126e257600080fd5b610ad782612609565b803560ff8116811461262057600080fd5b60008060008060008060c0878903121561271557600080fd5b61271e87612609565b9550602087013594506040870135935061273a606088016126eb565b92506080870135915060a087013590509295509295509295565b600080600080600080600060e0888a03121561276f57600080fd5b61277888612609565b965061278660208901612609565b955060408801359450606088013593506127a2608089016126eb565b925060a0880135915060c0880135905092959891949750929550565b600080604083850312156127d157600080fd5b6127da83612609565b91506126c760208401612609565b600080604083850312156127fb57600080fd5b61280483612609565b9150602083013563ffffffff8116811461281d57600080fd5b809150509250929050565b600181811c9082168061283c57607f821691505b602082108103611b1e57634e487b7160e01b600052602260045260246000fd5b634e487b7160e01b600052601160045260246000fd5b600082198211156128855761288561285c565b500190565b60008282101561289c5761289c61285c565b500390565b634e487b7160e01b600052603260045260246000fd5b7f416363657373436f6e74726f6c3a206163636f756e74200000000000000000008152600083516128ef8160178501602088016125aa565b7001034b99036b4b9b9b4b733903937b6329607d1b60179184019182015283516129208160288401602088016125aa565b01602801949350505050565b60008160001904831182151516156129465761294661285c565b500290565b634e487b7160e01b600052604160045260246000fd5b6000816129705761297061285c565b506000190190565b60008261299557634e487b7160e01b600052601260045260246000fd5b500490565b634e487b7160e01b600052602160045260246000fdfe85faced7bde13e1a7dad704b895f006e704f207617d68166b31ba2d79624862da26469706673582212203d3da06ee3e27c703dd485085d4fdfb66049d410454744d80728e0cdcd2e8dbe64736f6c634300080d0033df8b4c520ffe197c5343c6f5aec59570151ef9a492f2c624fd45ddde6135ec42dec2bacdd2f05b59de34da9b523dff8be42e5e38e818c82fdb0bae774387a724",
  "linkReferences": {},
  "deployedLinkReferences": {}
}