{
  "_format": "hh-sol-artifact-1",
  "contractName": "Coin",
  "sourceName": "contracts/Coin.sol",
  "abi": [
    {
      "inputs": [
        {
          "internalType": "uint256",
          "name": "liquidity",
          "type": "uint256"
        }
      ],
      "stateMutability": "nonpayable",
      "type": "constructor"
    },
    {
      "anonymous": false,
      "inputs": [
        {
          "indexed": true,
          "internalType": "address",
          "name": "owner",
          "type": "address"
        },
        {
          "indexed": true,
          "internalType": "address",
          "name": "spender",
          "type": "address"
        },
        {
          "indexed": false,
          "internalType": "uint256",
          "name": "value",
          "type": "uint256"
        }
      ],
      "name": "Approval",
      "type": "event"
    },
    {
      "anonymous": false,
      "inputs": [
        {
          "indexed": true,
          "internalType": "address",
          "name": "delegator",
          "type": "address"
        },
        {
          "indexed": true,
          "internalType": "address",
          "name": "fromDelegate",
          "type": "address"
        },
        {
          "indexed": true,
          "internalType": "address",
          "name": "toDelegate",
          "type": "address"
        }
      ],
      "name": "DelegateChanged",
      "type": "event"
    },
    {
      "anonymous": false,
      "inputs": [
        {
          "indexed": true,
          "internalType": "address",
          "name": "delegate",
          "type": "address"
        },
        {
          "indexed": false,
          "internalType": "uint256",
          "name": "previousBalance",
          "type": "uint256"
        },
        {
          "indexed": false,
          "internalType": "uint256",
          "name": "newBalance",
          "type": "uint256"
        }
      ],
      "name": "DelegateVotesChanged",
      "type": "event"
    },
    {
      "anonymous": false,
      "inputs": [
        {
          "indexed": false,
          "internalType": "address",
          "name": "account",
          "type": "address"
        }
      ],
      "name": "Paused",
      "type": "event"
    },
    {
      "anonymous": false,
      "inputs": [
        {
          "indexed": true,
          "internalType": "bytes32",
          "name": "role",
          "type": "bytes32"
        },
        {
          "indexed": true,
          "internalType": "bytes32",
          "name": "previousAdminRole",
          "type": "bytes32"
        },
        {
          "indexed": true,
          "internalType": "bytes32",
          "name": "newAdminRole",
          "type": "bytes32"
        }
      ],
      "name": "RoleAdminChanged",
      "type": "event"
    },
    {
      "anonymous": false,
      "inputs": [
        {
          "indexed": true,
          "internalType": "bytes32",
          "name": "role",
          "type": "bytes32"
        },
        {
          "indexed": true,
          "internalType": "address",
          "name": "account",
          "type": "address"
        },
        {
          "indexed": true,
          "internalType": "address",
          "name": "sender",
          "type": "address"
        }
      ],
      "name": "RoleGranted",
      "type": "event"
    },
    {
      "anonymous": false,
      "inputs": [
        {
          "indexed": true,
          "internalType": "bytes32",
          "name": "role",
          "type": "bytes32"
        },
        {
          "indexed": true,
          "internalType": "address",
          "name": "account",
          "type": "address"
        },
        {
          "indexed": true,
          "internalType": "address",
          "name": "sender",
          "type": "address"
        }
      ],
      "name": "RoleRevoked",
      "type": "event"
    },
    {
      "anonymous": false,
      "inputs": [
        {
          "indexed": true,
          "internalType": "address",
          "name": "from",
          "type": "address"
        },
        {
          "indexed": true,
          "internalType": "address",
          "name": "to",
          "type": "address"
        },
        {
          "indexed": false,
          "internalType": "uint256",
          "name": "value",
          "type": "uint256"
        }
      ],
      "name": "Transfer",
      "type": "event"
    },
    {
      "anonymous": false,
      "inputs": [
        {
          "indexed": false,
          "internalType": "address",
          "name": "account",
          "type": "address"
        }
      ],
      "name": "Unpaused",
      "type": "event"
    },
    {
      "inputs": [],
      "name": "ADMIN",
      "outputs": [
        {
          "internalType": "bytes32",
          "name": "",
          "type": "bytes32"
        }
      ],
      "stateMutability": "view",
      "type": "function"
    },
    {
      "inputs": [],
      "name": "DEFAULT_ADMIN_ROLE",
      "outputs": [
        {
          "internalType": "bytes32",
          "name": "",
          "type": "bytes32"
        }
      ],
      "stateMutability": "view",
      "type": "function"
    },
    {
      "inputs": [],
      "name": "DISTRIBUTOR",
      "outputs": [
        {
          "internalType": "bytes32",
          "name": "",
          "type": "bytes32"
        }
      ],
      "stateMutability": "view",
      "type": "function"
    },
    {
      "inputs": [],
      "name": "DOMAIN_SEPARATOR",
      "outputs": [
        {
          "internalType": "bytes32",
          "name": "",
          "type": "bytes32"
        }
      ],
      "stateMutability": "view",
      "type": "function"
    },
    {
      "inputs": [],
      "name": "NAME",
      "outputs": [
        {
          "internalType": "string",
          "name": "",
          "type": "string"
        }
      ],
      "stateMutability": "view",
      "type": "function"
    },
    {
      "inputs": [],
      "name": "TICK",
      "outputs": [
        {
          "internalType": "string",
          "name": "",
          "type": "string"
        }
      ],
      "stateMutability": "view",
      "type": "function"
    },
    {
      "inputs": [
        {
          "internalType": "address",
          "name": "owner",
          "type": "address"
        },
        {
          "internalType": "address",
          "name": "spender",
          "type": "address"
        }
      ],
      "name": "allowance",
      "outputs": [
        {
          "internalType": "uint256",
          "name": "",
          "type": "uint256"
        }
      ],
      "stateMutability": "view",
      "type": "function"
    },
    {
      "inputs": [
        {
          "internalType": "address",
          "name": "spender",
          "type": "address"
        },
        {
          "internalType": "uint256",
          "name": "amount",
          "type": "uint256"
        }
      ],
      "name": "approve",
      "outputs": [
        {
          "internalType": "bool",
          "name": "",
          "type": "bool"
        }
      ],
      "stateMutability": "nonpayable",
      "type": "function"
    },
    {
      "inputs": [
        {
          "internalType": "address",
          "name": "account",
          "type": "address"
        }
      ],
      "name": "balanceOf",
      "outputs": [
        {
          "internalType": "uint256",
          "name": "",
          "type": "uint256"
        }
      ],
      "stateMutability": "view",
      "type": "function"
    },
    {
      "inputs": [
        {
          "internalType": "address",
          "name": "burnee",
          "type": "address"
        },
        {
          "internalType": "uint256",
          "name": "amount",
          "type": "uint256"
        }
      ],
      "name": "burn",
      "outputs": [],
      "stateMutability": "nonpayable",
      "type": "function"
    },
    {
      "inputs": [
        {
          "internalType": "address",
          "name": "account",
          "type": "address"
        },
        {
          "internalType": "uint32",
          "name": "pos",
          "type": "uint32"
        }
      ],
      "name": "checkpoints",
      "outputs": [
        {
          "components": [
            {
              "internalType": "uint32",
              "name": "fromBlock",
              "type": "uint32"
            },
            {
              "internalType": "uint224",
              "name": "votes",
              "type": "uint224"
            }
          ],
          "internalType": "struct ERC20Votes.Checkpoint",
          "name": "",
          "type": "tuple"
        }
      ],
      "stateMutability": "view",
      "type": "function"
    },
    {
      "inputs": [],
      "name": "decimals",
      "outputs": [
        {
          "internalType": "uint8",
          "name": "",
          "type": "uint8"
        }
      ],
      "stateMutability": "view",
      "type": "function"
    },
    {
      "inputs": [
        {
          "internalType": "address",
          "name": "spender",
          "type": "address"
        },
        {
          "internalType": "uint256",
          "name": "subtractedValue",
          "type": "uint256"
        }
      ],
      "name": "decreaseAllowance",
      "outputs": [
        {
          "internalType": "bool",
          "name": "",
          "type": "bool"
        }
      ],
      "stateMutability": "nonpayable",
      "type": "function"
    },
    {
      "inputs": [
        {
          "internalType": "address",
          "name": "delegatee",
          "type": "address"
        }
      ],
      "name": "delegate",
      "outputs": [],
      "stateMutability": "nonpayable",
      "type": "function"
    },
    {
      "inputs": [
        {
          "internalType": "address",
          "name": "delegatee",
          "type": "address"
        },
        {
          "internalType": "uint256",
          "name": "nonce",
          "type": "uint256"
        },
        {
          "internalType": "uint256",
          "name": "expiry",
          "type": "uint256"
        },
        {
          "internalType": "uint8",
          "name": "v",
          "type": "uint8"
        },
        {
          "internalType": "bytes32",
          "name": "r",
          "type": "bytes32"
        },
        {
          "internalType": "bytes32",
          "name": "s",
          "type": "bytes32"
        }
      ],
      "name": "delegateBySig",
      "outputs": [],
      "stateMutability": "nonpayable",
      "type": "function"
    },
    {
      "inputs": [
        {
          "internalType": "address",
          "name": "account",
          "type": "address"
        }
      ],
      "name": "delegates",
      "outputs": [
        {
          "internalType": "address",
          "name": "",
          "type": "address"
        }
      ],
      "stateMutability": "view",
      "type": "function"
    },
    {
      "inputs": [
        {
          "internalType": "address",
          "name": "recipient",
          "type": "address"
        },
        {
          "internalType": "uint256",
          "name": "amount",
          "type": "uint256"
        }
      ],
      "name": "distribute",
      "outputs": [],
      "stateMutability": "nonpayable",
      "type": "function"
    },
    {
      "inputs": [
        {
          "internalType": "uint256",
          "name": "blockNumber",
          "type": "uint256"
        }
      ],
      "name": "getPastTotalSupply",
      "outputs": [
        {
          "internalType": "uint256",
          "name": "",
          "type": "uint256"
        }
      ],
      "stateMutability": "view",
      "type": "function"
    },
    {
      "inputs": [
        {
          "internalType": "address",
          "name": "account",
          "type": "address"
        },
        {
          "internalType": "uint256",
          "name": "blockNumber",
          "type": "uint256"
        }
      ],
      "name": "getPastVotes",
      "outputs": [
        {
          "internalType": "uint256",
          "name": "",
          "type": "uint256"
        }
      ],
      "stateMutability": "view",
      "type": "function"
    },
    {
      "inputs": [
        {
          "internalType": "bytes32",
          "name": "role",
          "type": "bytes32"
        }
      ],
      "name": "getRoleAdmin",
      "outputs": [
        {
          "internalType": "bytes32",
          "name": "",
          "type": "bytes32"
        }
      ],
      "stateMutability": "view",
      "type": "function"
    },
    {
      "inputs": [
        {
          "internalType": "address",
          "name": "account",
          "type": "address"
        }
      ],
      "name": "getVotes",
      "outputs": [
        {
          "internalType": "uint256",
          "name": "",
          "type": "uint256"
        }
      ],
      "stateMutability": "view",
      "type": "function"
    },
    {
      "inputs": [
        {
          "internalType": "bytes32",
          "name": "role",
          "type": "bytes32"
        },
        {
          "internalType": "address",
          "name": "account",
          "type": "address"
        }
      ],
      "name": "grantRole",
      "outputs": [],
      "stateMutability": "nonpayable",
      "type": "function"
    },
    {
      "inputs": [
        {
          "internalType": "bytes32",
          "name": "role",
          "type": "bytes32"
        },
        {
          "internalType": "address",
          "name": "account",
          "type": "address"
        }
      ],
      "name": "hasRole",
      "outputs": [
        {
          "internalType": "bool",
          "name": "",
          "type": "bool"
        }
      ],
      "stateMutability": "view",
      "type": "function"
    },
    {
      "inputs": [
        {
          "internalType": "address",
          "name": "spender",
          "type": "address"
        },
        {
          "internalType": "uint256",
          "name": "addedValue",
          "type": "uint256"
        }
      ],
      "name": "increaseAllowance",
      "outputs": [
        {
          "internalType": "bool",
          "name": "",
          "type": "bool"
        }
      ],
      "stateMutability": "nonpayable",
      "type": "function"
    },
    {
      "inputs": [
        {
          "internalType": "address",
          "name": "recipient",
          "type": "address"
        },
        {
          "internalType": "uint256",
          "name": "amount",
          "type": "uint256"
        }
      ],
      "name": "mint",
      "outputs": [],
      "stateMutability": "nonpayable",
      "type": "function"
    },
    {
      "inputs": [],
      "name": "name",
      "outputs": [
        {
          "internalType": "string",
          "name": "",
          "type": "string"
        }
      ],
      "stateMutability": "view",
      "type": "function"
    },
    {
      "inputs": [
        {
          "internalType": "address",
          "name": "owner",
          "type": "address"
        }
      ],
      "name": "nonces",
      "outputs": [
        {
          "internalType": "uint256",
          "name": "",
          "type": "uint256"
        }
      ],
      "stateMutability": "view",
      "type": "function"
    },
    {
      "inputs": [
        {
          "internalType": "address",
          "name": "account",
          "type": "address"
        }
      ],
      "name": "numCheckpoints",
      "outputs": [
        {
          "internalType": "uint32",
          "name": "",
          "type": "uint32"
        }
      ],
      "stateMutability": "view",
      "type": "function"
    },
    {
      "inputs": [],
      "name": "pause",
      "outputs": [],
      "stateMutability": "nonpayable",
      "type": "function"
    },
    {
      "inputs": [],
      "name": "paused",
      "outputs": [
        {
          "internalType": "bool",
          "name": "",
          "type": "bool"
        }
      ],
      "stateMutability": "view",
      "type": "function"
    },
    {
      "inputs": [
        {
          "internalType": "address",
          "name": "owner",
          "type": "address"
        },
        {
          "internalType": "address",
          "name": "spender",
          "type": "address"
        },
        {
          "internalType": "uint256",
          "name": "value",
          "type": "uint256"
        },
        {
          "internalType": "uint256",
          "name": "deadline",
          "type": "uint256"
        },
        {
          "internalType": "uint8",
          "name": "v",
          "type": "uint8"
        },
        {
          "internalType": "bytes32",
          "name": "r",
          "type": "bytes32"
        },
        {
          "internalType": "bytes32",
          "name": "s",
          "type": "bytes32"
        }
      ],
      "name": "permit",
      "outputs": [],
      "stateMutability": "nonpayable",
      "type": "function"
    },
    {
      "inputs": [
        {
          "internalType": "bytes32",
          "name": "role",
          "type": "bytes32"
        },
        {
          "internalType": "address",
          "name": "account",
          "type": "address"
        }
      ],
      "name": "renounceRole",
      "outputs": [],
      "stateMutability": "nonpayable",
      "type": "function"
    },
    {
      "inputs": [
        {
          "internalType": "bytes32",
          "name": "role",
          "type": "bytes32"
        },
        {
          "internalType": "address",
          "name": "account",
          "type": "address"
        }
      ],
      "name": "revokeRole",
      "outputs": [],
      "stateMutability": "nonpayable",
      "type": "function"
    },
    {
      "inputs": [
        {
          "internalType": "bytes4",
          "name": "interfaceId",
          "type": "bytes4"
        }
      ],
      "name": "supportsInterface",
      "outputs": [
        {
          "internalType": "bool",
          "name": "",
          "type": "bool"
        }
      ],
      "stateMutability": "view",
      "type": "function"
    },
    {
      "inputs": [],
      "name": "symbol",
      "outputs": [
        {
          "internalType": "string",
          "name": "",
          "type": "string"
        }
      ],
      "stateMutability": "view",
      "type": "function"
    },
    {
      "inputs": [],
      "name": "totalSupply",
      "outputs": [
        {
          "internalType": "uint256",
          "name": "",
          "type": "uint256"
        }
      ],
      "stateMutability": "view",
      "type": "function"
    },
    {
      "inputs": [
        {
          "internalType": "address",
          "name": "to",
          "type": "address"
        },
        {
          "internalType": "uint256",
          "name": "amount",
          "type": "uint256"
        }
      ],
      "name": "transfer",
      "outputs": [
        {
          "internalType": "bool",
          "name": "",
          "type": "bool"
        }
      ],
      "stateMutability": "nonpayable",
      "type": "function"
    },
    {
      "inputs": [
        {
          "internalType": "address",
          "name": "from",
          "type": "address"
        },
        {
          "internalType": "address",
          "name": "to",
          "type": "address"
        },
        {
          "internalType": "uint256",
          "name": "amount",
          "type": "uint256"
        }
      ],
      "name": "transferFrom",
      "outputs": [
        {
          "internalType": "bool",
          "name": "",
          "type": "bool"
        }
      ],
      "stateMutability": "nonpayable",
      "type": "function"
    },
    {
      "inputs": [],
      "name": "unpause",
      "outputs": [],
      "stateMutability": "nonpayable",
      "type": "function"
    },
    {
      "stateMutability": "payable",
      "type": "receive"
    }
  ],
  "bytecode": "0x6101606040527f6e71edae12b1b97f4d1f60370fef10105fa2faae0126114a169c64845d6126c9610140523480156200003757600080fd5b50604051620034e1380380620034e18339810160408190526200005a91620009d8565b6040518060400160405280601081526020016f213937ba3432b93437b7b21021b7b4b760811b81525080604051806040016040528060018152602001603160f81b8152506040518060400160405280601081526020016f213937ba3432b93437b7b21021b7b4b760811b8152506040518060400160405280600381526020016242484360e81b8152508160039080519060200190620000fb9291906200093c565b508051620001119060049060208401906200093c565b5050825160209384012082519284019290922060e08390526101008190524660a0818152604080517f8b73c3c69bb8fe3d512ecc4cf759cc79239f7b179b0ffacaa9a75d522b39400f818901819052818301979097526060810194909452608080850193909352308483018190528151808603909301835260c094850190915281519190960120905292909252610120525050600a805460ff19169055620001e97f85faced7bde13e1a7dad704b895f006e704f207617d68166b31ba2d79624862d600080516020620034a183398151915262000243565b62000204600080516020620034a1833981519152336200028e565b620002307f85faced7bde13e1a7dad704b895f006e704f207617d68166b31ba2d79624862d336200028e565b6200023c30826200029e565b5062000a8f565b600082815260096020526040808220600101805490849055905190918391839186917fbd79b86ffe0ab8e8776151514217cd7cacd52c909f66475c3af44e129f0b00ff9190a4505050565b6200029a8282620002b5565b5050565b6200029a82826200035960201b620010d11760201c565b60008281526009602090815260408083206001600160a01b038516845290915290205460ff166200029a5760008281526009602090815260408083206001600160a01b03851684529091529020805460ff19166001179055620003153390565b6001600160a01b0316816001600160a01b0316837f2f8788117e7eff1d82e926ec794901d17c78024a50270940304540a733656f0d60405160405180910390a45050565b6200037082826200041060201b620011611760201c565b6001600160e01b0362000384620004ff8216565b1115620003f15760405162461bcd60e51b815260206004820152603060248201527f4552433230566f7465733a20746f74616c20737570706c79207269736b73206f60448201526f766572666c6f77696e6720766f74657360801b60648201526084015b60405180910390fd5b6200040a6008620012486200050560201b17836200051a565b50505050565b6001600160a01b038216620004685760405162461bcd60e51b815260206004820152601f60248201527f45524332303a206d696e7420746f20746865207a65726f2061646472657373006044820152606401620003e8565b80600260008282546200047c919062000a08565b90915550506001600160a01b03821660009081526020819052604081208054839290620004ab90849062000a08565b90915550506040518181526001600160a01b038316906000907fddf252ad1be2c89b69c2b068fc378daa952ba7f163c4a11628f55a4df523b3ef9060200160405180910390a36200029a60008383620006d1565b60025490565b600062000513828462000a08565b9392505050565b8254600090819080156200056c57856200053660018362000a23565b8154811062000549576200054962000a3d565b60009182526020909120015464010000000090046001600160e01b03166200056f565b60005b6001600160e01b031692506200058683858760201c565b9150600081118015620005ca57504386620005a360018462000a23565b81548110620005b657620005b662000a3d565b60009182526020909120015463ffffffff16145b156200063e57620005e682620006e960201b620012541760201c565b86620005f460018462000a23565b8154811062000607576200060762000a3d565b9060005260206000200160000160046101000a8154816001600160e01b0302191690836001600160e01b03160217905550620006c3565b85604051806040016040528062000660436200075860201b620012c11760201c565b63ffffffff1681526020016200068185620006e960201b620012541760201c565b6001600160e01b0390811690915282546001810184556000938452602093849020835194909301519091166401000000000263ffffffff909316929092179101555b50935093915050565b505050565b620006cc838383620007bf60201b620013261760201c565b60006001600160e01b03821115620007545760405162461bcd60e51b815260206004820152602760248201527f53616665436173743a2076616c756520646f65736e27742066697420696e20326044820152663234206269747360c81b6064820152608401620003e8565b5090565b600063ffffffff821115620007545760405162461bcd60e51b815260206004820152602660248201527f53616665436173743a2076616c756520646f65736e27742066697420696e203360448201526532206269747360d01b6064820152608401620003e8565b620007d7838383620006cc60201b620009681760201c565b6001600160a01b03838116600090815260066020526040808220548584168352912054620006cc92918216911683818314801590620008165750600081115b15620006cc576001600160a01b03831615620008a3576001600160a01b0383166000908152600760209081526040822082916200086091906200092e901b6200135817856200051a565b91509150846001600160a01b0316600080516020620034c1833981519152838360405162000898929190918252602082015260400190565b60405180910390a250505b6001600160a01b03821615620006cc576001600160a01b038216600090815260076020908152604082208291620008e7919062000505901b6200124817856200051a565b91509150836001600160a01b0316600080516020620034c183398151915283836040516200091f929190918252602082015260400190565b60405180910390a25050505050565b600062000513828462000a23565b8280546200094a9062000a53565b90600052602060002090601f0160209004810192826200096e5760008555620009b9565b82601f106200098957805160ff1916838001178555620009b9565b82800160010185558215620009b9579182015b82811115620009b95782518255916020019190600101906200099c565b50620007549291505b80821115620007545760008155600101620009c2565b600060208284031215620009eb57600080fd5b5051919050565b634e487b7160e01b600052601160045260246000fd5b6000821982111562000a1e5762000a1e620009f2565b500190565b60008282101562000a385762000a38620009f2565b500390565b634e487b7160e01b600052603260045260246000fd5b600181811c9082168062000a6857607f821691505b60208210810362000a8957634e487b7160e01b600052602260045260246000fd5b50919050565b60805160a05160c05160e0516101005161012051610140516129b762000aea6000396000610ef3015260006116db0152600061172a015260006117050152600061165e01526000611688015260006116b201526129b76000f3fe6080604052600436106102345760003560e01c806370a082311161012e578063a3f4df7e116100ab578063d505accf1161006f578063d505accf1461074d578063d547741f1461076d578063dd62ed3e1461078d578063f1127ed8146107d3578063fb9321081461081d57600080fd5b8063a3f4df7e14610682578063a457c2d7146106be578063a9059cbb146106de578063bcffa6cd146106fe578063c3cda5201461072d57600080fd5b806395d89b41116100f257806395d89b41146105f65780639ab24eb01461060b5780639c26149f1461062b5780639dc29fac1461064d578063a217fddf1461066d57600080fd5b806370a082311461054b5780637ecebe00146105815780638456cb59146105a15780638e539e8c146105b657806391d14854146105d657600080fd5b80633644e515116101bc57806340c10f191161018057806340c10f191461046d578063587cde1e1461048d5780635c19a95c146104de5780635c975abb146104fe5780636fcfff451461051657600080fd5b80633644e515146103e357806336568abe146103f857806339509351146104185780633a46b1a8146104385780633f4ba83a1461045857600080fd5b806323b872dd1161020357806323b872dd14610321578063248a9ca3146103415780632a0acc6a146103715780632f2ff15d146103a5578063313ce567146103c757600080fd5b806301ffc9a71461028b57806306fdde03146102c0578063095ea7b3146102e257806318160ddd1461030257600080fd5b366102865760405162461bcd60e51b815260206004820181905260248201527f7468697320636f6e74726163742063616e6e6f7420726563656976652045544860448201526064015b60405180910390fd5b600080fd5b34801561029757600080fd5b506102ab6102a6366004612531565b61083d565b60405190151581526020015b60405180910390f35b3480156102cc57600080fd5b506102d5610874565b6040516102b79190612587565b3480156102ee57600080fd5b506102ab6102fd3660046125d6565b610906565b34801561030e57600080fd5b506002545b6040519081526020016102b7565b34801561032d57600080fd5b506102ab61033c366004612600565b61091e565b34801561034d57600080fd5b5061031361035c36600461263c565b60009081526009602052604090206001015490565b34801561037d57600080fd5b506103137fdf8b4c520ffe197c5343c6f5aec59570151ef9a492f2c624fd45ddde6135ec4281565b3480156103b157600080fd5b506103c56103c0366004612655565b610942565b005b3480156103d357600080fd5b50604051601281526020016102b7565b3480156103ef57600080fd5b5061031361096d565b34801561040457600080fd5b506103c5610413366004612655565b61097c565b34801561042457600080fd5b506102ab6104333660046125d6565b6109fa565b34801561044457600080fd5b506103136104533660046125d6565b610a39565b34801561046457600080fd5b506103c5610ab3565b34801561047957600080fd5b506103c56104883660046125d6565b610ae9565b34801561049957600080fd5b506104c66104a8366004612681565b6001600160a01b039081166000908152600660205260409020541690565b6040516001600160a01b0390911681526020016102b7565b3480156104ea57600080fd5b506103c56104f9366004612681565b610b0c565b34801561050a57600080fd5b50600a5460ff166102ab565b34801561052257600080fd5b50610536610531366004612681565b610b16565b60405163ffffffff90911681526020016102b7565b34801561055757600080fd5b50610313610566366004612681565b6001600160a01b031660009081526020819052604090205490565b34801561058d57600080fd5b5061031361059c366004612681565b610b38565b3480156105ad57600080fd5b506103c5610b56565b3480156105c257600080fd5b506103136105d136600461263c565b610b89565b3480156105e257600080fd5b506102ab6105f1366004612655565b610be5565b34801561060257600080fd5b506102d5610c10565b34801561061757600080fd5b50610313610626366004612681565b610c1f565b34801561063757600080fd5b5061031360008051602061296283398151915281565b34801561065957600080fd5b506103c56106683660046125d6565b610ca6565b34801561067957600080fd5b50610313600081565b34801561068e57600080fd5b506102d56040518060400160405280601081526020016f213937ba3432b93437b7b21021b7b4b760811b81525081565b3480156106ca57600080fd5b506102ab6106d93660046125d6565b610cc9565b3480156106ea57600080fd5b506102ab6106f93660046125d6565b610d5b565b34801561070a57600080fd5b506102d56040518060400160405280600381526020016242484360e81b81525081565b34801561073957600080fd5b506103c56107483660046126ad565b610d69565b34801561075957600080fd5b506103c5610768366004612705565b610e9f565b34801561077957600080fd5b506103c5610788366004612655565b611003565b34801561079957600080fd5b506103136107a836600461276f565b6001600160a01b03918216600090815260016020908152604080832093909416825291909152205490565b3480156107df57600080fd5b506107f36107ee366004612799565b611029565b60408051825163ffffffff1681526020928301516001600160e01b031692810192909252016102b7565b34801561082957600080fd5b506103c56108383660046125d6565b6110ad565b60006001600160e01b03198216637965db0b60e01b148061086e57506301ffc9a760e01b6001600160e01b03198316145b92915050565b606060038054610883906127d9565b80601f01602080910402602001604051908101604052809291908181526020018280546108af906127d9565b80156108fc5780601f106108d1576101008083540402835291602001916108fc565b820191906000526020600020905b8154815290600101906020018083116108df57829003601f168201915b5050505050905090565b600033610914818585611364565b5060019392505050565b60003361092c858285611488565b610937858585611514565b506001949350505050565b60008281526009602052604090206001015461095e8133611567565b61096883836115cb565b505050565b6000610977611651565b905090565b6001600160a01b03811633146109ec5760405162461bcd60e51b815260206004820152602f60248201527f416363657373436f6e74726f6c3a2063616e206f6e6c792072656e6f756e636560448201526e103937b632b9903337b91039b2b63360891b606482015260840161027d565b6109f68282611778565b5050565b3360008181526001602090815260408083206001600160a01b03871684529091528120549091906109149082908690610a34908790612823565b611364565b6000438210610a8a5760405162461bcd60e51b815260206004820152601f60248201527f4552433230566f7465733a20626c6f636b206e6f7420796574206d696e656400604482015260640161027d565b6001600160a01b0383166000908152600760205260409020610aac90836117df565b9392505050565b7fdf8b4c520ffe197c5343c6f5aec59570151ef9a492f2c624fd45ddde6135ec42610ade8133611567565b610ae661189c565b50565b600080516020612962833981519152610b028133611567565b610968838361192f565b610ae63382611939565b6001600160a01b03811660009081526007602052604081205461086e906112c1565b6001600160a01b03811660009081526005602052604081205461086e565b7fdf8b4c520ffe197c5343c6f5aec59570151ef9a492f2c624fd45ddde6135ec42610b818133611567565b610ae66119b2565b6000438210610bda5760405162461bcd60e51b815260206004820152601f60248201527f4552433230566f7465733a20626c6f636b206e6f7420796574206d696e656400604482015260640161027d565b61086e6008836117df565b60009182526009602090815260408084206001600160a01b0393909316845291905290205460ff1690565b606060048054610883906127d9565b6001600160a01b0381166000908152600760205260408120548015610c93576001600160a01b0383166000908152600760205260409020610c6160018361283b565b81548110610c7157610c71612852565b60009182526020909120015464010000000090046001600160e01b0316610c96565b60005b6001600160e01b03169392505050565b600080516020612962833981519152610cbf8133611567565b6109688383611a2d565b3360008181526001602090815260408083206001600160a01b038716845290915281205490919083811015610d4e5760405162461bcd60e51b815260206004820152602560248201527f45524332303a2064656372656173656420616c6c6f77616e63652062656c6f77604482015264207a65726f60d81b606482015260840161027d565b6109378286868403611364565b600033610914818585611514565b83421115610db95760405162461bcd60e51b815260206004820152601d60248201527f4552433230566f7465733a207369676e61747572652065787069726564000000604482015260640161027d565b604080517fe48329057bfd03d55e49b547132e39cffd9c1820ad7b9d4c5307691425d15adf60208201526001600160a01b038816918101919091526060810186905260808101859052600090610e3390610e2b9060a00160405160208183030381529060405280519060200120611a37565b858585611a85565b9050610e3e81611aad565b8614610e8c5760405162461bcd60e51b815260206004820152601960248201527f4552433230566f7465733a20696e76616c6964206e6f6e636500000000000000604482015260640161027d565b610e968188611939565b50505050505050565b83421115610eef5760405162461bcd60e51b815260206004820152601d60248201527f45524332305065726d69743a206578706972656420646561646c696e65000000604482015260640161027d565b60007f0000000000000000000000000000000000000000000000000000000000000000888888610f1e8c611aad565b6040805160208101969096526001600160a01b0394851690860152929091166060840152608083015260a082015260c0810186905260e0016040516020818303038152906040528051906020012090506000610f7982611a37565b90506000610f8982878787611a85565b9050896001600160a01b0316816001600160a01b031614610fec5760405162461bcd60e51b815260206004820152601e60248201527f45524332305065726d69743a20696e76616c6964207369676e61747572650000604482015260640161027d565b610ff78a8a8a611364565b50505050505050505050565b60008281526009602052604090206001015461101f8133611567565b6109688383611778565b60408051808201909152600080825260208201526001600160a01b0383166000908152600760205260409020805463ffffffff841690811061106d5761106d612852565b60009182526020918290206040805180820190915291015463ffffffff8116825264010000000090046001600160e01b0316918101919091529392505050565b6000805160206129628339815191526110c68133611567565b610968308484611514565b6110db8282611161565b6002546001600160e01b03101561114d5760405162461bcd60e51b815260206004820152603060248201527f4552433230566f7465733a20746f74616c20737570706c79207269736b73206f60448201526f766572666c6f77696e6720766f74657360801b606482015260840161027d565b61115b600861124883611ad5565b50505050565b6001600160a01b0382166111b75760405162461bcd60e51b815260206004820152601f60248201527f45524332303a206d696e7420746f20746865207a65726f206164647265737300604482015260640161027d565b80600260008282546111c99190612823565b90915550506001600160a01b038216600090815260208190526040812080548392906111f6908490612823565b90915550506040518181526001600160a01b038316906000907fddf252ad1be2c89b69c2b068fc378daa952ba7f163c4a11628f55a4df523b3ef9060200160405180910390a36109f660008383611c4e565b6000610aac8284612823565b60006001600160e01b038211156112bd5760405162461bcd60e51b815260206004820152602760248201527f53616665436173743a2076616c756520646f65736e27742066697420696e20326044820152663234206269747360c81b606482015260840161027d565b5090565b600063ffffffff8211156112bd5760405162461bcd60e51b815260206004820152602660248201527f53616665436173743a2076616c756520646f65736e27742066697420696e203360448201526532206269747360d01b606482015260840161027d565b6001600160a01b0383811660009081526006602052604080822054858416835291205461096892918216911683611c59565b6000610aac828461283b565b6001600160a01b0383166113c65760405162461bcd60e51b8152602060048201526024808201527f45524332303a20617070726f76652066726f6d20746865207a65726f206164646044820152637265737360e01b606482015260840161027d565b6001600160a01b0382166114275760405162461bcd60e51b815260206004820152602260248201527f45524332303a20617070726f766520746f20746865207a65726f206164647265604482015261737360f01b606482015260840161027d565b6001600160a01b0383811660008181526001602090815260408083209487168084529482529182902085905590518481527f8c5be1e5ebec7d5bd14f71427d1e84f3dd0314c0f7b2291e5b200ac8c7c3b925910160405180910390a3505050565b6001600160a01b03838116600090815260016020908152604080832093861683529290522054600019811461115b57818110156115075760405162461bcd60e51b815260206004820152601d60248201527f45524332303a20696e73756666696369656e7420616c6c6f77616e6365000000604482015260640161027d565b61115b8484848403611364565b600a5460ff161561155c5760405162461bcd60e51b815260206004820152601260248201527118dbdb9d1c9858dd081a5cc81c185d5cd95960721b604482015260640161027d565b610968838383611d96565b6115718282610be5565b6109f657611589816001600160a01b03166014611f6a565b611594836020611f6a565b6040516020016115a5929190612868565b60408051601f198184030181529082905262461bcd60e51b825261027d91600401612587565b6115d58282610be5565b6109f65760008281526009602090815260408083206001600160a01b03851684529091529020805460ff1916600117905561160d3390565b6001600160a01b0316816001600160a01b0316837f2f8788117e7eff1d82e926ec794901d17c78024a50270940304540a733656f0d60405160405180910390a45050565b6000306001600160a01b037f0000000000000000000000000000000000000000000000000000000000000000161480156116aa57507f000000000000000000000000000000000000000000000000000000000000000046145b156116d457507f000000000000000000000000000000000000000000000000000000000000000090565b50604080517f00000000000000000000000000000000000000000000000000000000000000006020808301919091527f0000000000000000000000000000000000000000000000000000000000000000828401527f000000000000000000000000000000000000000000000000000000000000000060608301524660808301523060a0808401919091528351808403909101815260c0909201909252805191012090565b6117828282610be5565b156109f65760008281526009602090815260408083206001600160a01b0385168085529252808320805460ff1916905551339285917ff6391f5c32d9c69d2a47ea670b442974b53935d1edc7fd64eb21e047a839171b9190a45050565b8154600090815b818110156118435760006117fa8284612106565b90508486828154811061180f5761180f612852565b60009182526020909120015463ffffffff16111561182f5780925061183d565b61183a816001612823565b91505b506117e6565b8115611887578461185560018461283b565b8154811061186557611865612852565b60009182526020909120015464010000000090046001600160e01b031661188a565b60005b6001600160e01b031695945050505050565b600a5460ff166118e55760405162461bcd60e51b815260206004820152601460248201527314185d5cd8589b194e881b9bdd081c185d5cd95960621b604482015260640161027d565b600a805460ff191690557f5db9ee0a495bf2e6ff9c91a7834c1ba4fdd244a5e8aa4e537bd38aeae4b073aa335b6040516001600160a01b03909116815260200160405180910390a1565b6109f682826110d1565b6001600160a01b038281166000818152600660208181526040808420805485845282862054949093528787166001600160a01b03198416811790915590519190951694919391928592917f3134e8a2e6d97e929a7e54011ea5485d7d196dd5f0ba4d4ef95803e8e3fc257f9190a461115b828483611c59565b600a5460ff16156119f85760405162461bcd60e51b815260206004820152601060248201526f14185d5cd8589b194e881c185d5cd95960821b604482015260640161027d565b600a805460ff191660011790557f62e78cea01bee320cd4e420270b5ea74000d11b0c9f74754ebdbfc544b05a2586119123390565b6109f68282612121565b600061086e611a44611651565b8360405161190160f01b6020820152602281018390526042810182905260009060620160405160208183030381529060405280519060200120905092915050565b6000806000611a9687878787612139565b91509150611aa381612226565b5095945050505050565b6001600160a01b03811660009081526005602052604090208054600181018255905b50919050565b825460009081908015611b205785611aee60018361283b565b81548110611afe57611afe612852565b60009182526020909120015464010000000090046001600160e01b0316611b23565b60005b6001600160e01b03169250611b3c83858763ffffffff16565b9150600081118015611b7a57504386611b5660018461283b565b81548110611b6657611b66612852565b60009182526020909120015463ffffffff16145b15611bda57611b8882611254565b86611b9460018461283b565b81548110611ba457611ba4612852565b9060005260206000200160000160046101000a8154816001600160e01b0302191690836001600160e01b03160217905550611c45565b856040518060400160405280611bef436112c1565b63ffffffff168152602001611c0385611254565b6001600160e01b0390811690915282546001810184556000938452602093849020835194909301519091166401000000000263ffffffff909316929092179101555b50935093915050565b610968838383611326565b816001600160a01b0316836001600160a01b031614158015611c7b5750600081115b15610968576001600160a01b03831615611d09576001600160a01b03831660009081526007602052604081208190611cb69061135885611ad5565b91509150846001600160a01b03167fdec2bacdd2f05b59de34da9b523dff8be42e5e38e818c82fdb0bae774387a7248383604051611cfe929190918252602082015260400190565b60405180910390a250505b6001600160a01b03821615610968576001600160a01b03821660009081526007602052604081208190611d3f9061124885611ad5565b91509150836001600160a01b03167fdec2bacdd2f05b59de34da9b523dff8be42e5e38e818c82fdb0bae774387a7248383604051611d87929190918252602082015260400190565b60405180910390a25050505050565b6001600160a01b038316611dfa5760405162461bcd60e51b815260206004820152602560248201527f45524332303a207472616e736665722066726f6d20746865207a65726f206164604482015264647265737360d81b606482015260840161027d565b6001600160a01b038216611e5c5760405162461bcd60e51b815260206004820152602360248201527f45524332303a207472616e7366657220746f20746865207a65726f206164647260448201526265737360e81b606482015260840161027d565b6001600160a01b03831660009081526020819052604090205481811015611ed45760405162461bcd60e51b815260206004820152602660248201527f45524332303a207472616e7366657220616d6f756e7420657863656564732062604482015265616c616e636560d01b606482015260840161027d565b6001600160a01b03808516600090815260208190526040808220858503905591851681529081208054849290611f0b908490612823565b92505081905550826001600160a01b0316846001600160a01b03167fddf252ad1be2c89b69c2b068fc378daa952ba7f163c4a11628f55a4df523b3ef84604051611f5791815260200190565b60405180910390a361115b848484611c4e565b60606000611f798360026128dd565b611f84906002612823565b67ffffffffffffffff811115611f9c57611f9c6128fc565b6040519080825280601f01601f191660200182016040528015611fc6576020820181803683370190505b509050600360fc1b81600081518110611fe157611fe1612852565b60200101906001600160f81b031916908160001a905350600f60fb1b8160018151811061201057612010612852565b60200101906001600160f81b031916908160001a90535060006120348460026128dd565b61203f906001612823565b90505b60018111156120b7576f181899199a1a9b1b9c1cb0b131b232b360811b85600f166010811061207357612073612852565b1a60f81b82828151811061208957612089612852565b60200101906001600160f81b031916908160001a90535060049490941c936120b081612912565b9050612042565b508315610aac5760405162461bcd60e51b815260206004820181905260248201527f537472696e67733a20686578206c656e67746820696e73756666696369656e74604482015260640161027d565b60006121156002848418612929565b610aac90848416612823565b61212b82826123dc565b61115b600861135883611ad5565b6000807f7fffffffffffffffffffffffffffffff5d576e7357a4501ddfe92f46681b20a0831115612170575060009050600361221d565b8460ff16601b1415801561218857508460ff16601c14155b15612199575060009050600461221d565b6040805160008082526020820180845289905260ff881692820192909252606081018690526080810185905260019060a0016020604051602081039080840390855afa1580156121ed573d6000803e3d6000fd5b5050604051601f1901519150506001600160a01b0381166122165760006001925092505061221d565b9150600090505b94509492505050565b600081600481111561223a5761223a61294b565b036122425750565b60018160048111156122565761225661294b565b036122a35760405162461bcd60e51b815260206004820152601860248201527f45434453413a20696e76616c6964207369676e61747572650000000000000000604482015260640161027d565b60028160048111156122b7576122b761294b565b036123045760405162461bcd60e51b815260206004820152601f60248201527f45434453413a20696e76616c6964207369676e6174757265206c656e67746800604482015260640161027d565b60038160048111156123185761231861294b565b036123705760405162461bcd60e51b815260206004820152602260248201527f45434453413a20696e76616c6964207369676e6174757265202773272076616c604482015261756560f01b606482015260840161027d565b60048160048111156123845761238461294b565b03610ae65760405162461bcd60e51b815260206004820152602260248201527f45434453413a20696e76616c6964207369676e6174757265202776272076616c604482015261756560f01b606482015260840161027d565b6001600160a01b03821661243c5760405162461bcd60e51b815260206004820152602160248201527f45524332303a206275726e2066726f6d20746865207a65726f206164647265736044820152607360f81b606482015260840161027d565b6001600160a01b038216600090815260208190526040902054818110156124b05760405162461bcd60e51b815260206004820152602260248201527f45524332303a206275726e20616d6f756e7420657863656564732062616c616e604482015261636560f01b606482015260840161027d565b6001600160a01b03831660009081526020819052604081208383039055600280548492906124df90849061283b565b90915550506040518281526000906001600160a01b038516907fddf252ad1be2c89b69c2b068fc378daa952ba7f163c4a11628f55a4df523b3ef9060200160405180910390a361096883600084611c4e565b60006020828403121561254357600080fd5b81356001600160e01b031981168114610aac57600080fd5b60005b8381101561257657818101518382015260200161255e565b8381111561115b5750506000910152565b60208152600082518060208401526125a681604085016020870161255b565b601f01601f19169190910160400192915050565b80356001600160a01b03811681146125d157600080fd5b919050565b600080604083850312156125e957600080fd5b6125f2836125ba565b946020939093013593505050565b60008060006060848603121561261557600080fd5b61261e846125ba565b925061262c602085016125ba565b9150604084013590509250925092565b60006020828403121561264e57600080fd5b5035919050565b6000806040838503121561266857600080fd5b82359150612678602084016125ba565b90509250929050565b60006020828403121561269357600080fd5b610aac826125ba565b803560ff811681146125d157600080fd5b60008060008060008060c087890312156126c657600080fd5b6126cf876125ba565b955060208701359450604087013593506126eb6060880161269c565b92506080870135915060a087013590509295509295509295565b600080600080600080600060e0888a03121561272057600080fd5b612729886125ba565b9650612737602089016125ba565b955060408801359450606088013593506127536080890161269c565b925060a0880135915060c0880135905092959891949750929550565b6000806040838503121561278257600080fd5b61278b836125ba565b9150612678602084016125ba565b600080604083850312156127ac57600080fd5b6127b5836125ba565b9150602083013563ffffffff811681146127ce57600080fd5b809150509250929050565b600181811c908216806127ed57607f821691505b602082108103611acf57634e487b7160e01b600052602260045260246000fd5b634e487b7160e01b600052601160045260246000fd5b600082198211156128365761283661280d565b500190565b60008282101561284d5761284d61280d565b500390565b634e487b7160e01b600052603260045260246000fd5b7f416363657373436f6e74726f6c3a206163636f756e74200000000000000000008152600083516128a081601785016020880161255b565b7001034b99036b4b9b9b4b733903937b6329607d1b60179184019182015283516128d181602884016020880161255b565b01602801949350505050565b60008160001904831182151516156128f7576128f761280d565b500290565b634e487b7160e01b600052604160045260246000fd5b6000816129215761292161280d565b506000190190565b60008261294657634e487b7160e01b600052601260045260246000fd5b500490565b634e487b7160e01b600052602160045260246000fdfe85faced7bde13e1a7dad704b895f006e704f207617d68166b31ba2d79624862da2646970667358221220d847c243070be27c7f5fafd757c43227d0fb269ba7609b9fed5241ff89e814bb64736f6c634300080d0033df8b4c520ffe197c5343c6f5aec59570151ef9a492f2c624fd45ddde6135ec42dec2bacdd2f05b59de34da9b523dff8be42e5e38e818c82fdb0bae774387a724",
  "linkReferences": {},
  "deployedLinkReferences": {}
}