{
  "_format": "hh-sol-artifact-1",
  "contractName": "Coin",
  "sourceName": "contracts/Coin.sol",
  "abi": [
    {
      "inputs": [
        {
          "internalType": "uint256",
          "name": "liquidity",
          "type": "uint256"
        }
      ],
      "stateMutability": "nonpayable",
      "type": "constructor"
    },
    {
      "anonymous": false,
      "inputs": [
        {
          "indexed": true,
          "internalType": "address",
          "name": "owner",
          "type": "address"
        },
        {
          "indexed": true,
          "internalType": "address",
          "name": "spender",
          "type": "address"
        },
        {
          "indexed": false,
          "internalType": "uint256",
          "name": "value",
          "type": "uint256"
        }
      ],
      "name": "Approval",
      "type": "event"
    },
    {
      "anonymous": false,
      "inputs": [
        {
          "indexed": true,
          "internalType": "address",
          "name": "buyer",
          "type": "address"
        },
        {
          "indexed": true,
          "internalType": "uint256",
          "name": "bought",
          "type": "uint256"
        }
      ],
      "name": "Bought",
      "type": "event"
    },
    {
      "anonymous": false,
      "inputs": [
        {
          "indexed": true,
          "internalType": "address",
          "name": "delegator",
          "type": "address"
        },
        {
          "indexed": true,
          "internalType": "address",
          "name": "fromDelegate",
          "type": "address"
        },
        {
          "indexed": true,
          "internalType": "address",
          "name": "toDelegate",
          "type": "address"
        }
      ],
      "name": "DelegateChanged",
      "type": "event"
    },
    {
      "anonymous": false,
      "inputs": [
        {
          "indexed": true,
          "internalType": "address",
          "name": "delegate",
          "type": "address"
        },
        {
          "indexed": false,
          "internalType": "uint256",
          "name": "previousBalance",
          "type": "uint256"
        },
        {
          "indexed": false,
          "internalType": "uint256",
          "name": "newBalance",
          "type": "uint256"
        }
      ],
      "name": "DelegateVotesChanged",
      "type": "event"
    },
    {
      "anonymous": false,
      "inputs": [
        {
          "indexed": true,
          "internalType": "address",
          "name": "depositer",
          "type": "address"
        },
        {
          "indexed": true,
          "internalType": "uint256",
          "name": "added",
          "type": "uint256"
        }
      ],
      "name": "Deposit",
      "type": "event"
    },
    {
      "anonymous": false,
      "inputs": [
        {
          "indexed": true,
          "internalType": "bytes32",
          "name": "role",
          "type": "bytes32"
        },
        {
          "indexed": true,
          "internalType": "bytes32",
          "name": "previousAdminRole",
          "type": "bytes32"
        },
        {
          "indexed": true,
          "internalType": "bytes32",
          "name": "newAdminRole",
          "type": "bytes32"
        }
      ],
      "name": "RoleAdminChanged",
      "type": "event"
    },
    {
      "anonymous": false,
      "inputs": [
        {
          "indexed": true,
          "internalType": "bytes32",
          "name": "role",
          "type": "bytes32"
        },
        {
          "indexed": true,
          "internalType": "address",
          "name": "account",
          "type": "address"
        },
        {
          "indexed": true,
          "internalType": "address",
          "name": "sender",
          "type": "address"
        }
      ],
      "name": "RoleGranted",
      "type": "event"
    },
    {
      "anonymous": false,
      "inputs": [
        {
          "indexed": true,
          "internalType": "bytes32",
          "name": "role",
          "type": "bytes32"
        },
        {
          "indexed": true,
          "internalType": "address",
          "name": "account",
          "type": "address"
        },
        {
          "indexed": true,
          "internalType": "address",
          "name": "sender",
          "type": "address"
        }
      ],
      "name": "RoleRevoked",
      "type": "event"
    },
    {
      "anonymous": false,
      "inputs": [
        {
          "indexed": true,
          "internalType": "address",
          "name": "buyer",
          "type": "address"
        },
        {
          "indexed": true,
          "internalType": "uint256",
          "name": "sold",
          "type": "uint256"
        }
      ],
      "name": "Sold",
      "type": "event"
    },
    {
      "anonymous": false,
      "inputs": [
        {
          "indexed": true,
          "internalType": "address",
          "name": "from",
          "type": "address"
        },
        {
          "indexed": true,
          "internalType": "address",
          "name": "to",
          "type": "address"
        },
        {
          "indexed": false,
          "internalType": "uint256",
          "name": "value",
          "type": "uint256"
        }
      ],
      "name": "Transfer",
      "type": "event"
    },
    {
      "inputs": [],
      "name": "ADMIN",
      "outputs": [
        {
          "internalType": "bytes32",
          "name": "",
          "type": "bytes32"
        }
      ],
      "stateMutability": "view",
      "type": "function"
    },
    {
      "inputs": [],
      "name": "BURNER",
      "outputs": [
        {
          "internalType": "bytes32",
          "name": "",
          "type": "bytes32"
        }
      ],
      "stateMutability": "view",
      "type": "function"
    },
    {
      "inputs": [],
      "name": "DECIMALS",
      "outputs": [
        {
          "internalType": "uint256",
          "name": "",
          "type": "uint256"
        }
      ],
      "stateMutability": "view",
      "type": "function"
    },
    {
      "inputs": [],
      "name": "DEFAULT_ADMIN_ROLE",
      "outputs": [
        {
          "internalType": "bytes32",
          "name": "",
          "type": "bytes32"
        }
      ],
      "stateMutability": "view",
      "type": "function"
    },
    {
      "inputs": [],
      "name": "DOMAIN_SEPARATOR",
      "outputs": [
        {
          "internalType": "bytes32",
          "name": "",
          "type": "bytes32"
        }
      ],
      "stateMutability": "view",
      "type": "function"
    },
    {
      "inputs": [],
      "name": "FREELOADER",
      "outputs": [
        {
          "internalType": "bytes32",
          "name": "",
          "type": "bytes32"
        }
      ],
      "stateMutability": "view",
      "type": "function"
    },
    {
      "inputs": [],
      "name": "MINTER",
      "outputs": [
        {
          "internalType": "bytes32",
          "name": "",
          "type": "bytes32"
        }
      ],
      "stateMutability": "view",
      "type": "function"
    },
    {
      "inputs": [],
      "name": "NAME",
      "outputs": [
        {
          "internalType": "string",
          "name": "",
          "type": "string"
        }
      ],
      "stateMutability": "view",
      "type": "function"
    },
    {
      "inputs": [],
      "name": "SPENDER",
      "outputs": [
        {
          "internalType": "bytes32",
          "name": "",
          "type": "bytes32"
        }
      ],
      "stateMutability": "view",
      "type": "function"
    },
    {
      "inputs": [],
      "name": "TICK",
      "outputs": [
        {
          "internalType": "string",
          "name": "",
          "type": "string"
        }
      ],
      "stateMutability": "view",
      "type": "function"
    },
    {
      "inputs": [
        {
          "internalType": "address",
          "name": "owner",
          "type": "address"
        },
        {
          "internalType": "address",
          "name": "spender",
          "type": "address"
        }
      ],
      "name": "allowance",
      "outputs": [
        {
          "internalType": "uint256",
          "name": "",
          "type": "uint256"
        }
      ],
      "stateMutability": "view",
      "type": "function"
    },
    {
      "inputs": [
        {
          "internalType": "address",
          "name": "spender",
          "type": "address"
        },
        {
          "internalType": "uint256",
          "name": "amount",
          "type": "uint256"
        }
      ],
      "name": "approve",
      "outputs": [
        {
          "internalType": "bool",
          "name": "",
          "type": "bool"
        }
      ],
      "stateMutability": "nonpayable",
      "type": "function"
    },
    {
      "inputs": [
        {
          "internalType": "address",
          "name": "account",
          "type": "address"
        }
      ],
      "name": "balanceOf",
      "outputs": [
        {
          "internalType": "uint256",
          "name": "",
          "type": "uint256"
        }
      ],
      "stateMutability": "view",
      "type": "function"
    },
    {
      "inputs": [
        {
          "internalType": "address",
          "name": "account",
          "type": "address"
        },
        {
          "internalType": "uint32",
          "name": "pos",
          "type": "uint32"
        }
      ],
      "name": "checkpoints",
      "outputs": [
        {
          "components": [
            {
              "internalType": "uint32",
              "name": "fromBlock",
              "type": "uint32"
            },
            {
              "internalType": "uint224",
              "name": "votes",
              "type": "uint224"
            }
          ],
          "internalType": "struct ERC20Votes.Checkpoint",
          "name": "",
          "type": "tuple"
        }
      ],
      "stateMutability": "view",
      "type": "function"
    },
    {
      "inputs": [],
      "name": "decimals",
      "outputs": [
        {
          "internalType": "uint8",
          "name": "",
          "type": "uint8"
        }
      ],
      "stateMutability": "view",
      "type": "function"
    },
    {
      "inputs": [
        {
          "internalType": "address",
          "name": "spender",
          "type": "address"
        },
        {
          "internalType": "uint256",
          "name": "subtractedValue",
          "type": "uint256"
        }
      ],
      "name": "decreaseAllowance",
      "outputs": [
        {
          "internalType": "bool",
          "name": "",
          "type": "bool"
        }
      ],
      "stateMutability": "nonpayable",
      "type": "function"
    },
    {
      "inputs": [
        {
          "internalType": "address",
          "name": "delegatee",
          "type": "address"
        }
      ],
      "name": "delegate",
      "outputs": [],
      "stateMutability": "nonpayable",
      "type": "function"
    },
    {
      "inputs": [
        {
          "internalType": "address",
          "name": "delegatee",
          "type": "address"
        },
        {
          "internalType": "uint256",
          "name": "nonce",
          "type": "uint256"
        },
        {
          "internalType": "uint256",
          "name": "expiry",
          "type": "uint256"
        },
        {
          "internalType": "uint8",
          "name": "v",
          "type": "uint8"
        },
        {
          "internalType": "bytes32",
          "name": "r",
          "type": "bytes32"
        },
        {
          "internalType": "bytes32",
          "name": "s",
          "type": "bytes32"
        }
      ],
      "name": "delegateBySig",
      "outputs": [],
      "stateMutability": "nonpayable",
      "type": "function"
    },
    {
      "inputs": [
        {
          "internalType": "address",
          "name": "account",
          "type": "address"
        }
      ],
      "name": "delegates",
      "outputs": [
        {
          "internalType": "address",
          "name": "",
          "type": "address"
        }
      ],
      "stateMutability": "view",
      "type": "function"
    },
    {
      "inputs": [
        {
          "internalType": "uint256",
          "name": "minTokens",
          "type": "uint256"
        },
        {
          "internalType": "uint256",
          "name": "deadline",
          "type": "uint256"
        }
      ],
      "name": "ethToTokenSwapInput",
      "outputs": [
        {
          "internalType": "uint256",
          "name": "",
          "type": "uint256"
        }
      ],
      "stateMutability": "payable",
      "type": "function"
    },
    {
      "inputs": [
        {
          "internalType": "uint256",
          "name": "tokensBought",
          "type": "uint256"
        },
        {
          "internalType": "uint256",
          "name": "deadline",
          "type": "uint256"
        }
      ],
      "name": "ethToTokenSwapOutput",
      "outputs": [
        {
          "internalType": "uint256",
          "name": "",
          "type": "uint256"
        }
      ],
      "stateMutability": "payable",
      "type": "function"
    },
    {
      "inputs": [
        {
          "internalType": "uint256",
          "name": "minTokens",
          "type": "uint256"
        },
        {
          "internalType": "uint256",
          "name": "deadline",
          "type": "uint256"
        },
        {
          "internalType": "address",
          "name": "recipient",
          "type": "address"
        }
      ],
      "name": "ethToTokenTransferInput",
      "outputs": [
        {
          "internalType": "uint256",
          "name": "",
          "type": "uint256"
        }
      ],
      "stateMutability": "payable",
      "type": "function"
    },
    {
      "inputs": [
        {
          "internalType": "uint256",
          "name": "tokensBought",
          "type": "uint256"
        },
        {
          "internalType": "uint256",
          "name": "deadline",
          "type": "uint256"
        },
        {
          "internalType": "address",
          "name": "recipient",
          "type": "address"
        }
      ],
      "name": "ethToTokenTransferOutput",
      "outputs": [
        {
          "internalType": "uint256",
          "name": "",
          "type": "uint256"
        }
      ],
      "stateMutability": "payable",
      "type": "function"
    },
    {
      "inputs": [
        {
          "internalType": "uint256",
          "name": "ethSold",
          "type": "uint256"
        }
      ],
      "name": "getEthToTokenInputPrice",
      "outputs": [
        {
          "internalType": "uint256",
          "name": "",
          "type": "uint256"
        }
      ],
      "stateMutability": "view",
      "type": "function"
    },
    {
      "inputs": [
        {
          "internalType": "uint256",
          "name": "tokensBought",
          "type": "uint256"
        }
      ],
      "name": "getEthToTokenOutputPrice",
      "outputs": [
        {
          "internalType": "uint256",
          "name": "",
          "type": "uint256"
        }
      ],
      "stateMutability": "view",
      "type": "function"
    },
    {
      "inputs": [
        {
          "internalType": "uint256",
          "name": "inputAmount",
          "type": "uint256"
        },
        {
          "internalType": "uint256",
          "name": "inputReserve",
          "type": "uint256"
        },
        {
          "internalType": "uint256",
          "name": "outputReserve",
          "type": "uint256"
        }
      ],
      "name": "getInputPrice",
      "outputs": [
        {
          "internalType": "uint256",
          "name": "",
          "type": "uint256"
        }
      ],
      "stateMutability": "view",
      "type": "function"
    },
    {
      "inputs": [
        {
          "internalType": "uint256",
          "name": "outputAmount",
          "type": "uint256"
        },
        {
          "internalType": "uint256",
          "name": "inputReserve",
          "type": "uint256"
        },
        {
          "internalType": "uint256",
          "name": "outputReserve",
          "type": "uint256"
        }
      ],
      "name": "getOutputPrice",
      "outputs": [
        {
          "internalType": "uint256",
          "name": "",
          "type": "uint256"
        }
      ],
      "stateMutability": "view",
      "type": "function"
    },
    {
      "inputs": [
        {
          "internalType": "uint256",
          "name": "blockNumber",
          "type": "uint256"
        }
      ],
      "name": "getPastTotalSupply",
      "outputs": [
        {
          "internalType": "uint256",
          "name": "",
          "type": "uint256"
        }
      ],
      "stateMutability": "view",
      "type": "function"
    },
    {
      "inputs": [
        {
          "internalType": "address",
          "name": "account",
          "type": "address"
        },
        {
          "internalType": "uint256",
          "name": "blockNumber",
          "type": "uint256"
        }
      ],
      "name": "getPastVotes",
      "outputs": [
        {
          "internalType": "uint256",
          "name": "",
          "type": "uint256"
        }
      ],
      "stateMutability": "view",
      "type": "function"
    },
    {
      "inputs": [
        {
          "internalType": "bytes32",
          "name": "role",
          "type": "bytes32"
        }
      ],
      "name": "getRoleAdmin",
      "outputs": [
        {
          "internalType": "bytes32",
          "name": "",
          "type": "bytes32"
        }
      ],
      "stateMutability": "view",
      "type": "function"
    },
    {
      "inputs": [
        {
          "internalType": "uint256",
          "name": "tokensSold",
          "type": "uint256"
        }
      ],
      "name": "getTokenToEthInputPrice",
      "outputs": [
        {
          "internalType": "uint256",
          "name": "",
          "type": "uint256"
        }
      ],
      "stateMutability": "view",
      "type": "function"
    },
    {
      "inputs": [
        {
          "internalType": "uint256",
          "name": "ethBought",
          "type": "uint256"
        }
      ],
      "name": "getTokenToEthOutputPrice",
      "outputs": [
        {
          "internalType": "uint256",
          "name": "",
          "type": "uint256"
        }
      ],
      "stateMutability": "view",
      "type": "function"
    },
    {
      "inputs": [
        {
          "internalType": "address",
          "name": "account",
          "type": "address"
        }
      ],
      "name": "getVotes",
      "outputs": [
        {
          "internalType": "uint256",
          "name": "",
          "type": "uint256"
        }
      ],
      "stateMutability": "view",
      "type": "function"
    },
    {
      "inputs": [
        {
          "internalType": "bytes32",
          "name": "role",
          "type": "bytes32"
        },
        {
          "internalType": "address",
          "name": "account",
          "type": "address"
        }
      ],
      "name": "grantRole",
      "outputs": [],
      "stateMutability": "nonpayable",
      "type": "function"
    },
    {
      "inputs": [
        {
          "internalType": "bytes32",
          "name": "role",
          "type": "bytes32"
        },
        {
          "internalType": "address",
          "name": "account",
          "type": "address"
        }
      ],
      "name": "hasRole",
      "outputs": [
        {
          "internalType": "bool",
          "name": "",
          "type": "bool"
        }
      ],
      "stateMutability": "view",
      "type": "function"
    },
    {
      "inputs": [
        {
          "internalType": "address",
          "name": "spender",
          "type": "address"
        },
        {
          "internalType": "uint256",
          "name": "addedValue",
          "type": "uint256"
        }
      ],
      "name": "increaseAllowance",
      "outputs": [
        {
          "internalType": "bool",
          "name": "",
          "type": "bool"
        }
      ],
      "stateMutability": "nonpayable",
      "type": "function"
    },
    {
      "inputs": [],
      "name": "liqudityGuard",
      "outputs": [
        {
          "internalType": "uint256",
          "name": "",
          "type": "uint256"
        }
      ],
      "stateMutability": "view",
      "type": "function"
    },
    {
      "inputs": [],
      "name": "liqudityGuardDenominator",
      "outputs": [
        {
          "internalType": "uint256",
          "name": "",
          "type": "uint256"
        }
      ],
      "stateMutability": "view",
      "type": "function"
    },
    {
      "inputs": [],
      "name": "name",
      "outputs": [
        {
          "internalType": "string",
          "name": "",
          "type": "string"
        }
      ],
      "stateMutability": "view",
      "type": "function"
    },
    {
      "inputs": [
        {
          "internalType": "address",
          "name": "owner",
          "type": "address"
        }
      ],
      "name": "nonces",
      "outputs": [
        {
          "internalType": "uint256",
          "name": "",
          "type": "uint256"
        }
      ],
      "stateMutability": "view",
      "type": "function"
    },
    {
      "inputs": [
        {
          "internalType": "address",
          "name": "account",
          "type": "address"
        }
      ],
      "name": "numCheckpoints",
      "outputs": [
        {
          "internalType": "uint32",
          "name": "",
          "type": "uint32"
        }
      ],
      "stateMutability": "view",
      "type": "function"
    },
    {
      "inputs": [
        {
          "internalType": "address",
          "name": "owner",
          "type": "address"
        },
        {
          "internalType": "address",
          "name": "spender",
          "type": "address"
        },
        {
          "internalType": "uint256",
          "name": "value",
          "type": "uint256"
        },
        {
          "internalType": "uint256",
          "name": "deadline",
          "type": "uint256"
        },
        {
          "internalType": "uint8",
          "name": "v",
          "type": "uint8"
        },
        {
          "internalType": "bytes32",
          "name": "r",
          "type": "bytes32"
        },
        {
          "internalType": "bytes32",
          "name": "s",
          "type": "bytes32"
        }
      ],
      "name": "permit",
      "outputs": [],
      "stateMutability": "nonpayable",
      "type": "function"
    },
    {
      "inputs": [
        {
          "internalType": "bytes32",
          "name": "role",
          "type": "bytes32"
        },
        {
          "internalType": "address",
          "name": "account",
          "type": "address"
        }
      ],
      "name": "renounceRole",
      "outputs": [],
      "stateMutability": "nonpayable",
      "type": "function"
    },
    {
      "inputs": [
        {
          "internalType": "bytes32",
          "name": "role",
          "type": "bytes32"
        },
        {
          "internalType": "address",
          "name": "account",
          "type": "address"
        }
      ],
      "name": "revokeRole",
      "outputs": [],
      "stateMutability": "nonpayable",
      "type": "function"
    },
    {
      "inputs": [
        {
          "internalType": "uint256",
          "name": "_guard",
          "type": "uint256"
        },
        {
          "internalType": "uint256",
          "name": "_denominator",
          "type": "uint256"
        }
      ],
      "name": "setLiqudityGuard",
      "outputs": [],
      "stateMutability": "nonpayable",
      "type": "function"
    },
    {
      "inputs": [
        {
          "internalType": "uint256",
          "name": "_feePercent",
          "type": "uint256"
        }
      ],
      "name": "setTaxFee",
      "outputs": [],
      "stateMutability": "nonpayable",
      "type": "function"
    },
    {
      "inputs": [
        {
          "internalType": "bytes4",
          "name": "interfaceId",
          "type": "bytes4"
        }
      ],
      "name": "supportsInterface",
      "outputs": [
        {
          "internalType": "bool",
          "name": "",
          "type": "bool"
        }
      ],
      "stateMutability": "view",
      "type": "function"
    },
    {
      "inputs": [],
      "name": "symbol",
      "outputs": [
        {
          "internalType": "string",
          "name": "",
          "type": "string"
        }
      ],
      "stateMutability": "view",
      "type": "function"
    },
    {
      "inputs": [],
      "name": "taxFee",
      "outputs": [
        {
          "internalType": "uint256",
          "name": "",
          "type": "uint256"
        }
      ],
      "stateMutability": "view",
      "type": "function"
    },
    {
      "inputs": [
        {
          "internalType": "address",
          "name": "burnee",
          "type": "address"
        },
        {
          "internalType": "uint256",
          "name": "tokensToBeBurned",
          "type": "uint256"
        }
      ],
      "name": "tokenBurn",
      "outputs": [],
      "stateMutability": "nonpayable",
      "type": "function"
    },
    {
      "inputs": [
        {
          "internalType": "address",
          "name": "burnee",
          "type": "address"
        },
        {
          "internalType": "uint256",
          "name": "ethToBeBurned",
          "type": "uint256"
        }
      ],
      "name": "tokenEthBurn",
      "outputs": [],
      "stateMutability": "nonpayable",
      "type": "function"
    },
    {
      "inputs": [
        {
          "internalType": "address",
          "name": "recipient",
          "type": "address"
        },
        {
          "internalType": "uint256",
          "name": "amount",
          "type": "uint256"
        }
      ],
      "name": "tokenMint",
      "outputs": [],
      "stateMutability": "nonpayable",
      "type": "function"
    },
    {
      "inputs": [
        {
          "internalType": "uint256",
          "name": "tokensSold",
          "type": "uint256"
        },
        {
          "internalType": "uint256",
          "name": "minEth",
          "type": "uint256"
        },
        {
          "internalType": "uint256",
          "name": "deadline",
          "type": "uint256"
        }
      ],
      "name": "tokenToEthSwapInput",
      "outputs": [
        {
          "internalType": "uint256",
          "name": "",
          "type": "uint256"
        }
      ],
      "stateMutability": "nonpayable",
      "type": "function"
    },
    {
      "inputs": [
        {
          "internalType": "uint256",
          "name": "ethBought",
          "type": "uint256"
        },
        {
          "internalType": "uint256",
          "name": "maxTokens",
          "type": "uint256"
        },
        {
          "internalType": "uint256",
          "name": "deadline",
          "type": "uint256"
        }
      ],
      "name": "tokenToEthSwapOutput",
      "outputs": [
        {
          "internalType": "uint256",
          "name": "",
          "type": "uint256"
        }
      ],
      "stateMutability": "nonpayable",
      "type": "function"
    },
    {
      "inputs": [
        {
          "internalType": "uint256",
          "name": "tokensSold",
          "type": "uint256"
        },
        {
          "internalType": "uint256",
          "name": "minEth",
          "type": "uint256"
        },
        {
          "internalType": "uint256",
          "name": "deadline",
          "type": "uint256"
        },
        {
          "internalType": "address payable",
          "name": "recipient",
          "type": "address"
        }
      ],
      "name": "tokenToEthTransferInput",
      "outputs": [
        {
          "internalType": "uint256",
          "name": "",
          "type": "uint256"
        }
      ],
      "stateMutability": "nonpayable",
      "type": "function"
    },
    {
      "inputs": [
        {
          "internalType": "uint256",
          "name": "ethBought",
          "type": "uint256"
        },
        {
          "internalType": "uint256",
          "name": "maxTokens",
          "type": "uint256"
        },
        {
          "internalType": "uint256",
          "name": "deadline",
          "type": "uint256"
        },
        {
          "internalType": "address payable",
          "name": "recipient",
          "type": "address"
        }
      ],
      "name": "tokenToEthTransferOutput",
      "outputs": [
        {
          "internalType": "uint256",
          "name": "",
          "type": "uint256"
        }
      ],
      "stateMutability": "nonpayable",
      "type": "function"
    },
    {
      "inputs": [],
      "name": "totalSupply",
      "outputs": [
        {
          "internalType": "uint256",
          "name": "",
          "type": "uint256"
        }
      ],
      "stateMutability": "view",
      "type": "function"
    },
    {
      "inputs": [
        {
          "internalType": "address",
          "name": "to",
          "type": "address"
        },
        {
          "internalType": "uint256",
          "name": "amount",
          "type": "uint256"
        }
      ],
      "name": "transfer",
      "outputs": [
        {
          "internalType": "bool",
          "name": "",
          "type": "bool"
        }
      ],
      "stateMutability": "nonpayable",
      "type": "function"
    },
    {
      "inputs": [
        {
          "internalType": "address",
          "name": "from",
          "type": "address"
        },
        {
          "internalType": "address",
          "name": "to",
          "type": "address"
        },
        {
          "internalType": "uint256",
          "name": "amount",
          "type": "uint256"
        }
      ],
      "name": "transferFrom",
      "outputs": [
        {
          "internalType": "bool",
          "name": "",
          "type": "bool"
        }
      ],
      "stateMutability": "nonpayable",
      "type": "function"
    },
    {
      "stateMutability": "payable",
      "type": "receive"
    }
  ],
  "bytecode": "0x6101606040527f6e71edae12b1b97f4d1f60370fef10105fa2faae0126114a169c64845d6126c9610140526005600a556003600b556103e8600c553480156200004757600080fd5b50604051620042c1380380620042c18339810160408190526200006a9162000b12565b6040518060400160405280601081526020016f213937ba3432b93437b7b21021b7b4b760811b81525080604051806040016040528060018152602001603160f81b8152506040518060400160405280601081526020016f213937ba3432b93437b7b21021b7b4b760811b8152506040518060400160405280600381526020016242484360e81b81525081600390805190602001906200010b92919062000a76565b5080516200012190600490602084019062000a76565b5050825160209384012082519284019290922060e08390526101008190524660a0818152604080517f8b73c3c69bb8fe3d512ecc4cf759cc79239f7b179b0ffacaa9a75d522b39400f818901819052818301979097526060810194909452608080850193909352308483018190528151808603909301835260c0948501909152815191909601209052929092526101205250620001f090507f9667e80708b6eeeb0053fa0cca44e028ff548e2a9f029edfeac87c118b08b7c860008051602062004281833981519152620002ee565b6200022b7ff0887ba65ee2024ea881d91b74c2450ef19e1557f03bed3ea9f16b037cbe2dc960008051602062004281833981519152620002ee565b620002667fa2cac083293772ca6820c9740cb63f055c62ed365baba8fc5026f75b1d6bc37a60008051602062004281833981519152620002ee565b620002a17fbebcc3bcc74120a8badce5304c97c03dfe5b5f74a094d4cf5820df794bcfac5960008051602062004281833981519152620002ee565b620002bc600080516020620042818339815191523362000339565b620002db30620002d5670de0b6b3a76400008462000b42565b62000349565b620002e7303362000360565b5062000beb565b600082815260096020526040808220600101805490849055905190918391839186917fbd79b86ffe0ab8e8776151514217cd7cacd52c909f66475c3af44e129f0b00ff9190a4505050565b620003458282620003e1565b5050565b6200034582826200048560201b620018bd1760201c565b6001600160a01b038281166000818152600660208181526040808420805485845282862054949093528787166001600160a01b03198416811790915590519190951694919391928592917f3134e8a2e6d97e929a7e54011ea5485d7d196dd5f0ba4d4ef95803e8e3fc257f9190a4620003db82848362000536565b50505050565b60008281526009602090815260408083206001600160a01b038516845290915290205460ff16620003455760008281526009602090815260408083206001600160a01b03851684529091529020805460ff19166001179055620004413390565b6001600160a01b0316816001600160a01b0316837f2f8788117e7eff1d82e926ec794901d17c78024a50270940304540a733656f0d60405160405180910390a45050565b6200049c82826200067260201b6200194d1760201c565b6001600160e01b03620004b0620007618216565b11156200051d5760405162461bcd60e51b815260206004820152603060248201527f4552433230566f7465733a20746f74616c20737570706c79207269736b73206f60448201526f766572666c6f77696e6720766f74657360801b60648201526084015b60405180910390fd5b620003db600862001a346200076760201b17836200077c565b816001600160a01b0316836001600160a01b031614158015620005595750600081115b156200066d576001600160a01b03831615620005e6576001600160a01b038316600090815260076020908152604082208291620005a391906200092e901b62001a4017856200077c565b91509150846001600160a01b0316600080516020620042a18339815191528383604051620005db929190918252602082015260400190565b60405180910390a250505b6001600160a01b038216156200066d576001600160a01b0382166000908152600760209081526040822082916200062a919062000767901b62001a3417856200077c565b91509150836001600160a01b0316600080516020620042a1833981519152838360405162000662929190918252602082015260400190565b60405180910390a250505b505050565b6001600160a01b038216620006ca5760405162461bcd60e51b815260206004820152601f60248201527f45524332303a206d696e7420746f20746865207a65726f206164647265737300604482015260640162000514565b8060026000828254620006de919062000b64565b90915550506001600160a01b038216600090815260208190526040812080548392906200070d90849062000b64565b90915550506040518181526001600160a01b038316906000907fddf252ad1be2c89b69c2b068fc378daa952ba7f163c4a11628f55a4df523b3ef9060200160405180910390a362000345600083836200093c565b60025490565b600062000775828462000b64565b9392505050565b825460009081908015620007ce57856200079860018362000b7f565b81548110620007ab57620007ab62000b99565b60009182526020909120015464010000000090046001600160e01b0316620007d1565b60005b6001600160e01b03169250620007e883858760201c565b91506000811180156200082c575043866200080560018462000b7f565b8154811062000818576200081862000b99565b60009182526020909120015463ffffffff16145b15620008a05762000848826200095460201b62001a4c1760201c565b866200085660018462000b7f565b8154811062000869576200086962000b99565b9060005260206000200160000160046101000a8154816001600160e01b0302191690836001600160e01b0316021790555062000925565b856040518060400160405280620008c243620009c360201b62001ab91760201c565b63ffffffff168152602001620008e3856200095460201b62001a4c1760201c565b6001600160e01b0390811690915282546001810184556000938452602093849020835194909301519091166401000000000263ffffffff909316929092179101555b50935093915050565b600062000775828462000b7f565b6200066d83838362000a2a60201b62001b1e1760201c565b60006001600160e01b03821115620009bf5760405162461bcd60e51b815260206004820152602760248201527f53616665436173743a2076616c756520646f65736e27742066697420696e20326044820152663234206269747360c81b606482015260840162000514565b5090565b600063ffffffff821115620009bf5760405162461bcd60e51b815260206004820152602660248201527f53616665436173743a2076616c756520646f65736e27742066697420696e203360448201526532206269747360d01b606482015260840162000514565b62000a428383836200066d60201b62000dc41760201c565b6001600160a01b038381166000908152600660205260408082205485841683529120546200066d9291821691168362000536565b82805462000a849062000baf565b90600052602060002090601f01602090048101928262000aa8576000855562000af3565b82601f1062000ac357805160ff191683800117855562000af3565b8280016001018555821562000af3579182015b8281111562000af357825182559160200191906001019062000ad6565b50620009bf9291505b80821115620009bf576000815560010162000afc565b60006020828403121562000b2557600080fd5b5051919050565b634e487b7160e01b600052601160045260246000fd5b600081600019048311821515161562000b5f5762000b5f62000b2c565b500290565b6000821982111562000b7a5762000b7a62000b2c565b500190565b60008282101562000b945762000b9462000b2c565b500390565b634e487b7160e01b600052603260045260246000fd5b600181811c9082168062000bc457607f821691505b60208210810362000be557634e487b7160e01b600052602260045260246000fd5b50919050565b60805160a05160c05160e05161010051610120516101405161363b62000c466000396000611607015260006121270152600061217601526000612151015260006120aa015260006120d4015260006120fe015261363b6000f3fe6080604052600436106103905760003560e01c806389f2a871116101dc578063bcffa6cd11610102578063dd62ed3e116100a0578063f39b5b9b1161006f578063f39b5b9b14610b66578063f88d7f3114610b79578063fd11c22314610b99578063fe6d812414610bb957600080fd5b8063dd62ed3e14610aa0578063eef892aa14610ae6578063efaa91b714610b06578063f1127ed814610b1c57600080fd5b8063cd7724c3116100dc578063cd7724c314610a20578063d4e4841d14610a40578063d505accf14610a60578063d547741f14610a8057600080fd5b8063bcffa6cd146109b1578063c3cda520146109e0578063c4081a4c14610a0057600080fd5b80639ab24eb01161017a578063a457c2d711610149578063a457c2d71461092a578063a9059cbb1461094a578063ad65d76d1461096a578063bc17c2901461097d57600080fd5b80639ab24eb0146108a3578063a071dcf4146108c3578063a217fddf146108d9578063a3f4df7e146108ee57600080fd5b806391d14854116101b657806391d148541461082e57806395b68fe71461084e57806395d89b411461086e57806395e3c50b1461088357600080fd5b806389f2a871146107ce5780638c4302ad146107ee5780638e539e8c1461080e57600080fd5b80633644e515116102c1578063691ea0551161025f57806370a082311161022e57806370a082311461073a5780637237e0311461075a5780637ecebe001461077a578063834c13991461079a57600080fd5b8063691ea055146106bc5780636a0bf670146106dc5780636b1d4db7146106f25780636fcfff451461070557600080fd5b80633a46b1a81161029b5780633a46b1a81461060b578063587cde1e1461062b57806359e948621461067c5780635c19a95c1461069c57600080fd5b80633644e515146105b657806336568abe146105cb57806339509351146105eb57600080fd5b806323b872dd1161032e5780632a0acc6a116103085780632a0acc6a1461053a5780632e0f26251461055c5780632f2ff15d14610578578063313ce5671461059a57600080fd5b806323b872dd146104ca578063248a9ca3146104ea5780632640f62c1461051a57600080fd5b8063095ea7b31161036a578063095ea7b31461044e5780630b5736381461046e578063118c4f131461048157806318160ddd146104b557600080fd5b8063013efd8b146103c957806301ffc9a7146103fc57806306fdde031461042c57600080fd5b366103c457604051349033907fe1fffcc4923d04b559f4d29a8bfc6cda04eb5b0d3c460751c2402c5c5cc9109c90600090a3005b600080fd5b3480156103d557600080fd5b506103e96103e436600461308f565b610bed565b6040519081526020015b60405180910390f35b34801561040857600080fd5b5061041c6104173660046130bb565b610c04565b60405190151581526020016103f3565b34801561043857600080fd5b50610441610c3b565b6040516103f39190613111565b34801561045a57600080fd5b5061041c610469366004613159565b610ccd565b6103e961047c366004613185565b610ce5565b34801561048d57600080fd5b506103e97f9667e80708b6eeeb0053fa0cca44e028ff548e2a9f029edfeac87c118b08b7c881565b3480156104c157600080fd5b506002546103e9565b3480156104d657600080fd5b5061041c6104e53660046131be565b610d3a565b3480156104f657600080fd5b506103e96105053660046131ff565b60009081526009602052604090206001015490565b34801561052657600080fd5b506103e96105353660046131ff565b610d5e565b34801561054657600080fd5b506103e96000805160206135e683398151915281565b34801561056857600080fd5b506103e9670de0b6b3a764000081565b34801561058457600080fd5b50610598610593366004613218565b610d9e565b005b3480156105a657600080fd5b50604051601281526020016103f3565b3480156105c257600080fd5b506103e9610dc9565b3480156105d757600080fd5b506105986105e6366004613218565b610dd8565b3480156105f757600080fd5b5061041c610606366004613159565b610e56565b34801561061757600080fd5b506103e9610626366004613159565b610e95565b34801561063757600080fd5b50610664610646366004613248565b6001600160a01b039081166000908152600660205260409020541690565b6040516001600160a01b0390911681526020016103f3565b34801561068857600080fd5b506103e96106973660046131ff565b610f08565b3480156106a857600080fd5b506105986106b7366004613248565b610f43565b3480156106c857600080fd5b506105986106d7366004613159565b610f50565b3480156106e857600080fd5b506103e9600b5481565b6103e9610700366004613265565b610fa8565b34801561071157600080fd5b50610725610720366004613248565b610fb7565b60405163ffffffff90911681526020016103f3565b34801561074657600080fd5b506103e9610755366004613248565b610fd9565b34801561076657600080fd5b506103e9610775366004613287565b610ff4565b34801561078657600080fd5b506103e9610795366004613248565b611049565b3480156107a657600080fd5b506103e97fbebcc3bcc74120a8badce5304c97c03dfe5b5f74a094d4cf5820df794bcfac5981565b3480156107da57600080fd5b506103e96107e936600461308f565b611067565b3480156107fa57600080fd5b50610598610809366004613265565b611118565b34801561081a57600080fd5b506103e96108293660046131ff565b61113d565b34801561083a57600080fd5b5061041c610849366004613218565b611199565b34801561085a57600080fd5b506103e96108693660046131ff565b6111c4565b34801561087a57600080fd5b506104416111ff565b34801561088f57600080fd5b506103e961089e36600461308f565b61120e565b3480156108af57600080fd5b506103e96108be366004613248565b61121d565b3480156108cf57600080fd5b506103e9600a5481565b3480156108e557600080fd5b506103e9600081565b3480156108fa57600080fd5b506104416040518060400160405280601081526020016f213937ba3432b93437b7b21021b7b4b760811b81525081565b34801561093657600080fd5b5061041c610945366004613159565b6112a4565b34801561095657600080fd5b5061041c610965366004613159565b611336565b6103e9610978366004613185565b611344565b34801561098957600080fd5b506103e97fa2cac083293772ca6820c9740cb63f055c62ed365baba8fc5026f75b1d6bc37a81565b3480156109bd57600080fd5b506104416040518060400160405280600381526020016242484360e81b81525081565b3480156109ec57600080fd5b506105986109fb3660046132de565b611390565b348015610a0c57600080fd5b50610598610a1b3660046131ff565b6114c6565b348015610a2c57600080fd5b506103e9610a3b3660046131ff565b61152e565b348015610a4c57600080fd5b506103e9610a5b366004613287565b611567565b348015610a6c57600080fd5b50610598610a7b366004613338565b6115b3565b348015610a8c57600080fd5b50610598610a9b366004613218565b611717565b348015610aac57600080fd5b506103e9610abb3660046133a6565b6001600160a01b03918216600090815260016020908152604080832093909416825291909152205490565b348015610af257600080fd5b50610598610b01366004613159565b61173d565b348015610b1257600080fd5b506103e9600c5481565b348015610b2857600080fd5b50610b3c610b373660046133d4565b611772565b60408051825163ffffffff1681526020928301516001600160e01b031692810192909252016103f3565b6103e9610b74366004613265565b6117f6565b348015610b8557600080fd5b50610598610b94366004613159565b611805565b348015610ba557600080fd5b506103e9610bb436600461308f565b61183a565b348015610bc557600080fd5b506103e97ff0887ba65ee2024ea881d91b74c2450ef19e1557f03bed3ea9f16b037cbe2dc981565b6000610bfc8484843333611b50565b949350505050565b60006001600160e01b03198216637965db0b60e01b1480610c3557506301ffc9a760e01b6001600160e01b03198316145b92915050565b606060038054610c4a9061340b565b80601f0160208091040260200160405190810160405280929190818152602001828054610c769061340b565b8015610cc35780601f10610c9857610100808354040283529160200191610cc3565b820191906000526020600020905b815481529060010190602001808311610ca657829003601f168201915b5050505050905090565b600033610cdb818585611bc6565b5060019392505050565b60006001600160a01b0382163014801590610d0857506001600160a01b03821615155b610d2d5760405162461bcd60e51b8152600401610d249061343f565b60405180910390fd5b610bfc8434853386611cea565b600033610d48858285611d7e565b610d53858585611ddf565b506001949350505050565b6000808211610d7f5760405162461bcd60e51b8152600401610d249061346a565b6000610d8a30610fd9565b9050610d9783824761183a565b9392505050565b600082815260096020526040902060010154610dba8133611fb3565b610dc48383612017565b505050565b6000610dd361209d565b905090565b6001600160a01b0381163314610e485760405162461bcd60e51b815260206004820152602f60248201527f416363657373436f6e74726f6c3a2063616e206f6e6c792072656e6f756e636560448201526e103937b632b9903337b91039b2b63360891b6064820152608401610d24565b610e5282826121c4565b5050565b3360008181526001602090815260408083206001600160a01b0387168452909152812054909190610cdb9082908690610e909087906134a7565b611bc6565b6000438210610ee65760405162461bcd60e51b815260206004820152601f60248201527f4552433230566f7465733a20626c6f636b206e6f7420796574206d696e6564006044820152606401610d24565b6001600160a01b0383166000908152600760205260409020610d97908361222b565b6000808211610f295760405162461bcd60e51b8152600401610d249061346a565b6000610f3430610fd9565b90506000610bfc84478461183a565b610f4d33826122e8565b50565b7f9667e80708b6eeeb0053fa0cca44e028ff548e2a9f029edfeac87c118b08b7c8610f7b8133611fb3565b6000610f8630610fd9565b90506000610f9584834761183a565b9050610fa18582612377565b5050505050565b6000610d978334843333611cea565b6001600160a01b038116600090815260076020526040812054610c3590611ab9565b6001600160a01b031660009081526020819052604090205490565b60006001600160a01b038216301480159061101757506001600160a01b03821615155b6110335760405162461bcd60e51b8152600401610d249061343f565b6110408585853386612381565b95945050505050565b6001600160a01b038116600090815260056020526040812054610c35565b600080831180156110785750600082115b6110b45760405162461bcd60e51b815260206004820152600d60248201526c494e56414c49445f56414c554560981b6044820152606401610d24565b60006110d0600b54600c546110c991906134bf565b8690612403565b905060006110de8285612403565b90506000611101836110fb600c548961240390919063ffffffff16565b90611a34565b905061110d81836134d6565b979650505050505050565b6000805160206135e68339815191526111318133611fb3565b50600b91909155600c55565b600043821061118e5760405162461bcd60e51b815260206004820152601f60248201527f4552433230566f7465733a20626c6f636b206e6f7420796574206d696e6564006044820152606401610d24565b610c3560088361222b565b60009182526009602090815260408084206001600160a01b0393909316845291905290205460ff1690565b60008082116111e55760405162461bcd60e51b8152600401610d249061346a565b60006111f030610fd9565b90506000610bfc848347611067565b606060048054610c4a9061340b565b6000610bfc8484843333612381565b6001600160a01b0381166000908152600760205260408120548015611291576001600160a01b038316600090815260076020526040902061125f6001836134bf565b8154811061126f5761126f6134f8565b60009182526020909120015464010000000090046001600160e01b0316611294565b60005b6001600160e01b03169392505050565b3360008181526001602090815260408083206001600160a01b0387168452909152812054909190838110156113295760405162461bcd60e51b815260206004820152602560248201527f45524332303a2064656372656173656420616c6c6f77616e63652062656c6f77604482015264207a65726f60d81b6064820152608401610d24565b610d538286868403611bc6565b600033610cdb818585611ddf565b60006001600160a01b038216301480159061136757506001600160a01b03821615155b6113835760405162461bcd60e51b8152600401610d249061343f565b610bfc348585338661240f565b834211156113e05760405162461bcd60e51b815260206004820152601d60248201527f4552433230566f7465733a207369676e617475726520657870697265640000006044820152606401610d24565b604080517fe48329057bfd03d55e49b547132e39cffd9c1820ad7b9d4c5307691425d15adf60208201526001600160a01b03881691810191909152606081018690526080810185905260009061145a906114529060a001604051602081830303815290604052805190602001206124c9565b858585612517565b90506114658161253f565b86146114b35760405162461bcd60e51b815260206004820152601960248201527f4552433230566f7465733a20696e76616c6964206e6f6e6365000000000000006044820152606401610d24565b6114bd81886122e8565b50505050505050565b6000805160206135e68339815191526114df8133611fb3565b600f82106115285760405162461bcd60e51b81526020600482015260166024820152756d6178696d756d20746178206665652069732031352560501b6044820152606401610d24565b50600a55565b600080821161154f5760405162461bcd60e51b8152600401610d249061346a565b600061155a30610fd9565b9050610d97834783611067565b60006001600160a01b038216301480159061158a57506001600160a01b03821615155b6115a65760405162461bcd60e51b8152600401610d249061343f565b6110408585853386611b50565b834211156116035760405162461bcd60e51b815260206004820152601d60248201527f45524332305065726d69743a206578706972656420646561646c696e650000006044820152606401610d24565b60007f00000000000000000000000000000000000000000000000000000000000000008888886116328c61253f565b6040805160208101969096526001600160a01b0394851690860152929091166060840152608083015260a082015260c0810186905260e001604051602081830303815290604052805190602001209050600061168d826124c9565b9050600061169d82878787612517565b9050896001600160a01b0316816001600160a01b0316146117005760405162461bcd60e51b815260206004820152601e60248201527f45524332305065726d69743a20696e76616c6964207369676e617475726500006044820152606401610d24565b61170b8a8a8a611bc6565b50505050505050505050565b6000828152600960205260409020600101546117338133611fb3565b610dc483836121c4565b7ff0887ba65ee2024ea881d91b74c2450ef19e1557f03bed3ea9f16b037cbe2dc96117688133611fb3565b610dc48383612567565b60408051808201909152600080825260208201526001600160a01b0383166000908152600760205260409020805463ffffffff84169081106117b6576117b66134f8565b60009182526020918290206040805180820190915291015463ffffffff8116825264010000000090046001600160e01b0316918101919091529392505050565b6000610d97348484333361240f565b7f9667e80708b6eeeb0053fa0cca44e028ff548e2a9f029edfeac87c118b08b7c86118308133611fb3565b610dc48383612377565b6000808311801561184b5750600082115b6118675760405162461bcd60e51b8152600401610d249061346a565b600c546000906118819061187b8688612403565b90612403565b905060006118a2600b54600c5461189891906134bf565b61187b8689611a40565b90506118b360016110fb83856134d6565b9695505050505050565b6118c7828261194d565b6002546001600160e01b0310156119395760405162461bcd60e51b815260206004820152603060248201527f4552433230566f7465733a20746f74616c20737570706c79207269736b73206f60448201526f766572666c6f77696e6720766f74657360801b6064820152608401610d24565b6119476008611a3483612571565b50505050565b6001600160a01b0382166119a35760405162461bcd60e51b815260206004820152601f60248201527f45524332303a206d696e7420746f20746865207a65726f2061646472657373006044820152606401610d24565b80600260008282546119b591906134a7565b90915550506001600160a01b038216600090815260208190526040812080548392906119e29084906134a7565b90915550506040518181526001600160a01b038316906000907fddf252ad1be2c89b69c2b068fc378daa952ba7f163c4a11628f55a4df523b3ef9060200160405180910390a3610e52600083836126ea565b6000610d9782846134a7565b6000610d9782846134bf565b60006001600160e01b03821115611ab55760405162461bcd60e51b815260206004820152602760248201527f53616665436173743a2076616c756520646f65736e27742066697420696e20326044820152663234206269747360c81b6064820152608401610d24565b5090565b600063ffffffff821115611ab55760405162461bcd60e51b815260206004820152602660248201527f53616665436173743a2076616c756520646f65736e27742066697420696e203360448201526532206269747360d01b6064820152608401610d24565b6001600160a01b03838116600090815260066020526040808220548584168352912054610dc4929182169116836126f5565b6000428410158015611b625750600086115b611b7e5760405162461bcd60e51b8152600401610d249061346a565b6000611b8930610fd9565b90506000611b9888834761183a565b905080871015611bba5760405162461bcd60e51b8152600401610d249061346a565b61110d8585838b612832565b6001600160a01b038316611c285760405162461bcd60e51b8152602060048201526024808201527f45524332303a20617070726f76652066726f6d20746865207a65726f206164646044820152637265737360e01b6064820152608401610d24565b6001600160a01b038216611c895760405162461bcd60e51b815260206004820152602260248201527f45524332303a20617070726f766520746f20746865207a65726f206164647265604482015261737360f01b6064820152608401610d24565b6001600160a01b0383811660008181526001602090815260408083209487168084529482529182902085905590518481527f8c5be1e5ebec7d5bd14f71427d1e84f3dd0314c0f7b2291e5b200ac8c7c3b925910160405180910390a3505050565b6000428410158015611cfc5750600086115b8015611d085750600085115b611d245760405162461bcd60e51b8152600401610d249061346a565b6000611d2f30610fd9565b90506000611d4788611d41478a611a40565b8461183a565b90506000611d558883611a40565b90508015611d6757611d6786826128d1565b611d7286868b6129ea565b50979650505050505050565b611d966000805160206135e683398151915283611199565b15611da057505050565b611dca7fa2cac083293772ca6820c9740cb63f055c62ed365baba8fc5026f75b1d6bc37a83611199565b15611dd457505050565b610dc4838383612a30565b6001600160a01b038316611e435760405162461bcd60e51b815260206004820152602560248201527f45524332303a207472616e736665722066726f6d20746865207a65726f206164604482015264647265737360d81b6064820152608401610d24565b6001600160a01b038216611ea55760405162461bcd60e51b815260206004820152602360248201527f45524332303a207472616e7366657220746f20746865207a65726f206164647260448201526265737360e81b6064820152608401610d24565b6001600160a01b03831660009081526020819052604090205481811015611f1d5760405162461bcd60e51b815260206004820152602660248201527f45524332303a207472616e7366657220616d6f756e7420657863656564732062604482015265616c616e636560d01b6064820152608401610d24565b6001600160a01b03808516600090815260208190526040808220858503905591851681529081208054849290611f549084906134a7565b92505081905550826001600160a01b0316846001600160a01b03167fddf252ad1be2c89b69c2b068fc378daa952ba7f163c4a11628f55a4df523b3ef84604051611fa091815260200190565b60405180910390a36119478484846126ea565b611fbd8282611199565b610e5257611fd5816001600160a01b03166014612abc565b611fe0836020612abc565b604051602001611ff192919061350e565b60408051601f198184030181529082905262461bcd60e51b8252610d2491600401613111565b6120218282611199565b610e525760008281526009602090815260408083206001600160a01b03851684529091529020805460ff191660011790556120593390565b6001600160a01b0316816001600160a01b0316837f2f8788117e7eff1d82e926ec794901d17c78024a50270940304540a733656f0d60405160405180910390a45050565b6000306001600160a01b037f0000000000000000000000000000000000000000000000000000000000000000161480156120f657507f000000000000000000000000000000000000000000000000000000000000000046145b1561212057507f000000000000000000000000000000000000000000000000000000000000000090565b50604080517f00000000000000000000000000000000000000000000000000000000000000006020808301919091527f0000000000000000000000000000000000000000000000000000000000000000828401527f000000000000000000000000000000000000000000000000000000000000000060608301524660808301523060a0808401919091528351808403909101815260c0909201909252805191012090565b6121ce8282611199565b15610e525760008281526009602090815260408083206001600160a01b0385168085529252808320805460ff1916905551339285917ff6391f5c32d9c69d2a47ea670b442974b53935d1edc7fd64eb21e047a839171b9190a45050565b8154600090815b8181101561228f5760006122468284612c58565b90508486828154811061225b5761225b6134f8565b60009182526020909120015463ffffffff16111561227b57809250612289565b6122868160016134a7565b91505b50612232565b81156122d357846122a16001846134bf565b815481106122b1576122b16134f8565b60009182526020909120015464010000000090046001600160e01b03166122d6565b60005b6001600160e01b031695945050505050565b6001600160a01b038281166000908152600660205260408120549091169061230f84610fd9565b6001600160a01b0385811660008181526006602052604080822080546001600160a01b031916898616908117909155905194955093928616927f3134e8a2e6d97e929a7e54011ea5485d7d196dd5f0ba4d4ef95803e8e3fc257f9190a46119478284836126f5565b610e528282612c73565b60004284101580156123935750600086115b801561239f5750600085115b6123bb5760405162461bcd60e51b8152600401610d249061346a565b60006123c630610fd9565b905060006123d5888347611067565b9050868110156123f75760405162461bcd60e51b8152600401610d249061346a565b61110d85858a84612832565b6000610d978284613583565b60004284101580156124215750600086115b801561242d5750600085115b6124495760405162461bcd60e51b8152600401610d249061346a565b600061245430610fd9565b9050600061246c886124664782611a40565b84611067565b9050868110156124be5760405162461bcd60e51b815260206004820152601860248201527f62757920616d6f756e74206e6f742073617469736669656400000000000000006044820152606401610d24565b61110d8585836129ea565b6000610c356124d661209d565b8360405161190160f01b6020820152602281018390526042810182905260009060620160405160208183030381529060405280519060200120905092915050565b600080600061252887878787612c8b565b9150915061253581612d78565b5095945050505050565b6001600160a01b03811660009081526005602052604090208054600181018255905b50919050565b610e5282826118bd565b8254600090819080156125bc578561258a6001836134bf565b8154811061259a5761259a6134f8565b60009182526020909120015464010000000090046001600160e01b03166125bf565b60005b6001600160e01b031692506125d883858763ffffffff16565b9150600081118015612616575043866125f26001846134bf565b81548110612602576126026134f8565b60009182526020909120015463ffffffff16145b156126765761262482611a4c565b866126306001846134bf565b81548110612640576126406134f8565b9060005260206000200160000160046101000a8154816001600160e01b0302191690836001600160e01b031602179055506126e1565b85604051806040016040528061268b43611ab9565b63ffffffff16815260200161269f85611a4c565b6001600160e01b0390811690915282546001810184556000938452602093849020835194909301519091166401000000000263ffffffff909316929092179101555b50935093915050565b610dc4838383611b1e565b816001600160a01b0316836001600160a01b0316141580156127175750600081115b15610dc4576001600160a01b038316156127a5576001600160a01b0383166000908152600760205260408120819061275290611a4085612571565b91509150846001600160a01b03167fdec2bacdd2f05b59de34da9b523dff8be42e5e38e818c82fdb0bae774387a724838360405161279a929190918252602082015260400190565b60405180910390a250505b6001600160a01b03821615610dc4576001600160a01b038216600090815260076020526040812081906127db90611a3485612571565b91509150836001600160a01b03167fdec2bacdd2f05b59de34da9b523dff8be42e5e38e818c82fdb0bae774387a7248383604051612823929190918252602082015260400190565b60405180910390a25050505050565b61285c7fbebcc3bcc74120a8badce5304c97c03dfe5b5f74a094d4cf5820df794bcfac5985611199565b61288057600a5461287d906128769061187b846064612f2e565b8290611a40565b90505b61288a83826128d1565b612895843084611ddf565b60405182906001600160a01b038616907fae92ab4b6f8f401ead768d3273e6bb937a13e39827d19c6376e8fd4512a05d9a90600090a350505050565b804710156129215760405162461bcd60e51b815260206004820152601d60248201527f416464726573733a20696e73756666696369656e742062616c616e63650000006044820152606401610d24565b6000826001600160a01b03168260405160006040518083038185875af1925050503d806000811461296e576040519150601f19603f3d011682016040523d82523d6000602084013e612973565b606091505b5050905080610dc45760405162461bcd60e51b815260206004820152603a60248201527f416464726573733a20756e61626c6520746f2073656e642076616c75652c207260448201527f6563697069656e74206d617920686176652072657665727465640000000000006064820152608401610d24565b6129f5308383611ddf565b60405181906001600160a01b038516907fc55650ccda1011e1cdc769b1fbf546ebb8c97800b6072b49e06cd560305b1d6790600090a3505050565b6001600160a01b0383811660009081526001602090815260408083209386168352929052205460001981146119475781811015612aaf5760405162461bcd60e51b815260206004820152601d60248201527f45524332303a20696e73756666696369656e7420616c6c6f77616e63650000006044820152606401610d24565b6119478484848403611bc6565b60606000612acb836002613583565b612ad69060026134a7565b67ffffffffffffffff811115612aee57612aee6135a2565b6040519080825280601f01601f191660200182016040528015612b18576020820181803683370190505b509050600360fc1b81600081518110612b3357612b336134f8565b60200101906001600160f81b031916908160001a905350600f60fb1b81600181518110612b6257612b626134f8565b60200101906001600160f81b031916908160001a9053506000612b86846002613583565b612b919060016134a7565b90505b6001811115612c09576f181899199a1a9b1b9c1cb0b131b232b360811b85600f1660108110612bc557612bc56134f8565b1a60f81b828281518110612bdb57612bdb6134f8565b60200101906001600160f81b031916908160001a90535060049490941c93612c02816135b8565b9050612b94565b508315610d975760405162461bcd60e51b815260206004820181905260248201527f537472696e67733a20686578206c656e67746820696e73756666696369656e746044820152606401610d24565b6000612c6760028484186134d6565b610d97908484166134a7565b612c7d8282612f3a565b6119476008611a4083612571565b6000807f7fffffffffffffffffffffffffffffff5d576e7357a4501ddfe92f46681b20a0831115612cc25750600090506003612d6f565b8460ff16601b14158015612cda57508460ff16601c14155b15612ceb5750600090506004612d6f565b6040805160008082526020820180845289905260ff881692820192909252606081018690526080810185905260019060a0016020604051602081039080840390855afa158015612d3f573d6000803e3d6000fd5b5050604051601f1901519150506001600160a01b038116612d6857600060019250925050612d6f565b9150600090505b94509492505050565b6000816004811115612d8c57612d8c6135cf565b03612d945750565b6001816004811115612da857612da86135cf565b03612df55760405162461bcd60e51b815260206004820152601860248201527f45434453413a20696e76616c6964207369676e617475726500000000000000006044820152606401610d24565b6002816004811115612e0957612e096135cf565b03612e565760405162461bcd60e51b815260206004820152601f60248201527f45434453413a20696e76616c6964207369676e6174757265206c656e677468006044820152606401610d24565b6003816004811115612e6a57612e6a6135cf565b03612ec25760405162461bcd60e51b815260206004820152602260248201527f45434453413a20696e76616c6964207369676e6174757265202773272076616c604482015261756560f01b6064820152608401610d24565b6004816004811115612ed657612ed66135cf565b03610f4d5760405162461bcd60e51b815260206004820152602260248201527f45434453413a20696e76616c6964207369676e6174757265202776272076616c604482015261756560f01b6064820152608401610d24565b6000610d9782846134d6565b6001600160a01b038216612f9a5760405162461bcd60e51b815260206004820152602160248201527f45524332303a206275726e2066726f6d20746865207a65726f206164647265736044820152607360f81b6064820152608401610d24565b6001600160a01b0382166000908152602081905260409020548181101561300e5760405162461bcd60e51b815260206004820152602260248201527f45524332303a206275726e20616d6f756e7420657863656564732062616c616e604482015261636560f01b6064820152608401610d24565b6001600160a01b038316600090815260208190526040812083830390556002805484929061303d9084906134bf565b90915550506040518281526000906001600160a01b038516907fddf252ad1be2c89b69c2b068fc378daa952ba7f163c4a11628f55a4df523b3ef9060200160405180910390a3610dc4836000846126ea565b6000806000606084860312156130a457600080fd5b505081359360208301359350604090920135919050565b6000602082840312156130cd57600080fd5b81356001600160e01b031981168114610d9757600080fd5b60005b838110156131005781810151838201526020016130e8565b838111156119475750506000910152565b60208152600082518060208401526131308160408501602087016130e5565b601f01601f19169190910160400192915050565b6001600160a01b0381168114610f4d57600080fd5b6000806040838503121561316c57600080fd5b823561317781613144565b946020939093013593505050565b60008060006060848603121561319a57600080fd5b833592506020840135915060408401356131b381613144565b809150509250925092565b6000806000606084860312156131d357600080fd5b83356131de81613144565b925060208401356131ee81613144565b929592945050506040919091013590565b60006020828403121561321157600080fd5b5035919050565b6000806040838503121561322b57600080fd5b82359150602083013561323d81613144565b809150509250929050565b60006020828403121561325a57600080fd5b8135610d9781613144565b6000806040838503121561327857600080fd5b50508035926020909101359150565b6000806000806080858703121561329d57600080fd5b84359350602085013592506040850135915060608501356132bd81613144565b939692955090935050565b803560ff811681146132d957600080fd5b919050565b60008060008060008060c087890312156132f757600080fd5b863561330281613144565b9550602087013594506040870135935061331e606088016132c8565b92506080870135915060a087013590509295509295509295565b600080600080600080600060e0888a03121561335357600080fd5b873561335e81613144565b9650602088013561336e81613144565b9550604088013594506060880135935061338a608089016132c8565b925060a0880135915060c0880135905092959891949750929550565b600080604083850312156133b957600080fd5b82356133c481613144565b9150602083013561323d81613144565b600080604083850312156133e757600080fd5b82356133f281613144565b9150602083013563ffffffff8116811461323d57600080fd5b600181811c9082168061341f57607f821691505b60208210810361256157634e487b7160e01b600052602260045260246000fd5b6020808252601190820152701a5b9d985b1a59081c9958da5c1a595b9d607a1b604082015260600190565b6020808252600d908201526c1a5b9d985b1a59081a5b9c1d5d609a1b604082015260600190565b634e487b7160e01b600052601160045260246000fd5b600082198211156134ba576134ba613491565b500190565b6000828210156134d1576134d1613491565b500390565b6000826134f357634e487b7160e01b600052601260045260246000fd5b500490565b634e487b7160e01b600052603260045260246000fd5b7f416363657373436f6e74726f6c3a206163636f756e74200000000000000000008152600083516135468160178501602088016130e5565b7001034b99036b4b9b9b4b733903937b6329607d1b60179184019182015283516135778160288401602088016130e5565b01602801949350505050565b600081600019048311821515161561359d5761359d613491565b500290565b634e487b7160e01b600052604160045260246000fd5b6000816135c7576135c7613491565b506000190190565b634e487b7160e01b600052602160045260246000fdfedf8b4c520ffe197c5343c6f5aec59570151ef9a492f2c624fd45ddde6135ec42a2646970667358221220ee072e173ba042885fe5578c68f9667a2e71a154186dd3564524b52b33d6f51464736f6c634300080d0033df8b4c520ffe197c5343c6f5aec59570151ef9a492f2c624fd45ddde6135ec42dec2bacdd2f05b59de34da9b523dff8be42e5e38e818c82fdb0bae774387a724",
  "linkReferences": {},
  "deployedLinkReferences": {}
}