{
  "_format": "hh-sol-artifact-1",
  "contractName": "Promoter",
  "sourceName": "contracts/Promoter.sol",
  "abi": [
    {
      "inputs": [
        {
          "internalType": "address",
          "name": "_coin",
          "type": "address"
        },
        {
          "internalType": "address",
          "name": "_exchange",
          "type": "address"
        }
      ],
      "stateMutability": "nonpayable",
      "type": "constructor"
    },
    {
      "anonymous": false,
      "inputs": [
        {
          "indexed": true,
          "internalType": "address",
          "name": "promoter",
          "type": "address"
        },
        {
          "indexed": false,
          "internalType": "uint256",
          "name": "bhc",
          "type": "uint256"
        }
      ],
      "name": "Paid",
      "type": "event"
    },
    {
      "anonymous": false,
      "inputs": [
        {
          "indexed": false,
          "internalType": "address",
          "name": "account",
          "type": "address"
        }
      ],
      "name": "Paused",
      "type": "event"
    },
    {
      "anonymous": false,
      "inputs": [
        {
          "indexed": true,
          "internalType": "address",
          "name": "promoter",
          "type": "address"
        },
        {
          "components": [
            {
              "internalType": "bool",
              "name": "enabled",
              "type": "bool"
            },
            {
              "internalType": "string",
              "name": "name",
              "type": "string"
            },
            {
              "internalType": "uint8",
              "name": "shares",
              "type": "uint8"
            },
            {
              "internalType": "string",
              "name": "code",
              "type": "string"
            },
            {
              "internalType": "uint256",
              "name": "revenue",
              "type": "uint256"
            },
            {
              "internalType": "uint256",
              "name": "reward",
              "type": "uint256"
            },
            {
              "internalType": "uint256",
              "name": "lastRewardBlock",
              "type": "uint256"
            }
          ],
          "indexed": false,
          "internalType": "struct Promoter.Account",
          "name": "account",
          "type": "tuple"
        }
      ],
      "name": "Registered",
      "type": "event"
    },
    {
      "anonymous": false,
      "inputs": [
        {
          "indexed": true,
          "internalType": "address",
          "name": "promoter",
          "type": "address"
        },
        {
          "indexed": false,
          "internalType": "uint256",
          "name": "eth",
          "type": "uint256"
        }
      ],
      "name": "Rewarded",
      "type": "event"
    },
    {
      "anonymous": false,
      "inputs": [
        {
          "indexed": true,
          "internalType": "bytes32",
          "name": "role",
          "type": "bytes32"
        },
        {
          "indexed": true,
          "internalType": "bytes32",
          "name": "previousAdminRole",
          "type": "bytes32"
        },
        {
          "indexed": true,
          "internalType": "bytes32",
          "name": "newAdminRole",
          "type": "bytes32"
        }
      ],
      "name": "RoleAdminChanged",
      "type": "event"
    },
    {
      "anonymous": false,
      "inputs": [
        {
          "indexed": true,
          "internalType": "bytes32",
          "name": "role",
          "type": "bytes32"
        },
        {
          "indexed": true,
          "internalType": "address",
          "name": "account",
          "type": "address"
        },
        {
          "indexed": true,
          "internalType": "address",
          "name": "sender",
          "type": "address"
        }
      ],
      "name": "RoleGranted",
      "type": "event"
    },
    {
      "anonymous": false,
      "inputs": [
        {
          "indexed": true,
          "internalType": "bytes32",
          "name": "role",
          "type": "bytes32"
        },
        {
          "indexed": true,
          "internalType": "address",
          "name": "account",
          "type": "address"
        },
        {
          "indexed": true,
          "internalType": "address",
          "name": "sender",
          "type": "address"
        }
      ],
      "name": "RoleRevoked",
      "type": "event"
    },
    {
      "anonymous": false,
      "inputs": [
        {
          "indexed": false,
          "internalType": "address",
          "name": "account",
          "type": "address"
        }
      ],
      "name": "Unpaused",
      "type": "event"
    },
    {
      "anonymous": false,
      "inputs": [
        {
          "indexed": true,
          "internalType": "address",
          "name": "promoter",
          "type": "address"
        },
        {
          "components": [
            {
              "internalType": "bool",
              "name": "enabled",
              "type": "bool"
            },
            {
              "internalType": "string",
              "name": "name",
              "type": "string"
            },
            {
              "internalType": "uint8",
              "name": "shares",
              "type": "uint8"
            },
            {
              "internalType": "string",
              "name": "code",
              "type": "string"
            },
            {
              "internalType": "uint256",
              "name": "revenue",
              "type": "uint256"
            },
            {
              "internalType": "uint256",
              "name": "reward",
              "type": "uint256"
            },
            {
              "internalType": "uint256",
              "name": "lastRewardBlock",
              "type": "uint256"
            }
          ],
          "indexed": false,
          "internalType": "struct Promoter.Account",
          "name": "account",
          "type": "tuple"
        }
      ],
      "name": "Updated",
      "type": "event"
    },
    {
      "inputs": [],
      "name": "ADMIN",
      "outputs": [
        {
          "internalType": "bytes32",
          "name": "",
          "type": "bytes32"
        }
      ],
      "stateMutability": "view",
      "type": "function"
    },
    {
      "inputs": [],
      "name": "DEFAULT_ADMIN_ROLE",
      "outputs": [
        {
          "internalType": "bytes32",
          "name": "",
          "type": "bytes32"
        }
      ],
      "stateMutability": "view",
      "type": "function"
    },
    {
      "inputs": [],
      "name": "DEFAULT_SHARES",
      "outputs": [
        {
          "internalType": "uint8",
          "name": "",
          "type": "uint8"
        }
      ],
      "stateMutability": "view",
      "type": "function"
    },
    {
      "inputs": [],
      "name": "MANAGER",
      "outputs": [
        {
          "internalType": "bytes32",
          "name": "",
          "type": "bytes32"
        }
      ],
      "stateMutability": "view",
      "type": "function"
    },
    {
      "inputs": [],
      "name": "MAX_SHARES",
      "outputs": [
        {
          "internalType": "uint8",
          "name": "",
          "type": "uint8"
        }
      ],
      "stateMutability": "view",
      "type": "function"
    },
    {
      "inputs": [
        {
          "internalType": "address",
          "name": "promoter",
          "type": "address"
        },
        {
          "internalType": "uint256",
          "name": "ethRevenue",
          "type": "uint256"
        }
      ],
      "name": "addRevenue",
      "outputs": [
        {
          "internalType": "uint256",
          "name": "reward",
          "type": "uint256"
        }
      ],
      "stateMutability": "nonpayable",
      "type": "function"
    },
    {
      "inputs": [
        {
          "internalType": "string",
          "name": "code",
          "type": "string"
        },
        {
          "internalType": "uint256",
          "name": "ethRevenue",
          "type": "uint256"
        }
      ],
      "name": "addRevenueByCode",
      "outputs": [
        {
          "internalType": "uint256",
          "name": "reward",
          "type": "uint256"
        }
      ],
      "stateMutability": "nonpayable",
      "type": "function"
    },
    {
      "inputs": [
        {
          "internalType": "address",
          "name": "kontrakt",
          "type": "address"
        }
      ],
      "name": "allowContract",
      "outputs": [],
      "stateMutability": "nonpayable",
      "type": "function"
    },
    {
      "inputs": [],
      "name": "coin",
      "outputs": [
        {
          "internalType": "contract IERC20",
          "name": "",
          "type": "address"
        }
      ],
      "stateMutability": "view",
      "type": "function"
    },
    {
      "inputs": [],
      "name": "exchange",
      "outputs": [
        {
          "internalType": "contract IExchange",
          "name": "",
          "type": "address"
        }
      ],
      "stateMutability": "view",
      "type": "function"
    },
    {
      "inputs": [
        {
          "internalType": "string",
          "name": "code",
          "type": "string"
        }
      ],
      "name": "getAccountByCode",
      "outputs": [
        {
          "components": [
            {
              "internalType": "bool",
              "name": "enabled",
              "type": "bool"
            },
            {
              "internalType": "string",
              "name": "name",
              "type": "string"
            },
            {
              "internalType": "uint8",
              "name": "shares",
              "type": "uint8"
            },
            {
              "internalType": "string",
              "name": "code",
              "type": "string"
            },
            {
              "internalType": "uint256",
              "name": "revenue",
              "type": "uint256"
            },
            {
              "internalType": "uint256",
              "name": "reward",
              "type": "uint256"
            },
            {
              "internalType": "uint256",
              "name": "lastRewardBlock",
              "type": "uint256"
            }
          ],
          "internalType": "struct Promoter.Account",
          "name": "account",
          "type": "tuple"
        }
      ],
      "stateMutability": "view",
      "type": "function"
    },
    {
      "inputs": [
        {
          "internalType": "bytes32",
          "name": "role",
          "type": "bytes32"
        }
      ],
      "name": "getRoleAdmin",
      "outputs": [
        {
          "internalType": "bytes32",
          "name": "",
          "type": "bytes32"
        }
      ],
      "stateMutability": "view",
      "type": "function"
    },
    {
      "inputs": [
        {
          "internalType": "bytes32",
          "name": "role",
          "type": "bytes32"
        },
        {
          "internalType": "address",
          "name": "account",
          "type": "address"
        }
      ],
      "name": "grantRole",
      "outputs": [],
      "stateMutability": "nonpayable",
      "type": "function"
    },
    {
      "inputs": [
        {
          "internalType": "bytes32",
          "name": "role",
          "type": "bytes32"
        },
        {
          "internalType": "address",
          "name": "account",
          "type": "address"
        }
      ],
      "name": "hasRole",
      "outputs": [
        {
          "internalType": "bool",
          "name": "",
          "type": "bool"
        }
      ],
      "stateMutability": "view",
      "type": "function"
    },
    {
      "inputs": [],
      "name": "pause",
      "outputs": [],
      "stateMutability": "nonpayable",
      "type": "function"
    },
    {
      "inputs": [],
      "name": "paused",
      "outputs": [
        {
          "internalType": "bool",
          "name": "",
          "type": "bool"
        }
      ],
      "stateMutability": "view",
      "type": "function"
    },
    {
      "inputs": [
        {
          "internalType": "address",
          "name": "",
          "type": "address"
        }
      ],
      "name": "promoters",
      "outputs": [
        {
          "internalType": "bool",
          "name": "enabled",
          "type": "bool"
        },
        {
          "internalType": "string",
          "name": "name",
          "type": "string"
        },
        {
          "internalType": "uint8",
          "name": "shares",
          "type": "uint8"
        },
        {
          "internalType": "string",
          "name": "code",
          "type": "string"
        },
        {
          "internalType": "uint256",
          "name": "revenue",
          "type": "uint256"
        },
        {
          "internalType": "uint256",
          "name": "reward",
          "type": "uint256"
        },
        {
          "internalType": "uint256",
          "name": "lastRewardBlock",
          "type": "uint256"
        }
      ],
      "stateMutability": "view",
      "type": "function"
    },
    {
      "inputs": [
        {
          "internalType": "string",
          "name": "",
          "type": "string"
        }
      ],
      "name": "promotersbyCode",
      "outputs": [
        {
          "internalType": "address",
          "name": "",
          "type": "address"
        }
      ],
      "stateMutability": "view",
      "type": "function"
    },
    {
      "inputs": [
        {
          "internalType": "string",
          "name": "code",
          "type": "string"
        },
        {
          "internalType": "string",
          "name": "name",
          "type": "string"
        }
      ],
      "name": "register",
      "outputs": [],
      "stateMutability": "nonpayable",
      "type": "function"
    },
    {
      "inputs": [
        {
          "internalType": "address",
          "name": "promoter",
          "type": "address"
        }
      ],
      "name": "release",
      "outputs": [],
      "stateMutability": "nonpayable",
      "type": "function"
    },
    {
      "inputs": [
        {
          "internalType": "bytes32",
          "name": "role",
          "type": "bytes32"
        },
        {
          "internalType": "address",
          "name": "account",
          "type": "address"
        }
      ],
      "name": "renounceRole",
      "outputs": [],
      "stateMutability": "nonpayable",
      "type": "function"
    },
    {
      "inputs": [
        {
          "internalType": "bytes32",
          "name": "role",
          "type": "bytes32"
        },
        {
          "internalType": "address",
          "name": "account",
          "type": "address"
        }
      ],
      "name": "revokeRole",
      "outputs": [],
      "stateMutability": "nonpayable",
      "type": "function"
    },
    {
      "inputs": [
        {
          "internalType": "address",
          "name": "_coin",
          "type": "address"
        }
      ],
      "name": "setCoinContract",
      "outputs": [],
      "stateMutability": "nonpayable",
      "type": "function"
    },
    {
      "inputs": [
        {
          "internalType": "address",
          "name": "_exchange",
          "type": "address"
        }
      ],
      "name": "setExchangeContract",
      "outputs": [],
      "stateMutability": "nonpayable",
      "type": "function"
    },
    {
      "inputs": [
        {
          "internalType": "address",
          "name": "promoter",
          "type": "address"
        },
        {
          "components": [
            {
              "internalType": "bool",
              "name": "enabled",
              "type": "bool"
            },
            {
              "internalType": "string",
              "name": "name",
              "type": "string"
            },
            {
              "internalType": "uint8",
              "name": "shares",
              "type": "uint8"
            },
            {
              "internalType": "string",
              "name": "code",
              "type": "string"
            },
            {
              "internalType": "uint256",
              "name": "revenue",
              "type": "uint256"
            },
            {
              "internalType": "uint256",
              "name": "reward",
              "type": "uint256"
            },
            {
              "internalType": "uint256",
              "name": "lastRewardBlock",
              "type": "uint256"
            }
          ],
          "internalType": "struct Promoter.Account",
          "name": "account",
          "type": "tuple"
        }
      ],
      "name": "setPromoter",
      "outputs": [],
      "stateMutability": "nonpayable",
      "type": "function"
    },
    {
      "inputs": [
        {
          "internalType": "bytes4",
          "name": "interfaceId",
          "type": "bytes4"
        }
      ],
      "name": "supportsInterface",
      "outputs": [
        {
          "internalType": "bool",
          "name": "",
          "type": "bool"
        }
      ],
      "stateMutability": "view",
      "type": "function"
    },
    {
      "inputs": [],
      "name": "unpause",
      "outputs": [],
      "stateMutability": "nonpayable",
      "type": "function"
    }
  ],
  "bytecode": "0x60806040523480156200001157600080fd5b50604051620027a2380380620027a283398101604081905262000034916200056b565b6001805460ff19169055620000686000805160206200276283398151915260008051602062002782833981519152620000bc565b62000083600080516020620027828339815191523362000107565b6200009e600080516020620027628339815191523362000107565b620000a98262000117565b620000b481620001a9565b50506200071d565b600082815260208190526040808220600101805490849055905190918391839186917fbd79b86ffe0ab8e8776151514217cd7cacd52c909f66475c3af44e129f0b00ff9190a4505050565b62000113828262000231565b5050565b600080516020620027828339815191526200013281620002d1565b6001600160a01b038216620001805760405162461bcd60e51b815260206004820152600f60248201526e696e76616c6964206164647265737360881b60448201526064015b60405180910390fd5b50600180546001600160a01b0390921661010002610100600160a81b0319909216919091179055565b60008051602062002782833981519152620001c481620002d1565b6001600160a01b0382166200020e5760405162461bcd60e51b815260206004820152600f60248201526e696e76616c6964206164647265737360881b604482015260640162000177565b50600280546001600160a01b0319166001600160a01b0392909216919091179055565b6000828152602081815260408083206001600160a01b038516845290915290205460ff1662000113576000828152602081815260408083206001600160a01b03851684529091529020805460ff191660011790556200028d3390565b6001600160a01b0316816001600160a01b0316837f2f8788117e7eff1d82e926ec794901d17c78024a50270940304540a733656f0d60405160405180910390a45050565b620002dd8133620002e0565b50565b6000828152602081815260408083206001600160a01b038516845290915290205460ff1662000113576200031f816200037060201b620013621760201c565b62000335836020620013746200038e821b17811c565b60405160200162000348929190620005d6565b60408051601f198184030181529082905262461bcd60e51b825262000177916004016200064f565b6060620003886001600160a01b03831660146200038e565b92915050565b606060006200039f8360026200069a565b620003ac906002620006bc565b6001600160401b03811115620003c657620003c6620006d7565b6040519080825280601f01601f191660200182016040528015620003f1576020820181803683370190505b509050600360fc1b816000815181106200040f576200040f620006ed565b60200101906001600160f81b031916908160001a905350600f60fb1b81600181518110620004415762000441620006ed565b60200101906001600160f81b031916908160001a9053506000620004678460026200069a565b62000474906001620006bc565b90505b6001811115620004f6576f181899199a1a9b1b9c1cb0b131b232b360811b85600f1660108110620004ac57620004ac620006ed565b1a60f81b828281518110620004c557620004c5620006ed565b60200101906001600160f81b031916908160001a90535060049490941c93620004ee8162000703565b905062000477565b508315620005475760405162461bcd60e51b815260206004820181905260248201527f537472696e67733a20686578206c656e67746820696e73756666696369656e74604482015260640162000177565b9392505050565b80516001600160a01b03811681146200056657600080fd5b919050565b600080604083850312156200057f57600080fd5b6200058a836200054e565b91506200059a602084016200054e565b90509250929050565b60005b83811015620005c0578181015183820152602001620005a6565b83811115620005d0576000848401525b50505050565b7f416363657373436f6e74726f6c3a206163636f756e742000000000000000000081526000835162000610816017850160208801620005a3565b7001034b99036b4b9b9b4b733903937b6329607d1b601791840191820152835162000643816028840160208801620005a3565b01602801949350505050565b602081526000825180602084015262000670816040850160208701620005a3565b601f01601f19169190910160400192915050565b634e487b7160e01b600052601160045260246000fd5b6000816000190483118215151615620006b757620006b762000684565b500290565b60008219821115620006d257620006d262000684565b500190565b634e487b7160e01b600052604160045260246000fd5b634e487b7160e01b600052603260045260246000fd5b60008162000715576200071562000684565b506000190190565b612035806200072d6000396000f3fe608060405234801561001057600080fd5b50600436106101a95760003560e01c80635c975abb116100f95780639dd39e3111610097578063d547741f11610071578063d547741f146103df578063e5c42a3b146103f2578063f6bd02fa14610405578063fcbc4cee1461041857600080fd5b80639dd39e31146103b1578063a217fddf146103c4578063d2f7265a146103cc57600080fd5b80637aa1eb9a116100d35780637aa1eb9a1461035d5780638456cb591461038357806391d148541461038b5780639aebd3941461039e57600080fd5b80635c975abb1461032a5780635e2a1a55146103355780636e5abaad1461033d57600080fd5b80632711b3d41161016657806336568abe1161014057806336568abe146102e25780633e8ff57b146102f55780633f4ba83a1461030f5780633ffbd47f1461031757600080fd5b80632711b3d4146102865780632a0acc6a146102ba5780632f2ff15d146102cf57600080fd5b806301ffc9a7146101ae578063031297f2146101d657806311df9995146101f757806319165587146102275780631b2df8501461023c578063248a9ca314610263575b600080fd5b6101c16101bc366004611953565b61042b565b60405190151581526020015b60405180910390f35b6101e96101e4366004611994565b610462565b6040519081526020016101cd565b60015461020f9061010090046001600160a01b031681565b6040516001600160a01b0390911681526020016101cd565b61023a6102353660046119be565b6104d7565b005b6101e97faf290d8680820aad922855f39b306097b20e28774d6c1ad35a20325630c3a02c81565b6101e96102713660046119d9565b60009081526020819052604090206001015490565b61020f610294366004611abe565b80516020818301810180516004825292820191909301209152546001600160a01b031681565b6101e9600080516020611fe083398151915281565b61023a6102dd366004611af3565b610856565b61023a6102f0366004611af3565b610880565b6102fd601481565b60405160ff90911681526020016101cd565b61023a6108fe565b61023a610325366004611b1f565b610921565b60015460ff166101c1565b6102fd600581565b61035061034b366004611abe565b610b60565b6040516101cd9190611bdf565b61037061036b3660046119be565b610d9b565b6040516101cd9796959493929190611c5d565b61023a610ef3565b6101c1610399366004611af3565b610f13565b6101e96103ac366004611cb3565b610f3c565b61023a6103bf366004611d22565b610fda565b6101e9600081565b60025461020f906001600160a01b031681565b61023a6103ed366004611af3565b611212565b61023a6104003660046119be565b611237565b61023a6104133660046119be565b611298565b61023a6104263660046119be565b6112fb565b60006001600160e01b03198216637965db0b60e01b148061045c57506301ffc9a760e01b6001600160e01b03198316145b92915050565b3360009081526005602052604081205460ff166104c65760405162461bcd60e51b815260206004820152601a60248201527f636f6e7472616374206973206e6f74207265676973746572656400000000000060448201526064015b60405180910390fd5b6104d08383611510565b9392505050565b6104df611638565b6001600160a01b0381166000908152600360209081526040808320815160e08101909252805460ff1615158252600181018054929391929184019161052390611e06565b80601f016020809104026020016040519081016040528092919081815260200182805461054f90611e06565b801561059c5780601f106105715761010080835404028352916020019161059c565b820191906000526020600020905b81548152906001019060200180831161057f57829003601f168201915b5050509183525050600282015460ff1660208201526003820180546040909201916105c690611e06565b80601f01602080910402602001604051908101604052809291908181526020018280546105f290611e06565b801561063f5780601f106106145761010080835404028352916020019161063f565b820191906000526020600020905b81548152906001019060200180831161062257829003601f168201915b505050505081526020016004820154815260200160058201548152602001600682015481525050905060008160800151116106b45760405162461bcd60e51b81526020600482015260156024820152746e6f20726576656e756520746f2072656c6561736560581b60448201526064016104bd565b438160c0015160026106c69190611e56565b106107135760405162461bcd60e51b815260206004820152601760248201527f726577617264206973206e6f742079657420726561647900000000000000000060448201526064016104bd565b60025460a082015160405163cd7724c360e01b815260048101919091526000916001600160a01b03169063cd7724c390602401602060405180830381865afa158015610763573d6000803e3d6000fd5b505050506040513d601f19601f820116820180604052508101906107879190611e6e565b6001546040516323b872dd60e01b81523060048201526001600160a01b03868116602483015260448201849052929350610100909104909116906323b872dd906064016020604051808303816000875af11580156107e9573d6000803e3d6000fd5b505050506040513d601f19601f8201168201806040525081019061080d9190611e87565b50826001600160a01b03167f737c69225d647e5994eab1a6c301bf6d9232beb2759ae1e27a8966b4732bc4898260405161084991815260200190565b60405180910390a2505050565b60008281526020819052604090206001015461087181611680565b61087b838361168a565b505050565b6001600160a01b03811633146108f05760405162461bcd60e51b815260206004820152602f60248201527f416363657373436f6e74726f6c3a2063616e206f6e6c792072656e6f756e636560448201526e103937b632b9903337b91039b2b63360891b60648201526084016104bd565b6108fa828261170e565b5050565b600080516020611fe083398151915261091681611680565b61091e611773565b50565b610929611638565b80518251811580159061093c5750603282105b6109775760405162461bcd60e51b815260206004820152600c60248201526b696e76616c696420636f646560a01b60448201526064016104bd565b6000811180156109875750601e82105b6109c25760405162461bcd60e51b815260206004820152600c60248201526b696e76616c6964206e616d6560a01b60448201526064016104bd565b60006001600160a01b03166004856040516109dd9190611ea4565b908152604051908190036020019020546001600160a01b031614610a395760405162461bcd60e51b8152602060048201526013602482015272636f646520616c72656164792065786973747360681b60448201526064016104bd565b6040518060e00160405280600115158152602001848152602001600560ff1681526020018581526020016000815260200160008152602001600081525060036000610a813390565b6001600160a01b031681526020808201929092526040016000208251815460ff19169015151781558282015180519192610ac3926001850192909101906118ba565b50604082015160028201805460ff191660ff90921691909117905560608201518051610af99160038401916020909101906118ba565b506080820151600482015560a0820151600582015560c09091015160069091015533600485604051610b2b9190611ea4565b90815260405190819003602001902080546001600160a01b03929092166001600160a01b031990921691909117905550505050565b610ba56040518060e0016040528060001515815260200160608152602001600060ff168152602001606081526020016000815260200160008152602001600081525090565b60036000600484604051610bb99190611ea4565b9081526040805160209281900383019020546001600160a01b0316835282820193909352908201600020825160e08101909352805460ff16151583526001810180549192840191610c0990611e06565b80601f0160208091040260200160405190810160405280929190818152602001828054610c3590611e06565b8015610c825780601f10610c5757610100808354040283529160200191610c82565b820191906000526020600020905b815481529060010190602001808311610c6557829003601f168201915b5050509183525050600282015460ff166020820152600382018054604090920191610cac90611e06565b80601f0160208091040260200160405190810160405280929190818152602001828054610cd890611e06565b8015610d255780601f10610cfa57610100808354040283529160200191610d25565b820191906000526020600020905b815481529060010190602001808311610d0857829003601f168201915b50505050508152602001600482015481526020016005820154815260200160068201548152505090508060000151610d965760405162461bcd60e51b81526020600482015260146024820152731c1c9bdb5bdd195c881a5cc8191a5cd8589b195960621b60448201526064016104bd565b919050565b6003602052600090815260409020805460018201805460ff9092169291610dc190611e06565b80601f0160208091040260200160405190810160405280929190818152602001828054610ded90611e06565b8015610e3a5780601f10610e0f57610100808354040283529160200191610e3a565b820191906000526020600020905b815481529060010190602001808311610e1d57829003601f168201915b5050506002840154600385018054949560ff909216949193509150610e5e90611e06565b80601f0160208091040260200160405190810160405280929190818152602001828054610e8a90611e06565b8015610ed75780601f10610eac57610100808354040283529160200191610ed7565b820191906000526020600020905b815481529060010190602001808311610eba57829003601f168201915b5050505050908060040154908060050154908060060154905087565b600080516020611fe0833981519152610f0b81611680565b61091e6117c5565b6000918252602082815260408084206001600160a01b0393909316845291905290205460ff1690565b3360009081526005602052604081205460ff16610f9b5760405162461bcd60e51b815260206004820152601a60248201527f636f6e7472616374206973206e6f74207265676973746572656400000000000060448201526064016104bd565b6000600484604051610fad9190611ea4565b908152604051908190036020019020546001600160a01b03169050610fd28184611510565b949350505050565b7faf290d8680820aad922855f39b306097b20e28774d6c1ad35a20325630c3a02c61100481611680565b6001600160a01b03831661102a5760405162461bcd60e51b81526004016104bd90611ec0565b601460ff16826040015160ff1611156110855760405162461bcd60e51b815260206004820152601e60248201527f646973636f756e742063616e206265206d6178696d756d206f6620323025000060448201526064016104bd565b6001600160a01b038316600090815260036020819052604082200180546110ab90611e06565b80601f01602080910402602001604051908101604052809291908181526020018280546110d790611e06565b80156111245780601f106110f957610100808354040283529160200191611124565b820191906000526020600020905b81548152906001019060200180831161110757829003601f168201915b50505050509050600081511115611163576004816040516111459190611ea4565b90815260405190819003602001902080546001600160a01b03191690555b6001600160a01b03841660009081526003602090815260409091208451815460ff191690151517815584820151805186936111a59260018501929101906118ba565b50604082015160028201805460ff191660ff909216919091179055606082015180516111db9160038401916020909101906118ba565b506080820151816004015560a0820151816005015560c082015181600601559050508360048460600151604051610b2b9190611ea4565b60008281526020819052604090206001015461122d81611680565b61087b838361170e565b600080516020611fe083398151915261124f81611680565b6001600160a01b0382166112755760405162461bcd60e51b81526004016104bd90611ec0565b50600280546001600160a01b0319166001600160a01b0392909216919091179055565b600080516020611fe08339815191526112b081611680565b6001600160a01b0382166112d65760405162461bcd60e51b81526004016104bd90611ec0565b506001600160a01b03166000908152600560205260409020805460ff19166001179055565b600080516020611fe083398151915261131381611680565b6001600160a01b0382166113395760405162461bcd60e51b81526004016104bd90611ec0565b50600180546001600160a01b0390921661010002610100600160a81b0319909216919091179055565b606061045c6001600160a01b03831660145b60606000611383836002611ee9565b61138e906002611e56565b67ffffffffffffffff8111156113a6576113a66119f2565b6040519080825280601f01601f1916602001820160405280156113d0576020820181803683370190505b509050600360fc1b816000815181106113eb576113eb611f08565b60200101906001600160f81b031916908160001a905350600f60fb1b8160018151811061141a5761141a611f08565b60200101906001600160f81b031916908160001a905350600061143e846002611ee9565b611449906001611e56565b90505b60018111156114c1576f181899199a1a9b1b9c1cb0b131b232b360811b85600f166010811061147d5761147d611f08565b1a60f81b82828151811061149357611493611f08565b60200101906001600160f81b031916908160001a90535060049490941c936114ba81611f1e565b905061144c565b5083156104d05760405162461bcd60e51b815260206004820181905260248201527f537472696e67733a20686578206c656e67746820696e73756666696369656e7460448201526064016104bd565b60006001600160a01b0383166115385760405162461bcd60e51b81526004016104bd90611ec0565b6001600160a01b0383166000908152600360205260409020805460ff166115985760405162461bcd60e51b81526020600482015260146024820152731c1c9bdb5bdd195c881a5cc8191a5cd8589b195960621b60448201526064016104bd565b828160040160008282546115ac9190611e56565b909155505060028101546000906115d19060ff166115cb866064611800565b9061180c565b9050808260050160008282546115e79190611e56565b90915550504360068301556040518181526001600160a01b038616907fb3b7a071186534c03b40695710096f289fd4ed6c1a374aff0bb648955e4fe5639060200160405180910390a2949350505050565b60015460ff161561167e5760405162461bcd60e51b815260206004820152601060248201526f14185d5cd8589b194e881c185d5cd95960821b60448201526064016104bd565b565b61091e8133611818565b6116948282610f13565b6108fa576000828152602081815260408083206001600160a01b03851684529091529020805460ff191660011790556116ca3390565b6001600160a01b0316816001600160a01b0316837f2f8788117e7eff1d82e926ec794901d17c78024a50270940304540a733656f0d60405160405180910390a45050565b6117188282610f13565b156108fa576000828152602081815260408083206001600160a01b0385168085529252808320805460ff1916905551339285917ff6391f5c32d9c69d2a47ea670b442974b53935d1edc7fd64eb21e047a839171b9190a45050565b61177b611871565b6001805460ff191690557f5db9ee0a495bf2e6ff9c91a7834c1ba4fdd244a5e8aa4e537bd38aeae4b073aa335b6040516001600160a01b03909116815260200160405180910390a1565b6117cd611638565b6001805460ff1916811790557f62e78cea01bee320cd4e420270b5ea74000d11b0c9f74754ebdbfc544b05a258336117a8565b60006104d08284611f35565b60006104d08284611ee9565b6118228282610f13565b6108fa5761182f81611362565b61183a836020611374565b60405160200161184b929190611f57565b60408051601f198184030181529082905262461bcd60e51b82526104bd91600401611fcc565b60015460ff1661167e5760405162461bcd60e51b815260206004820152601460248201527314185d5cd8589b194e881b9bdd081c185d5cd95960621b60448201526064016104bd565b8280546118c690611e06565b90600052602060002090601f0160209004810192826118e8576000855561192e565b82601f1061190157805160ff191683800117855561192e565b8280016001018555821561192e579182015b8281111561192e578251825591602001919060010190611913565b5061193a92915061193e565b5090565b5b8082111561193a576000815560010161193f565b60006020828403121561196557600080fd5b81356001600160e01b0319811681146104d057600080fd5b80356001600160a01b0381168114610d9657600080fd5b600080604083850312156119a757600080fd5b6119b08361197d565b946020939093013593505050565b6000602082840312156119d057600080fd5b6104d08261197d565b6000602082840312156119eb57600080fd5b5035919050565b634e487b7160e01b600052604160045260246000fd5b60405160e0810167ffffffffffffffff81118282101715611a2b57611a2b6119f2565b60405290565b600082601f830112611a4257600080fd5b813567ffffffffffffffff80821115611a5d57611a5d6119f2565b604051601f8301601f19908116603f01168101908282118183101715611a8557611a856119f2565b81604052838152866020858801011115611a9e57600080fd5b836020870160208301376000602085830101528094505050505092915050565b600060208284031215611ad057600080fd5b813567ffffffffffffffff811115611ae757600080fd5b610fd284828501611a31565b60008060408385031215611b0657600080fd5b82359150611b166020840161197d565b90509250929050565b60008060408385031215611b3257600080fd5b823567ffffffffffffffff80821115611b4a57600080fd5b611b5686838701611a31565b93506020850135915080821115611b6c57600080fd5b50611b7985828601611a31565b9150509250929050565b60005b83811015611b9e578181015183820152602001611b86565b83811115611bad576000848401525b50505050565b60008151808452611bcb816020860160208601611b83565b601f01601f19169290920160200192915050565b602081528151151560208201526000602083015160e06040840152611c08610100840182611bb3565b905060ff60408501511660608401526060840151601f19848303016080850152611c328282611bb3565b915050608084015160a084015260a084015160c084015260c084015160e08401528091505092915050565b871515815260e060208201526000611c7860e0830189611bb3565b60ff881660408401528281036060840152611c938188611bb3565b6080840196909652505060a081019290925260c090910152949350505050565b60008060408385031215611cc657600080fd5b823567ffffffffffffffff811115611cdd57600080fd5b611ce985828601611a31565b95602094909401359450505050565b801515811461091e57600080fd5b8035610d9681611cf8565b803560ff81168114610d9657600080fd5b60008060408385031215611d3557600080fd5b611d3e8361197d565b9150602083013567ffffffffffffffff80821115611d5b57600080fd5b9084019060e08287031215611d6f57600080fd5b611d77611a08565b611d8083611d06565b8152602083013582811115611d9457600080fd5b611da088828601611a31565b602083015250611db260408401611d11565b6040820152606083013582811115611dc957600080fd5b611dd588828601611a31565b6060830152506080830135608082015260a083013560a082015260c083013560c08201528093505050509250929050565b600181811c90821680611e1a57607f821691505b602082108103611e3a57634e487b7160e01b600052602260045260246000fd5b50919050565b634e487b7160e01b600052601160045260246000fd5b60008219821115611e6957611e69611e40565b500190565b600060208284031215611e8057600080fd5b5051919050565b600060208284031215611e9957600080fd5b81516104d081611cf8565b60008251611eb6818460208701611b83565b9190910192915050565b6020808252600f908201526e696e76616c6964206164647265737360881b604082015260600190565b6000816000190483118215151615611f0357611f03611e40565b500290565b634e487b7160e01b600052603260045260246000fd5b600081611f2d57611f2d611e40565b506000190190565b600082611f5257634e487b7160e01b600052601260045260246000fd5b500490565b7f416363657373436f6e74726f6c3a206163636f756e7420000000000000000000815260008351611f8f816017850160208801611b83565b7001034b99036b4b9b9b4b733903937b6329607d1b6017918401918201528351611fc0816028840160208801611b83565b01602801949350505050565b6020815260006104d06020830184611bb356fedf8b4c520ffe197c5343c6f5aec59570151ef9a492f2c624fd45ddde6135ec42a2646970667358221220d3ef257259cbfaceb4d78d7bacbcf21eebecd89b35067152b56fb72838ae770164736f6c634300080d0033af290d8680820aad922855f39b306097b20e28774d6c1ad35a20325630c3a02cdf8b4c520ffe197c5343c6f5aec59570151ef9a492f2c624fd45ddde6135ec42",
  "linkReferences": {},
  "deployedLinkReferences": {}
}